:0200000460009A
:100000004643464200000156000000000103030081
:1000100000000000000000000000000000000000E0
:1000200000000000000000000000000000000000D0
:1000300000000000000000000000000000000000C0
:1000400000000000010408000000000000000000A3
:100050000000800000000000000000000000000020
:100060000000000000000000000000000000000090
:100070000000000000000000000000000000000080
:10008000EB04180A063204260000000000000000FD
:10009000050404240000000000000000000000002F
:1000A0000000000000000000000000000000000050
:1000B0000604000000000000000000000000000036
:1000C0000000000000000000000000000000000030
:1000D00020041808000000000000000000000000DC
:1000E0000000000000000000000000000000000010
:1000F0000000000000000000000000000000000000
:10010000D8041808000000000000000000000000F3
:100110000204180804200000000000000000000095
:1001200000000000000000000000000000000000CF
:10013000600400000000000000000000000000005B
:1001400000000000000000000000000000000000AF
:10015000000000000000000000000000000000009F
:10016000000000000000000000000000000000008F
:10017000000000000000000000000000000000007F
:10018000000000000000000000000000000000006F
:10019000000000000000000000000000000000005F
:1001A000000000000000000000000000000000004F
:1001B000000000000000000000000000000000003F
:1001C000000100000010000001000000000000001D
:1001D000000001000000000000000000000000001E
:1001E000000000000000000000000000000000000F
:1001F00000000000000000000000000000000000FF
:10020000FFFFFFFFFFFFFFFFFFFFFFFFFFFFFFFFFE
:10021000FFFFFFFFFFFFFFFFFFFFFFFFFFFFFFFFEE
:10100000D1002043F1150060000000000000000046
:1010100020100060001000600074016000000000FB
:10102000000000600080010000000000FFFFFFFFE3
:10103000FFFFFFFFFFFFFFFFFFFFFFFFFFFFFFFFC0
:10104000FFFFFFFFFFFFFFFFFFFFFFFFFFFFFFFFB0
:10105000FFFFFFFFFFFFFFFFFFFFFFFFFFFFFFFFA0
:10106000FFFFFFFFFFFFFFFFFFFFFFFFFFFFFFFF90
:10140000824205D051F8043B40F8043B8242F9D8AF
:10141000704700BF044A05494FF0000342F8043BFF
:101420009142FBD8704700BFC01E002040790020C9
:1014300080B5BFF34F8F00F0E9F9544C544B0820AE
:101440005449C3F85401544AC3F800115348C3F82F
:10145000F0405349FFF7D4FF524A53495348FFF72E
:10146000CFFF534CFFF7D6FF4FF470004FF0E02151
:101470000023504AC1F8880D44F823200133B02BD3
:10148000FAD14D4B80214D4A03F8011B9342FBD109
:101490004FF0E0254A4F4B4A4FF0FF31C5F8084D59
:1014A0000026D5F8243D43F4E023C5F8243DFB692C
:1014B00023F07F0343F04003FB617B6A23F07F034B
:1014C00043F040037B629166D1661167516700F07B
:1014D000A5F93D4B63223D49A3633D4BE3630323E1
:1014E0006A613C4AAE612B61C5F8202DD5F8FC2D10
:1014F000394B42F08072C5F8FC2D1A6842F00102A7
:101500001A605B680B6000F04DFB344800F0E0FCB3
:10151000F96E334B334A41F44051F9661E60C3F80B
:101520000861C3F81861C3F82861C3F83861936B88
:10153000DB0708D442F615632B4951651365936B9D
:1015400043F001039363274A284C936843F0011347
:10155000936000F0EDF900F067FC00F0A1FC00F0F2
:101560004FFB00F055F92368132BFCD900F054F819
:101570002368B3F5967FFBD300F04EF900F04AF9EB
:1015800000F09EFC00F088FC30BFFDE70C0D11134D
:1015900000800D401B101820F830010000000000F2
:1015A00004220060C01E00200053016000000020E3
:1015B000001C002001B3000000E400E0A0E400E013
:1015C00000C00F4000C00A40FDBB0000747800203E
:1015D00001BC000000002020001000E000366E0179
:1015E0000040084000400D400000C05678780020C0
:1015F000054B4FF42A01054A05485A641864054A08
:1016000099639546FFF714FF00C00A40BFAAAAAA33
:101610000700200000800620314B40F6617210B5B3
:10162000C3F8202140F2044400F042FC2D4A2E4928
:10163000D2F880302D4843F00303C2F880302C4BA1
:10164000C1F8604102681A4203D1D1F8A8319A0763
:101650001BD0254A4FF00041244B5963D2F840314A
:1016600043F00203C2F84031D2F840319B07FBD46B
:101670004FF400304FF0E0211C4B4FF00042C1F816
:101680008C0219209A6300F027FC184A4FF0804022
:10169000154C002190630A20164B11604FF48062B4
:1016A000C4F8A801184600F0FFFB4FF4800203467F
:1016B0004FF4810040F243111860C4F858311A64A5
:1016C0000D4B0E4AC4F84811C3F804224FF0E02233
:1016D0004FF400310123C2F80C11C4F8403110BDA1
:1016E00000800D4000C00F4000002E4000900D40D3
:1016F000001C1E0000000020001C002025A8000087
:1017000008B50E4B1B6E9B0700D4FBBE72B60C4B8C
:1017100000200C4AC3F8400103F160430A49A3F5D5
:101720005F2311649D46BFF34F8F4FF400130748AA
:10173000074ADB6902609B68984700BF00441F406E
:1017400000002E4000C00A4003002000008020203E
:10175000000012EB2B4A0021012310B4C2F8A000B4
:10176000C2F8A410C2F8B0305369DB07FCD50123DE
:101770004FF4803423495361C2F8A000C2F8A4405A
:10178000C2F8B0304B69DC07FCD501234FF40034BC
:101790001C4A4B61C1F8A000C1F8A440C1F8B030A8
:1017A0005369D907FCD50123174C16495361C2F878
:1017B000A000C2F8A440C2F8B0304B69DB07FCD5EA
:1017C000D1F8003145F60D5021249AB24C61824285
:1017D00014D045F69D518A420CD1C3F34253032BDA
:1017E0000CD0A3F104035DF8044BB3FA83F35B0957
:1017F0001801704700205DF8044B704708205DF821
:10180000044B704700402A4004000300704700BFAB
:10181000704700BF704700BF00BF704710B44FF063
:10182000E023002110243248C3F8941DC3F89C4DD6
:101830001124C3F8A00D2F48C3F89C4D1224C3F8FF
:10184000A00D2D48C3F89C4D2C4AC3F8A00D2C4C7C
:1018500042F015022B48C3F89C4DC3F8A00D2A4C4A
:101860002A48C3F89C4DC3F8A00D294CC3F89C2D01
:101870002848294AC3F8A04DC3F89C0DC3F8A02DF1
:1018800002F5A022254C0C322548C3F89C4DC3F824
:10189000A02D244AC3F89C0DC3F8A02D02F140628C
:1018A000214C02322148C3F89C4DC3F8A02D0A32C6
:1018B000C3F89C0DC3F8A02D00BF00BF00BF00BF40
:1018C00000BF0122C3F8942DBFF34F8FBFF36F8F7A
:1018D000C3F8501FBFF34F8FBFF36F8FD3F8142D92
:1018E0005DF8044B42F44032C3F8142D704700BF3A
:1018F0003F00001025000807090010004079002073
:101900001300200021000207140000202500081306
:10191000090000101600202027000B1317000040BC
:10192000180000602F000B07190000701A000080DB
:10193000F0B5824B1822824D0120824F83B0C3F84C
:101940005C528149C3F86072804CC3F86452A5F5BB
:1019500030457F4EC3F8685248F20C75C3F86C42AC
:10196000C3F87042C3F87442C3F878424FF0FF34B2
:10197000DA661A675A679A67DA67C3F88020C3F88D
:101980008420C3F88820C1F82C03724AC1F83003C0
:10199000C1F83403C1F83803C1F83C03C1F850035F
:1019A000B1696D4B0A406D486D4913436D4AB3618F
:1019B000D6F8843043F00C03C6F88430036843F053
:1019C0000203036003682B4021251A43664B026023
:1019D00044608A68654C1340654A43F00053836055
:1019E000C36823F07803C360036A13402343036290
:1019F000036A13405F4A234340F2056443628262F4
:101A0000C2620022D1F8B83023F03F0343F0010353
:101A1000C0F8B830D1F8BC30574923F03F0343F049
:101A20000103C0F8BC3002610567C0F8804045671B
:101A3000C0F884400224036823F00203036081613C
:101A40004E4B4F49C46143F8042B8B42FBD1434DAD
:101A50002B6843F001032B602C6814F00104FBD1C8
:101A60004549022340F2F5622046A96140F29941BE
:101A7000EB6140F26643C5F8002242F20142C5F82C
:101A80001032404BC5F82012C5F8303240F23543D1
:101A9000C5F834223C49C5F840323C4BC5F85012D9
:101AA0003B4AC5F8543242F20123C5F86022C5F81A
:101AB0006432FFF74FFE0646002836D083024FF40B
:101AC00080222B660123C5F8A040244CC5F8A42031
:101AD000C5F8B0306369DA07FCD5012537056561C3
:101AE0003846FFF737FE32182A4BD2B21A7078B157
:101AF00080024FF4802319496066C4F8A070C4F8CE
:101B0000A430C4F8B0504B69DB07FCD501234B610E
:101B100021490024214801230094401A00EB02527D
:101B20001F4800F0D1F903B0F0BD1D4B194A1860F1
:101B30001070D860C3E9010003B0F0BD00801F4001
:101B4000F9B00100F910010000841F40F970010094
:101B500000C00F40FFFCFF1F0003008000402A4030
:101B600000802A401200FFFFFF37F700400000808E
:101B700000FFF07CFF000F83F05AF05A00422A4029
:101B800000432A409F041830EB06180A063201264B
:101B90003806180AEE78002000000070000000707F
:101BA000A0710020F0B4154A40274FF480314FF463
:101BB00080564FF400554FF4404443F242001369FD
:101BC00013F0020F0ED113F4005F0FD013F4805FF7
:101BD0000ED0002BF3DA13F4803F0BD15B060BD54C
:101BE000F0BC7047946151619061E8E75561E6E7A8
:101BF0005661E4E79161E2E75761E0E700800D405C
:101C00003F4A03203F49F3EE095AD2F880304FF0A3
:101C1000000C9FED3D6A23F001039FED3C5A30B468
:101C2000C2F88030C2F89000D1F8E010384DCBB245
:101C3000384C39482B6007EE903A0B0DC1F30B215D
:101C4000F8EEE77A06EE903A07EE101A334BB8EE4C
:101C5000C77A2160F8EEE66A314937EEC66A37EE98
:101C6000C55A76EEC76A77EEE57A26EE266AC3EDA8
:101C7000006A25EE265AD2F8803067EEA64AC0EDFB
:101C8000007AC6EE275A274885EE276AC4EEA76A6F
:101C900075EE875AFCEEE55A36EE076A15EE904A65
:101CA000BCEEC66A43EA045376EE877AC2F8803007
:101CB00016EE103AD2F89041FCEEE77A01EA0341C1
:101CC000214317EE903AC2F89011C3F30B03D2F8F8
:101CD00090110B431449C2F89031D2F8803043F090
:101CE0000203C2F88030114B80F840C0C1F8403187
:101CF0004FF0E023012230BCC3F80821704700BF39
:101D000000810D4000441F400000AA420000B44280
:101D10006478002060780020687800206C780020CB
:101D20000000FF0F00E400E0001C0020E1B500000F
:101D3000B1F5607FF0B50E468DB028BF4FF46076E8
:101D40000F46054672B62E4B0024702218602146BD
:101D50002C4B2D481C8000F0A7F8CFB121462A4813
:101D60004FF0010C4A0901F01F03013150F82240E5
:101D70000CFA03F38E4243EA040340F82230F1D810
:101D8000284600234380013300F582709E42F9D833
:101D90001E4C257815B162B60DB0F0BD082000F0DC
:101DA00073F81B4B80220646009302A90693194B39
:101DB0000271056008A8029300F07EF806A9164A91
:101DC000304600F065F8069B08A8DB689847009B42
:101DD00002A8DB6898472378002BDCD10F4B104A10
:101DE000C3F858210F49D0204FF0E023402281F85A
:101DF0004600C3F808210123237062B60DB0F0BD80
:101E0000185C0020C8780020205C0020E5780020C5
:101E1000AC0B0020ADBE00001B100100001C002018
:101E2000B9BE000000E400E0104BA020104AD96EBB
:101E300041F4403110B4D96640F23764D96E41F4B0
:101E40004071D96654649064936C1B06FCD4094AB3
:101E500040F23761A02351649364936C13F08003C4
:101E6000FBD1054A13705DF8044B704700C00F406A
:101E700000400C4000800C40ED780020F8B500BF19
:101E8000F8BC08BC9E4670475FF800F02DCA000001
:101E90005FF800F04DCB00005FF800F075BE000069
:101EA0005FF800F0A9B700005FF800F0BDDA0000AD
:101EB0005FF800F005BA00005FF800F021BF0000F5
:101EC0005FF800F035DD00005FF800F05DB5000060
:101ED0005FF800F0E9A200005FF800F005B2000032
:101EE0004500000035160000BD170000F117000086
:101EF000211800003918000051180000691800006E
:101F00008118000099180000B1180000C9180000DD
:101F1000E1180000F9180000211A0000391A000029
:101F2000511A0000691A0000811A0000991A000075
:101F3000B11A0000C91A0000E11A0000ED1B0000F0
:101F4000051C00001D1C0000351C00004D1C00007D
:081F5000ED28000051CC000057
:101F580008034D0054005000240354006500650038
:101F68006E007300790020004D00490044004900CC
:101F78002F0041007500640069006F0018035400C9
:101F8800650065006E0073007900640075006900E3
:101F98006E006F000403090409022901060100C04C
:101FA80032080B00020202010009040000010202CB
:101FB8000100052400100105240101010424020682
:101FC800052406000107058203100010090401001A
:101FD800020A00000007050302400000070583020B
:101FE80040000009040200030601010007058402FD
:101FF8004000000705040240000007058703200091
:102008000A080B0303010100000904030000010191
:1020180000000A240100013E000204050C2402010C
:102028000206000203000000092403020101000166
:10203800000C24020301010002030000000A240628
:1020480031030101020200092403040206003100E1
:10205800090404000001020000090404010101024E
:102068000000072401020301000B240201020210F0
:102078000144AC0009058509B400010000072501E9
:102088000000000009040500000102000009040521
:10209800010201020000072401030301000B2402CE
:1020A800010202100144AC0009050505B400010055
:1020B80086072501000000000905861103000105B7
:1020C8000000000009022901060100C032080B00C7
:1020D80002020201000904000001020201000524B5
:1020E800001001052401010104240206052406004C
:1020F800010705820310000509040100020A000017
:102108000007050302000200070583020002000918
:102118000402000306010104070584020002000707
:1021280005040200020007058703200007080B03C7
:1021380003010100000904030000010100000A2452
:102148000100013E000204050C24020102060002FF
:10215800030000000924030201010001000C24020D
:102168000301010002030000000A240631030101F3
:1021780002020009240304020600310009040400D5
:102188000001020000090404010101020000072403
:1021980001020301000B2402010202100144AC00F9
:1021A80009058509B40004000007250100000000A6
:1021B80009040500000102000009040501020102EA
:1021C8000000072401030301000B2402010202108E
:1021D8000144AC0009050505B40004008607250183
:1021E8000000000009058611040004070000000033
:0C21F8000A060002EF0201400100000096
:1022040000000000000000000000000000000000CA
:1022140000000000000000000000000000000000BA
:102224000548064B1B1AD90F01EBA301491002D034
:10223400034B03B118477047C01E0020C01E002086
:102244000000000008B5054B1BB105490548AFF374
:102254000080BDE80840FFF7E3BF00BF00000000B6
:10226400507400200080016000207047704700BF58
:10227400036D0BB101207047406D003818BF012079
:10228400704700BF1E4A1F4B1F4910B514681079D0
:102294002269C8779A420AD21C4A127862B34FF074
:1022A400E022402103F5007EC2F8081202E09E46B7
:1022B400A3F500731649174A08681268D8B1D2B159
:1022C400154C2188402916D801F1020C403100EB4D
:1022D4004C00218002EB4C0C104A146853F8081B84
:1022E40053F8042C21419E4542FA04F220F8021BC3
:1022F4002CF8022BF2D810BD03F5007EDAE700BFFC
:10230400C85D0020E059002000800E40EA780020DB
:10231400C05D0020C45D0020CE7800207014002031
:10232400F8B506460BF006FFC0B104460BF002FFF9
:10233400054680B172B61E4B1A887F2A17D81D49EC
:102344000A6872B362B620460BF04AFF2846BDE81D
:10235400F8400BF045BF20460BF042FF72B6144B19
:102364001A887F2A01D862B6F8BD00252C46114888
:102374000022114907681A8004600C680D6062B677
:10238400394630460BF054FF38460BF029FF3046EF
:10239400214601220BF04CFF2046BDE8F8400BF02B
:1023A4001FBF0C6004491A80086062B6F8BD00BF04
:1023B400CE780020C05D0020C45D002010B5044626
:1023C400806D18B10CF068FD0023A365236D2BB15B
:1023D40004F11800BDE8104007F0E6B9636D002B66
:1023E400F6D110BD10B504460BF07EFD204610BD9D
:1023F40010B50446806D00B110BD4FF480700CF030
:1024040043FDA065B0B10022236D02703BB10146CB
:102414004FF48072184605F0C1F9A06D10BD636DCC
:10242400002BE9D001464FF48072184603F0FAF805
:10243400A06D10BD014B1846A36510BDEC780020BB
:1024440038B5056D6DB10BB1002038BD1146284675
:1024540005F00AFF0028F7D02846BDE8384006F00A
:10246400A5B8446D002CEFD0204603F00BFB0028E8
:10247400EAD02046BDE8384004F00CBC8A79A2F1C9
:1024840050031B0622D402F26C72F0B54B7985B06E
:10249400046D01330D798E784F78DBB209784CB135
:1024A400204601960095CDE90271022106F012F84A
:1024B40005B0F0BD406D0028FAD001960095CDE935
:1024C4000271022104F02AFB05B0F0BD0020704720
:1024D40010B50446006D80B1037813F0700F00D17D
:1024E40010BD002105F0C0FE606D0028F8D0002268
:1024F4000023BDE8104003F0C5BA606D0028EFD09A
:1025040090F8313013F0500FEAD000220023BDE8D8
:10251400104003F0B7BA00BF036D10B50C4682B08B
:102524002BB30DF1060201A9184605F043FA38B39E
:10253400BDF80430BDF8062053EA020120D0C2F3EE
:10254400451C02F01F00D20AC3F34311400084F873
:1025540001C0A2705A0A013903F01F0302F5EA62AE
:102564002070012061712371A27102B010BD406D11
:1025740030B10DF1060201A903F02AF90028D7D1E0
:10258400002002B010BD00BF036D10B50C4682B030
:102594002BB30DF1060201A9184605F0FBF938B377
:1025A400BDF80430BDF8062053EA020120D0C2F37E
:1025B400451C02F01F00D20AC3F34311400084F803
:1025C40001C0A2705A0A013903F01F0302F5EA623E
:1025D4002070012061712371A27102B010BD406DA1
:1025E40030B10DF1060201A903F0E0F80028D7D1BB
:1025F400002002B010BD00BF0369D3B10E4810B46F
:102604001C68E46884420FD1186D18B15DF8044B5E
:1026140006F006B8586D18B15DF8044B04F0ACBB75
:1026240000205DF8044B7047184623465DF8044BC0
:1026340018470020704700BF01070000036963B119
:102644001A68074992698A4208D1186D08B105F0E1
:102654003BBF586D08B104F0EBB8704718461047FB
:10266400ED060000006990B10368154A1B699342A6
:1026740025D1036D63B1187810F0080007D0D8692C
:102684005B69C01A48BF6FF0004070471846704736
:10269400436D002BFAD093F8310010F00800F6D007
:1026A400186919685A69401A5B6862EB0303B0F150
:1026B400004F73F10003EAD36FF0004070471847EE
:1026C400FD070000036973B11A68084952698A4218
:1026D40007D1186D08B105F053BC586D18B103F05B
:1026E400BBB9184610474FF0FF3070473106000061
:1026F400036923B31968134A10B58C6882B09442F5
:1027040014D1186D48B101220DF1070105F064FBE5
:1027140090B19DF8070002B010BD586D0028F8D0A4
:1027240001220DF1070103F0C7F8F1E701220DF1D1
:1027340007011846A047EBE74FF0FF30EBE74FF0F7
:10274400FF30704789060000036D13B158690021FA
:102754007047436D13B1D3E9000170471846194619
:10276400704700BF036D13B1D86900217047436DF2
:1027740013B1D3E90401704718461946704700BFE6
:10278400F0B595B000224FF47A74244F1831054601
:1027940004A88DF80C200097CDE90124CDE912227C
:1027A40007F06EF8129B002B2DD05C2000260CF055
:1027B4003DFA019B04464660C36004A9029B18309D
:1027C40040F8083C9DF80C3000F8043C144B40F8E9
:1027D400183C144B40F8103C06F0A4FF124B4FF485
:1027E4007A72A7602B606368A66501336E602E73EE
:1027F400AA602C6163600D4B04A8009306F0D4FF1B
:10280400284615B0F0BD139B002BCED1064A2B737E
:102814002A602B61C5E90134EDE700BF580A0020A6
:10282400880A0020E40A00202C0A00204C09002019
:10283400036D13B1184605F0A3BB406D08B103F056
:102844000BB94FF0FF307047836C13B1184605F095
:1028540097BBC06C08B103F0FFB84FF0FF3070476E
:10286400036D33B11B7813F0700F14BF01200020E7
:102874007047406D30B190F8313013F0500F14BFF1
:1028840001200020704700BF036D13B1184605F006
:10289400A3BA406D08B103F00FB84FF0FF30704792
:1028A400836C00B583B063B101220DF107011846B2
:1028B40005F092FA01280CD19DF8070003B05DF8E9
:1028C40004FBC06C28B101220DF1070102F0F4FFF2
:1028D400F0E74FF0FF30F1E7836C13B1184605F0D1
:1028E400F3BDC06C08B103F0A3BF7047036D13B10F
:1028F400184605F0E9BD406D08B103F099BF704773
:10290400036D13B1184605F08BBE406D08B104F099
:1029140033BA7047836C13B1184605F081BEC06C9E
:1029240008B104F029BA704700B5836C83B08DF800
:10293400071043B101220DF10701184605F070FE9E
:1029440003B05DF804FBC06C0028F9D001220DF13E
:10295400070104F011FA03B05DF804FB8A79A2F1CF
:1029640050031B0622D402F26C72F0B54B7985B089
:10297400046D01330D798E784F78DBB209784CB150
:10298400204601960095CDE90271042105F0A2FDCF
:1029940005B0F0BD406D0028FAD001960095CDE950
:1029A4000271042104F0BAF805B0F0BD00207047AC
:1029B400836C53B1187810F008000DD0D8695B69A6
:1029C400C01A48BF6FF000407047C36CA3B193F8BE
:1029D400310010F0080000D17047186919685A696D
:1029E400401A5B6862EB0303B0F1004F73F100031C
:1029F400F2D36FF0004070471846EDE7036D53B112
:102A0400187810F008000DD0D8695B69C01A48BF67
:102A14006FF000407047436DA3B193F8310010F09C
:102A2400080000D17047186919685A69401A5B6830
:102A340062EB0303B0F1004F73F10003F2D36FF0C4
:102A4400004070471846EDE700B5006983B08DF883
:102A5400071060B10368104ADB68934215D1036D17
:102A640043B101220DF10701184605F0D9FD03B069
:102A74005DF804FB406D0028F9D001220DF1070137
:102A840004F07AF903B05DF804FB01220DF10701AB
:102A9400984703B05DF804FB0107000038B504460D
:102AA4000C4B806D236018B10CF0F6F90023A3657C
:102AB400236D04F118054BB1284606F075FE064B4C
:102AC4002846A36006F070FE204638BD636D002BD7
:102AD400F2D1F4E7880A00204C09002038B50446F6
:102AE4000E4B806D236018B10CF0D6F90023A3655A
:102AF400236D04F118056BB1284606F055FE084B0A
:102B04002846A36006F050FE20465C210CF090F8A5
:102B1400204638BD636D002BEED1F0E7880A002013
:102B24004C09002030B4029C11469C4634B1012C5F
:102B34001CD0022C0ED0002030BC7047056DF5B1BE
:102B44004FF0FF33934274EB0C04F4D3284630BCAB
:102B540005F08ABB026D0AB3D36959184CF100031E
:102B6400002BE8D1104630BC05F07EBB026D62B18B
:102B7400536959184CF10003002BDCD1F2E7406D86
:102B84000028D8D030BC02F07DBF406D0028D2D0E0
:102B9400D0E900238A184CEB0303F3E7406D0028C7
:102BA400C9D0D0E9042330BC8A184CEB030302F0EB
:102BB40069BF00BF70B5244B044605690360002D4E
:102BC40032D06E68013E6E6076BB2B681F4ADB6AAA
:102BD40093422FD1A86D10B10CF05EF9AE652B6D48
:102BE40023B305F1180006F0DFFD2569E5B12B6874
:102BF400174A5B68934224D1164BA86D2B6018B119
:102C04000CF04AF90023AB652B6D05F11806A3B14E
:102C1400304606F0C9FD104B3046AB6006F0C4FDEB
:102C24005C2128460CF004F8204670BD6B6D002B27
:102C3400D7D1DAE728469847D7E76B6D002BE7D161
:102C4400E9E728469847EFE72C0A0020BD01000079
:102C5400DD080000880A00204C09002070B5264BCE
:102C6400044605690360002D32D06E68013E6E6033
:102C740076BB2B68214ADB6A934233D1A86D10B12D
:102C84000CF00AF9AE652B6D43B305F1180006F09C
:102C94008BFD2569E5B12B68194A5B68934228D1FD
:102CA400184BA86D2B6018B10CF0F6F80023AB6537
:102CB4002B6D05F11806C3B1304606F075FD124BB5
:102CC4003046AB6006F070FD5C2128460BF0B0FF87
:102CD400204614210BF0ACFF204670BD6B6D002B19
:102CE400D3D1D6E728469847D3E76B6D002BE3D1C1
:102CF400E5E728469847EBE72C0A0020BD010000D1
:102D0400DD080000880A00204C090020324A3349BB
:102D1400D36F43F44023D3678B68002B5ADBD1F87D
:102D24008830002B56DB2E4B42F210722D484FF4A4
:102D34000C6130B41867C3F88010C3F890201A6F80
:102D440022F480521A671A6F002AFCDAD3F8700151
:102D54000025254A20490240244C2548C3F8702107
:102D64001A6F22F480321A67CA69224B22F4406235
:102D740042F40062CA618A6A13401F4A43F0CE03D8
:102D84008B62032163681A40144B42F40022626090
:102D940001241A4AC0F82011C0F82811C0F82411DF
:102DA4004FF480301D661649DC601A61154A58617B
:102DB4009961DA61C3F8E050C3F88C4004F1E0642F
:102DC400C3F89040C3F89400C3F89810C3F89C204B
:102DD40030BC7047704700BF00C00F40004038400F
:102DE40000800D401C201100FF7F7FFF00C00A40BF
:102DF40000801F4000FEFFFFF8FFF7FF01000047BF
:102E04001B1F0100001F1F1F38B5244C054601215C
:102E140020460BF005F82846FFF778FF20490320E9
:102E2400204B02220625C1F87C01C3F89421042218
:102E340023681D499A6059609A824FF480721B4836
:102E44001B49186000201961DA822179DA839D8395
:102E5400A5F20645174AD8609D6142F8210016483C
:102E6400164B42F82100164AC3F888200BF01CFBCD
:102E74002379144C0121144A207003F11000134CDF
:102E840002EB5312E37603F01F039200104C9940B7
:102E9400104B43F82040116038BD00BFC85D0020CE
:102EA40000801F4000841F4000000202A040384000
:102EB400E057002000C00E4013000080004038405E
:102EC40001000092EA7800204038003800800E406B
:102ED40085000000001C002030B587B004460AF0CD
:102EE40005FC1D4B02461D4D83FB0213D1172868B8
:102EF4001344C1EBE32383422AD02B600AF0F6FB90
:102F040004AA002100F0AEFF9DF816209DF81410CD
:102F14009DF8150002F2B2729DF81250104BCDE9E3
:102F240002151B680F49CDE900200F4A204612689C
:102F34000CF04CFD01210D4809F058FA20460DF023
:102F44007FF80146204609F051FA012007B030BD50
:102F5400002007B030BD00BFC5B3A2914874002063
:102F6400D457002078050020F0130020200800200A
:102F740030B58BB004460AF0B9FB002108AA00F072
:102F840071FF9DF82100184B069018689DF82210D7
:102F940004909DF820509DF824009DF82620134BA2
:102FA400079502F2B2721B680591CDE902019DF802
:102FB40025000F49CDE900200E4A204612680CF086
:102FC40005FD01210C4809F011FA02210B4809F012
:102FD4000DFA20460DF034F80146204609F006FAB1
:102FE40001200BB030BD00BFFC130020D4570020DB
:102FF40044050020F0130020200800207405002060
:1030040030B5002589B004460AF070FB06AA2946AB
:1030140000F028FF9DF818109DF8192020469DF80F
:103024001E30CDE903219DF81A1003F2B2739DF806
:103034001C20CDE901219DF81D10104A0091104972
:103044000CF0C4FC0A21431C0E4A0E20E150234418
:1030540011684FF055321862012059604AF6444114
:1030640099603C21C3E903014FF49671C3E9065505
:103074005961C4F8FC2109B030BD00BFF004002040
:10308400F8040020D45700202DE9F04194B005281D
:1030940000F23681DFE810F060009600BB00DB0030
:1030A40006000600994D2C69002C00F02981236844
:1030B400974EDB6AB34240F02582A06D18B10BF045
:1030C400EBFE0023A365236D002B00F0038204F1C3
:1030D400180006F069FB2F697C68013C7C60002CB9
:1030E40033D13B68DB6AB34240F02382B86D10B140
:1030F4000BF0D2FEBC653B6D002B00F0068207F19D
:10310400180006F051FB2C69FCB12368814A5B6806
:10311400934240F01A82804BA06D236018B10BF0EB
:10312400BBFE0023A365236D04F11806002B00F0F9
:10313400C981304606F038FB784B3046A36006F070
:1031440033FB5C2120460BF073FD00234FF0FF306E
:103154002B6114B0BDE8F0817148FFF7BDFE002873
:1031640000F0FF806F4CD4F88424002A00F0EA8039
:103174006D46002311466A4A2846009304F0D8FDA0
:10318400002840F0EE80D4F88464002E00F0FA8128
:1031940000240123624A06F589612846009404F05C
:1031A400CFFC002840F0DD805F480BF015FD0922BC
:1031B4005E495D480AF072FF5B480BF00DFD4FF06D
:1031C400FF309FE05A48FFF71BFF504B1B698BB140
:1031D4001968584ACC68944240F0A581186D0028BB
:1031E40000F055814FF40072514905F019FAB0F519
:1031F400007F28D24C480BF0EFFC0C214E4809F01C
:10320400F5F849480BF0E8FC4FF0FF307AE04B4A00
:103214003E4913680C6901331360002C00F01F81D0
:103224002368444ADB68934240F08981206D00287A
:1032340000F024814FF48052414905F0F1F9B0F5D2
:10324400805FC0F00C81022014B0BDE8F0812F4DE6
:103254002C69002C00F0438123682D4EDB6AB342B5
:1032640040F06A81A06D18B10BF016FE0023A3652F
:10327400236D002B00F04E8104F1180006F094FA3F
:103284002F697C68013C7C60002C33D13B68DB6A8D
:10329400B34240F01C81B86D10B10BF0FDFDBC656C
:1032A4003B6D002B00F0548107F1180006F07CFA06
:1032B4002C69FCB12368174A5B68934240F05A8139
:1032C400154BA06D236018B10BF0E6FD0023A36538
:1032D400236D04F11806002B00F04481304606F0FB
:1032E40063FA0E4B3046A36006F05EFA5C2120467A
:1032F4000BF09EFC002318462B6114B0BDE8F0814E
:103304004FF0FF3014B0BDE8F08100BFB47100206D
:10331400BD010000DD080000880A00204C090020DF
:103324000861002000530020501400209405002060
:103334004872002001070000C805002088710020A1
:1033440088610020D4F8881400293FF42DAF6D461D
:1033540013460C9228469C4A02F052FE00283FF481
:1033640012AF9A48FFF704FE002800F01F8140F2D4
:103374000223964A9649684606F02EFB129B002BC0
:1033840000F0AF805C2000250BF050FC914B9DF8C1
:103394000C2004460360904B456002758360DFF89F
:1033A4006882DDE90161C0E9036104A9183006F00F
:1033B400B9F96368894A04A80133A565884DA260F8
:1033C4006360CDF8008006F0EFF92E69002E53D02B
:1033D4007768013F7760002F34D13368814ADB6A14
:1033E400934240F0C480B06D10B10BF055FDB76549
:1033F400336D002B00F0B18006F1180006F0D4F90B
:103404002E69FEB13368784A5B68934240F0CB8002
:10341400704BB06D336018B10BF03EFD0023B36503
:10342400336D06F11807002B00F0A780384606F02C
:10343400BBF93846C6F8088006F0B6F95C21304678
:103444000BF0F6FB2C61002C2FD02368674A1B6B12
:10345400934226D1236D002B61D0012052E76448AA
:103464000BF0BAFB0A21634808F0C0FF60480BF078
:10347400B3FB4FF0FF3045E72C61E6E7606D0028B1
:10348400EDD04FF480525C4903F076FCD7E6586DDA
:1034940000283FF4AFAE4FF40072584903F06CFCBF
:1034A400A5E6204698470028D7D151480BF094FB55
:1034B4001121534808F09AFF4D480BF08DFB4FF053
:1034C400FF301FE7636D002B7FF433AE34E63846DC
:1034D4009847EDE6636D002B7FF4F9ADFBE52046DC
:1034E40010E7139C002C7FF44DAFDFF81C8104A877
:1034F4003B4DCDF8008006F057F92E69002E7FF47D
:1035040067AFD2E720469847E5E57B6D002B7FF453
:10351400F6ADF8E5636D002B7FF4AEAEB0E6636DF7
:10352400002B9AD1C1E74FF4007234491846A047E2
:103534005DE638469847E6E520469847A0E64FF40E
:1035440080522D492046984779E620469847FCE565
:103554007B6D002B7FF4A8AEAAE6736D002B7FF47D
:103564004BAF4DE7636D002B7FF4B8AEB9E6304640
:10357400984745E720469847BCE6736D002B7FF4D7
:1035840055AF56E7D4F8881400293FF40DAE012353
:103594000D4A01F5896128460C9603F053FA002878
:1035A4003FF402AEDDE6304698474BE710480BF097
:1035B40013FB1021134808F019FF0D480BF00CFB06
:1035C4004FF0FF309EE600BF08610020C871002064
:1035D40004530020880A0020E40A0020580A00202E
:1035E400B4710020BD010000DD080000710000007E
:1035F40050140020D8050020886100204872002063
:10360400B4050020A00500204C090020F8B50524CD
:10361400104E114D114FFE21304601F0EBF90346D7
:103624001C21284653B908F0E1FE38460BF0D4FAC1
:10363400642009F0E7FE013CEDD1F8BD0D210848F6
:1036440008F0D4FE05480BF0C7FA064B01221A8095
:10365400F8BD00BF005300201405002050140020C2
:1036640034050020D478002010B53C210B4811F01B
:1036740037FE0B490E200B4B0B4A0860D3F820325F
:103684000A4C23F07F431360FFF7C0FF204600F08D
:103694005FFB012384F8663310BD00BF00002020C7
:1036A4007014002000441F40D4570020A47400204C
:1036B400F0B587B008F030FE002841D14D4EB6F980
:1036C40000400AF013F84C4B012CA3FB00234B4A97
:1036D4004FEA5313C3EB0313A0EB830303DD116819
:1036E4008B4238BF032446481360348000F024FB27
:1036F4000F281BDD434C424D04F58057284600F04B
:103704004BFB4FF4807201462046144408F0A8FA9B
:10371400284600F05FFBA742F0D13B4BB6F900000E
:10372400B3F900300BB1FFF7AFFC30803749384AAA
:103734000B6810681B1AB3F57A7F13D807B0F0BD75
:1037440008F02EFEC0B2732841D0652843D1294E1B
:103754000423338001E008F023FE08F0DDFD002897
:10376400F9D1ACE72B4B08681C6826491060621C31
:10377400B1F90070284D1A6009F0B8FFB6F90030AD
:103784002246049705932C68DFED246AE4021A4963
:1037940007EE904AA1FB0031214CF8EE677A490903
:1037A400C1EB011186EEA77AA0EB81031D491E48E7
:1037B400B7EEC77A8DED027B268800960BF028FAC7
:1037C4001A4B00221B882A60238007B0F0BD094EE3
:1037D40000233380C1E7622806D14FF0E023144A66
:1037E400044EC3F80C2DB8E77A2801D111F07CFD02
:1037F400004EB2E7D078002089888888807800203D
:10380400A474002088610020D478002078780020F7
:10381400DC5D0020D85D00208871002000442C4726
:10382400C2780020C011002050140020C07800206D
:103834000400FA0570B54F4A82B04F4900244F483E
:103844000BF01CFB4E484F4B4FF47A714E4D494AD6
:103854000360047304614D4EC0E901414C490BF00F
:103864000DFB4C4A2B68166014611481D460002B44
:1038740079D019465B69002BFBD14A610024464B81
:1038840044481360546154609472FFF7BDFA434A8C
:103894002B681146D46041F8186B11614FF4007124
:1038A400C2E906441181002B61D019465B69002BE3
:1038B400FBD14A6100243A4B384813605461546088
:1038C40094720AF0EDFF374A4FF480702B6811466A
:1038D400D460946141F8186B10811161002B44D0BD
:1038E40019465B69002BFBD14A6100242E4B2F48FB
:1038F40082F86443546182F865435460947213609F
:10390400C2F8604382F866430AF0E6FC234B224681
:103914002049009425480AF053FD164A24492348B7
:103924000BF0ACFA23480AF0D7FC01221B4B00929F
:10393400184920480AF044FD0E4A1D491D480BF061
:103944009DFA1D480AF0C8FC22461249154B009402
:1039540019480AF035FD074A1549174802B0BDE871
:1039640070400BF08BBA2A6088E72A60BDE72A60B2
:10397400A0E700BF80140020E5010000C85D00201E
:10398400B47100202C0A00201C5C00207009002067
:10399400B5090000F06000207C0A00208478002033
:1039A4007C090020A4740020880900206874002089
:1039B40075C200007C74002090740020024A034900
:1039C40003480BF05BBA00BF80140020E50100003F
:1039D400685D002010B5054C04F108000AF084FA73
:1039E4002046BDE810400AF07FBA00BFE85C002022
:1039F40010B5084C002120460AF012FA04F1080020
:103A040000210AF00DFA044A04490020BDE81040E0
:103A14000BF034BAE85C002080140020D5170000B5
:103A2400024A034903480BF029BA00BF801400205E
:103A3400E5010000985C0020024A034903480BF0AA
:103A44001DBA00BF80140020E5010000905D002035
:103A5400024A034903480BF011BA00BF8014002046
:103A6400E5010000705D0020024A034903480BF0A1
:103A740005BA00BF80140020E5010000485D002065
:103A8400024A034903480BF0F9B900BF801400202F
:103A9400E5010000D05C0020024A034903480BF012
:103AA400EDB900BF80140020E5010000305D002066
:103AB400024A034903480BF0E1B900BF8014002017
:103AC400E5010000C85C0020024A034903480BF0EA
:103AD400D5B900BF80140020E5010000C05C0020BF
:103AE400024A034903480BF0C9B900BF80140020FF
:103AF400E5010000585D0020024A034903480BF029
:103B0400BDB900BF80140020E5010000885D0020DD
:103B140030B482B00C4602AB03E90600C37C002B30
:103B240030D072B6C37CDA0708D54FF0E02145697E
:103B3400D1F880212A408262C1F880219D0708D5EE
:103B44004FF0E0218569D1F884212A40C262C1F88E
:103B54008421590708D54FF0E021C569D1F888219F
:103B64002A400263C1F888211A0708D54FF0E021E2
:103B7400056AD1F88C212A404263C1F88C21DB0606
:103B84002FD462B683689C4235D0224B84609B69F3
:103B9400214AC3F30111C3F3826352F821100133A4
:103BA400B1FBF3F2CCB1944227D8B2FBF4F3B2FBED
:103BB400F3F294422CD3B3F5817F20D3174CC46025
:103BC400036803220020019918615A6201221C64CF
:103BD40019661A6102B030BC70479942EFD3531C86
:103BE400E9E74FF0E022416AD2F890310B40836359
:103BF400C2F89031C5E7C468E2E70024DFE7022B8E
:103C0400FBD9023B5A08140244EA02441C43D6E797
:103C14001A46E4E700C00F40BC0B0020FF7F7F0082
:103C2400024A034903480BF029B900BF801400205D
:103C3400E5010000285D0020024A034903480BF017
:103C44001DB900BF80140020E5010000205D0020A4
:103C5400024A034903480BF011B900BF8014002045
:103C6400E5010000605D0020024A034903480BF0AF
:103C740005B900BF80140020E5010000405D00206C
:103C8400024A034903480BF0F9B800BF801400202E
:103C9400E5010000F85C0020024A034903480BF0E8
:103CA400EDB800BF80140020E5010000A85C0020EE
:103CB400024A034903480BF0E1B800BF8014002016
:103CC400E5010000385D0020024A034903480BF077
:103CD400D5B800BF80140020E5010000805D0020FD
:103CE400024A034903480BF0C9B800BF80140020FE
:103CF400E5010000E05C002010B5002104460AF054
:103D0400BBFA98B194F866338BB194F8643394F8A1
:103D140065130133D12BA8BF0023994207D0991D05
:103D2400DBB204EB8101486084F8643310BDBDE864
:103D340010400AF055BA00BF90F8641390F8652358
:103D4400CBB29142D0B238BFD133181A704700BFFA
:103D540038B50546D0F8600320B10AF041FA0023D3
:103D6400C5F8603395F8652395F86433D4B29A4264
:103D7400D9B20ED00134D12C28BF0024A31D05EBE9
:103D8400830358680AF02CFA95F86433A342F1D1FE
:103D9400E1B285F8651338BDD0F86023B2B990F864
:103DA400651390F864C3CBB261450DD00133D02BB9
:103DB4008CBF1346DAB2063300EB83035B6880F8EA
:103DC40065231A1DC0F86033104670470022104660
:103DD400704700BF10B50446D0F8600320B10AF064
:103DE400FFF90023C4F8603310BD00BF024A034941
:103DF40003480BF043B800BF80140020E501000025
:103E0400B85D0020024A034903480BF037B800BFED
:103E140080140020E5010000A05C0020024A034950
:103E240003480BF02BB800BF80140020E50100000C
:103E3400D85C0020024A034903480BF01FB800BFB6
:103E440080140020E5010000785D0020024A034947
:103E540003480BF013B800BF80140020E5010000F4
:103E6400505D002053492DE9F047A1FB004340F287
:103E74006D1A514F5B09DFF85081DFF85091A1FBB7
:103E84000341C3EB03144909A0EB84004B4CC1EB81
:103E94000115A4FB014EA3EB850310704FEA1E1E0F
:103EA40053700EF104040EEB4E00454BA1EBC00120
:103EB400A3FB040300209170E11A03EB51030146B4
:103EC4009B08C3EBC303E41A0134D470C4B240F2B8
:103ED4006D1C04F2B27313F0030507FB03F608D15B
:103EE400B8EBB60F4FF4B77C03D3B9EB361F38BF2A
:103EF400D446614401308E45E8D2324E9471A6FB1B
:103F0400030695B3770964244FF4C870F60904FBDB
:103F1400173700FB163640F26D10AEEB010E00238E
:103F240001217044DFF8A8E00AE013F80E4084424F
:103F340032D80C29A0EB04000FD001310133C9B2EF
:103F4400012B5FFA83FCF0D115B9DFB11D2400E029
:103F54001C24A0422AD3001BEFE74FF00D0C0130C4
:103F640082F805C01071BDE8F08764207709F6096E
:103F740000FB17374FF4C87000FB16363FB14FF4FF
:103F8400B770CAE7002E14BF1C241D24E1E7002EDD
:103F9400C1D14FF4B770C0E70CF1010C01305FFAE6
:103FA4008CFC107182F805C0BDE8F0874FF0020C5C
:103FB400D5E700BF89888888295C8FC2ABAAAAAAE2
:103FC400254992241F85EB51285C8F020AD7A30050
:103FD400E407002090F81CC04160BCF1020FC260ED
:103FE40001D18368184709F0A5BE00BFF0B4046886
:103FF40040F201251E462561A3B121B311F8015BEE
:10400400013B6566256FAF0707D41546013E676F10
:104014001AB105F8017B2A4604686569ED07F1D5F4
:10402400002BEAD16EB10368196F8907FAD41146DF
:10403400013E5B6F002AF5D001F8013B0A46002ED1
:10404400F1D1F0BC704790F83C50D9E7324B33497A
:1040540030B5D3E911542079C8771A6C95F804C0A7
:1040640081F81CC0087752B1B2F5004F23D32C4914
:1040740011442A4A1964D07682F81BC030BD1968ED
:104084000F24D86C8C6540F20134CA610C614FF482
:104094007C544C6103210468246883F83D10214B4F
:1040A4009C4226D1037F4260022BC26026D18368E2
:1040B400BDE8304018472D68E98B090422D492B238
:1040C400EA832168EC8BA4B2EC82CC8B240405D562
:1040D400CC8BC2F3080204F47E442243CA83CA8B05
:1040E40092B2CA8200210D4A1964D07682F81BC0AC
:1040F40030BD23461146BDE830401847BDE8304086
:1041040009F018BEE98BC2F3080E92B201F47E41A5
:1041140041EA0E01E983D4E70014002000800E4038
:104124000180FFFFD51D000043682DE9F04FD3E95E
:104134000041814D4FF0B80A22684FF0020822EA8C
:1041440001027E492260AA6911407D4A0A43AA619C
:1041540090F810E07B4A03EB0E0603EB8E0E317CE5
:1041640002EB01118968C1F800A090F811C003EBBB
:104174000C050CF10A0C95F8241002EB0111896866
:10418400C1F800A0817C03EB010903EB810199F8DC
:1041940038B002EB0B1BDBF808B0CBF800A0D4F866
:1041A40000A05F684AEA070AC4F800A0347CDEF87D
:1041B40014E002EB04146468C4F800E095F82440A9
:1041C40053F82CC002EB04146468C4F800C0C96B33
:1041D40099F8384002EB0412526811609A6C99F80D
:1041E400441011601A6A317F5B6B116095F83020BE
:1041F4001A600F220368C3F810809A65C27C002AF3
:1042040031D072B6C37CDC0708D54FF0E021446995
:10421400D1F8802122408262C1F88021990708D513
:104224004FF0E0218469D1F884212240C262C1F8B0
:1042340084215A0708D54FF0E021C469D1F88821B8
:1042440022400263C1F888211F0708D54FF0E021FE
:10425400046AD1F88C2122404263C1F88C21DE0625
:1042640055D462B60368384C8268A24259D0324AA7
:10427400846092693549C2F30116C2F38262344DF7
:1042840051F826100132B1FBF2F2AA4231D80022D1
:10429400C260002403211C610724596201211A64AD
:1042A4001C661961C37C13B3DD0704D5816A4FF022
:1042B400E022C2F800119C0704D5C16A4FF0E02245
:1042C400C2F80411590704D5016B4FF0E022C2F87B
:1042D40008111A0704D5416B4FF0E022C2F80C1103
:1042E400DB0604D5826B4FF0E023C3F81021BDE850
:1042F400F08F1849A1FB0251090DB2FBF1F2A24261
:1043040088BF0131B1F5817F0DD3134AC0E74FF067
:10431400E022416AD2F890310B408363C2F89031B5
:104324009FE7C268B5E70229B1D902394C082202D5
:1043340042EA04420A43ABE700C00F40CFFFFFE369
:1043440010000008500E002000093D00BC0B0020A6
:10435400FF083D0083DE1B43FF7F7F000BB1FFF7A7
:1043640045BE70474368D3E900120968114200D181
:10437400704710B502680446002005211061227CB4
:104384001344187C09F09AFA627C6368052113448B
:1043940093F8240009F092FA6368A27C052113447F
:1043A400BDE8104093F8380009F088BA002070473F
:1043B400704700BF30B583B005460C4609F096F946
:1043C4001C4B984204D800232B80238003B030BDBB
:1043D400694609F0A3FD9DF805309DF806200133D8
:1043E4009DF80410503ADBB292B21F2998BF0C2BEF
:1043F40001D87F2A18D900219DF802209DF80130A8
:104404002980172A98BF3B2B9DF8001001D83B291F
:1044140003D90023238003B030BD5B0143EAC223E8
:1044240043EA51039BB2F5E741EA431141EA4221D1
:1044340089B2E1E7FFA5CE1210B5044640F2D4419B
:104444000AF0F6FB204610BD012BF0B5054695B0E9
:104454003DD0022B40F2022001F104010CBF0346BF
:104464000023684605F0B8FA129B002B38D05C2074
:1044740000260AF0DBFB214B04AF0446C0E90036FA
:10448400019B3946183040F80C3C1D4B40F8103C59
:10449400029B40F8083C9DF80C3000F8043C05F001
:1044A40041F9184B4FF47A72A665A360164B6E60FF
:1044B4002B6063682E730133AA602C616360134B15
:1044C4003846009305F070F9284615B0F0BD44F263
:1044D40002230431684605F07FFA129B002BC6D1F3
:1044E400139B002BC3D14FF47A71074A04AF2B738B
:1044F4002A602B61C5E90131E1E700BF880A002089
:10450400E40A0020580A00202C0A00204C0900204C
:1045140010B5D0F884448EB00A4644B10023214635
:104524006846009303F004FC80B90EB010BDD0F8C7
:10453400881441B1234668460C9401F061FD50B9DA
:1045440000200EB010BD08460EB010BD684603F042
:1045540043FE0EB010BD684602F09EF80028EFD06E
:10456400E3E700BF70B5D0F884548EB016465DB151
:1045740005F5896500230A4668462946009303F039
:1045840055FB90B90EB070BDD0F888040028F9D05E
:1045940000F589640A462B46684621460C9501F0CD
:1045A400B3FC48B900200EB070BD324629466846B7
:1045B40003F01CFD0EB070BD32462146684602F081
:1045C400BFF90028EED0DDE710B5D0F884448EB0F2
:1045D4000A464CB10020012321460090684603F0AE
:1045E400A7FB80B90EB010BDD0F8881441B10123E7
:1045F40068460C9401F004FD50B900200EB010BDC3
:1046040008460EB010BD684605F004F80EB010BDA3
:10461400684601F0E7FF0028EFD0E3E730B5D0F8B3
:1046240084448FB00A464CB10025012304F5896106
:104634006846009503F084FA0FB030BDD0F88804C2
:104644000028F9D000F58961012368460C9402F032
:10465400F9F90FB030BD00BF10B5D0F884448EB066
:104664000A463CB1002321466846009303F060FBF0
:104674000EB010BDD0F8881431B1234668460C94AE
:1046840001F0BEFC0EB010BD08460EB010BD00BF58
:10469400F8B5054690F8D00408B90146F8BDD5F838
:1046A4008434002B4CD0DC69D5F89004013C0028FC
:1046B40054D00368DB6B9847E0B1D5F8900478B325
:1046C40003681B6C9847A8B9D5F8900440B30368F5
:1046D40001215B6C9847074610B3D5F8840458BB96
:1046E400D5F8886433466EB9D5F8900490B90020A3
:1046F4000146D3E7D5F88404E8B9D5F88834002B0B
:10470400F5D00746184601F071FE06463FB1D5F8CC
:10471400900428B1036800215B6C984700B1A41B86
:10472400D5F88434FBB19B794FF40071994089B278
:10473400A1FB0401F8BD002704F042FA0646E5E7B0
:10474400D5F88834D5F89004B3B1D3F830440028B0
:10475400AFD1184601F04AFE0646E0E7184604F0D9
:104764002FFA0646DBE7D5F88864002EBFD0D6F8CA
:104774003C14A1FB0401F8BD0028B8D01C4698E7FE
:1047840090F8D03463B1D0F8843463B19A794FF49B
:104794000070D9699040013980B2A0FB01017047D3
:1047A400184601467047D0F888040028F9D0D0F89C
:1047B4003C14D0F83004A1FB000170472DE9F0430C
:1047C400D0F890548DB04DB198462B6804462846D5
:1047D400DB699847B0F5405F064604D800263046AA
:1047E4000DB0BDE8F0834FF400700AF04DFB0746AE
:1047F4000028F3D00DF10409B6F1806F0246434658
:10480400294648462ED900F051FC064638460AF09F
:1048140043FB002EE2D02B682846271D1B6A9847CD
:1048240094F8C034FF2B21D0D4F8C43404F5946533
:1048340002932846D4F8C8340393B4F8C034ADF8CE
:10484400043099E80E0005F08FFF94F8B134C4F8F1
:104854009054002BC3D10123294638461A4605F04B
:1048640049F8BCE702F058FE0646CFE704F2944547
:1048740094F8CC14284606F0BFFD2846C4F890549A
:1048840006F01CF80028AAD10123D4F89014384665
:104894001A4605F02FF8A2E770B5D0F8905484B00A
:1048A4000446002D40D090F8D03483B190F8D13430
:1048B400FE2B6ED094F8D20436285AD92B68694658
:1048C40028469B6C984784F8D00404B070BD90F8D7
:1048D400D134FE2B58D090F8D20436284FD994F80E
:1048E400C034261DFF2B24D104F2944594F8CC1433
:1048F400284606F081FD2846C4F8905405F0DEFFF2
:10490400002864D003212E2008F0D8FF3549364A08
:10491400364B48681268A3FB0232920C02EB820207
:104924004B681B1A9A42FBD8002084F8D00404B0C8
:1049340070BDD4F8C83404F59465D4F8C414B4F83C
:10494400C024284602936B460191ADF800200ECB9B
:1049540005F00AFF94F8B134C4F89054002BD1D177
:104964000123294630461A4604F0C4FF0028DCD14E
:10497400C8E708F091FF003818BF0120D5E708F018
:104984008BFF0028ABD1CFE7194B9B689B03CBD59A
:10499400A5E72B6828465B6D9847421C8AD0F8B976
:1049A40094F8D134FE2BBFD103212E2008F086FFCA
:1049B4000C490D4A0D4B48681268A3FB0232920C55
:1049C40002EB82024B681B1A9A42FBD8ACE7012324
:1049D400D4F8901430461A4604F08CFF002891D085
:1049E4000120A2E7001000E0F813002083DE1B433F
:1049F40000800042F0B50D46044685B0364800F00C
:104A04005DFAFE2D84F8D15426D0362D02D900202B
:104A140005B0F0BD0026314B04F594678DF80450C1
:104A2400C4F8C4348DF80560384684F8C05484F85A
:104A3400C164C4F8C864CDE9023604AB13E90E00BE
:104A440005F092FE94F8B134C4F89074B3B33046D0
:104A540084F8D00405B0F0BD04F294450023FF228D
:104A64001946284684F8CC3484F8C02406F0C4FCE3
:104A74002846C4F8905405F021FF38B90123D4F82E
:104A84009014201D1A4604F035FFF0B92E2000239F
:104A9400032184F8D03484F8D20408F00FFF1049BD
:104AA400104A114B48681268A3FB0232920C02EBC5
:104AB40082024B681B1A9A42FBD8A8E701233946A5
:104AC400201D1A4604F016FFC2E701222E2384F8A3
:104AD400D02484F8D2349BE7B521000040787D01CE
:104AE400001000E0F813002083DE1B4318484FF049
:104AF400290C184A0023184910B4C0F8942407223A
:104B040080F8B1C44FF0FF0CC0F8A8144FF47F41F3
:104B1400124CC0F8AC24124AA0F8D014A0F89C346B
:104B240080F8B53480F8CC3480F8D2C40460C0F87E
:104B3400A0240C490C4A5DF8044BC0F88434C0F836
:104B44008834C0F8903480F8BC340AF097B900BFB8
:104B540000530020440B002000093D00080B0020F6
:104B640094090020B1210000801400207F28A2EBCA
:104B7400010205D812B10A4602F8010B104670472B
:104B8400B0F5006F0FD2012A40D94FEA901C00F013
:104B94003F030A466CF03F0063F07F0302F8020B08
:104BA40010464B707047B0F5803F16D2022A2DD9BB
:104BB400C0F3851C00F03F03CA1C63F07F0300B5FB
:104BC4004FEA103E6CF07F008B706EF01F0E487041
:104BD400104681F800E05DF804FB032A16D94FEA79
:104BE400904CC0F30532C0F3851300F03F0062F02F
:104BF4007F026CF00F0C63F07F0360F07F004A705B
:104C04000A1DC87081F800C08B70B7E70022B5E7B1
:104C140088423DD2034610B490F900001C78002865
:104C24002DDA04F0E000C02834D004F0F000E028CD
:104C340034D004F0F800F02826D104F0070404204E
:104C44001844884220D8013313F8011B01F0C00C2A
:104C540001F03F01BCF1800F41EA841414D1834276
:104C6400F2D1A4F180010F4B99420DD8A4F5584319
:104C7400B3F5006F08D314605DF8044B7047581CFB
:104C840014605DF8044B704700205DF8044B7047D6
:104C94000020704704F01F040220D1E704F00F0441
:104CA4000320CDE77FFF1000B1F5807F21D81029C4
:104CB4002ED840234FF0200CB2FBF3F1B1F5806FF6
:104CC40020D203FB112300B5B2FBFCFEB3FBFCF3C3
:104CD4000CFB1E224FEA910CDBB201322CF03F0C8C
:104CE400C9B2037042EA0C028170D2B242705DF81C
:104CF40004FB3F239C46802910D9B1F5FC7F0FD8D3
:104D04001B01D9E7FF21FE234170037081707047B6
:104D1400202916D880234FF0200CCDE7DB00CBE709
:104D2400B1F57C7F04D9B1F5FC6F03D89B01C3E7CF
:104D34005B01C1E7B1F57C6F94BFDB01C3EB0323D7
:104D4400BAE720239C46D6E730B5037883B0DC0766
:104D54001DD50446406804F110020368E16801921D
:104D64005B6A9847019A0546A8B12378990708D544
:104D74006068D4E90231194403685B6A984750B10A
:104D8400237823F001032846237003B030BD0125A6
:104D9400284603B030BD0025284603B030BD00BF0F
:104DA400F8B543680BB3C36804460F4615468B42F7
:104DB40006D110F8103B05F003052B432370F8BD12
:104DC400FFF7C2FF88B16B0705D504F11006304622
:104DD4000023E760EFE7606804F1100639460368D2
:104DE40032461B6998470028F1D10020F8BD00BF66
:104DF4007E283ED94FF0350C002330B4284C04E013
:104E040034F82120824220D80B46ACEB0302012A5D
:104E140003EB5201F4D89BB234F82320904216D20B
:104E24004B2400231F4D04E035F8212082421ED874
:104E34000B46E21A012A03EB5201F5D89BB235F86E
:104E4400232082421FD030BC70478C46DDE704EB40
:104E54008304821AE3789A42E2DA94F90230012B4D
:104E640016D0D3B19BB2034430BC98B270470C4601
:104E7400DFE7A0F16103192B8CBF00230123A0EB12
:104E8400431398B2704705EB8305688830BC7047BC
:104E940002F00102831A98B2D5E74EF2A033E2E79A
:104EA40010070020E40500204FF0000C024B82F8AC
:104EB40000C01B68184700BF145C0020024A034965
:104EC400034B116018607047105C0020A92C00008F
:104ED400145C002010B50446808982B018B1002308
:104EE400A38102B010BDD4E901318B42F9D201AAE9
:104EF4001846FFF78DFE80B1019B6060B3F5803FDB
:104F040001D298B2EDE7980AC3F30903A0F5215042
:104F1400A3F5105380B2A381E3E74FF6FF70E0E7F7
:104F240069B170B5054608460C460BF089F82B6844
:104F34000246214628465B68BDE870401847704722
:104F44008368C3F3080383B1002110B40269D15408
:104F54000133B3F5007FF9D10168D0E903321C684D
:104F64001846636A5DF8044B18470120704700BF78
:104F740082680346006940F2FF1CC2F308028154B0
:104F84006245586801EB7001986800F10100C3E9BB
:104F9400011001D001207047D868196810B4046862
:104FA4004A1C646A1A601A6923465DF8044B184760
:104FB40038B58368CAB20D460169C3F3080340F2E9
:104FC400FF1C0446CA546345416802EB7102426007
:104FD400826802F10102826005D0290A2046BDE8F8
:104FE4003840FFF7C5BF0168C0684A1C03685B6AA4
:104FF4002260226998470028EFD138BDF8B5002314
:10500400064601601D46C0E90133A8B2FFF7F0FE71
:10501400A842044607D0C1B23046FFF7A9FF0028D2
:105024003BD10020F8BD6C1CB4F5803F04D12AE0CC
:105034000134B4F5803F04D0A0B2FFF7D9FEA042FA
:10504400F6D0671BB7F5007F1DD34FF6FF713046CE
:10505400FFF7AEFF0028E4D0B9B23046FFF7A8FF4F
:105064000028DED02546B5F5803FCED13046BDE8D8
:10507400F840FFF765BFC5F3072130460135FFF758
:1050840077FF0028CDD0A542E9B23046EBD2FFF736
:105094006FFF0028EFD10020F8BDC4F3072130468C
:1050A400FFF766FF0028BCD00135DCE72DE9F04F9F
:1050B4001F4689B00B680D4604901446C160026116
:1050C4000846DB699847B0F5801F0090C0F0D8808F
:1050D40000230122009E01335200DBB201D096422C
:1050E400F9D81C2B009640F2B780A3F10B080122DB
:1050F40048FA02F1C8F347088A4002910792013343
:1051040001225B109A40069204229A4003920222E2
:1051140002FA03F30193009A0021039B2046029EA6
:105124004FF0010AD31A4FF400724AF6552BF3409C
:1051340003FA06F90593019E0AF0C0FDFF2384F8E3
:10514400BFA184F8C0A1B14484F8C431224684F8D4
:10515400C53107230021284684F8C231FE23C4F850
:10516400C66184F8C3312B68C4F8CA915B6AA4F899
:10517400FEB19847002863D04FF400720021204606
:105184000AF09CFD009B84F86D804FF00008636674
:10519400F421059B04F17800069AE3652023266434
:1051A40023726372A372EB23A665464623707623AB
:1051B400C4F848906370902384F86EA0A3704523CC
:1051C400E37058232371462363714123A37154234D
:1051D400E371042323664FF48073A4F86830092331
:1051E40084F86C308023C4E9142284F86F304FF4BF
:1051F400C3720AF063FDA4F8FEB1A8F16A03012B9F
:1052040006D9B8F1700F03D014F8083003EB760612
:1052140008F10108B8F5007FEFD12B682246DDF8CC
:10522400049028465B6A4946984748B12B6849462A
:10523400224628465B6A0C31CDF80490984740BB5F
:105244002FB13B680F22B84938465B68984700265F
:10525400304609B0BDE8F08F1A2B4FF0080800F271
:10526400A6814FF48043CDF8088001934FF40043A6
:1052740003934FF4807307934FF4005306934AE764
:10528400002FE4D03B681522A84938465B6898474C
:10529400D7E742460021204609F1010A0AF00EFD33
:1052A4004AF6552309F1090204F2FF19A4F8FE3164
:1052B40000239346A04601E018F8013FC14503EBE3
:1052C4007606F9D12B682246514628465B6A9847F0
:1052D4000028B5D02B6822460AF10C0128465B6AE7
:1052E40098470028ACD00AF101039B4502D09A46A6
:1052F4002378DFE74FF40072002120469B460AF032
:10530400DDFC00220AF1030A1146234601E013F8EA
:10531400011F984501EB7606F9D12B6822465946C0
:1053240028465B6A984700288AD02B6822460BF1EE
:105334000C0128465B6A9847002881D00BF10101D3
:105344008A456AD1231F04F5FE7243F8046F9A421A
:10535400FBD12B68224628465B6A984700283FF415
:105364006FAF2B680BF10D01224628465B6A984704
:1053740000283FF465AF2FB13B680C226C493846D6
:105384005B689847069A0021019B20460026134437
:105394004FF400729946059B4FEA83080AF08EFC8D
:1053A40023464FF0FF3208F20728F821B7F1000B2B
:1053B4004FEA582A03F8011B4FEA9838C4F8012031
:1053C40018BF4FF0010BDA605A609A60C3F80F20DF
:1053D40002E00136B24523D0B6FBF8F308FB1363B1
:1053E40043B9BBF1000F05D03B680122514938464F
:1053F4005B6898472B6809EB0601224628465B6ADE
:10540400984700283FF41CAF002EE2D131464FF4F8
:10541400007220460AF052FCDBE78B46217874E7E1
:10542400002F34D03B680222434938465B689847D2
:10543400059E079A0736F60806F2FF13B2EB532FC0
:105444004FEA5329FFF4FDAE4FF4007200212046C9
:105454000AF034FC07232370B9F1000F00F08A80AE
:105464004FF0000808E0B8F1000F01D184F8008083
:1054740008F10108C1457BD9039A28462B6802EB41
:10548400080122465B6A98470028ECD1D8E6059EBD
:10549400079A0736F60806F2FF13B2EB532F4FEACA
:1054A4005329FFF4D4AE4FF40072394620460AF073
:1054B40005FC07232370B9F1000FD1D1039B079A90
:1054C40004989918FFF79AFD00283FF4C0AE029A99
:1054D4004FF400739340049A92689A423FF6B7AE31
:1054E4004FF00208029B4FF40072002108FA03F9FE
:1054F400039B204699440AF0E1FB8122032304998B
:1055040009F1FF3984F820208222237084F8402096
:10551400C4E90D864A684FF00108636562648B68CC
:10552400A3650023E3650EE0AC08002048080020D2
:10553400600800207008002088080020079B984518
:105544003BD208F101082B6809EB080122462846E2
:105554005B6A9847064600283FF472AEB8F1010F23
:10556400ECD14FF40072002120460AF0A7FBE8E7D3
:10557400002FA3D03B681622144938465B6898472D
:10558400039B079A04989918FFF738FD00283FF405
:1055940058AE029A4FF400739340049A92689A4268
:1055A4003FF64FAE0A493846FFF7BAFC98E74FF486
:1055B4008072CDF808800792A1E5002F3FF448AE31
:1055C40004493846FFF7ACFC42E600BF74080020EB
:1055D4008C0800209C0800202DE9F0410C4615465B
:1055E40001F11E08AB89284634F8027F1BB9D5E9BE
:1055F40001239A420ED0FFF76DFCFFF7F9FB064634
:105604003846FFF7F5FB864209D14445EAD101202B
:10561400BDE8F081B7FA87F04009BDE8F0810020C9
:10562400BDE8F0812DE9F04F90F8313083B0884621
:10563400002B4FD090F830300746012B53D9013A54
:105644000B464FF0020A00248E18DFF8A0B00022A7
:1056540051463846019300F081F800283AD0027888
:10566400C12A37D1054600F11E09019B35F8020F06
:1056740024B300F5105292B2B2F5806F2AD20BEA2D
:105684008424C0F30900204300F5803019463246D3
:10569400FFF76CFA0346E8B100244D45E6D10AF160
:1056A400010A97F830205FFA8AFA5245CFD2A3EB69
:1056B40008009846002388F800300FE000F52052D7
:1056C40092B2B2F5006F02D30028DFD1EFE7B2F552
:1056D400806F06D30023184688F8003003B0BDE875
:1056E400F08F0446D9E70020E4E700BF00FC0F0078
:1056F40070B50C4600234FF6FF75226819461E4606
:10570400A3812361626017E0FFF7E4FBA84222D083
:10571400FFF76EFB2369F203A189013342EA5602C3
:10572400060A236152FA80F083B2C0F34E0040EAC5
:10573400C33016FA80F086B220460029E4D1D4E9B9
:1057440001239A42E0D12069A6820138FE288CBF49
:105754000020012070BD002070BD00BF70B500F1B5
:10576400240384B08C46044601AD164693E8070032
:1057740085E807004FEA4C122946206A00F052FDE2
:10578400012806D132462946206A00F02FFD04B0D4
:1057940070BD002004B070BD10B5044601F048F897
:1057A400002384F8313084F8333010BD38B5144602
:1057B4000D46002200F12401006A00F017FD0346A3
:1057C40020B1428901202A801B89238038BD00BF73
:1057D40038B514460D46002200F12401006A00F099
:1057E40005FD034620B1C28901202A809B892380BC
:1057F40038BD00BF38B50D4690F8311009B100200E
:1058040038BD382204460AF059FA012340222562A1
:10581400184684F8333084F8312038BDF0B40D468E
:105824000978202903D115F8014F202CFBD01560ED
:1058340095602C782F2C11D084B16E1C3C2C1D4FFC
:1058440035462AD8212C12D804F1FF3CBCF11E0F96
:1058540016D80020F0BC704715F8014F202CFBD05F
:105864002F2CF9D01D601146F0BCFFF741BFA4F105
:10587400220C5FFA8CFC27FA0CFC1CF0010FE8D117
:105884002E2C01D0202C0DD116F8014B002CE5D084
:105894002F2CE3D03C2C3546D4D95C2CD9D003D959
:1058A4007C2CD6D09660EFE73E3C012CFAD8002041
:1058B400F0BC7047012100052DE9F04F90F833301A
:1058C40083B00546DC0774D558060F46904640F170
:1058D400B080D5E90023D5E9041018EB020443F1A4
:1058E4000003A14270EB0303C0F0A980B8F1000FDC
:1058F4005BD0464605F11809D5E90032D5F820A059
:10590400DAF838441C40C4F3080B002C70D113435C
:1059140070D195F831305A064CBFDAF83424EA696C
:10592400AA619AF84504023ADAF82C14630A824010
:1059340001EB54211144BBF1000F45D1B6F5007FB2
:1059440042D3DAF81C2291423ED0B6F5806F58D388
:105954004FF0010B0BFA00FBABEB030B730A9B45F7
:1059640028BF9B4691424FEA4B240AD801EB0B0314
:105974009A4206D20AF504700191FFF7E5F90199FC
:10598400B8B1DAF814025B460268D2F814A03A46B9
:10599400D04770B123462744D5E900125B1842F181
:1059A4000002361BC5E90032A8D1404603B0BDE869
:1059B400F08F95F832304FF0FF3043F0020385F852
:1059C400323003B0BDE8F08FCBF5007400220AF545
:1059D4000470B44228BF3446FFF7E2F90028E8D047
:1059E40000EB0B012246384606F03AF92346D2E78B
:1059F400AA6996E795F833305B060ED5AA69013299
:105A04008EE7DAF814023A4603681B6998470028BF
:105A1400CFD04FF400731C46BDE74A465046A969EF
:105A240000F042FC0028C4DB0CD0D5F820A0AA6901
:105A340077E795F8313019077FF558AF49E7A1EBBF
:105A4400020853E795F8313013F0500FB1D0A8EBAA
:105A540006084046AAE700BFF0B583B00122044619
:105A640085690DF10701D0E90067FFF725FF0128DB
:105A7400A5610CBF9DF807004FF0FF30C4E9006733
:105A840003B0F0BD2DE9F04F1F4690F8313083B0DC
:105A94000446D0F81880002B51D01646D0E9001CDB
:105AA400BC4508BF91425CD056EA07024DD01D07A1
:105AB40004D5D0E90402B042BA4140D394F833206B
:105AC400751ED4F820A0019247F1FF309AF84524BE
:105AD4000932D2B2C2F1200ED540A2F1200900FA57
:105AE4000EFB20FA09F045EA0B0505430198400630
:105AF40033D4481E20FA02F24CF1FF3051EA0C0C68
:105B040000FA0EFE20FA09F042EA0E0242EA00020E
:105B140001D0954229D25B064CBFDAF83434E369EC
:105B2400A36104F1180906E0A169013D206A00F0AF
:105B3400BBFB002803DD4A46002DF5D107E0002019
:105B4400C4F8188003B0BDE8F08F002383610120FE
:105B5400C4E9006703B0BDE8F08FE3692B44A36197
:105B6400F5E7012003B0BDE8F08FAD1AD9E700BF17
:105B74002DE9F04F174690F831208FB00546002AE2
:105B840040F0D7808B4691F8311011F0500F00F09F
:105B9400D08003F003019A46032900F0CA80013142
:105BA40003F0080041EA00030293002F00F0CB80C9
:105BB400396901F10E08B649A1FB0818DBE90010A8
:105BC4004FEAD808014308F102085FFA88F805D0C3
:105BD40000200021CBF81820CBE900010024029B0F
:105BE400264643F040030393202206A95846FFF7B4
:105BF40063FE00B3202840F09C809DF918209DF896
:105C04001830002AC0F2A28034B9DBF80020A2F1D7
:105C14002009DBF818200192444501D20134E4B292
:105C2400002B00F01381202206A958460026FFF716
:105C340043FE0028DED11AF4007F7AD0029B9B0732
:105C440077D5002F75D0444517D2DDF804A0202263
:105C540006A95846FFF730FE631C002861D02028AF
:105C640067D12CB9DBF80020DBF818A0A2F12009D9
:105C7400DCB2A045EBD8CDF804A038220021284698
:105C84009BF833400AF01AF8DBF82030C4F3801490
:105C9400019A2B620823002685F82C4085F83130C0
:105CA4003B68C5E909297B60BE81B8F1000F33D098
:105CB40008F1FF39B346DFF8DCA15FFA89F9012264
:105CC40059462846FFF74AFD044690B390F9002050
:105CD400002A2EDB2022002109F0F0FF002E00F024
:105CE400BC80BBF1010F00F0D780C123A3461E3452
:105CF40004F81E3CBB8938461BB9D7E901239A42F4
:105D040005D0FFF7E7F82BF8020FA345F2D10136CF
:105D14005FFA86FBD845D2D8284600F089FD0646AE
:105D24000DE05846DBF8186000F0B2FD002840F0A2
:105D3400918000231E4685F8313085F83330304693
:105D44000FB0BDE8F08F4FF0030847E756BB44455A
:105D540038BF0024852B7FF447AF314638222846CC
:105D6400012609F0ABFF9DF81C209DF8193085F839
:105D7400303002F03703D20658BF43F0080385F8E9
:105D84003130DBF80030DBF82020203B2A62DBF8DE
:105D94001820C5E909239BF83330C3F3801385F831
:105DA4002C3021E7C02B28D0C12B7FF43CAF3A46DE
:105DB40006A92846FFF710FCE8B1BB89DBB9D7E98F
:105DC40001329A4217D11AF4006FB2D11AF4884FF3
:105DD40070D195F8333098076CD41AF4806FA8D139
:105DE4001AF4804FABD02846D5E90423FFF74AFEC6
:105DF4000028A4D19DE70646F6E6029B85F83330D9
:105E04009DF819309B0702D5039B85F833300B9B13
:105E1400EB61DDE90823C5E90423DDE90C23C5E9C9
:105E24000223002FCFD04FF000033A69BB813B68B7
:105E34007B609DF81B309A427FF4F5AEBE8ABDF8B4
:105E44001C30F61AB6FA86F67609CDE6002F7FF4F2
:105E5400F2AE6EE7CBF818600BE78523237085F864
:105E6400309084F80190DAF80030002B46D00DF120
:105E740013020DF1160105A89847BDF8143063818B
:105E8400BDF8163023819DF8133023753FE700BF1A
:105E940089888888105C0020C02384F801B02370AE
:105EA400029B63F07F0385F833303B69E370BB8A60
:105EB400A3802CE795F83130D9063FF53AAF13F0BB
:105EC40001017FF436AF1AF4806F89D095F833203E
:105ED40092077FF52EAF002B3FF42BAFD5E90032AC
:105EE400134304D000220023A961C5E900232846F6
:105EF40000F0D0FE00283FF41CAF20E745F6212334
:105F04006381E381638202E72DE9F043002597B0C2
:105F1400994690F8313001921495ADF81450002B45
:105F24003ED191F831300F4613F0500F38D013782A
:105F3400044616462F2B37D04FF0000801AB02AAB7
:105F440031462046FFF76AFC50B3019E3378002B9C
:105F54003ED0002302AA39462046FFF709FEF8B1D5
:105F6400A44608AD04F13007DCF800000CF1100C75
:105F74005CF80C1CAE465CF8082C10355CF8043C4C
:105F8400BC45AEE80F00EFD1DCF8000008AF286094
:105F9400204600F04DFC84F8318084F83380CDE74E
:105FA400002017B0BDE8F08316F8011F2F29FBD09D
:105FB4000196B1B9382220463D6A09F07FFE0123DB
:105FC40040222562184684F8333084F83120E8E70B
:105FD4004B4602AA39462046FFF7CAFD17B0BDE872
:105FE400F0833822002108A83D6A09F067FE0123E6
:105FF40008AF10958DF8533040238DF851309BE74E
:1060040019B101F58961FFF77FBF0846704700BFEA
:1060140090F8313063B991F8313013F0500F07D054
:106024000B6813F01F0C03D113466246FFF7A0BDA3
:10603400002070472DE9F84F07468A46914600290B
:1060440042D0A1F10208D7F83034434542D908F0D0
:1060540007030125C8F3C80B9D40EDB246464446EC
:10606400D7F82C140022384601EB1431FEF798FEC1
:10607400E8B10BF1FF3B834400F2FF101BF8011F52
:106084000AE04A452BD0A04510D0D7F83054A54299
:1060940014D913F0FF050CD0013429424FEA45030B
:1060A400A4EB0602EDD0A0452646EED10120BDE8C2
:1060B400F88F58454FF00105E0D101E00026344641
:1060C40001254FF0000BCBE7D0F82084D7F830340B
:1060D4004345BCD84FF000080125C346BEE7BAF1DA
:1060E400000F04D1B9F1010F08BFC7F82064B01C38
:1060F400BDE8F88F2DE9F8438046881E15461E46F4
:106104008318D8F83024934237D8CEBBD8F820343B
:10611400834288BFC8F8200400F007030124D8F89C
:106124002C74C0F3C8099C4007EB1031E4B201227F
:1061340040468F18FEF734FEF8B109F1FF3E86445D
:1061440000F2FF101EF801CF1CEA040F8CEA040CC5
:106154004FEA440414BF01220022B2420DD0013D93
:106164008EF800C018D014F0FF04EDD17045A1469C
:106174004FF00104E6D13946D9E70020BDE8F883A1
:10618400D8F820148B42C7D98142C5D3934228BF83
:106194000023C8F82034BFE70120BDE8F88300BF1E
:1061A400F8B5D0F8303401338B4201D20020F8BD69
:1061B40007460C4600F50476002505E0D7F8303490
:1061C40001350133A342F1D3D7F824140022304619
:1061D40001EBD411FEF7E4FDA4000028E6D0C4F3DB
:1061E40008040459631CE9D1681CF8BD38B50C4691
:1061F4000B6890F845C400F50470D0F82812023BEF
:10620400656803FA0CF3294003EB5123D0F81C1200
:106214001944FEF7C5FD18B16368C3F308031844B5
:1062240038BD00BF2DE9F8430C46D0F8383449682E
:106234000B4011446160134490F8451401F10902C4
:10624400D2B2D3402BB380465D1E00F5047905E03D
:106254002368013D03F1010323601AD3267A002E3B
:10626400F6D1D8F8303432462768484601339F4285
:1062740012D8D8F8241401EBD711FEF791FDBF0012
:1062840050B1C7F30807C3595A1C09D0013D236014
:10629400E4D20120BDE8F8834FF0FF30BDE8F88375
:1062A4003046BDE8F88300BF38B5D0F83034013348
:1062B4008B4202D24FF0FF3038BD0C46D0F8241484
:1062C400154600F50470002201EBD411FEF768FDB9
:1062D4000028EFD0A400C4F3080403595A1C02D0C8
:1062E40001202B6038BD002038BD00BF01291BD917
:1062F40038B5D0F830340C4601338B4201D200203B
:1063040038BDD0F82414154600F50470012201EBC1
:10631400D411FEF745FD03460028F0D0A400012067
:10632400C4F308041D5138BD00207047D0F8303440
:106334000133994201D9002070472DE9F04F0546F9
:1063440083B00C4600F504790F464FF00008D5F8E9
:106354002414002248464FEAD41B01EBD411FEF763
:106364001FFD90B1A300C3F30803C2580193531C4B
:1063740016BF16464FF0000A4FF0010A012C04D94B
:10638400D5F830240132944203D9002003B0BDE88B
:10639400F08FD5F82414012248465944FEF700FD35
:1063A4000028F2D0019B40F80380BAF1000F12D00C
:1063B4000134B44208D00023E21B39462846FFF7D3
:1063C40099FE0028E1D03746D5F830340133B34282
:1063D400DBD33446BBE7621C534639462846D21BFE
:1063E40003B0BDE8F04FFFF785BE00BF2DE9F843C9
:1063F40000250646D0F82C1400F504782C4600221B
:1064040040464F1CFEF7CCFCA8B100F1FF3E04F55A
:106414008059D6F8300405E079B90834844209D2A9
:106424004C4516D01EF8011FFF29F5D10834083554
:106434008442F5D3401BBDE8F883082201231942A6
:106444004FEA430C18BF0135013A5FFA8CF3F6D1D9
:10645400E3E73946D3E700BFF8B500234FF0FF3632
:1064640000F504771546C0F84014044641601A4606
:10647400C0F81412194680F844340370C66080F8DA
:106484001032C0F81C623846FEF78AFC042D0DD881
:10649400064658B1BDB16B1E00EB031393F8BE2141
:1064A40012F07F0202D193F8C2310BB90020F8BD7B
:1064B40000EB05163846D6F8B6512946FEF770FCAF
:1064C40006460028F2D005221A49F01C09F048FCBF
:1064D4000028EBD196F86C30092BE7D1336D0146D7
:1064E4002B44C4F82434736DC4F82834B36D2B449E
:1064F4000125C4F82C34F36DC4F83034336EC4F879
:10650400343496F86D20C4F82004204602F10903BF
:1065140084F8452405FA03F35A1EC4F83C34C4F83D
:1065240038242A46FFF786FD4023284684F844345D
:10653400F8BD00BFBC08002010B50446D0F83414E0
:10654400FFF72EFE94F845340933DBB2984010BDB2
:106554008169F8B50446006A01B101310122FFF7EF
:1065640069FD0128054632D901230146206A1A46ED
:10657400FFF7C0FD064650B3A3695BB394F833201C
:10658400510612D5591CA94218D022F04002E169E3
:1065940084F8332005E0206AFFF7A8FE3946B0B13D
:1065A400A3694F1C99423A46F5D34FF0FF3229466E
:1065B400206AFFF79BFE50B1A16911B93046A5616D
:1065C400F8BD2A46206AFFF791FE0028F6D100267E
:1065D4003046F8BD94F8333043F0400384F8333048
:1065E400ECE700BF90F833309A0736D5C16970B52F
:1065F4000546A1B90024214607E0037803F07F0390
:10660400037095F830308B4229D301340122284697
:10661400FFF7A4F8E1B20028EFD1002070BD5B06BB
:10662400006A34D590F84534D5E902240933013A97
:10663400DBB244F1FF34C3F1200CDA40203B04FA0E
:106644000CFC24FA03F342EA0C021A43002301323D
:10665400FFF750FD0028CDD1DFE70020704700236D
:106664002C6A85F83130204685F83330FEF76CFB10
:106674000028D2D004F50470FEF766FB0028CCD0C5
:10668400D4F840040368BDE870401B6A1847FFF75C
:106694004DFE0028AED1C0E790F83130DB0601D4BE
:1066A4000020704710B5002288B000230446FFF78D
:1066B400E9F908E020281BD19DF900309DF800205D
:1066C400002B15DB32B1202269462046FFF7F4F88F
:1066D4000028EFD194F833300822204643F0020317
:1066E40084F8312084F83330FFF77CFF08B010BD04
:1066F400002008B010BD00BF2DE9F0414FF00008A4
:1067040082B04A4F06464446414600223046FFF7CF
:1067140025F8054630B10178C02969D0C1292BD0AC
:10672400852909D096F83230002043F0010386F819
:10673400323002B0BDE8F08196F8313003F037030F
:1067440083803B6883B10DF103020DF1060101A8BA
:106754009847BDF80630AB812B82BDF80430EB813D
:106764006B829DF803306B75326A92F8103243F0F5
:10677400010382F810322978A1F185000022B0FAD1
:1067840080F0400901E00422A95CE303012A02F13C
:10679400010243EA540311FA83F39CB201D10028A5
:1067A400F1D11F2AF0D908F1010896F830305FFAC8
:1067B40088F18B42A9D2012206F12401306AFFF745
:1067C40015FD0028AED0356A44802846FEF7BCFA91
:1067D4000028A7D005F50470FEF7B6FA0028A1D06A
:1067E400D5F8400403681B6A98470028A1D199E7AB
:1067F40096F8333013F0400F437814BF43F002038C
:1068040003F0FD034370D6E90401D6E90732C5E974
:106814000201D6E902016B61C5E9060192F8103262
:1068240043F0010382F810322978A5E7105C0020B8
:1068340038B590F8313043B390F93320044690F8DA
:106844003330002A0CDB056A2846FEF77DFA78B956
:1068540094F83230002043F0010384F8323038BD1C
:1068640003F07F0380F83330BDE83840FFF744BFBE
:1068740005F50470FEF768FA0028E9D0D5F840045D
:1068840003681B6A98470028E2D0012038BD00BF86
:1068940070B590F8313005465A064CD480682B6A9E
:1068A400D3F83C341844B0F1806F01D3002070BD9C
:1068B4002846FFF74DFE0028F8D0286A0024AE6968
:1068C40090F84534023E9E40D0F82C341E443119D1
:1068D400052200F504700134FEF762FA4FF40072E9
:1068E40000210028E2D009F0E9F9286A012390F890
:1068F400452493409C42EAD395F831305B0615D485
:1069040095F8332062F07F02D5E9023185F833200F
:10691400D0F83C249B1841F10000AB60D5E9043168
:10692400E8609B1841F10001C5E904312846BDE83F
:106934007040FFF77DBF006AFFF7FEFDAFE700BFC1
:1069440070B5044690F831009CB0002310F0180F85
:106954000C931A9303D0206A0B6A984202D0002049
:106964001CB070BD40F601236846FFF7CDFA00283D
:10697400F5D0A44604F130060EADDCF800000CF1AD
:10698400100C5CF80C1CAE465CF8082C10355CF856
:10699400043CB445AEE80F00EFD1DCF8000009AACE
:1069A40004F1240328609DF8305007CA83E80700E7
:1069B40094F83330204684F8305063F07F0384F831
:1069C4003330FFF735FF0028C9D000210222082305
:1069D4000EA815918DF86B208DF86930FFF702FE33
:1069E400BEE700BF38B591F8313013F0500F02D133
:1069F4000025284638BD40F602230446FFF7B8F8C0
:106A04000028F5D01023204684F83130FFF740FFEA
:106A140005460028ECD0A169002200232046E1614C
:106A2400FFF730F8C12294F8313084F83320002B7A
:106A3400DFD04123204684F83330BDE83840FFF7E7
:106A44005BBE00BFF0B5002597B01F4690F831300B
:106A54000192ADF814501495002B46D191F83130C1
:106A64000E4613F0500F40D01378044611462F2BD6
:106A74003ED001AB02AA2046FEF7D0FE002834D057
:106A8400019B1B78002B41D0002302AA31462046EB
:106A9400FFF76EF830B947B302AA31462046FFF734
:106AA400A1FF10B3A44608AD04F13006DCF80000E1
:106AB4000CF1100C5CF80C1CAE465CF8082C10357C
:106AC4005CF8043CB445AEE80F00EFD1DCF80000FC
:106AD40008AE28602046FEF75FFE019901AB02AACA
:106AE4002046FEF79BFE0028CAD1002017B0F0BD57
:106AF400013101910B782F2BFAD0316A08A8FEF7E7
:106B040079FE0028F1D0019908AEB2E702AA314615
:106B14002046FFF767FF17B0F0BD00BF2DE9F04F27
:106B24000E4690F8311083B009079DF830B09DF8F7
:106B340034909DF838809DF83C7040F18580A2F235
:106B4400BC7294B27F2C7FD85A1E0B2A7CD80BF1CE
:106B5400FF321E2A78D8B8F13B0F98BFB9F1170F4E
:106B64008CBF4FF0010A4FF0000A3B2F88BF4AF058
:106B7400010ABAF1000F67D105460193FFF758FEE9
:106B8400002861D0019B51464BEA431B7B0817F058
:106B940001074BEA4424D34643EA481818BF642744
:106BA400A4B248EAC92806F001091FFA88F80022AD
:106BB4002846FEF7D3FD002846D090F800C0BCF16B
:106BC400850F45D00CF14003DBB2012B3CD8ACF16E
:106BD40085010023B1FA81F1490902E0042310F888
:106BE40003C04FEACB32012B03F1010342EA5B02FB
:106BF4001CFA82F21FFA82FB01D10029EED11F2B6D
:106C0400EDD90AF1010A95F830305FFA8AF18B4226
:106C1400CDD2012205F12401286AFFF7E7FA98B1E1
:106C24002C6AA0F802B02046FEF78EF860B104F595
:106C34000470FEF789F838B1D4F8400403681B6A7D
