:0200000460009A
:100000004643464200000156000000000103030081
:1000100000000000000000000000000000000000E0
:1000200000000000000000000000000000000000D0
:1000300000000000000000000000000000000000C0
:1000400000000000010408000000000000000000A3
:100050000000800000000000000000000000000020
:100060000000000000000000000000000000000090
:100070000000000000000000000000000000000080
:10008000EB04180A063204260000000000000000FD
:10009000050404240000000000000000000000002F
:1000A0000000000000000000000000000000000050
:1000B0000604000000000000000000000000000036
:1000C0000000000000000000000000000000000030
:1000D00020041808000000000000000000000000DC
:1000E0000000000000000000000000000000000010
:1000F0000000000000000000000000000000000000
:10010000D8041808000000000000000000000000F3
:100110000204180804200000000000000000000095
:1001200000000000000000000000000000000000CF
:10013000600400000000000000000000000000005B
:1001400000000000000000000000000000000000AF
:10015000000000000000000000000000000000009F
:10016000000000000000000000000000000000008F
:10017000000000000000000000000000000000007F
:10018000000000000000000000000000000000006F
:10019000000000000000000000000000000000005F
:1001A000000000000000000000000000000000004F
:1001B000000000000000000000000000000000003F
:1001C000000100000010000001000000000000001D
:1001D000000001000000000000000000000000001E
:1001E000000000000000000000000000000000000F
:1001F00000000000000000000000000000000000FF
:10020000FFFFFFFFFFFFFFFFFFFFFFFFFFFFFFFFFE
:10021000FFFFFFFFFFFFFFFFFFFFFFFFFFFFFFFFEE
:10100000D100204335160060000000000000000001
:1010100020100060001000600078016000000000F7
:10102000000000600084010000000000FFFFFFFFDF
:10103000FFFFFFFFFFFFFFFFFFFFFFFFFFFFFFFFC0
:10104000FFFFFFFFFFFFFFFFFFFFFFFFFFFFFFFFB0
:10105000FFFFFFFFFFFFFFFFFFFFFFFFFFFFFFFFA0
:10106000FFFFFFFFFFFFFFFFFFFFFFFFFFFFFFFF90
:10140000814205D051F8043B40F8043B8242F9D8B0
:101410007047044A04494FF0000342F8043B9142EC
:10142000FBD87047C02600204016022080B5BFF3CD
:101430004F8F00BF00BF00BF00BF00F07FFA654BB9
:101440000822C3F8542100BF00BF00BF00BF00BF87
:1014500000BF00BF00BF00BF00BF00BF00BF00BF94
:1014600000BF00BF00BF5C4A5C495D48FFF7C8FF92
:101470005C4A5D495D48FFF7C3FF5D4DFFF7C9FF5B
:101480004FF0E0234FF47002C3F8882D0023594A2F
:1014900045F823200133B02BFAD1574B8021574A0E
:1014A00003F8011B9342FBD14FF0E020494C4FF071
:1014B0008037DFF87891DFF878814FF0FF32C0F89D
:1014C000085DC4F80471C4F80091C4F8F470C4F85D
:1014D000F080D0F8243D4A4E43F4E023C0F8243D88
:1014E000F36923F07F0343F04003F361736A23F051
:1014F0007F0343F040037362424B9A66DA661A67D1
:101500005A6700F020FA404BAB63404BEB63632318
:10151000002543610323856103613D4BC0F8203DF5
:10152000D0F8FC3D43F08073C0F8FC3D394B1A689D
:1015300042F001021A605A68374B1A6000F0C6FB8D
:10154000C4F804713548C4F80091C4F8F470C4F8C4
:10155000F08000F069FFF36E43F44053F366304BC4
:101560001D60C3F80851C3F81851C3F82851C3F8D7
:10157000385103F5A0239A6BD20708D4294A5A653B
:1015800042F615621A659A6B42F001029A639A68F4
:10159000254C42F001129A6000F05EFA00F018FF4C
:1015A00000F05EFF00F0C0FB00F0C9F92368132BC8
:1015B000FCD900F0FFF82368B3F5967FFBD300F069
:1015C000C0F900F0BDF900F043FF00F075FF30BF37
:1015D000FDE700BF00800D40382601002C27006089
:1015E00000000000C0260020684D016000000020BF
:1015F0000024002011BD000000E400E0A0E400E0B1
:1016000000C00F4000C00A400DCA000011CA00000F
:1016100000002020001000E07C13022000366E0144
:10162000004008400000C056801302201B10182004
:101630000C0D1113054B064A5A64064A1A644FF4FE
:101640002A029A63044B9D46FFF7F0FE00C00A4051
:10165000BFAAAAAA070020000080062043690A4A00
:1016600003EB011003EB011130B5047A074D02EBD7
:101670000412946852682560C06810600B690BB151
:101680004A691A6030BD00BF1406002061F80100ED
:1016900038B543690446027E03EB0212127A8A428D
:1016A00019D0187AFF2816D0814215D0197EFF294B
:1016B00011D001251968EDB25B680968194209D09B
:1016C000064B2946204603EB021305225B681A608D
:1016D000FFF7C4FF257638BD0025EBE71406002090
:1016E00043690A4A03EB011003EB011130B590F88E
:1016F0002840074D02EB0412946852682560C06AC6
:1017000010600B6B0BB14A6B1A6030BD14060020E1
:1017100061F8010038B543690446427E03EB0212CA
:1017200092F828208A421BD093F82800FF2817D06F
:10173000814216D093F83810FF2911D0012519687D
:10174000EDB25B680968194209D0074B294620466B
:1017500003EB021305225B681A60FFF7C1FF657691
:1017600038BD0025EBE700BF140600200F4A416991
:10177000936B23F47C0343F4802310B593630446F6
:101780000A68496813680B43094913600222036918
:101790001A6100F061FE217E2046FFF75FFF617E47
:1017A0002046BDE81040FFF79BBF00BF00C00F40C0
:1017B000A0860100304B40F6617210B5C3F82021BD
:1017C00000F066FE2D4A2E49D2F8803043F0030324
:1017D000C2F8803040F204422A4BC3F860212A4A02
:1017E0001068084203D1D3F8A8118C071AD04FF023
:1017F00000415163D3F8402142F00202C3F8402176
:10180000204AD2F840319807FBD44FF0E0234FF440
:1018100000321920C3F88C224FF000421A4B9A6311
:1018200000F02AFE184B00214FF08042154C9A63BD
:101830004FF4407219600A23C4F8A831134B1846BC
:1018400000F0FEFD4FF4810240F2431302604FF4BA
:1018500080020264C4F858010D4AC4F848310D4BA7
:10186000C3F804224FF0E0234FF40032C3F80C21F8
:101870000123C4F8403110BD00800D4000C00F406E
:10188000001C1E0000002E4000900D4000000020B3
:101890004DB400000024002008B50F4B1B6E9B07C1
:1018A00000D4FBBE72B60D4B0022C3F84021A3F555
:1018B0000D130B4A1A64A3F1FF53A3F52B239D4686
:1018C000BFF34F8F0748084B03604FF40013DB69E9
:1018D0009B689847E6E700BF00441F4000002E4089
:1018E0000300200000802020000012EB074B0004C2
:1018F0000122C3F8A010C3F8A400C3F8B0205A69AD
:10190000D207FCD501225A61704700BF00402A402F
:10191000084B094AC3F8A000C3F8A4200122C3F869
:10192000B0205A69D207FCD5D3F80001212280B239
:101930005A61704700402A40040003007047704716
:10194000704700BF70474FF0E02300211022C3F81A
:10195000941DC3F89C2D2E4AC3F8A02D1122C3F864
:101960009C2D2C4AC3F8A02D1222C3F89C2D2A4A84
:10197000C3F8A02D294AC3F89C2D294AC3F8A02DED
:10198000284AC3F89C2D284AC3F8A02D274A42F0C4
:101990001502C3F89C2D264AC3F8A02D02F18152EE
:1019A0000D32C3F89C2D234AC3F8A02D224AC3F858
:1019B0009C2D224AC3F8A02D214AC3F89C2D214A10
:1019C000C3F8A02D204AC3F89C2D204AC3F8A02DAF
:1019D0001F4AC3F89C2D1F4AC3F8A02D00BF00BFAB
:1019E00000BF00BF00BF0122C3F8942DBFF34F8F8B
:1019F000BFF36F8FC3F8501FBFF34F8FBFF36F8FCD
:101A0000D3F8142D42F44032C3F8142D704700BFB0
:101A10003F000010250008070900100013002000F7
:101A200021000207140000202500081340160220A0
:101A30000900001027000B1317000040330010139B
:101A4000180000602F000B07190000702F000B1307
:101A50001A0000803B000B1373B5864B864A8749FA
:101A6000C3F85C22C3F86012C3F86422A2F53042C6
:101A7000834CC3F8682202F5E042C3F86C22C3F835
:101A80007022C3F87422C3F878221822DA661A6723
:101A90005A679A67DA67C3F88020C3F88420C3F8CE
:101AA00088200122C3F82C27C3F83027C3F8342735
:101AB000C3F83827C3F83C27C3F85027714A936905
:101AC00023F0604323F4407343F0204343F4407316
:101AD0009361D2F8843043F00C03C2F884306A4B2F
:101AE0001A6842F002021A601968684A21F4F1414A
:101AF00021F073010904090C0A4365491A604FF08B
:101B0000FF325A6002F57702886802F5605202409F
:101B1000604842F000529A60DA6822F07802DA6097
:101B20001A6A224002431A621A6A22404FF4005491
:101B3000024359485A62594A9A62DA62D1F8B82087
:101B400022F03F0242F00102C3F8B820D1F8BC20D5
:101B5000002122F03F0242F00102C3F8BC2040F213
:101B6000056219611C661867C3F880205C665867B7
:101B7000C3F884201A684A4822F002021A60494ACF
:101B80009A610222DA61484A42F8041B8242FBD180
:101B90001A6842F001021A603B4B1C6814F0010401
:101BA000FBD1404A0226214620469A6140F2F56266
:101BB000DE61C3F8002240F26642C3F8102240F210
:101BC0009942C3F82022394AC3F8302242F2014236
:101BD000C3F8342240F23542C3F84022344AC3F8F5
:101BE0005022344AC3F85422334AC3F8602242F2E6
:101BF0000122C3F86422FFF779FE0120FFF776FE89
:101C00003046FFF773FE2046FFF782FE45F60D5380
:101C10000546984227D10420FFF768FE4FF40001E3
:101C20002046FFF763FE0120FFF760FE3046FFF716
:101C30005DFE0846FFF76CFEA84212D10420FFF7B4
:101C400055FE10201D491E4B1E4A18700023521AC3
:101C50000093012302EB00521B4800F005FC02B088
:101C600070BD0820EEE71022174802B0BDE87040B2
:101C700000F0E6BB00801F40F9B00100F910010040
:101C800000FFF07C00C00F4000402A401200FFFF20
:101C900000802A404000008063000200FF000F83A4
:101CA00000432A40F05AF05A00422A409F0418305C
:101CB000EB06180A063201263806180A000048709A
:101CC000ED15022000000070A80B0220F0B5154BA6
:101CD00040204FF480314FF480544FF400554FF4BE
:101CE000404643F242071A6912F0020F03D09E6188
:101CF00059619F61F7E712F4005F01D15D61F2E77E
:101D000012F4805F01D15C61EDE7002AEBDA12F496
:101D1000803F01D09961E6E7520601D45861E2E7BD
:101D2000F0BD00BF00800D403E4AB3EE096A3E4858
:101D3000D2F880309FED3D5A23F0010310B5C2F870
:101D4000803003233A4CC2F890303A4BD3F8E0305D
:101D5000D9B2016007EE901AC3F30B201B0DB8EE49
:101D6000E77A354907EE900A2060F8EEE76A07EE59
:101D7000903A37EE455A314BF8EEE77A37EE466A3D
:101D800077EEE67A81ED006A25EE275AC3ED007AF8
:101D9000D2F88030C5EE065A75EEA65AFCEEE55A2A
:101DA00015EE901ADFED265A37EE657A43EA0153B5
:101DB000C2F8803027EE277A224B66EE277AD2F8D7
:101DC0009011C7EE065A35EEA67ABCEEC77A17EE2A
:101DD000100A87EE867A03EA00430B43C2F890317B
:101DE000D2F8901177EE267AFCEEE77A17EE903A69
:101DF000C3F30B030B43C2F89031D2F8803043F0A9
:101E00000203C2F8803000220F4B83F840200F4BB2
:101E10000F4AC3F840214FF0E0230122C3F8082104
:101E200010BD00BF00810D40E00C02200000AA425E
:101E3000DC0C022000441F40E40C0220E80C0220CD
:101E40000000B4420000FF0F00E400E00024002086
:101E5000D1C3000070B5104CD4F880300B2B18D1D2
:101E60004FF0FF330D4A0E4E0E4D116804324B40B9
:101E7000202103F00100013906FB00F080EA530342
:101E8000F7D1AA42F1D1D4F8A800C31A5842584158
:101E900070BD0020FCE700BF00FF272080FF272047
:101EA0002083B8EDA8FF2720184A002370B5C2E9A7
:101EB0002033C2E92233C2E92433C2E92633C2F80F
:101EC000A830BFF34F8F4FF0E0248032C4F8702F5A
:101ED0002032C4F8702FBFF34F8FBFF36F8F0C4ABF
:101EE0000C4E91680C4D91601C2113632846C6F876
:101EF000C03F00F0D5FAC6F8DC0FBFF34F8FC4F82F
:101F0000685FBFF34F8FBFF36F8F70BD00FF272057
:101F100000800F4000F02720C0FF27202DE9F04768
:101F20000C46FFF797FF002800F0D081AD4E204609
:101F3000AD494FF03C0800F09BFAD6F8A470AB49CD
:101F40002046B7FBF8F9B9FBF8F5C6F8A45000F045
:101F50006FFA18232046B5FBF3F103FB1151C9B208
:101F600000F0A2FAA249204600F062FA08FB15919F
:101F70002046C9B200F098FA9D49204600F058FA70
:101F800008FB19712046C9B200F08EFA204600F015
:101F90005BFA9849204600F04BFA1022D6F89810C8
:101FA000204600F06DFAD6F88850002D56D09249A0
:101FB000204600F03DFA1022D6F88810204600F0A6
:101FC0005FFAEA0740F1D2808C49204600F050FACF
:101FD0002A0629D58A49204600F02AFA1022D6F886
:101FE0009010204600F058FAD6F890201F2A00F2F0
:101FF000CE808449204600F01BFA1022D6F89810B3
:10200000204600F049FA8049204600F011FAD6F83F
:1020100098101022204600F03FFA7C49204600F03C
:1020200007FA204600F010FAEB0540F1BA80784933
:10203000204600F01DFA2F0409D57649204600F00D
:10204000F7F91022D6F89410204600F019FAE803A8
:1020500040F1BC807049204600F00AFAD6F88C5056
:1020600085B16E49204600F0E3F91022D6F88C10B5
:10207000204600F005FAA80740F123816849204670
:1020800000F0F6F96749204600F0D2F996ED280AEB
:1020900002212046B7EEC00A00F00AFA6249204643
:1020A00000F0C6F96149204600F0C2F9604B614971
:1020B0000A2218680023B0FBF1F1204600F0BCF9B9
:1020C0005D49204600F0B4F95C4B9D68AA0708D52D
:1020D0001A6B20465A4B9A420CBF5A495A4900F093
:1020E000C7F96F0703D55949204600F0C1F92E07FB
:1020F00003D55749204600F0BBF9E80603D55549FA
:10210000204600F0B5F9A90603D55349204600F052
:10211000AFF96A0603D55149204600F0A9F92B060C
:1021200003D54F49204600F0A3F915F4807500F05F
:10213000E6804C49204600F09BF9404A4A49204637
:10214000936823F48073936000F092F94749204626
:1021500000F08EF9464B07221A64464A936B43F00F
:1021600040039363BFF34F8F30BFFDE7AB0701D54B
:1021700041492AE72F0701D5404926E7E80601D55E
:102180003F4922E7A9067FF523AF3E491DE73E4BB5
:102190009A42FFF446AF20339A42BFF442AF3B4924
:1021A0003CE7AF0501D53A4942E7680501D5394911
:1021B0003EE7290501D538493AE7EA0401D5374910
:1021C00036E7AB047FF537AF354931E7A90301D5D1
:1021D000344940E76A0301D533493CE72B0367D50F
:1021E000324938E700FF27205F1500206C150020DA
:1021F000951A002093150020B8150020C115002065
:1022000087160020A9160020C816002007170020F6
:1022100067170020A0180020C21800209E19002077
:10222000A7190020EA1900200D1A0020131A002017
:10223000B41D002040420F00311A002000800F40E2
:10224000F100AD0B8E1B0020D71B0020181C0020B6
:10225000401C00206B1C0020921C0020BC1C002095
:10226000DE1C0020001D00202A1D00204C1D002027
:1022700000C00A4000400D40EA1500200C16002066
:10228000361600205C16002040160220251700207C
:1022900088170020B5170020FA1700203A180020F0
:1022A0006E180020E618002019190020421900209D
:1022B000EF0101D53349CEE6AD017FF5CFAE32490E
:1022C000C9E669007FF5DEAE3049D8E630492046E0
:1022D00000F0CEF82F49204600F0CAF82E492046DB
:1022E00000F0C6F82D49204600F0C2F82C492046DF
:1022F00000F0BEF82B49204600F0BAF8E4E62A4F79
:10230000D7F8C030C3B3D7F8DC601C21274800F0F1
:10231000C7F8864230D1DFF8A080DFF8A090DFF860
:102320008CA00123D7F8C0202E46AB4001351342C4
:1023300020D04146204600F07BF829460AEB86066D
:10234000204600F0A1F84946204600F071F800232D
:102350000A227168204600F06FF81549204600F007
:1023600067F871681022204600F096F8114920465F
:1023700000F07EF8062DD4D1FFF796FD0120BDE8D0
:10238000F08700BF5919002082190020CE190020C3
:10239000361A00204E1A0020971A0020E11A002059
:1023A000061B00204E1B002000FF2720C0FF272017
:1023B0009E1D00204C1B00208F1D0020071A0020AE
:1023C00008B5FFF747FD003818BF012008BD00BF62
:1023D0000F4BDA6E42F44032DA66DA6E42F4407243
:1023E000DA66A3F5603340F237625A64A0229A6439
:1023F0009A6C1206FCD4074A40F237635364A02358
:102400009364936C13F08003FBD1034A13707047FD
:1024100000C00F4000800C40E4150220F8B500BF5A
:10242000F8BC08BC9E4670475FF800F09DAF000006
:102430005FF800F0FDCA00005FF800F0BBCC0000C0
:102440005FF800F059A700005FF800F069CC0000C9
:102450005FF800F011F200005FF800F0095A000088
:102460005FF800F081C500005FF800F067C300006E
:102470005FF800F0610D00005FF800F0E5BC0000BF
:102480005FF800F015CB00005FF800F057CC0000BB
:102490005FF800F0B9C800005FF800F00DCB000055
:1024A0005FF800F029CB00005FF800F005CB0000DA
:1024B0005FF800F061CD00005FF800F073CB000022
:1024C0004500000099060000750C0000593100001D
:0424D000BD3B000010
:1024D40000F03F000F4B22F0604221F0604140F4D5
:1024E40089101867C3F88010C3F890201A6F22F47B
:1024F40080521A671A6F002AFCDAD3F8702122F48A
:10250400000222F40042C3F870211A6F22F48032D0
:102514001A67704700800D4080C00F400000000320
:102524001900000010000000E8841F4001000000B2
:10253400FF000000FF000000000000000000000099
:102544001800000010000000E4841F400100000097
:10255400FF000000FF000000000000000000000079
:102564001F000000FD59000070C00F40000C000067
:102574001100000011000000E0841F400200000070
:102584002C00000012000000E0841F400100000045
:102594001000000011000000DC841F400200000055
:1025A4002D00000012000000DC841F400100000028
:1025B4001E000000F159000070C00F40C000000070
:1025C4001200000013000000D0841F40010000002E
:1025D400FF000000FF0000000000000000000000F9
:1025E4001300000013000000CC841F400100000011
:1025F400FF000000FF0000000000000000000000D9
:102604001C000000E559000008034D005400500070
:1026140020035400650065006E00730079002000FB
:102624004D005400500020004400690073006B000A
:1026340018035400650065006E007300790064009F
:10264400750069006E006F00040309040902690043
:10265400030100C032080B00020202010009040059
:1026640000010202010005240010010524010101FA
:102674000424020605240600010705820310001045
:1026840009040100020A00000007050302400000DB
:10269400070583024000000904020003060101004B
:1026A40007058402400000070504024000000705F6
:1026B400850320000A09026900030100C032080BE7
:1026C40000020202010009040000010202010005E7
:1026D4002400100105240101010424020605240636
:1026E40000010705820310000509040100020A0025
:1026F4000000070503020002000705830200020030
:102704000904020003060101040705840200020013
:1027140007050402000200070585032000070A06D6
:082724000002EF020140010078
:10272C00000000000000000000000000000000009D
:10273C00000000000000000000000000000000008D
:10274C000548064B1B1AD90F01EBA301491002D007
:10275C00034B03B118477047C0260020C026002049
:10276C000000000008B5054B1BB105490548AFF347
:10277C000080BDE80840FFF7E3BF00BF0000000089
:10278C00380C022000840160002070477047836C75
:10279C0013B1184607F0E0BCC06C08B106F08CBE53
:1027AC007047836C07B553B101220DF10701184630
:1027BC0007F0B8FA012804D19DF8070003E0C06CBB
:1027CC0020B94FF0FF3003B05DF804FB01220DF18E
:1027DC00070105F07FFFEDE7836C13B1184607F096
:1027EC0064BBC06C08B106F038B84FF0FF307047CE
:1027FC00836C10B55BB1187810F008001EBFD86957
:10280C005B69C01A0028B8BF6FF0004010BDC06CE7
:10281C000028FBD090F8313013F008030ED0D0E92B
:10282C000413D0E90024881A63EB0403B0F1004FC1
:10283C0073F1000328BF6FF00040E7E71846F5E797
:10284C0008B50CF01DFC0A4B1B7803F0FF006BB1B4
:10285C00084B187810F0010008D0074B1868074B8C
:10286C001B68C01A0E2894BF0020012008BD00BFB1
:10287C000F1602200E16022080130220A013022035
:10288C0000230A220CF0A9BD13B5044661B1084619
:10289C0001910FF0CDF82368024601995B68204640
:1028AC0002B0BDE81040184702B010BDFFF7ECBFF6
:1028BC0010B50446FFF7E8FF2046BDE810400CF0C9
:1028CC0063BD000038B50C4B04460C4D036000F59D
:1028DC00AC7040F8105C08F06FFD04F58470C4F81F
:1028EC00F85008F069FD04F1B800C4F8A85008F0DD
:1028FC0063FD204638BD00BF500400202C0400208E
:10290C00836B13B1184607F097BEC06B08B106F085
:10291C007FBF704708B51030FFF7F2FF08BD07B551
:10292C0001228DF807100DF107011030FFF7E8FFB9
:10293C0003B05DF804FB0000094B0022642010B5C5
:10294C00084CC3F840210BF05DFD12F0E9F9FFF7DC
:10295C0077FF00B110BD204604F052FEF7E700BF30
:10296C0000002E40002700204FF0E023014AC3F85E
:10297C000C2D70470400FA05074B5A6E42F40032D6
:10298C005A665A6D22F023025A655A6D42F00102C2
:10299C005A65BFF34F8F704700C00F402DE9F04FC1
:1029AC006C4E8BB06C4D33686C4C0133336002F061
:1029BC0055FA2B886A4A8342136838BF288013F073
:1029CC00010F09D1674B1B68012B4FF0FF3318BF68
:1029DC000023238001231360208800B202F0C8F981
:1029EC00208023881B0402D55F4804F009FE23884D
:1029FC001BB2002B03DD5D4B0822C3F8842020881A
:102A0C0000B202F0C9FE208023881BB2002B03DD2C
:102A1C00564B0822C3F88820554B564F1B6807931A
:102A2C003B68079A03F57A73934271D2524BDFF8E5
:102A3C0084A1B3F90030DFF88091DFF88081002B9E
:102A4C005BD008A803F0BAFB9DF92430BDF9202017
:102A5C0004939DF92730494903939DF92630484842
:102A6C0002939DF9253001939DF9233000939DF934
:102A7C0022300CF0A5FC43494148FFF717FF3168A1
:102A8C003F48FFF7FDFE40493D48FFF70FFFDAF8DE
:102A9C0000103B48FFF7F4FE3B493948FFF706FFAF
:102AAC00D9F800103648FFF7EBFE37493448FFF7EA
:102ABC00FDFE2A88354932480CF082FC34493048F6
:102ACC00FFF7F4FED8F800102D48FFF7D9FE314976
:102ADC002B48FFF7EBFE304B1C8824B2E4B92F4B8C
:102AEC002F49DFF89CB053F82420013458460CF0E1
:102AFC0067FC082C2A49294BF5D100233360CAF80E
:102B0C000030C9F800302B80C8F80030079B3B60C0
:102B1C0030BF0BB0BDE8F08FDFF894B00024214932
:102B2C00174B013418465BF8042B0CF049FC182C9D
:102B3C00134B1C49F5D11C4C18461C4922680CF04F
:102B4C003FFC602200211A480AF096F9002323600A
:102B5C00D3E700BF44080220CC130220CE1302207E
:102B6C00CC7D00209413022000270020004000425E
:102B7C008013022040080220D4130220A914002044
:102B8C00B81D0020CA140020D3140020CE1400203D
:102B9C00D2140020D5140020D61302200C0C0220D5
:102BAC00DA140020DF1400202C0C0220E414002086
:102BBC00580C0220500C0220540C0220980B0220BE
:102BCC0010B50B4C0B490C48FFF772FE23685BB138
:102BDC0000F03AFB00F078FB03F04EF8074906488A
:102BEC00BDE81040FFF764BE01200BF00BFCEDE7D5
:102BFC00C011022020100020B81D0020271000203A
:102C0C0070B50546D0F88C0488B90026D5F8800438
:102C1C0040B307F043FF04463EB1D5F88C0488B1AD
:102C2C00036800215B6C984760B1204670BD036857
:102C3C00DB6B98470028E8D0D5F88C0420B9D5F880
:102C4C008C0438B90024F0E703681B6C9847002803
:102C5C00DBD1F4E7036801215B6C9847064600283A
:102C6C00D4D1EFE7D5F884040028D4D006F0FDF9D0
:102C7C00D1E700002DE9F341454CFF230021454EDF
:102C8C0004F5926584F8BC3484F8C814284609F01D
:102C9C00A1FD2846C4F88C5409F01AF9002850D12B
:102CAC000123D4F88C1420461A4608F035FC002871
:102CBC0047D0394B5A68132A51DDD4F88034002B95
:102CCC0057D0DD69013D3248FFF79AFFD4F88034C4
:102CDC000746002B54D09B794FF400749C40A4B24F
:102CEC0033684FF00A08002600220093FE232B497C
:102CFC002B480CF065FB2B492948FFF7D7FD2A46DA
:102D0C0033462748CDE900860CF071FB2649244850
:102D1C00FFF7CCFD3A4633462148CDE900860CF04E
:102D2C0066FB22491E48FFF7C1FD24FA08F11C4836
:102D3C00FFF7A6FD1E491A4802B0BDE8F041FFF7A7
:102D4C00B7BD336800221B490093FE2314480CF0D6
:102D5C0037FB134802B0BDE8F0410CF015BB03EB98
:102D6C00820130688860511C596003EB82039C65BA
:102D7C00A3E7D4F88454002DA5D0D5F83054A2E79D
:102D8C00D4F88444002CABD0D4F83C44A8E700BF62
:102D9C00F00C022068230020C4110220240E002015
:102DAC00B81D00203B0E00204E0E00205F0E0020B0
:102DBC006E0E0020F90D002038B5304D0024304B3C
:102DCC004FF47A722F4928462B602F4BC5F8B02050
:102DDC00C5F8A830C5F8F830C5F848316FF00103D4
:102DEC006C60C5F8AC4085F8B44085F8044185F8B2
:102DFC005441C5F8A041A5F8AC41C5E93F42C5E92D
:102E0C005342224AC5E96934C5E93C44C5E95044FA
:102E1C00C5E96444C5E966440CF0CAFB1C4B1D496A
:102E2C0020461D6003F50053184AC3F8204483F86C
:102E3C002444C3F82844184BC3F890141749C3F81A
:102E4C008044C3F8A4140721C3F88444C3F8A8141D
:102E5C002921C3F88C4483F8AD141149A3F8984484
:102E6C00C3F89C1483F8B14483F8B84483F8C8447D
:102E7C000C49BDE838400CF09BBB00BFC4110220CC
:102E8C0050040020A50100005405002090210020D2
:102E9C00002700209C050020F00C022000093D00BA
:102EAC00BC0400206D000000F0B54D4D87B04D48BE
:102EBC0040F2EE270AF002FC4B4E2C68FFF7C0FCE8
:102ECC0090B101F04DFD03880446012B18D042F25D
:102EDC000F762B68B3421DD8FFF7B2FC0028F8D050
:102EEC00424B01221A6015E02B6832781B1B2AB169
:102EFC00B3F5FA6FE5D80CF0C3F8DFE7BB42F9E79E
:102F0C003B4B3C4A1B6812689342384A8CBF0023E7
:102F1C000123136038493948FFF7CAFC3849374850
:102F2C00FFF7C4FC218835480CF025FA33480CF027
:102F3C002BFA344811F004FF18B13049314811F024
:102F4C00F3FE02F077FEFFF717FDFFF793FE2E4915
:102F5C002A48FFF7ADFC1321122003F00FF903F000
:102F6C0091F904A803F02AF918B928492348FFF766
:102F7C009FFC9DF917300124BDF9102003939DF996
:102F8C001630234902939DF915301C4801939DF985
:102F9C00133000939DF912300CF012FA17480CF014
:102FAC00F3F91C491548FFF781FC03F07FF9014642
:102FBC001248FFF77DFC18491048FFF779FC02F026
:102FCC0073FC164B16490D481C60FFF771FCFFF79C
:102FDC00F7FD21460D200BF0DDFD07B0F0BD00BF65
:102FEC008013022000366E010F160220941302206B
:102FFC00901302207C230020B4100020B81D002068
:10300C00E8140020AC1D0020F5140020FE14002054
:10301C00131500203A15002043150020C011022082
:10302C004F15002010B504460CF0E0F8204610BDFA
:10303C0038B5254B1A6811691A79244BDA77244A6A
:10304C00A2F58063914238BF13461946BFF34F8FE8
:10305C0003F1200003F58062824234BF012220225A
:10306C004FF0E02003EB4212C0F85C1F203191427C
:10307C00FAD1BFF34F8FBFF36F8F1649164C0A6806
:10308C00164D01320A600022288853F832100132A2
:10309C0000B2802A41FA00F144F8041BF4D1104A22
:1030AC0013881BB243B90C4801F0ECFE18B90D4A59
:1030BC0013680133136038BD13881BB2012BFAD18E
:1030CC00054802F04BFCF1E7DCFF012000800E40CC
:1030DC0000042020500C0220980902207A140220AF
:1030EC00D6130220540C02202DE9F043DFF84C914A
:1030FC00052205464E49D9F8003048465B682DED4F
:10310C00028B83B09847802148460CF034F948462E
:10311C000CF03AF91A23E901464801330A46002417
:10312C0000FB03FC264601349CFBF2F808F1010776
:10313C00402F05DD092C0A44F4D1362BEDD108269D
:10314C002A463D493D4808F03F08B601CDE9004705
:10315C000CF036F907EE905AD9F800300322B8EE8D
:10316C00E77B37495B6806F4E07634489FED2A6BC1
:10317C0027EE067B06EE904AB8EEE66B27EE067B52
:10318C0006EE907AB8EEE66B27EE067B9FED246B8D
:10319C0087EE068B984702212848B0EE480B0CF0BE
:1031AC006FF926480CF0F0F8FDEEC87B42F2107275
:1031BC0017EE900A02FB00F307EE103A9FED1A6B24
:1031CC00B8EEC77B98EE067BFDEEC77B17EE901A28
:1031DC0011F0AEFD1B4AD36923F4406343F4006342
:1031EC00D361936A23F4FF7323F0010343EA0803CA
:1031FC0033439362A2F5A022536823F4002323F0F7
:10320C00070343F40023536003B0BDEC028BBDE80D
:10321C00F08300BFAFF300800000000000006040AE
:10322C000000000060E37641000000000088C3400D
:10323C00D20D002000366E01D80D0020B81D0020E4
:10324C00F50D002000C00F40194AD36F10B543F4A0
:10325C004023184CD367D4F88830002B27DB164B4F
:10326C001868FFF741FF154B0322C3F82021C3F860
:10327C002821C3F82421C3F87C210222C3F8942509
:10328C000023C4F8E0300423C4F88C304FF0A06362
:10329C00C4F890304FF48033C4F894301B33C4F826
:1032AC009830074BC4F89C30064BC4F8883010BDDE
:1032BC0000C00F40004038405C23002000801F40BD
:1032CC00001F1F1F0100009210B5204C0121204649
:1032DC000BF03EFF23681E4A1E491A6004221E484A
:1032EC009A8218611D48C3E901124FF40072002143
:1032FC00DA82A2F52062D9609A61DA8A92B2DA8314
:10330C0006229A832379164A9B0003F1804303F526
:10331C006C2319601A602379124A03F1100142F8E8
:10332C0021005A1103F01F00012102F1382203F190
:10333C0060438140403203F5644392001160602287
:10334C001A70094B2279DA7610BD00BFDCFF012020
:10335C00A0403840000002020000202011090000AB
:10336C00130000800024002000800E4010B5084C93
:10337C00D4F8883023F01043C4F88830FFF7B4FE3B
:10338C00D4F8883043F01043C4F8883010BD00BF27
:10339C00004038400548002108B50BF0D9FE044A1E
:1033AC0004490248BDE808400CF002B9DCFF0120DA
:1033BC0090210020050900004368132B10B505DC93
:1033CC0000EB83040133A2604360A16510BD40682B
:1033DC00704700EB8101886870470020704701201E
:1033EC00704710B400240C70836B23B118465DF841
:1033FC00044B06F0EBBBC06B18B15DF8044B05F049
:10340C0047B85DF8044B704710B5044600230A22F8
:10341C000BF0E3FF2046BDE810400BF0B5BF13B531
:10342C000446084659B101910EF002FB236802468E
:10343C00019920465B6802B0BDE81040184702B005
:10344C0010BD000038B50B4C05460B492046FFF764
:10345C00E6FF0A492046FFF7E2FF2E200AF0B2F8F9
:10346C00294620460BF087FF2046BDE838400BF07C
:10347C008BBF00BFB81D0020041100200F110020CD
:10348C0038B50546FFF7CBFF044628460BF07CFF0A
:10349C00204438BDD0F880342BB19B794FF40070A8
:1034AC00984080B27047D0F8840408B1D0F83C043E
:1034BC007047D0F8803413B1D86901387047D0F810
:1034CC00840408B1D0F83004704700EB810138B5A2
:1034DC008D6D2846FFF7EDFF04462846FFF7DAFF0F
:1034EC00A4FB000138BDD0F8803430B50D4691B046
:1034FC0014468BB1002203F5896102A8134602928F
:10350C002A46019106F070FE019918B1224602A8D4
:10351C0006F0CAFF11B030BDD0F884040028F9D0F1
:10352C0000F589612A4602A80E93019105F0C2FBB1
:10353C00019908B90020EDE7224602A806F0B8F878
:10354C000028F7D0E6E7836B10B55BB1187810F064
:10355C0008001EBFD8695B69C01A0028B8BF6FF09D
:10356C00004010BDC06B0028FBD090F8313013F038
:10357C0008030ED0D0E90413D0E90024881A63EBB9
:10358C000403B0F1004F73F1000328BF6FF000404B
:10359C00E7E71846F5E7836B13B1184606F095BEBE
:1035AC00C06B08B105F023B87047836B33B11B783F
:1035BC0013F0700F14BF012000207047C06B00285F
:1035CC00FBD090F8313013F0500FF3E7836B23B935
:1035DC00C06B003818BF012070470120704738B508
:1035EC0000F1B80504462846FFF7F0FF10B1284655
:1035FC0007F0E2FE002384F8AC31C4F8A83138BDE2
:10360C00836B13B1184606F08DBBC06B08B105F087
:10361C0061B84FF0FF30704730B4856B114625B15F
:10362C0043B9284630BC06F072BCC06B10B130BC3C
:10363C0005F028B9002030BC704708B500F584703F
:10364C00FFF75EF908BD000000224FF47A71027397
:10365C00C0E90121C0E91222014A0260704700BF93
:10366C0054050020044B10B5044640F8103B07F0FD
:10367C00A3FE204610BD00BF2C04002000EB8101EE
:10368C004B6DD3F8801400B58FB051B1002301F508
:10369C00896168460093012306F0B4FE0FB05DF813
:1036AC0004FBD3F884040028F8D00C91012300F516
:1036BC008961684605F09DFFF0E7000030B50446CF
:1036CC0091B00D46154811460192FFF7D9FE019AAB
:1036DC0004EB85014B6DD3F8801459B1002302A87B
:1036EC000293012306F0CFFD10B102A807F008FEEB
:1036FC0011B030BDD3F884040028F9D00E91012309
:10370C00014602A805F039FB08B90020F0E702A831
:10371C0005F0F2FD0028F8D0EAE700BFB81D002044
:10372C0000EB81014B6DD3F8801400B58FB059B10B
:10373C0000236846009306F0A6FD10B1684606F01B
:10374C0036FC0FB05DF804FBD3F884040028F8D0E5
:10375C000B460C910146684605F00FFB08B900209A
:10376C00EFE7684605F00EFE0028F8D0E9E7000008
:10377C0030B500F1B80595B004462846FFF726FF92
:10378C00F8B9114A40F20223A16D684607F02EFFEA
:10379C00019B04A92846C4F8AC30029BC4F8B03095
:1037AC009DF80C3084F8B43007F01BFE6846FFF728
:1037BC0059FF2846FFF70AFF18B904490448FFF7D8
:1037CC005FFE15B030BD00BF471100205511002021
:1037DC00B81D002010B50446B830FFF7F7FE78B1DD
:1037EC00236820461B6C98470023204684F8AD3193
:1037FC006FF00103C4F8A431BDE81040FFF7B8BF67
:10380C0010BD73B504460D464FF48C760192B83456
:10381C00FFF7AEFF06FB05F200232046FFF7FCFE88
:10382C00324601992046FFF76BF802B070BD10B517
:10383C00D0F8A8410A46611CC0F8A8112146FFF730
:10384C00E0FF204610BD00000123164A0021F0B510
:10385C00044680F8AC31C7B00430FFF72FFF0025C9
:10386C0063684FF0FF36104FC4F89831C4F8A85174
:10387C00D4F898319D4201DB47B0F0BD00233946A6
:10388C0006A8ADF80E5000960135CDE901330123A1
:10389C00ADF80C300EF072F869462046FFF7C7FF02
:1038AC00E6E700BF47110020BB0D0020F8B54FF430
:1038BC008C770C46164600213A46054609F0DCFA90
:1038CC00D4F8A831B3420ED32046B834FFF750FFDA
:1038DC0007FB06F200232046FFF79EFE3A462946D8
:1038EC002046FFF78DFE2846F8BD30B50446C7B01C
:1038FC00D4F8B05175B12A4621466846FFF7D6FF79
:10390C0094F8B4314BB1029BC4F8B0319DF8183027
:10391C00002BEDD0284647B030BDD4F8B011D4F808
:10392C00A8210131914238BF0B46EDE730B5CDB03F
:10393C0015460A46014606A81C46FFF7B7FF0CA918
:10394C0028460EF01BF8509B069A1A609DF82430FE
:10395C00002B3DD1079BBDF82A10BDF8262001F0A5
:10396C001F002360519B40001A80BDF82820049052
:10397C00C1F34510C90A530A0390029102F01F01CA
:10398C00C2F3431203F2BC730191202100925298AE
:10399C00114A0DF0CFFDBDF82E10BDF82C2001F012
:1039AC001F00530A400003F2BC730490C1F345108E
:1039BC00C90A0390029102F01F01C2F343125398FB
:1039CC00019120210092044A0DF0B4FD4DB030BDA0
:1039DC004FF0FF33BFE700BF2D11002000B5C7B07B
:1039EC000A4601466846FFF761FF019847B05DF84B
:1039FC0004FBD0F8403170B50446C8B0A3B3DD6900
:103A0C0004F584760DF1020269463046FFF7C3FDDA
:103A1C000DF1060201A93046FFF7BDFD304607F057
:103A2C00CBFCD4F8A421214602A8FFF73FFFBDF838
:103A3C00003002AAD4F8A411ADF818302046BDF815
:103A4C0002300395ADF81A30BDF80430ADF81C30D7
:103A5C00BDF80630ADF81E30FFF7D3FE6FF0010352
:103A6C00C4F8A43148B070BDD0F84451002DC7D073
:103A7C002D69C5E770B5C6B0064614460A46014620
:103A8C0068461D46FFF712FF00994B1C07D11049E1
:103A9C0020460DF073FFBDF80E0046B070BD2B46EE
:103AAC0022463046FFF7E6FF20460DF0C1FF2044CA
:103ABC0010F8013C2F2B04D02A46054920460DF066
:103ACC0087FE2A4606A920460DF082FEE3E700BFDA
:103ADC00BB0D0020F0B5ADF21C4D4FF480730446C5
:103AEC000D4617466A46FFF7C5FF694606461E484F
:103AFC00FFF7C6FC2A462146C0A8FFF7D7FE4FF4B5
:103B0C008072C6A980A80DF086FE4FF480723946EB
:103B1C00C6A80DF080FEC0AA29462046FFF771FE0C
:103B2C004FF48073294604EB86060DEB0302204606
:103B3C00FFF7A0FF40A90C48FFF7A2FCB06D40AA0C
:103B4C006946FFF7D0FC064650B94FF4807280A945
:103B5C00C6A80DF060FEC0AA29462046FFF751FE0C
:103B6C0030460DF21C4DF0BDB81D0020D0F8A4312C
:103B7C008B422DE9F0410446D4B00E46154603D1D4
:103B8C00D0F8A03193422BD004F584784FF4807395
:103B9C0014AA31462046FFF76DFF07464046FFF753
:103BAC0015FD10B1404607F007FC04EB870714AA7B
:103BBC002B466846B96D07F019FD019B04A94046D8
:103BCC00C4F8FC30029BC4F800319DF80C3084F82A
:103BDC00043107F006FC6846FFF744FDC4E968565B
:103BEC0054B0BDE8F08170B5044616461D4600225F
:103BFC0004F58474FFF7BAFF324600232046FFF722
:103C0C000BFD049A29462046FFF7FAFC70BD2DE9FE
:103C1C00F041B2F1FF3F14BF90468846ADF54C7DA4
:103C2C0004460E464246014640A81F46FFF73EFE9C
:103C3C004FF48072D2998CA80DF0EDFDBDF80E31C9
:103C4C00419A86A9ADF826320023204688928793A4
:103C5C00CDF818828DF82472CDE98A3301238DF8C2
:103C6C002532FFF7E4FD40AA054641904146204627
:103C7C00FFF7C7FD87B16A4629464FF4807320468B
:103C8C00FFF7F8FE6A463146201DFFF7F7FC284681
:103C9C000DF54C7DBDE8F08140F20222294620460C
:103CAC00FFF764FFF3E790F8AC310BB9FFF7CCBD2D
:103CBC0070472DE9F043B2F1FF3F14BF16460E4694
:103CCC00ADF50D7D0146044632466846FFF7EEFD24
:103CDC009DF80C30002B7BD09DF80D50002D77D12A
:103CEC0004F5847820462A463146FFF73FFF4046CC
:103CFC00FFF76CFC00286BD0A94646A804F5AC77FE
:103D0C00FFF7A2FC002241464AA807F0D5FB479BCF
:103D1C004AA93846C4F84C31489BC4F850319DF838
:103D2C00243184F8543107F05CFB46A8FFF79AFC69
:103D3C003846FFF74BFC002841D0BDF80E30384612
:103D4C004696ADF826314895FFF72FFC8DF82401E7
:103D5C0048BBD4F8903103B3DB694FF480724CA9A3
:103D6C00384647938DF82591FFF73BFB0DF595727F
:103D7C004AA93846FFF70FFCD4F89001A8B10DF50D
:103D8C0097724BA906F0B1FA46A92046FFF74FFDF2
:103D9C000546384607F010FBAFE7D4F89431002BFA
:103DAC00DBD01B69D9E70023D7E7D4F894010028AE
:103DBC00EAD00DF597724BA904F029FCE4E7012336
:103DCC006A46314620468DF80D300195FFF719FDF6
:103DDC000DF50D7DBDE8F08310B5B2F1FF3F08BFC6
:103DEC000A46C8B004460192FFF763FF0123019A0B
:103DFC00214602A884F8B431FFF758FD039BC4F8A0
:103E0C00B03148B010BD70B590F8AD4105460E46C6
:103E1C0044B9012380F8AD31FFF745FFD5F8A8313F
:103E2C009C4200D370BD2246314628460134FFF730
:103E3C0040FFF3E770B5154604460E46FFF733FF17
:103E4C0035B12A4631462046BDE87040FFF7C4BF65
:103E5C0031462046FFF7D7FF012384F8B451C4F84C
:103E6C00B03170BD2DE9F0430C46ADF53F7D00EB54
:103E7C0081010646071D002302A8896D154607F02F
:103E8C00B5FB06A8FFF791FB002850D0DFF8AC90EB
:103E9C0016A8FFF7D9FB2AA8FFF7D6FB002206A924
:103EAC002EA807F009FB2B9B2EA91AA817932C9B65
:103EBC0018939DF8B4308DF8643007F092FA1AA874
:103ECC00FFF784FB80462AA8FFF7CCFBB8F1000F64
:103EDC000ED12A4621463846FFF722FC16A8FFF7DA
:103EEC00C1FB02A8FFF7BEFB0DF53F7DBDE8F083DB
:103EFC000DF5FC784FF480721AA84146FFF771FA61
:103F0C004A464FF480712B463EA8CDF800800DF048
:103F1C0011FB1AA8FFF749FB3EAA214618B13046FF
:103F2C00FFF7A0FFB7E73846FFF7C8FBB3E72A4611
:103F3C0021463846FFF7C2FBD3E700BF271100200C
:103F4C00F0B5ADF2645D04460D464FF4807346AA9D
:103F5C00FFF790FD2A46214686A8FFF7A7FC46AA44
:103F6C00BDF826122046FFF77DFF002386AA2946BE
:103F7C0020468DF83032FFF744FC869A2146CCA8B7
:103F8C00FFF794FCCD9EB54209D1889BCCAA8699AB
:103F9C00CD932046FFF735FC0DF2645DF0BD324643
:103FAC0021460DF58960FFF781FCDDF85074BD42A8
:103FBC0006D1889B0DF589623146CDF85034E8E77F
:103FCC003A46214668463E46FFF770FC4FF48C7229
:103FDC0069460DF5896008F071FFE6E708B54B1CE2
:103FEC0001D0FFF7ADFF012008BD70B500EB8101DA
:103FFC00ADF50A6D05461E46496D0023684607F06F
:10400C00F5FA04A8FFF7E2FA044650B940F2B220E0
:10401C00FFF718FA6846FFF725FB20460DF50A6DE9
:10402C0070BD05EB860540F20223DDF8B02814A81C
:10403C00696D07F0DBFA18A8FFF7C8FA044650B907
:10404C0004A807F0B9F940F2B520FFF7FBF914A862
:10405C00FFF708FBDEE74FF0FF3504A8FFF773FA14
:10406C0000280FDD4FF4006228A904A8FFF7C8FA56
:10407C00051E07DB2A4628A918A8FEF741FCB5F552
:10408C00006FEADA04A807F097F918A807F094F97A
:10409C00002DDCDA40F2C1200024FFF7D3F9D6E77B
:1040AC002DE9F041ADF5AA6DB3F1FF3F14BF984671
:1040BC00904604460A460F46014682A888AEFFF792
:1040CC00F5FB42462146C8A8FFF7F0FB9DF81452B9
:1040DC000DB3BDF816123A4620460131FFF7E9FD43
:1040EC009DF8143222682046003B0096BDF82E1332
:1040FC00D56A18BF01234246A84723680546BDF878
:10410C002E235E6D394603462046B04728460DF5F2
:10411C00AA6DBDE8F0814FF4807231460DF58A60CE
:10412C000DF079FBBDF82E330DF587612046ADF807
:10413C004634C99BCDF83C54CDF84034ADF84454CA
:10414C00CDF83884FFF773FBC8AA05464146C990E1
:10415C002046FFF756FB02AA39464FF4807342AF54
:10416C002046FFF787FC06463A4629464FF48073F3
:10417C002046FFF77FFC02AA03463146201D00971C
:10418C00FFF733FFC2E72DE9F043ADF26C6DB3F1ED
:10419C00FF3F14BF1F46174604460A46014682A835
:1041AC00FFF784FB3A462146C8A8BDF816820025C5
:1041BC00FFF77CFB839E56B92046C8AA3946C995A1
:1041CC00FFF71FFB01200DF26C6DBDE8F08332464A
:1041DC0021460DF58760FFF769FB4FF48C720DF5E6
:1041EC0087610DF5AA6008F069FEBDF82E330DF558
:1041FC00AA612046ADF85E35CDF85855CDF850750E
:10420C00FFF715FB05464FF4807302AA3146204692
:10421C00FFF730FC42AA4FF4807329462046FFF783
:10422C0029FC9DF85C15201DBDF85E3542AA99B19C
:10423C001946FFF723FA324641462046FFF739FD6F
:10424C002368BDF82E233146D3F8549020462B46D4
:10425C00C847DDF84064AEE70092414602AAFFF77A
:10426C00C4FEF6E72DE9F341DDF820800E46174633
:10427C001946424601930546FFF700FA019B044696
:10428C0048B13A4631462846CDF8208002B0BDE808
:10429C00F04100F009B840F2CB20FFF7D3F82046EC
:1042AC0002B0BDE8F08100002DE9F0410E46ADF5FD
:1042BC002A7D00EB81010546984602A80023496D32
:1042CC00174607F093F906A8FFF780F90446002873
:1042DC0059D0424C4FF4807239462AA80DF09BFA03
:1042EC002AA80DF0A5FB2AAB184410F8013C2F2B83
:1042FC0005D04FF4807221462AA80DF069FA4FF4CC
:10430C008072B0996AA80DF086FA6AA80DF090FB3D
:10431C006AAB184410F8013C2F2B05D04FF4807277
:10432C0021466AA80DF054FA16A8FFF78DF9002261
:10433C0006A91AA807F0C0F81AA8FFF747F9002831
:10434C0041D04FF480722AA91AA8FFF74AF84FF40B
:10435C0080726AA91AA8FFF744F81AA8FFF725F982
:10436C006AAB2AAA314600934346C0B12846FFF7F0
:10437C0079FF20BB40F2E220FFF764F816A8002476
:10438C00FFF770F903E040F2CE20FFF75BF802A8CC
:10439C00FFF768F920460DF52A7DBDE8F081284627
:1043AC00FFF723FE10B940F2E620E5E72AAA3146D2
:1043BC002846FFF783F910B940F2E720DCE716A88E
:1043CC00FFF750F986E716A8FFF74CF93A46314645
:1043DC002846FFF7A5F90446D9E700BFBB0D00201E
:1043EC002DE9F043ADF6CC2DB3F1FF3F14BF1F46C2
:1043FC00174604460A460D460146C8A8FFF756FA6A
:10440C003A4621460DF58760FFF750FAC89A2146C7
:10441C000DF5AA60FFF74AFA9DF82C336BB19DF8A5
:10442C002D3353B92A46BDF82E132046FFF741FC15
:10443C00C8AA29462046FFF7E4F94FF48C72C8A9A4
:10444C000DF5CD6008F03AFD4FF48C720DF58761D7
:10445C000DF5F06008F032FD4FF4807348AA294640
:10446C002046FFF707FBDDF85485A8453AD1CA9BD7
:10447C004FF0FF380DF5AA62C8992046CDF8543597
:10448C00FFF7BFF9BDF84634C8AA29462046ADF857
:10449C002E33DDF83C34C897CA93CDF83C54FFF763
:1044AC00B0F90DF5876239462046FFF7AAF94FF4AB
:1044BC008073294688AA2046FFF7DCFABDF87616E9
:1044CC00BDF88E37994255D104EB810388AA48A9CF
:1044DC00986DFFF708F8A8B3012630460DF6CC2DE1
:1044EC00BDE8F0834246214602A8FFF7DFF94FF4FE
:1044FC008C7202A90DF51B6008F0E0FC4FF48C7275
:10450C000DF51B610DF6980008F0D8FCDDF8B869C4
:10451C00AE4209D1CA9B0DF51B6241462046CDF82F
:10452C00B839FFF76EF9ADE73246214602A8B0461E
:10453C00FFF7BCF94FF48C7202A90DF51B6008F063
:10454C00BDFCDBE740F24320FEF77CFF0DF6980242
:10455C0041462046FFF755F90DF5CD622946204618
:10456C00FFF74FF90DF5F062394620460026FFF7AC
:10457C0048F9B2E79DF8742604F104098AB988AAAF
:10458C004846009248AAFFF730FD064630B148AACB
:10459C00BDF88E174846FFF791F89EE740F247208A
:1045AC00D2E788AA4846009248AAFFF75BFE00288B
:1045BC0092D140F24B20C7E770B500EB81050F4C50
:1045CC00A86DFEF776FF01462046FEF71DFFA86D8D
:1045DC00FEF716FB01462046FEF716FFAE6D304681
:1045EC00FEF767FF04463046FEF70AFB241AA86D57
:1045FC00FEF750FFA4FB000170BD00BFB81D0020EA
:10460C0010B504460AF0B7FE2046BDE810400AF08B
:10461C00BBBE10B5044600230A220AF0DEFE20467B
:10462C00BDE810400AF0B0BE13B5044661B10846AF
:10463C0001910DF0FDF92368024601995B68204653
:10464C0002B0BDE81040184702B010BDFFF7ECBF38
:10465C0010B50446FFF7E8FF2046BDE810400AF00D
:10466C0093BE000038B508F09DFE0028FBD0094C25
:10467C0041F28833084D0D212246AB602846282391
:10468C000AF026FE0023214623542846FFF7E0FFBC
:10469C00204638BD9A150220B81D002013B50446DB
:1046AC00FFF7E0FF01AA03490CF098FF019B236080
:1046BC0002B010BDC714002013B50446FFF7D2FF9B
:1046CC0001AA03490CF08AFF019B238002B010BDA4
:1046DC00C714002010B588B008F064FE0028FBD089
:1046EC0008F09AFEC0B2642815D1FFF7BBFF07ABE8
:1046FC0005AA514902930DF11303019306AB0093E4
:10470C000DF112030CF06AFF0598DDE9061201F0B9
:10471C0067FD08B010BD342809D83028F9D93238D3
:10472C00022800F28180DFE800F081838500613887
:10473C00C3B2162BEDD81628EBD801A353F820F0F2
:10474C00A7200000F31F0000E3200000F31F00006F
:10475C00F31F0000BB200000EF200000F31F00003F
:10476C00F31F0000F31F0000F31F0000F31F0000F5
:10477C00F31F0000F31F0000B3200000F31F000024
:10478C00F31F0000B7200000CF2000007D200000A8
:10479C00F31F0000F31F000005210000FFF762FF6C
:1047AC0007AB05AA244902930DF11303019306AB41
:1047BC0000930DF112030CF011FF0598DDE90612C0
:1047CC0001F020FDA5E71D4808B0BDE81040FFF73B
:1047DC0065BF1B48F8E71B48F6E71B4C2046FFF764
:1047EC005DFF206808B0BDE81040FEF7BFBD174C58
:1047FC002046FFF761FF23881B048AD50023238002
:10480C0087E7134808B0BDE81040FFF755BF114CBF
:10481C002046FFF751FF208840B208B0BDE8104099
:10482C0001F0FCBA0C48EDE70C48EBE70C48E9E763
:10483C000C48E7E70C48E5E715100020782300202A
:10484C007C230020901302205C2300207A14022089
:10485C00D613022084230020AC13022088130220DC
:10486C006C23002070230020742300204A000021B8
:10487C000AF0D2B84A00002109F076BF184B4FF469
:10488C007A72184810211B684380174B1B68838071
:10489C00164B1B68C380164B1B680381154B1B887A
:1048AC004381154B1B888381144B1B68C381144BAC
:1048BC001B680382134B1B684382134B1B68838258
:1048CC00124B1B6893FBF2F3C382114B1B880383BF
:1048DC00104B1B88438300238383C383FFF7C6BF1E
:1048EC0078230020AC1302207C2300208C130220A0
:1048FC0090130220D61302207A140220881302206F
:10490C006C23002070230020742300205C230020E3
:10491C0084230020D013022010B5044608F042FD79
:10492C000028FBD008F078FDC3B2772B07D10949DA
:10493C000948FFF78DFEFFF7A1FF204610BD6D2B38
:10494C0003D10648FFF7B8FEF7E7632BF5D101F06A
:10495C006BFCF2E7D00E0020B81D0020D41302200F
:10496C002DE9F047394C1021DFF808A12046DFF87B
:10497C000891FFF77FFF2388DFF800E1012BDFF8B8
:10498C0000C1334F334E344A344D354835492AD162
:10499C006388CAF80030A388C9F80030E388CEF8E1
:1049AC0000302389CCF80030B4F90A303B80B4F9DC
:1049BC000C303380E38913604FF47A72238A2B60B6
:1049CC00638A0360A38A0B60E38A5343264A13600D
:1049DC00B4F91820254B1A80B4F91A20244B1A80EC
:1049EC001A48BDE8F0874FF014080023CAF800807D
:1049FC00A4F802804FF03C082380C9F80080CEF860
:104A0C000030CCF800303B80338013600C22A4F8CB
:104A1C0004802A602282026062821822E3800A608B
:104A2C004BF68031A282104A2381116030220F494B
:104A3C00E2820A2263810A8022830D4AA381E381E8
:104A4C0013806383A383E383CAE700BFAC13022004
:104A5C00D61302207A140220881302206C23002023
:104A6C0070230020742300205C230020842300206A
:104A7C00D0130220782300207C2300208C130220EA
:104A8C009013022010B588B008F08CFC0028FBD0E5
:104A9C0008F0C2FCC0B2702840F08D8093480AF038
:104AAC0073FC93499148FFF7D3FD06A801F086FBF0
:104ABC009DF91C30BDF9182004939DF91F308D49C8
:104ACC0003939DF91E30894802939DF91D30019383
:104ADC009DF91B3000939DF91A300AF071FC01F01E
:104AEC00E5FB01468148FFF7B3FD83497F48FFF79B
:104AFC00ADFD824B7D481968FFF78BFD80497B48E3
:104B0C00FFF7A4FD7F4B79481968FFF782FD7E49BA
:104B1C007648FFF79BFD7D4B74481968FFF779FDCC
:104B2C007B497248FFF792FD7A4B704819680AF07E
:104B3C0022FC6E480AF028FC77496C48FFF786FD8A
:104B4C00764B6A48198809B2FFF75AFD74496748D1
:104B5C00FFF77CFD734B6548198809B2FFF750FDD0
:104B6C0071496248FFF772FD704B6048198809B2B1
:104B7C00FFF746FD6E495D48FFF768FD6D4B5B48DE
:104B8C001968FFF746FD6C495848FFF75FFD6B4B02
:104B9C0056481968FFF73DFD69495448FFF756FD23
:104BAC00684B52481968FFF734FD67494F48FFF7C7
:104BBC004DFD664B44E0342818D830281AD93238C9
:104BCC00022872D8DFE800F0777D8300162811D810
:104BDC00DFE800F031105F16104765101010101050
:104BEC0010103B101041542510107F006138C3B2D7
:104BFC00162BEBD908F0D6FB002873D108B010BDEA
:104C0C0006A801F0DBFA9DF91B30BDF918200093C2
:104C1C004F499DF91A3035480AF0D2FBEAE706A84D
:104C2C0001F0CCFA9DF91F309DF91D2000934949E4
:104C3C009DF91E30EFE730492C48FFF707FD2F4B4D
:104C4C0019682A48FFF7E5FCD4E743492748FFF7E2
:104C5C00FDFC2C4BF4E72C492448FFF7F7FC2B4BBD
:104C6C00EEE72B492148FFF7F1FC2A4B1F48196846
:104C7C000AF081FB1D480AF087FBBBE726491B485D
:104C8C00FFF7E4FC254B198809B21848FFF7B8FC6C
:104C9C00B0E723491548FFF7D9FC224BF3E722492B
:104CAC001248FFF7D3FC214BEDE72C490F48FFF7D7
:104CBC00CDFC204BC4E72A490C48FFF7C7FC1F4B1F
:104CCC00BEE728490948FFF7C1FC1E4BB8E7264947
:104CDC006CE7FFF745FE044624490448FFF7B6FC91
:104CEC002188D2E708F098FB84E700BFB81D0020AC
:104CFC00DC100020E00E0020060F0020782300209E
:104D0C00130F00207C230020200F00209013022082
:104D1C002D0F00205C2300203A0F00207A14022073
:104D2C00470F0020D6130220540F002084230020AC
:104D3C00610F0020881302206E0F00206C230020CE
:104D4C007B0F002070230020880F0020742300208C
:104D5C00950F0020AF0F0020CA0F0020D70F0020A6
:104D6C00E30F0020EF0F0020FB0F002007100020A6
:104D7C0038B5044608F016FB00285DD008F04CFB53
:104D8C00C1B2732908D100242C492D48FFF75EFCD1
:104D9C0001F062F82A4D4BE065292BD015D83F293C
:104DAC0039D00DD8212939D03A292FD0244D2B6850
:104DBC0028461B68984723492846FFF749FCE9E732
:104DCC006229F3D1FDF7D0FDE4E7722918D07829D8
:104DDC0019D06D29EAD11C4D1C492B881848C3F1F8
:104DEC0001032B80FFF732FCB5F9001014480AF0D0
:104DFC00C2FACFE7164905241148FFF727FCC9E78B
:104E0C00FDF79AFDC6E700F041FBC3E72046FFF72C
:104E1C0083FD0446BEE7FFF735FEBBE7FFF75AFC00
:104E2C00B8E708F0F9FA2B68C1B205481B68984737
:104E3C0008F0B8FA0028F4D1204638BD750E0020D1
:104E4C00B81D00208F0E0020D4130220840E0020E9
:104E5C007D0E002000487047AC130220044B1868EC
:104E6C00044B1B68C01A48BF00F5105080B2704745
:104E7C00E8010220E4010220014B1868704700BFD2
:104E8C00D43F0120F8B50124124D134E4FF41057A6
:104E9C002C6001463368114A2344126893FBF7F0E7
:104EAC0007FB1033934202D100202860F8BD0C4B55
:104EBC004FF40072306803EB402007F0FFFF3368BB
:104ECC002046013393FBF7F207FB123333600023C8
:104EDC002B60EBE7D43F0120E8010220E401022023
:104EEC000000007070B5104B0124104E104D346052
:104EFC002A681B689A4202D10020306070BD0D4BAD
:104F0C004FF40072296803EB412107F0D7FF2B689F
:104F1C004FF410522046013393FBF2F102FB113394
:104F2C002B6000233360E9E7E8010220D43F012025
:104F3C00E40102200000007073B506466846154671
:104F4C000C4601F03BF9BDF800209DF90330A2F2AC
:104F5C00BC7292B27F2A24D89DF802100C2920D85A
:104F6C00DBB21F2B1DD843EA411343EA42239BB209
:104F7C009DF805109DF907201729338013D89DF84B
:104F8C0006303B2B0FD8D2B23B2A0CD85B0143EA3C
:104F9C00C12343EA52039BB2238000232B7002B03F
:104FAC0070BD0023E4E70023F6E730B4856B1146AF
:104FBC0025B143B9284630BC04F0A9BFC06B10B171
:104FCC0030BC03F05FBC30BC704700230A220AF0EF
:104FDC0004BA13B5044661B1084601910CF028FDE2
:104FEC002368024601995B68204602B0BDE8104078
:104FFC00184702B010BDFFF7ECBF10B50446FFF721
:10500C00E8FF2046BDE810400AF0BEB9836B13B12F
:10501C00184605F0A1B8C06B08B104F04DBA704742
:10502C0010B586B00D4C04A801F0C8F89DF91730E6
:10503C00BDF91020204603939DF9163008490293C0
:10504C009DF9153001939DF9133000939DF91230A1
:10505C000CF0A4FA204606B010BD00BF4A15022081
:10506C00D70C0020F7B5314C002A01931546304B74
:10507C00B8BFD51DA0618EB22360A3F57003ED10EF
:10508C006284A3F2FB73E6826843A36003F15B4383
:10509C0015FB06F5414303F5F11304F12C00E16116
:1050AC0003F60F4323492584E36003F18243A3F6FF
:1050BC000243C4F8F83103F10D2303F572030533F1
:1050CC0063624FF4FC736360102323614FF4E67347
:1050DC00A3620023C4F8FC310123A382164B1D6884
:1050EC000CF04CFCFFF79CFF014604F130000CF077
:1050FC0045FC019A114904F140000CF04FFAE564AB
:10510C00FFF7A8FE5034034600F120051868083359
:10511C0053F8041C2246AB4203C21446F6D108498C
:10512C0008480CF02BFC014803B0F0BDF40302203E
:10513C0052494646C60C002080130220CB0C00209E
:10514C00D00C002064040220034B5A68C3F8FC0105
:10515C00024418465A607047F4030220134B9A6CB1
:10516C0070B50646CAB15469002522462B46104933
:10517C0010480AF025F9002300220F48FFF715FF0D
:10518C004FF4007231460948FDF7C4FB22462B460A
:10519C000948BDE87040FFF708BFDB6C13B1D3E9D9
:1051AC000045E2E71C461D46DFE700BFB80B0220B6
:1051BC00950D0020B81D0020C80B022010B588B03A
:1051CC00044606A800F0FAFF9DF91F301F4A20463E
:1051DC0004939DF91E301E4903939DF91D300293D3
:1051EC009DF91B3001939DF91A300093BDF91830CD
:1051FC000CF0D4F9142301206361164B20621B6858
:10520C00A361154B1B68E361144B1B686362144B61
:10521C001B68A362134B1B68E362134B1B881BB206
:10522C002363124B1B881BB26363114B1B881BB28D
:10523C00A363104B1B881BB2E3630F4B1B682364E7
:10524C004FF05533C4F8FC3108B010BDC60C00202B
:10525C00D50C0020C87D00205C2300207823002082
:10526C007C23002090130220D61302207A140220F3
:10527C0084230020D013022080130220022810B5B2
:10528C00044613D109F0BCF90F4B1A68B0FBF2F3CA
:10529C0002FB13030D4A116813608B4206D20C4BB0
:1052AC000C4A1C6811688C4202D80324204610BD9D
:1052BC001B681468B0FBF3F203FB1200A04234BF6E
:1052CC0003240424F2E700BF782300203C080220CA
:1052DC00901302207C230020034B1A6882421ABFD1
:1052EC0018600120002070478821002010B586B07E
:1052FC00044604A800F062FF9DF915100846FFF75C
:10530C00EBFFE0B19DF9133020460E4A02939DF954
:10531C00123003910193BDF910300B4900930B4BE4
:10532C001B680CF03BF90A480AF02EF809490848AA
:10533C00FFF761FE06482146FFF75DFE012006B02F
:10534C0010BD00BFA00D0020A20D0020C87D0020C4
:10535C00B81D0020CB140020F0B589B0044606A877
:10536C0000F02CFF1A4B9DF91F701A889DF91E60D6
:10537C009DF91D5012B29DF91B009DF91A10BDF933
:10538C0018300091CDE90367CDE90105E2B9114A66
:10539C00114920460CF002F9104809F0F5FF1049AC
:1053AC000E48FFF728FE21460C48FFF724FE0D4956
:1053BC000A48FFF720FE08F0FFFF01460748FFF7F9
:1053CC0004FE012009B0F0BD024A0749E1E700BF25
:1053DC00D6130220681400202F0D0020B81D0020C9
:1053EC00CB140020D31400204F0D0020214AB0FB19
:1053FC00F2F302FB13034FF46162B3FBF2F31E4AA8
:10540C001168994270B503D81C490968994213D8A0
:10541C001B4D2968994203D81A49096899420BD83F
:10542C00166814499E42B0FBF1F40DD8134E366841
:10543C009E4210D8286808E0134A1368B0FBF3F3B7
:10544C00106803FB000070BD10684FF46163584393
:10545C0001FB0400F7E70B4D2E689E42F3D8106851
:10546C002B68C01A4FF46163584300F5A83000F55F
:10547C00C070EDE780510100881302206C230020DE
:10548C00702300207423002090130220034A936B96
:10549C0043F04003936330BFFDE700BF00400D4075
:1054AC00214B70B59E6BDA6C42F00102DA64BFF3EB
:1054BC004F8F9A6B22F002029A639A6B12F00202DF
:1054CC00FBD19A659A6D002AFCD172B6164D2B6DE4
:1054DC006C6D696D2A6DA142F9D19A42F7D1E40B3A
:1054EC00124844EA43442146FFF76FFD10490F4828
:1054FC00FFF781FD2046FFF779FF014604460B4874
:10550C00FFF763FD094809F03FFF074BAC659A6D47
:10551C00A242FCD146F002069E639A6B9207FCD520
:10552C0062B6FFF7B3FF00BF00400D40B81D00206E
:10553C00D314002030B5044695B0002840F0838089
:10554C008048FFF7D3FE00284CD07F4D2B68D3F852
:10555C008014B1B123467B4A6846009404F093FE54
:10556C0070BB2B68D3F88014B9B9D3F88404F0B1AC
:10557C000C91012300F58961724A684604F039F8F0
:10558C0014E0D3F884040028EBD00B460C916D4A40
:10559C000146684603F0F1FBE2E70023694A01F596
:1055AC00896168460093012304F02CFF40B96749D8
:1055BC006748FFF722FD4FF0FF34204615B030BD91
:1055CC002B68D3F8800428B15E4905F047FB48B935
:1055DC006049EDE7D3F884040028F9D0594903F069
:1055EC00F1FDF4E75C48FFF7B7FE0028E3D056491D
:1055FC0044F20223584A6846096805F0F7FF574CF5
:10560C00019B04A904F110006360029BA3609DF848
:10561C000C30237305F0E5FE6846FEF723F8A36C07
:10562C0063B14F4B00221A604E4B1B881BB2002BF0
:10563C0036D04D48FFF7C2FD4B493AE0E36C002BE6
:10564C00EFD14A49B4E70128EBD0022839D0E31E48
:10565C009BB2022BB1D8414B9A6C0AB9DB6C7BB173
:10566C00404B1B881BB243B93D4B4FF440401B6869
:10567C005843FFF769FDFFF771FD3D4805F09CFEAF
:10568C00042C55D13B4C3C4B22681B689A4256D992
:10569C0000F0EAFA002000F0DDFA2068FFF700FFC6
:1056AC00364B012120221868354B1B68FFF7DAFCBA
:1056BC0001464FF400722E48FDF722F9B0F5007F39
:1056CC0034DB4FF440422F492948FDF719F9B0F566
:1056DC00404F0446224D24D22B491D48FFF78BFC2A
:1056EC0021461B480324FFF770FC28491848FFF794
:1056FC0082FC0221164809F03EFE154809F044FED2
:10570C00234A1368013313604FF47A722B68B3FB8E
:10571C00F2F102FB1133002B99D11548FFF776FCFF
:10572C0095E72B68022401332B60E9E703248EE70D
:10573C00032C04D0174B0822C3F888203BE7002425
:10574C003BE700BFA6140220642300207C1000203D
:10575C00B81D002088100020F6140220B80B02207F
:10576C00340C0220D6130220D03D012094100020CE
:10577C00C80B0220901302207C2300205C23002005
:10578C00C87D0020D07D0020A6100020D31400205E
:10579C00980B022000400042431C2DE9F0410446C6
:1057AC0013D1FFF769FB05460028FAD12D48FFF706
:1057BC0099FB2C4B2C4A53F8041B42F8251001354D
:1057CC00082DF8D12046BDE8F0810028FADBFFF760
:1057DC0055FD0446FFF742FB5F28F3D9234B1D8888
:1057EC002DB22DBB1F4FB846FFF746FB06460028CF
:1057FC00FAD101354046FFF775FB08F50078602DAE
:10580C00F2D1194B57F8042B43F826200136082EF9
:10581C00F8D14FF440421349154807F04FFB154B94
:10582C001B68002BCED02046BDE8F041FFF782BEAE
:10583C000F4E0027B046FFF71FFB05460028FAD194
:10584C0001374046FFF74EFB08F50078602FF2D188
:10585C00054B56F8042B43F825200135082DF8D1BB
:10586C00DDE700BFDC3F01200C0C0220D613022028
:10587C00D07D0020080C0220074800234FF47A72D8
:10588C0006490373C0E90132C0E91233044B054ADF
:10589C00036009F08DBE00BFB80B0220450F00005D
:1058AC0054050020902100202DE9F843214B0524BC
:1058BC00214AD3F82032DFF89C9023F07F43DFF8A5
:1058CC0098801E4F13601E4B1E4A1A60D9F8005068
:1058DC00FF23002105F5926685F8BC3485F8C814C1
:1058EC00304606F077FF3046C5F88C6406F0F0FAC7
:1058FC0080B90123D5F88C1428461A4605F00CFE05
:10590C0040B10E481049FFF778FB01200F4B18608F
:10591C00BDE8F88341463846FFF76FFB642008F07A
:10592C0071FD013CD2D105480949FFF766FB2046C1
:10593C00EEE700BF00441F40C87D0020B81D0020CA
:10594C00FC07022019280000F10C0020080C022092
:10595C00130D002064230020030D00202DE9F74FC8
:10596C00044608F04DFE019008F026FD974B824648
:10597C0000221B6854F8221043F822100132802AAE
:10598C00F8D1043C03F5FE701A4652F8041F54F883
:10599C00045F9042A1EB05011160F6D1002253F88F
:1059AC00041F0029B8BF49428A42B8BF0A46984230
:1059BC00F5D102240121631E01FA03F3934202DCA8
:1059CC000134182CF7D1824A611EDFF8188252F884
:1059DC002130C346013342F821307E4B1A68944281
:1059EC00424688BF1C60012303FA04F0013852F8C8
:1059FC00041F01330140802B1160F8D1764D4FF418
:105A0C00007200214FEA8409284607F035FA4FF05E
:105A1C00A532019B09F107072A6009F108066F4AB4
:105A2C0007211288C5E9023A44EA0242DBF8003049
:105A3C006A600122AB61002309EB02002A619C46DB
:105A4C00CBF8003020236861A3EB040E55F821A09D
:105A5C0058F8042BBEF1000F23DD02FA0EF2734648
:105A6C0042EA0A0245F821200CF1010CBCF1800F2E
:105A7C00EAD1DFF87481D8F8004004EB0609B9F1DB
:105A8C00800F26DC5648B200534900EB840007F027
:105A9C0015FAC8F800904FF00109484603B0BDE86C
:105AAC00F08F01F1010906D14AEA0202202345F8E0
:105ABC0021204946D8E7E31A22FA03F343EA0A0302
:105ACC0045F821300EF1200349469A4045F829202B
:105ADC00CAE77A2C24DD00222346414910467F2B4D
:105AEC0019D9802CC4F18003C8BF002323440AB108
:105AFC00C8F800303A48FFF7C5F9B0F100094FEA91
:105B0C0086023549364818BF4FF0010907F0D6F91F
:105B1C00C8F80060C1E741F8230001220133DEE739
:105B2C00C4F17A032C492E4A43EA004308466B61C0
:105B3C00234650F804CB42F823C00133802BF8D114
:105B4C002748C4F1800A0191C8F80030FFF79AF990
:105B5C006B69A7EB0A07B0F10009D3464FEA134370
:105B6C004FF0070018BF4FF0010901991B043B438C
:105B7C001B4F6B613A460023C8F80030013816D130
:105B8C0013B10623C8F80030D8F80010002302EB3C
:105B9C008102B24511DB803C34445E45B8BF002421
:105BAC000C44002B3FF479AFC8F8004075E751F86E
:105BBC00043B47F8043B0123E0E755F82A300AF18F
:105BCC00010A42F8043B0123E3E700BF80230020D5
:105BDC00580C02202C0C0220F40102207A14022012
:105BEC00E4FF0120F40502204808022013B5044606
:105BFC0061B1084601910BF01BFF23680246019925
:105C0C005B68204602B0BDE81040184702B010BDDA
:105C1C00064B0522C3F8B4200822C3F8A422044A78
:105C2C00536843F080635360704700BF00801F408F
:105C3C000080004208B5FFF7EBFF054B4FF0806288
:105C4C004FF47A70C3F88420BDE8084008F0DABB42
:105C5C0000800042C1B2212008B508F07BFF64200F
:105C6C00BDE8084008F0CEBB0021202008F072BF30
:105C7C000121202008F06EBF2DE9F34101212120E4
:105C8C0008F088FF0120FFF7E5FF0121202008F034
:105C9C0081FFFFF7E9FF642008F0B4FBFFF7E8FF92
:105CAC00534A544901A800F00BF94C2101A800F00B
:105CBC0019F94C22002800F098804F494F480B24CA
:105CCC0009F07EFB812302224C2101A84C4D00F0EF
:105CDC0040F9302307224C2101A800F03AF90023A7
:105CEC0008224C2101A800F034F92246013415F8A1
:105CFC00013B4C21E4B201A800F02BF90F2CF4D19C
:105D0C00302373224C2101A800F023F920237422A4
:105D1C004C2101A83B4E00F01CF9E02375224C21CC
:105D2C0001A8002500F015F9DFF8EC8025236B2283
:105D3C004C2101A8344F00F00CF960233B224C217C
:105D4C0001A800F006F916F8014B88234C2101A894
:105D5C002246013500F0FDF8B8F80030621C4C21E9
:105D6C00DBB201A8D2B200F0F4F83B88A21C4C21A3
:105D7C00373B01A8D2B2DBB200F0EBF8E21C802377
:105D8C004C21D2B201A800F0E4F8221D00234C21D2
:105D9C00D2B201A800F0DDF8042DD4D11B4917486C
:105DAC00FFF724FF15224C2101A800F0ACF80023CA
:105DBC0001461022114809F010FB104809F0E4FAD2
:105DCC0013490E48FFF712FF76224C2101A800F070
:105DDC009AF8002301461022084809F0FEFA0748F9
:105DEC0009F0D2FA02B0BDE8F0810A4966E700BFBB
:105DFC00A0860100081F002033100020B81D0020D1
:105E0C00AC100020A8100020D01302206D10002030
:105E1C00751000203D1000208423002073B504462B
:105E2C000A4E00250A4AE4B20A4901A800F048F8D3
:105E3C0016F8012B013523464C21013201A8D2B2B0
:105E4C0000F087F8042DF3D102B070BDA81000202B
:105E5C00A0860100081F002013B5144C01A8144A99
:105E6C00144900F02DF820461349FFF7BFFE152208
:105E7C004C2101A800F047F80023014610222046CF
:105E8C0009F0ABFA20460D49FFF7B0FE76224C2103
:105E9C0001A800F038F8002301461022204609F032
:105EAC009CFA204609F070FA02B010BDB81D002013
:105EBC00A0860100081F00206C1000207410002028
:105ECC0037B50C4601600546084601920EF024FFDA
:105EDC00642008F097FA2046019902F025F928462B
:105EEC0003B030BD08B54900036883F8A510012143
:105EFC0083F8301183F82F11006801F0BBFFB0FA62
:105F0C0080F0400908BD70B5036801260D464900B4
:105F1C0083F83061044683F8A510114683F82F618D
:105F2C00006803681B6898470021206801F0A2FFF5
:105F3C0008B1002070BD334632462946206802F075
:105F4C000BF80028F5D0206803685B699847C0B24D
:105F5C00F0E770B5044601251E460368480011465B
:105F6C0083F8305183F82F5183F8A500206803681B
:105F7C001B6898472068314603681B689847294678
:105F8C00206801F077FFB0FA80F0400970BD13B5BE
:105F9C00044649B1084601910BF04AFD23680246BC
:105FAC0001995B6820469847204602B0BDE8104036
:105FBC0009F0EAB9F0B53C2440F26D1E64264FF4AA
:105FCC00C87CB0FBF4F2B2FBF4F304FB120004FB4C
:105FDC001322C87118208A71B3FBF0F200FB123344
:105FEC00101D4B710723B0FBF3F3C3EBC303C01AB3
:105FFC00087100200446C3B203F2B27313F0030716
:10600C0040D193FBF6F506FB1535002D3DD193FBE6
:10601C00FCF50CFB1535002D14BF75464FF4B77508
:10602C002C440130A242E6D264200B80B3FBF0F684
:10603C0000FB16364FF4C870B3FBF0F500FB1533BC
:10604C0037BB46BB002B40F26D1008BF4FF4B77046
:10605C00121BDFF858C0024400200128C5B21DD124
:10606C00FFB906BB002B14BF1C241D24944204D87A
:10607C000130121B0C28F0D10546013501328D7010
:10608C00CA70F0BD40F26D15CAE74FF4B775C7E79B
:10609C0040F26D10DCE74FF4B770D9E710F80C4004
:1060AC00E4E71C24E2E71D24E0E700BF1B110020FD
:1060BC00038840F2B2712E4A4E33DBB2F0B55A432C
:1060CC0064254FF4C876A1F2B274A3422CDC03F21F
:1060DC00B273642190F90270264EDFF89CC0B3FBBA
:1060EC00F1F401FB14344FF4C871B3FBF1F501FB6F
:1060FC001535012103F003038F4227DC90F906309C
:10610C004FF4616490F90510C3EB03139B0004FB7F
:10611C00013390F907100B4490F90310164801391C
:10612C0000FB01301044F0BD8C070DD191FBF5F450
:10613C0005FB141424B991FBF6F406FB14141CB9DA
:10614C0002F5A83202F5C0720131BCE7022909D16F
:10615C0043B904B935B902F5181202F56E52013182
:10616C000136C9E796F800E00CFB0E22F7E700BFFA
:10617C008033E1011B1100208051010007B50A4852
:10618C000EF0CAFD012308491A460848009300F096
:10619C00ADFB38B906490748FFF7F9FE012003B0FB
:1061AC005DF804FB0449F6E7C81D0020B80C02207A
:1061BC0053100020B81D00206010002007B501907E
:1061CC0008F01EFA0199FFF7F5FE012003B05DF807
:1061DC0004FB08B5FFF76CFF08F024FA012008BD9A
:1061EC0073B50D46144606466846FFF7E7FF68464A
:1061FC00ADF800608DF802508DF80340FFF7E9FF11
:10620C0002B070BD73B50D46144606466846FFF7DE
:10621C00D5FF68468DF805608DF806508DF807405F
:10622C00FFF7D7FF02B070BD7FB508F0E9F9014662
:10623C00114800F087FA04A8FFF7C0FFBDF8102042
:10624C009DF8133003929DF8122000939DF81710BF
:10625C000948CDE901329DF815309DF8162000F063
:10626C001AFA30B90549064807B05DF804EBFFF798
:10627C008EBE07B05DF804FBB80C02206F0D002039
:10628C00B81D002010B508F0BBF90446064800F014
:10629C00D0F9A04206D9044800F0CBF9BDE8104073
:1062AC0008F0C0B910BD00BFB80C022010B50848EA
:1062BC0000F0ABF9044620B10548BDE8104000F0F1
:1062CC004FB804490448FFF762FE204610BD00BFDA
:1062DC00B80C0220BD0D0020B81D0020014800F0B4
:1062EC0003B800BFB80C0220704738B5A4228368ED
:1062FC000125044683F8A52083F8305183F82F51EB
:10630C00806803681B6898472946A06801F0B2FDB5
:10631C002B462A465221A06801F01EFEA068036895
:10632C001B69984728B1A06803685B699847C0B29D
:10633C0038BDFF20FCE7102108B5FFF7D6FFC0F3EE
:10634C00400008BD38B505460221FFF7CEFF0446D4
:10635C002846FFF7F0FF08B1C4F3401038BD000029
:10636C00F0B587B00446FFF7E6FF00284AD0204678
:10637C00FFF7E8FF6379A27900284FEA131603F0C0
:10638C000F03217908BF412706EB8606A0786578B4
:10639C0018BF502703EB46032478160902F00F02AE
:1063AC00DBB2049706EB860602EB4602260904F0E4
:1063BC000F04D2B206EB860604EB4604E4B2039457
:1063CC002C0905F00F0504EB840405EB44050409C6
:1063DC0000F00F00EDB204EB8404029500EB4400D6
:1063EC00C0B20190080901F00F0100EB800001EB35
:1063FC0040012448C9B2009123490BF0CFF8214841
:10640C0007B0F0BD6379A2791E0903F00F0321795F
:10641C0006EB8606A078657803EB4603247816090C
:10642C0002F00F02DBB206EB860602EB46022609EF
:10643C0004F00F04D2B206EB860604EB4604E4B279
:10644C0003942C0905F00F0504EB840405EB4405BB
:10645C00040900F00F00EDB204EB8404029500EB8C
:10646C004400C0B20190080901F00F0100EB80005C
:10647C0001EB40010348C9B2009104490BF08EF8BE
:10648C00BDE700BFC2150220C8110020F811002082
:10649C0070B5836801251646A422044683F8305152
:1064AC0083F8A52083F82F51806803681B689847F0
:1064BC00A068314603681B6898472946A06801F01C
:1064CC00D9FCB0FA80F0400970BD70B50546FFF7F5
:1064DC0032FF064680BB02212846FFF706FF00F07C
:1064EC000F0403091021284603EB830304EB430438
:1064FC00FFF7FBFE40F00200E4B21021C2B22846C6
:10650C00FFF7C6FF34B10C2C02D004D90C3CE4B21A
:10651C00012600E00C240A22B4FBF2F302FB134226
:10652C0002EB0312D2B20EB142F020022846022135
:10653C00BDE87040FFF7ACBF70BD70B50546FFF706
:10654C00FAFE0646B0B302212846FFF7CEFE10F045
:10655C00200304464FF0100118BF00F0DF0428465A
:10656C0008BF1E46FFF7C1FE102100F0FD022846B1
:10657C00FFF78EFF04F00F02230903EB830302EBFA
:10658C004302D2B20EB10C32D2B20C2A10D0182A5D
:10659C0008BF0C220A212846B2FBF1F301FB13229F
:1065AC00022102EB0312BDE87040D2B2FFF770BFBC
:1065BC000022EFE770BDF8B5012714461E46A42251
:1065CC008368054683F8A52083F8307183F82F7112
:1065DC00806803681B6898473946A86801F04AFC34
:1065EC0088B9324626443B465221A86801F0B4FCD7
:1065FC00A64201D10120F8BDA86803685B699847E1
:10660C0004F8010BF4E70020F5E738B50246072340
:10661C0000210446FFF7CFFF054640B12046FFF7A7
:10662C008AFE20B1A378054623F02003A3702846E8
:10663C0038BD042307B51B210DEB0302FFF7BBFF8D
:10664C00019803B05DF804FB70B514461D46A422F6
:10665C0083680646254483F8A520012283F830215F
:10666C0083F82F21806803681B689847AC42B06898
:10667C0006D1012101F0FEFBB0FA80F0400970BD9B
:10668C00036814F8011B1B689847EFE70A460723B9
:10669C000021FFF7D9BF2DE9F0410A259DF818809C
:1066AC009DF81CE004469DF820C0BDF82460B1FBA9
:1066BC00F5F705FB171101EB07110170B2FBF5F1B2
:1066CC0005FB112202EB0117B3FBF5F2477005FB3A
:1066DC001237B8FBF5F305FB138107EB021701EB3F
:1066EC0003118770BEFBF5F305FB13E2C17002EBDF
:1066FC0003120271BCFBF5F205FB12C303EB021390
:10670C00437106F13003DBB2B3FBF5F205FB123338
:10671C0003EB02138371FFF70EFE28B921462046C6
:10672C00BDE8F041FFF7B2BF2046FFF706FF214658
:10673C002046FFF7ABFF05462046FFF7C6FE28466E
:10674C00BDE8F081042307B501910DEB03021B2179
:10675C00FFF77AFF03B05DF804FB000070B50A4D3B
:10676C0006462C6804F5FA740E213046FFF7BDFD81
:10677C00030602D52B689C42F6D82868844294BF45
:10678C000020012070BD00BF80130220F8B5044624
:10679C0017460E46FFF7E2FF0F2105462046FFF78E
:1067AC00A4FD40F008000F21C2B22046FFF770FE96
:1067BC0000283A463146204608BF0025FFF768FE00
:1067CC00002227212046FFF763FE112227212046B5
:1067DC00FFF75EFE2046FFF7C1FF00284FF00F01C8
:1067EC00204608BF0025FFF780FD021E4FF00F0169
:1067FC00204602F0F70208BF0025FFF749FE2046AD
:10680C00FFF7ACFF002814BF28460020F8BD70B578
:10681C0004460E46FFF7A2FF0F2105462046FFF760
:10682C0064FD40F008000F21C2B22046FFF730FE95
:10683C00002832464FF02501204608BF0025FFF7FF
:10684C0027FE002227212046FFF722FE22222721A5
:10685C002046FFF71DFE2046FFF780FF00284FF073
:10686C002601204608BF0025FFF73FFD06462046BF
:10687C00FFF774FF00284FF00F01204608BF0025DA
:10688C00FFF733FD021E4FF00F01204608BF002515
:10689C0002F0F702FFF7FCFD002D14BF3046FF207D
:1068AC0070BD10B504463721FFF7B1FF372100F05A
:1068BC00DF022046BDE81040FFF768BF70B50E46FA
:1068CC0037210546FFF7A3FF20F00C0204462846AB
:1068DC0042EA8601CAB2372142F01002FFF756FF96
:1068EC0018B1B4F1FF0018BF012070BDF8B5164601
:1068FC000446816001201D469DF8187007F082FD4A
:10690C002EB12046FFF719FE012007F07BFD2DB1BB
:10691C002046FFF7C6FF012007F074FD37B920466B
:10692C0000220E21BDE8F840FFF7B2BD032120463E
:10693C00FFF7C4FF0028F2D1F8BD38B504460D4668
:10694C003C222946204608F0E5FA0028F8DD38BD3F
:10695C002DE9F0470F4600F500511646D1F82834C2
:10696C001BB900F50872174C226033444FF0000835
:10697C0000F58469DFF84CA000F50874C1F82834E0
:10698C00464501DCBDE8F087DAF80030A6EB0802DA
:10699C003946A9EB030518469542A8BF15462A4669
:1069AC00A84406F08BFA03462F442B449945CAF8A9
:1069BC000030E5D14FF400712046FFF7BEFFCAF856
:1069CC000040DDE75008022070B5054600684C1EFB
:1069DC00002603682146DB6998472868214603682E
:1069EC001B6A984708B9304670BD0136F5E7006858
:1069FC00013A10B50468E46CA04742F2010242F27D
:106A0C000503002814BF1046184610BD0068013A53
:106A1C0010B40468246DA4465DF8044B6047000074
:106A2C00024B0068196003685B6C1847BC110220AC
:106A3C0010B50C4608F056FA0028FBD020463C2135
:106A4C00BDE8104008F004BA00F5005330B493F8D8
:106A5C00245435B1D3F82814114430BCC3F828148D
:106A6C00704730BCFFF774BF07B501228DF80710D3
:106A7C000DF10701FFF7E8FF03B05DF804FB07B564
:106A8C000222ADF806100DF10601FFF7DDFF03B091
:106A9C005DF804FB38B50C460978054699B12046DB
:106AAC00013C0AF0C5FF0130C1B22846FFF7DCFFFC
:106ABC0014F8011F284619B9BDE83840FFF7DFBFAD
:106ACC00FFF7DDFFF4E7BDE83840FFF7CDBF00006E
:106ADC004DF20243994202D10149FFF7DBBF7047E7
:106AEC00A31100204DF20243994210B5044618D16F
:106AFC00FFF7C5FF20464FF6FF71FFF7C0FF20469A
:106B0C000021FFF7B1FF20460649FFF7C3FF2046DF
:106B1C000449FFF7BFFF20460021BDE81040FFF7F6
:106B2C00A3BF10BDA311002007B5042201910DEBEA
:106B3C000201FFF789FF03B05DF804FB70B5044652
:106B4C0086B064213C4EFFF79AFF062120460025B3
:106B5C00FFF7EAFF64212046FFF791FF37492046F3
:106B6C00FFF798FF00212046FFF789FF14212046EC
:106B7C00FFF7DAFF013536F8021B2046FFF77FFFDF
:106B8C00142DF7D104212046FFF7CEFF44F2040167
:106B9C002046FFF774FF44F205012046FFF76FFF14
:106BAC0044F20B012046FFF76AFF44F20C01204629
:106BBC00FFF765FF01212046FFF7B6FF4DF20241BA
:106BCC002046FFF75CFF00212046FFF7ADFF0221B6
:106BDC002046FFF7A9FF4FF440512046FFF74FFF27
:106BEC0043F201012046FFF74AFF15492046FFF703
:106BFC0051FF14492046FFF74DFF9FED130A01AAE0
:106C0C000221032007F0B4FA2A46104901A80AF021
:106C1C00DFFD01A92046FFF73DFF0D4901AA0A231C
:106C2C0031F8020F013B02F8010BF9D101A9204602
:106C3C00FFF730FF06B070BD700B00207F110020F5
