:0200000460009A
:100000004643464200000156000000000103030081
:1000100000000000000000000000000000000000E0
:1000200000000000000000000000000000000000D0
:1000300000000000000000000000000000000000C0
:1000400000000000010408000000000000000000A3
:100050000000800000000000000000000000000020
:100060000000000000000000000000000000000090
:100070000000000000000000000000000000000080
:10008000EB04180A063204260000000000000000FD
:10009000050404240000000000000000000000002F
:1000A0000000000000000000000000000000000050
:1000B0000604000000000000000000000000000036
:1000C0000000000000000000000000000000000030
:1000D00020041808000000000000000000000000DC
:1000E0000000000000000000000000000000000010
:1000F0000000000000000000000000000000000000
:10010000D8041808000000000000000000000000F3
:100110000204180804200000000000000000000095
:1001200000000000000000000000000000000000CF
:10013000600400000000000000000000000000005B
:1001400000000000000000000000000000000000AF
:10015000000000000000000000000000000000009F
:10016000000000000000000000000000000000008F
:10017000000000000000000000000000000000007F
:10018000000000000000000000000000000000006F
:10019000000000000000000000000000000000005F
:1001A000000000000000000000000000000000004F
:1001B000000000000000000000000000000000003F
:1001C000000100000010000001000000000000001D
:1001D000000001000000000000000000000000001E
:1001E000000000000000000000000000000000000F
:1001F00000000000000000000000000000000000FF
:10020000FFFFFFFFFFFFFFFFFFFFFFFFFFFFFFFFFE
:10021000FFFFFFFFFFFFFFFFFFFFFFFFFFFFFFFFEE
:10100000D100204335160060000000000000000001
:1010100020100060001000600070016000000000FF
:1010200000000060007C010000000000FFFFFFFFE7
:10103000FFFFFFFFFFFFFFFFFFFFFFFFFFFFFFFFC0
:10104000FFFFFFFFFFFFFFFFFFFFFFFFFFFFFFFFB0
:10105000FFFFFFFFFFFFFFFFFFFFFFFFFFFFFFFFA0
:10106000FFFFFFFFFFFFFFFFFFFFFFFFFFFFFFFF90
:10140000814205D051F8043B40F8043B8242F9D8B0
:101410007047044A04494FF0000342F8043B9142EC
:10142000FBD87047C02600202056012080B5BFF3AE
:101430004F8F00BF00BF00BF00BF00F07FFA654BB9
:101440000822C3F8542100BF00BF00BF00BF00BF87
:1014500000BF00BF00BF00BF00BF00BF00BF00BF94
:1014600000BF00BF00BF5C4A5C495D48FFF7C8FF92
:101470005C4A5D495D48FFF7C3FF5D4DFFF7C9FF5B
:101480004FF0E0234FF47002C3F8882D0023594A2F
:1014900045F823200133B02BFAD1574B8021574A0E
:1014A00003F8011B9342FBD14FF0E020494C4FF071
:1014B0008037DFF87891DFF878814FF0FF32C0F89D
:1014C000085DC4F80471C4F80091C4F8F470C4F85D
:1014D000F080D0F8243D4A4E43F4E023C0F8243D88
:1014E000F36923F07F0343F04003F361736A23F051
:1014F0007F0343F040037362424B9A66DA661A67D1
:101500005A6700F020FA404BAB63404BEB63632318
:10151000002543610323856103613D4BC0F8203DF5
:10152000D0F8FC3D43F08073C0F8FC3D394B1A689D
:1015300042F001021A605A68374B1A6000F0C6FB8D
:10154000C4F804713548C4F80091C4F8F470C4F8C4
:10155000F08000F079FFF36E43F44053F366304BB4
:101560001D60C3F80851C3F81851C3F82851C3F8D7
:10157000385103F5A0239A6BD20708D4294A5A653B
:1015800042F615621A659A6B42F001029A639A68F4
:10159000254C42F001129A6000F05EFA00F018FF4C
:1015A00000F056FF00F0C0FB00F0C9F92368132BD0
:1015B000FCD900F0FFF82368B3F5967FFBD300F069
:1015C000C0F900F0BDF900F063FF00F055FF30BF37
:1015D000FDE700BF00800D40F820010028270060D3
:1015E00000000000C0260020244801600000002008
:1015F00000240020C9B7000000E400E0A0E400E0FF
:1016000000C00F4000C00A40C5C40000C9C40000AB
:1016100000002020001000E07053012000366E0111
:10162000004008400000C056745301201B101820D1
:101630000C0D1113054B064A5A64064A1A644FF4FE
:101640002A029A63044B9D46FFF7F0FE00C00A4051
:10165000BFAAAAAA070020000080062043690A4A00
:1016600003EB011003EB011130B5047A074D02EBD7
:101670000412946852682560C06810600B690BB151
:101680004A691A6030BD00BF1406002061F80100ED
:1016900038B543690446027E03EB0212127A8A428D
:1016A00019D0187AFF2816D0814215D0197EFF294B
:1016B00011D001251968EDB25B680968194209D09B
:1016C000064B2946204603EB021305225B681A608D
:1016D000FFF7C4FF257638BD0025EBE71406002090
:1016E00043690A4A03EB011003EB011130B590F88E
:1016F0002840074D02EB0412946852682560C06AC6
:1017000010600B6B0BB14A6B1A6030BD14060020E1
:1017100061F8010038B543690446427E03EB0212CA
:1017200092F828208A421BD093F82800FF2817D06F
:10173000814216D093F83810FF2911D0012519687D
:10174000EDB25B680968194209D0074B294620466B
:1017500003EB021305225B681A60FFF7C1FF657691
:1017600038BD0025EBE700BF140600200F4A416991
:10177000936B23F47C0343F4802310B593630446F6
:101780000A68496813680B43094913600222036918
:101790001A6100F081FE217E2046FFF75FFF617E27
:1017A0002046BDE81040FFF79BBF00BF00C00F40C0
:1017B000A0860100304B40F6617210B5C3F82021BD
:1017C00000F062FE2D4A2E49D2F8803043F0030328
:1017D000C2F8803040F204422A4BC3F860212A4A02
:1017E0001068084203D1D3F8A8118C071AD04FF023
:1017F00000415163D3F8402142F00202C3F8402176
:10180000204AD2F840319807FBD44FF0E0234FF440
:1018100000321920C3F88C224FF000421A4B9A6311
:1018200000F01EFE184B00214FF08042154C9A63C9
:101830004FF4407219600A23C4F8A831134B1846BC
:1018400000F0FEFD4FF4810240F2431302604FF4BA
:1018500080020264C4F858010D4AC4F848310D4BA7
:10186000C3F804224FF0E0234FF40032C3F80C21F8
:101870000123C4F8403110BD00800D4000C00F406E
:10188000001C1E0000002E4000900D4000000020B3
:1018900005AF00000024002008B50F4B1B6E9B070E
:1018A00000D4FBBE72B60D4B0022C3F84021A3F555
:1018B0000D130B4A1A64A3F1FF53A3F52B239D4686
:1018C000BFF34F8F0748084B03604FF40013DB69E9
:1018D0009B689847E6E700BF00441F4000002E4089
:1018E0000300200000802020000012EB074B0004C2
:1018F0000122C3F8A010C3F8A400C3F8B0205A69AD
:10190000D207FCD501225A61704700BF00402A402F
:10191000084B094AC3F8A000C3F8A4200122C3F869
:10192000B0205A69D207FCD5D3F80001212280B239
:101930005A61704700402A40040003007047704716
:10194000704700BF70474FF0E02300211022C3F81A
:10195000941DC3F89C2D2E4AC3F8A02D1122C3F864
:101960009C2D2C4AC3F8A02D1222C3F89C2D2A4A84
:10197000C3F8A02D294AC3F89C2D294AC3F8A02DED
:10198000284AC3F89C2D284AC3F8A02D274A42F0C4
:101990001502C3F89C2D264AC3F8A02D02F18152EE
:1019A0000D32C3F89C2D234AC3F8A02D224AC3F858
:1019B0009C2D224AC3F8A02D214AC3F89C2D214A10
:1019C000C3F8A02D204AC3F89C2D204AC3F8A02DAF
:1019D0001F4AC3F89C2D1F4AC3F8A02D00BF00BFAB
:1019E00000BF00BF00BF0122C3F8942DBFF34F8F8B
:1019F000BFF36F8FC3F8501FBFF34F8FBFF36F8FCD
:101A0000D3F8142D42F44032C3F8142D704700BFB0
:101A10003F000010250008070900100013002000F7
:101A20002100020714000020250008132056012081
:101A30000900001027000B1317000040330010139B
:101A4000180000602F000B07190000702F000B1307
:101A50001A0000803B000B1373B5864B864A8749FA
:101A6000C3F85C22C3F86012C3F86422A2F53042C6
:101A7000834CC3F8682202F5E042C3F86C22C3F835
:101A80007022C3F87422C3F878221822DA661A6723
:101A90005A679A67DA67C3F88020C3F88420C3F8CE
:101AA00088200122C3F82C27C3F83027C3F8342735
:101AB000C3F83827C3F83C27C3F85027714A936905
:101AC00023F0604323F4407343F0204343F4407316
:101AD0009361D2F8843043F00C03C2F884306A4B2F
:101AE0001A6842F002021A601968684A21F4F1414A
:101AF00021F073010904090C0A4365491A604FF08B
:101B0000FF325A6002F57702886802F5605202409F
:101B1000604842F000529A60DA6822F07802DA6097
:101B20001A6A224002431A621A6A22404FF4005491
:101B3000024359485A62594A9A62DA62D1F8B82087
:101B400022F03F0242F00102C3F8B820D1F8BC20D5
:101B5000002122F03F0242F00102C3F8BC2040F213
:101B6000056219611C661867C3F880205C665867B7
:101B7000C3F884201A684A4822F002021A60494ACF
:101B80009A610222DA61484A42F8041B8242FBD180
:101B90001A6842F001021A603B4B1C6814F0010401
:101BA000FBD1404A0226214620469A6140F2F56266
:101BB000DE61C3F8002240F26642C3F8102240F210
:101BC0009942C3F82022394AC3F8302242F2014236
:101BD000C3F8342240F23542C3F84022344AC3F8F5
:101BE0005022344AC3F85422334AC3F8602242F2E6
:101BF0000122C3F86422FFF779FE0120FFF776FE89
:101C00003046FFF773FE2046FFF782FE45F60D5380
:101C10000546984227D10420FFF768FE4FF40001E3
:101C20002046FFF763FE0120FFF760FE3046FFF716
:101C30005DFE0846FFF76CFEA84212D10420FFF7B4
:101C400055FE10201D491E4B1E4A18700023521AC3
:101C50000093012302EB00521B4800F0FDFB02B091
:101C600070BD0820EEE71022174802B0BDE87040B2
:101C700000F0E6BB00801F40F9B00100F910010040
:101C800000FFF07C00C00F4000402A401200FFFF20
:101C900000802A404000008063000200FF000F83A4
:101CA00000432A40F05AF05A00422A409F0418305C
:101CB000EB06180A063201263806180A00002470BE
:101CC000BD55012000000070A84B0120F0B5154B58
:101CD00040204FF480314FF480544FF400554FF4BE
:101CE000404643F242071A6912F0020F03D09E6188
:101CF00059619F61F7E712F4005F01D15D61F2E77E
:101D000012F4805F01D15C61EDE7002AEBDA12F496
:101D1000803F01D09961E6E7520601D45861E2E7BD
:101D2000F0BD00BF00800D403E4AB3EE096A3E4858
:101D3000D2F880309FED3D5A23F0010310B5C2F870
:101D4000803003233A4CC2F890303A4BD3F8E0305D
:101D5000D9B2016007EE901AC3F30B201B0DB8EE49
:101D6000E77A354907EE900A2060F8EEE76A07EE59
:101D7000903A37EE455A314BF8EEE77A37EE466A3D
:101D800077EEE67A81ED006A25EE275AC3ED007AF8
:101D9000D2F88030C5EE065A75EEA65AFCEEE55A2A
:101DA00015EE901ADFED265A37EE657A43EA0153B5
:101DB000C2F8803027EE277A224B66EE277AD2F8D7
:101DC0009011C7EE065A35EEA67ABCEEC77A17EE2A
:101DD000100A87EE867A03EA00430B43C2F890317B
:101DE000D2F8901177EE267AFCEEE77A17EE903A69
:101DF000C3F30B030B43C2F89031D2F8803043F0A9
:101E00000203C2F8803000220F4B83F840200F4BB2
:101E10000F4AC3F840214FF0E0230122C3F8082104
:101E200010BD00BF00810D40D44C01200000AA422B
:101E3000D04C012000441F40D84C0120DC4C012034
:101E40000000B4420000FF0F00E400E00024002086
:101E500089BE000070B5104CD4F880300B2B18D11F
:101E60004FF0FF330D4A0E4E0E4D116804324B40B9
:101E7000202103F00100013906FB00F080EA530342
:101E8000F7D1AA42F1D1D4F8A800C31A5842584158
:101E900070BD0020FCE700BF00FF272080FF272047
:101EA0002083B8EDA8FF2720184A002370B5C2E9A7
:101EB0002033C2E92233C2E92433C2E92633C2F80F
:101EC000A830BFF34F8F4FF0E0248032C4F8702F5A
:101ED0002032C4F8702FBFF34F8FBFF36F8F0C4ABF
:101EE0000C4E91680C4D91601C2113632846C6F876
:101EF000C03F00F0C5FAC6F8DC0FBFF34F8FC4F83F
:101F0000685FBFF34F8FBFF36F8F70BD00FF272057
:101F100000800F4000F02720C0FF27202DE9F04768
:101F20000C46FFF797FF002800F0D081AD4E204609
:101F3000AD494FF03C0800F09BFAD6F8A470AB49CD
:101F40002046B7FBF8F9B9FBF8F5C6F8A45000F045
:101F5000B3FA18232046B5FBF3F103FB1151C9B2C4
:101F600000F062FAA249204600F0A6FA08FB15919B
:101F70002046C9B200F058FA9D49204600F09CFA6C
:101F800008FB19712046C9B200F04EFA204600F055
:101F90008BFA9849204600F08FFA1022D6F8981054
:101FA000204600F045FAD6F88850002D56D09249C8
:101FB000204600F081FA1022D6F88810204600F062
:101FC00037FAEA0740F1D2808C49204600F050FAF7
:101FD0002A0629D58A49204600F06EFA1022D6F842
:101FE0009010204600F028FAD6F890201F2A00F220
:101FF000CE808449204600F05FFA1022D6F898106F
:10200000204600F019FA8049204600F055FAD6F82B
:1020100098101022204600F00FFA7C49204600F06C
:102020004BFA204600F040FAEB0540F1BA807849BF
:10203000204600F01DFA2F0409D57649204600F00D
:102040003BFA1022D6F89410204600F0F1F9E8038C
:1020500040F1BC807049204600F00AFAD6F88C5056
:1020600085B16E49204600F027FA1022D6F88C1070
:10207000204600F0DDF9A80740F123816849204699
:1020800000F0F6F96749204600F016FA96ED280AA6
:1020900002212046B7EEC00A00F0E6F96249204668
:1020A00000F00AFA6149204600F006FA604B6149E7
:1020B0000A2218680023B0FBF1F1204600F0F8F97D
:1020C0005D49204600F0F8F95C4B9D68AA0708D5E9
:1020D0001A6B20465A4B9A420CBF5A495A4900F093
:1020E000C7F96F0703D55949204600F0C1F92E07FB
:1020F00003D55749204600F0BBF9E80603D55549FA
:10210000204600F0B5F9A90603D55349204600F052
:10211000AFF96A0603D55149204600F0A9F92B060C
:1021200003D54F49204600F0A3F915F4807500F05F
:10213000E6804C49204600F09BF9404A4A49204637
:10214000936823F48073936000F092F94749204626
:1021500000F08EF9464B07221A64464A936B43F00F
:1021600040039363BFF34F8F30BFFDE7AB0701D54B
:1021700041492AE72F0701D5404926E7E80601D55E
:102180003F4922E7A9067FF523AF3E491DE73E4BB5
:102190009A42FFF446AF20339A42BFF442AF3B4924
:1021A0003CE7AF0501D53A4942E7680501D5394911
:1021B0003EE7290501D538493AE7EA0401D5374910
:1021C00036E7AB047FF537AF354931E7A90301D5D1
:1021D000344940E76A0301D533493CE72B0367D50F
:1021E000324938E700FF2720D6140020E3140020EE
:1021F0000C1A00200A1500202F1500203815002089
:10220000FE150020201600203F1600207E1600201C
:10221000DE1600201718002039180020151900209C
:102220001E19002061190020841900208A1900203D
:102230002C1D002040420F00A819002000800F40F4
:10224000F100AD0B051B00204E1B00208F1B002052
:10225000B71B0020E21B0020091C0020331C0020BB
:10226000551C0020771C0020A11C0020C31C00204E
:1022700000C00A4000400D40611500208315002079
:10228000AD150020D3150020205601209C160020FB
:10229000FF1600202C17002071170020B117002016
:1022A000E51700205D18002090180020B9180020C4
:1022B000EF0101D53349CEE6AD017FF5CFAE32490E
:1022C000C9E669007FF5DEAE3049D8E630492046E0
:1022D00000F0CEF82F49204600F0CAF82E492046DB
:1022E00000F0C6F82D49204600F0C2F82C492046DF
:1022F00000F0BEF82B49204600F0BAF8E4E62A4F79
:10230000D7F8C030C3B3D7F8DC601C21274800F0F1
:10231000B7F8864230D1DFF8A080DFF8A090DFF870
:102320008CA00123D7F8C0202E46AB4001351342C4
:1023300020D04146204600F0BFF829460AEB860629
:10234000204600F0ADF84946204600F0B5F80023DD
:102350000A227168204600F0ABF81549204600F0CB
:10236000ABF871681022204600F066F8114920464B
:1023700000F07EF8062DD4D1FFF796FD0120BDE8D0
:10238000F08700BFD0180020F91800204519002060
:10239000AD190020C51900200E1A0020581A00207F
:1023A0007D1A0020C51A002000FF2720C0FF27202B
:1023B000151D0020C31A0020061D00207E190020D4
:1023C00008B5FFF747FD003818BF012008BD00BF62
:1023D0000F4BDA6E42F44032DA66DA6E42F4407243
:1023E000DA66A3F5603340F237625A64A0229A6439
:1023F0009A6C1206FCD4074A40F237635364A02358
:102400009364936C13F08003FBD1034A13707047FD
:1024100000C00F4000800C40B4550120F8B500BF4B
:10242000F8BC08BC9E4670475FF800F0BDC50000D0
:102430005FF800F0CDC500005FF800F0C5C50000F2
:102440005FF800F011A200005FF800F055AA00004C
:102450005FF800F039C000005FF800F01FBE000018
:102460005FF800F09DB700005FF800F019C80000A9
:102470005FF800F03D0D00005FF800F02BC6000093
:102480005FF800F0E1C500005FF800F071C30000E4
:102490005FF800F0C9EC00005FF800F0C1540000E4
:1024A0005FF800F00FC700005FF800F021C70000E0
:1024B0005FF800F073C700005FF800F0B5C50000DA
:1024C0004500000099060000510C0000893300000F
:1024D00000F03F000F4B22F0604221F0604140F4D9
:1024E00089101867C3F88010C3F890201A6F22F47F
:1024F00080521A671A6F002AFCDAD3F8702122F48E
:10250000000222F40042C3F870211A6F22F48032D4
:102510001A67704700800D4080C00F400000000324
:102520001900000010000000E8841F4001000000B6
:10253000FF000000FF00000000000000000000009D
:102540001800000010000000E4841F40010000009B
:10255000FF000000FF00000000000000000000007D
:102560001F000000B554000070C00F40000C0000B8
:102570001100000011000000E0841F400200000074
:102580002C00000012000000E0841F400100000049
:102590001000000011000000DC841F400200000059
:1025A0002D00000012000000DC841F40010000002C
:1025B0001E000000A954000070C00F40C0000000C1
:1025C0001200000013000000D0841F400100000032
:1025D000FF000000FF0000000000000000000000FD
:1025E0001300000013000000CC841F400100000015
:1025F000FF000000FF0000000000000000000000DD
:102600001C0000009D54000008034D0054005000C1
:1026100020035400650065006E00730079002000FF
:102620004D005400500020004400690073006B000E
:1026300018035400650065006E00730079006400A3
:10264000750069006E006F00040309040902690047
:10265000030100C032080B0002020201000904005D
:1026600000010202010005240010010524010101FE
:102670000424020605240600010705820310001049
:1026800009040100020A00000007050302400000DF
:10269000070583024000000904020003060101004F
:1026A00007058402400000070504024000000705FA
:1026B000850320000A09026900030100C032080BEB
:1026C00000020202010009040000010202010005EB
:1026D000240010010524010101042402060524063A
:1026E00000010705820310000509040100020A0029
:1026F0000000070503020002000705830200020034
:102700000904020003060101040705840200020017
:1027100007050402000200070585032000070A06DA
:082720000002EF02014001007C
:1027280000000000000000000000000000000000A1
:102738000000000000000000000000000000000091
:102748000548064B1B1AD90F01EBA301491002D00B
:10275800034B03B118477047C0260020C02600204D
:102768000000000008B5054B1BB105490548AFF34B
:102778000080BDE80840FFF7E3BF00BF000000008D
:10278800384C0120007C0160002070477047836C42
:1027980013B1184607F03CBAC06C08B106F0E8BBA4
:1027A8007047836C07B553B101220DF10701184634
:1027B80007F014F8012804D19DF8070003E0C06C65
:1027C80020B94FF0FF3003B05DF804FB01220DF192
:1027D800070105F0DBFCEDE7836C13B1184607F041
:1027E800C0B8C06C08B105F094BD4FF0FF30704719
:1027F800836C10B55BB1187810F008001EBFD8695B
:102808005B69C01A0028B8BF6FF0004010BDC06CEB
:102818000028FBD090F8313013F008030ED0D0E92F
:102828000413D0E90024881A63EB0403B0F1004FC5
:1028380073F1000328BF6FF00040E7E71846F5E79B
:1028480008B50CF079F90A4B1B7803F0FF006BB15F
:10285800084B187810F0010008D0074B1868074B90
:102868001B68C01A0E2894BF0020012008BD00BFB5
:10287800DF550120DE5501207453012088530120C3
:1028880000230A220CF005BB13B5044661B10846C3
:1028980001910EF02DFE2368024601995B682046DF
:1028A80002B0BDE81040184702B010BDFFF7ECBFFA
:1028B80010B50446FFF7E8FF2046BDE810400CF0CD
:1028C800BFBA000038B50C4B04460C4D036000F548
:1028D800AC7040F8105C08F0CBFA04F58470C4F8CA
:1028E800F85008F0C5FA04F1B800C4F8A85008F088
:1028F800BFFA204638BD00BF500400202C04002039
:10290800836B13B1184607F0F3BBC06B08B106F030
:10291800DBBC704708B51030FFF7F2FF08BD07B5FC
:1029280001228DF807100DF107011030FFF7E8FFBD
:1029380003B05DF804FB0000094B0022642010B5C9
:10294800084CC3F840210BF0B9FA11F05DFFFFF70E
:1029580077FF00B110BD204604F0AEFBF7E700BFDB
:1029680000002E40002700204FF0E023014AC3F862
:102978000C2D70470400FA05074B5A6E42F40032DA
:102988005A665A6D22F023025A655A6D42F00102C6
:102998005A65BFF34F8F704700C00F402DE9F04FC5
:1029A8006C4E8BB06C4D33686C4C0133336002F065
:1029B800D5FA2B886A4A8342136838BF288013F0F7
:1029C800010F09D1674B1B68012B4FF0FF3318BF6C
:1029D8000023238001231360208800B202F04AFA02
:1029E800208023881B0402D55F4804F065FB2388F8
:1029F8001BB2002B03DD5D4B0822C3F8842020881E
:102A080000B202F0E1FF208023881BB2002B03DD17
:102A1800564B0822C3F88820554B564F1B6807931E
:102A28003B68079A03F57A73934271D2524BDFF8E9
:102A380084A1B3F90030DFF88091DFF88081002BA2
:102A48005BD008A803F09FFC9DF92430BDF9202035
:102A580004939DF92730494903939DF92630484846
:102A680002939DF9253001939DF9233000939DF938
:102A780022300CF001FA43494148FFF717FF31684B
:102A88003F48FFF7FDFE40493D48FFF70FFFDAF8E2
:102A980000103B48FFF7F4FE3B493948FFF706FFB3
:102AA800D9F800103648FFF7EBFE37493448FFF7EE
:102AB800FDFE2A88354932480CF0DEF934493048A1
:102AC800FFF7F4FED8F800102D48FFF7D9FE31497A
:102AD8002B48FFF7EBFE304B1C8824B2E4B92F4B90
:102AE8002F49DFF89CB053F82420013458460CF0E5
:102AF800C3F9082C2A49294BF5D100233360CAF8B9
:102B08000030C9F800302B80C8F80030079B3B60C4
:102B180030BF0BB0BDE8F08FDFF894B00024214936
:102B2800174B013418465BF8042B0CF0A5F9182C48
:102B3800134B1C49F5D11C4C18461C4922680CF053
:102B48009BF9602200211A4809F0F2FE0023236055
:102B5800D3E700BF44480120B4530120B6530120F5
:102B6800CC7D00207C53012000270020004000423B
:102B78007453012040480120C25301203214002020
:102B8800301D0020531400205C140020571400202E
:102B98005B1400205E140020C45301200C4C01205B
:102BA80063140020681400202C4C01206D140020B0
:102BB800584C0120504C0120544C0120984B0120C6
:102BC80010B50B4C0B490C48FFF772FE23685BB13C
:102BD80000F026FB00F066FB03F066F9074906489B
:102BE800BDE81040FFF764BE01200BF067F9EDE780
:102BF800B45101201F100020301D00202610002095
:102C080070B50546D0F88C0488B90026D5F880043C
:102C180040B307F09FFC04463EB1D5F88C0488B158
:102C2800036800215B6C984760B1204670BD03685B
:102C3800DB6B98470028E8D0D5F88C0420B9D5F884
:102C48008C0438B90024F0E703681B6C9847002807
:102C5800DBD1F4E7036801215B6C9847064600283E
:102C6800D4D1EFE7D5F884040028D4D005F059FF73
:102C7800D1E700002DE9F341454CFF230021454EE3
:102C880004F5926584F8BC3484F8C814284609F021
:102C9800FDFA2846C4F88C5408F076FE002850D176
:102CA8000123D4F88C1420461A4608F091F900281C
:102CB80047D0394B5A68132A51DDD4F88034002B99
:102CC80057D0DD69013D3248FFF79AFFD4F88034C8
:102CD8000746002B54D09B794FF400749C40A4B253
:102CE80033684FF00A08002600220093FE232B4980
:102CF8002B480CF0C1F82B492948FFF7D7FD2A4685
:102D080033462748CDE900860CF0CDF826492448FB
:102D1800FFF7CCFD3A4633462148CDE900860CF052
:102D2800C2F822491E48FFF7C1FD24FA08F11C48E1
:102D3800FFF7A6FD1E491A4802B0BDE8F041FFF7AB
:102D4800B7BD336800221B490093FE2314480CF0DA
:102D580093F8134802B0BDE8F0410CF071B803EBEA
:102D6800820130688860511C596003EB82039C65BE
:102D7800A3E7D4F88454002DA5D0D5F83054A2E7A1
:102D8800D4F88444002CABD0D4F83C44A8E700BF66
:102D9800E44C0120E0220020B8510120EC0D002075
:102DA800301D0020030E0020160E0020270E0020E4
:102DB800360E0020C10D002038B5304D0024304BB0
:102DC8004FF47A722F4928462B602F4BC5F8B02054
:102DD800C5F8A830C5F8F830C5F848316FF00103D8
:102DE8006C60C5F8AC4085F8B44085F8044185F8B6
:102DF8005441C5F8A041A5F8AC41C5E93F42C5E931
:102E08005342224AC5E96934C5E93C44C5E95044FE
:102E1800C5E96444C5E966440CF026F91C4B1D4914
:102E280020461D6003F50053184AC3F8204483F870
:102E38002444C3F82844184BC3F890141749C3F81E
:102E48008044C3F8A4140721C3F88444C3F8A81421
:102E58002921C3F88C4483F8AD141149A3F8984488
:102E6800C3F89C1483F8B14483F8B84483F8C84481
:102E78000C49BDE838400CF0F7B800BFB851012044
:102E880050040020A501000054050020082100205E
:102E9800002700209C050020E44C012000093D008B
:102EA800BC0400206D000000F0B5444D87B04448D4
:102EB80040F2EE270AF05EF9424E2C68FFF7C0FC9C
:102EC80090B101F05FFD03880446012B18D042F24F
:102ED8000F762B68B3421FD8FFF7B2FC0028F8D052
:102EE800394B01221A6017E02B6832781B1B2AB174
:102EF800B3F5FA6FE5D80BF01FFEDFE7BB42F9E741
:102F0800324B334A1B8812889BB292B293422E4AA4
:102F18008CBF0023012313602E492F48FFF7C8FCFC
:102F28002E492D48FFF7C2FC21882B480BF07FFF64
:102F380029480BF085FF2A4811F05EFC18B1264994
:102F4800274811F055FC02F08DFFFFF715FDFFF73C
:102F580091FE04A803F017FA18B922491E48FFF792
:102F6800A7FC9DF917300124BDF9102003939DF9A2
:102F780016301D4902939DF91530174801939DF9A4
:102F8800133000939DF912300BF076FF12480BF0C6
:102F980057FF16491048FFF78BFC02F09DFD144BB4
:102FA80014490D481C60FFF783FCFFF709FE214612
:102FB8000D200BF04BFB07B0F0BD00BF7453012090
:102FC800006CDC02DF5501207C5301206A5401208B
:102FD800F42200209A100020301D002071140020D7
:102FE800241D00207E14002093140020BA14002011
:102FF800B4510120C614002010B504460BF052FE4F
:10300800204610BD38B5254B1A6811691A79244B2A
:10301800DA77244AA2F50063914238BF134603F5D4
:103028000060BFF34F8F03F1200219464FF0E024F0
:1030380082428CBF0122402203EB4212C4F85C1F7B
:1030480020319142FAD1BFF34F8FBFF36F8F1649EA
:10305800164C0A68164D01320A602988103353F855
:10306800082C09B2984242FA01F244F8042BF4D130
:10307800104A13881BB243B90C4801F083FF18B9F2
:103088000D4A13680133136038BD13881BB2012B36
:10309800FAD1064802F07AFDF1E700BFDC3F0120D3
:1030A80000800E4000082020504C01209849012043
:1030B80068540120C4530120544C01200000000032
:1030C8002DE9F043DFF84C91052205464E49D9F821
:1030D800003048465B682DED028B83B098474FF46B
:1030E800807148460BF0A3FE48460BF0A9FE1A2350
:1030F8002902464801330A46002400FB03FC264601
:1031080001349CFBF2F808F10107402F05DD092C7A
:103118000A44F4D1362BEDD108262A463C493D48CD
:1031280008F03F08B601CDE900470BF0A5FE07EE11
:10313800905AD9F800300322B8EEE77B36495B682D
:1031480006F4E07633489FED2A6B27EE067B06EE01
:10315800904AB8EEE66B27EE067B06EE907AB8EE5C
:10316800E66B27EE067B9FED246B87EE068B984770
:1031780002212848B0EE480B0BF0DEFE25480BF084
:103188005FFEFDEEC87B42F2107217EE900A02FB5A
:1031980000F307EE103A9FED1A6BB8EEC77B98EE76
:1031A800067BFDEEC77B17EE901A11F019FB1B4A40
:1031B800D36923F4406343F40063D361936A23F42F
:1031C800FF7323F0010343EA080333439362A2F534
:1031D800A022536823F4002323F0070343F40023B9
:1031E800536003B0BDEC028BBDE8F083AFF3008001
:1031F80000000000000070400000000060E376411D
:10320800000000000088C3409A0D002000366E01BF
:10321800A00D0020301D0020BD0D002000C00F4073
:10322800194AD36F10B543F44023184CD367D4F828
:103238008830002B27DB164B1868FFF741FF154B2A
:103248000322C3F82021C3F82821C3F82421C3F896
:103258007C210222C3F894250023C4F8E03004231B
:10326800C4F88C304FF0A063C4F890304FF480332A
:10327800C4F89430084BC4F89830084BC4F89C3014
:10328800074BC4F8883010BD00C00F4000403840DC
:10329800D422002000801F401B000300001F1F1FB6
:1032A8000100009210B5204C012120460BF0ACFC27
:1032B80023681E4A1E491A6004221E489A82186111
:1032C8001D48C3E901124FF480620021DA82A2F599
:1032D800A052D9609A61DA8A92B2DA8306229A8376
:1032E8002379164A9B0003F1804303F56C23196088
:1032F8001A602379124A03F1100142F821005A1189
:1033080003F01F00012102F1382203F160438140DC
:10331800403203F564439200116060221A70094B31
:103328002279DA7610BD00BFDC3F0120A04038408A
:103338000000020200002020E508000013000080C1
:103348000024002000800E4010B5084CD4F88830C6
:1033580023F01043C4F88830FFF7B2FED4F8883061
:1033680043F01043C4F8883010BD00BF0040384017
:103378000548002108B50BF047FC044A04490248F7
:10338800BDE808400BF070BEDC3F0120082100209A
:10339800D90800004368132B10B505DC00EB830443
:1033A8000133A2604360A16510BD4068704700EB1F
:1033B800810188687047002070470120704710B469
:1033C80000240C70836B23B118465DF8044B06F09B
:1033D80059B9C06B18B15DF8044B04F0B5BD5DF880
:1033E800044B704710B5044600230A220BF051FD28
:1033F8002046BDE810400BF023BD13B5044608462F
:1034080059B101910EF074F82368024601992046DB
:103418005B6802B0BDE81040184702B010BD00005C
:1034280038B50B4C05460B492046FFF7E6FF0A491D
:103438002046FFF7E2FF2E2009F020FE294620460D
:103448000BF0F5FC2046BDE838400BF0F9BC00BF96
:10345800301D0020EA100020F510002038B5054680
:10346800FFF7CBFF044628460BF0EAFC204438BDA2
:10347800D0F880342BB19B794FF40070984080B21B
:103488007047D0F8840408B1D0F83C047047D0F8ED
:10349800803413B1D86901387047D0F8840408B172
:1034A800D0F83004704700EB810138B58D6D28469F
:1034B800FFF7EDFF04462846FFF7DAFFA4FB0001FB
:1034C80038BDD0F8803430B50D4691B014468BB174
:1034D800002203F5896102A8134602922A46019147
:1034E80006F0DEFB019918B1224602A806F038FD65
:1034F80011B030BDD0F884040028F9D000F58961F6
:103508002A4602A80E93019105F030F9019908B9ED
:103518000020EDE7224602A805F026FE0028F7D095
:10352800E6E7836B10B55BB1187810F008001EBF92
:10353800D8695B69C01A0028B8BF6FF0004010BD99
:10354800C06B0028FBD090F8313013F008030ED080
:10355800D0E90413D0E90024881A63EB0403B0F11E
:10356800004F73F1000328BF6FF00040E7E71846EB
:10357800F5E7836B13B1184606F003BCC06B08B1BE
:1035880004F091BD7047836B33B11B7813F0700F53
:1035980014BF012000207047C06B0028FBD090F8B2
:1035A800313013F0500FF3E7836B23B9C06B003849
:1035B80018BF012070470120704738B500F1B805E1
:1035C80004462846FFF7F0FF10B1284607F050FCE4
:1035D800002384F8AC31C4F8A83138BD836B13B12B
:1035E800184606F0FBB8C06B08B104F0CFBD4FF029
:1035F800FF30704730B4856B114625B143B9284672
:1036080030BC06F0E0B9C06B10B130BC04F096BE17
:10361800002030BC704708B500F58470FFF770F9DA
:1036280008BD000000224FF47A710273C0E901213D
:10363800C0E91222014A0260704700BF5405002009
:10364800044B10B5044640F8103B07F011FC204627
:1036580010BD00BF2C04002000EB81014B6DD3F896
:10366800801400B58FB051B1002301F58961684617
:103678000093012306F022FC0FB05DF804FBD3F899
:1036880084040028F8D00C91012300F5896168466C
:1036980005F00BFDF0E7000030B5044691B00D468B
:1036A800154811460192FFF7D9FE019A04EB8501EE
:1036B8004B6DD3F8801459B1002302A8029301235B
:1036C80006F03DFB10B102A807F076FB11B030BD43
:1036D800D3F884040028F9D00E910123014602A8EA
:1036E80005F0A7F808B90020F0E702A805F060FB8C
:1036F8000028F8D0EAE700BF301D002000EB810168
:103708004B6DD3F8801400B58FB059B100236846CB
:10371800009306F014FB10B1684606F0A4F90FB048
:103728005DF804FBD3F884040028F8D00B460C910C
:103738000146684605F07DF808B90020EFE76846BD
:1037480005F07CFB0028F8D0E9E7000030B500F16F
:10375800B80595B004462846FFF726FFF8B9114A80
:1037680040F20223A16D684607F09CFC019B04A966
:103778002846C4F8AC30029BC4F8B0309DF80C3031
:1037880084F8B43007F089FB6846FFF759FF2846EC
:10379800FFF70AFF18B904490448FFF75FFE15B0A0
:1037A80030BD00BF2D1100203B110020301D00202E
:1037B80010B50446B830FFF7F7FE78B12368204605
:1037C8001B6C98470023204684F8AD316FF0010345
:1037D800C4F8A431BDE81040FFF7B8BF10BD73B5F9
:1037E80004460D464FF48C760192B834FFF7AEFFCD
:1037F80006FB05F200232046FFF7FCFE324601993E
:103808002046FFF77DF802B070BD10B5D0F8A8418A
:103818000A46611CC0F8A8112146FFF7E0FF2046C0
:1038280010BD00000123164A0021F0B5044680F8B7
:10383800AC31C7B00430FFF72FFF002563684FF0A5
:10384800FF36104FC4F89831C4F8A851D4F898310D
:103858009D4201DB47B0F0BD0023394606A8ADF80C
:103868000E5000960135CDE901330123ADF80C3037
:103878000DF0E0FD69462046FFF7C7FFE6E700BF09
:103888002D1100207E0D0020F8B54FF48C770C46E2
:10389800164600213A46054609F04AF8D4F8A831F8
:1038A800B3420ED32046B834FFF750FF07FB06F2A9
:1038B80000232046FFF79EFE3A4629462046FFF79A
:1038C8008DFE2846F8BD30B50446C7B0D4F8B051CF
:1038D80075B12A4621466846FFF7D6FF94F8B431F9
:1038E8004BB1029BC4F8B0319DF81830002BEDD0D5
:1038F800284647B030BDD4F8B011D4F8A82101311A
:10390800914238BF0B46EDE730B5CDB015460A46B3
:10391800014606A81C46FFF7B7FF0CA928460DF07C
:1039280089FD509B069A1A609DF82430002B3DD1E2
:10393800079BBDF82A10BDF8262001F01F00236060
:10394800519B40001A80BDF828200490C1F345100F
:10395800C90A530A0390029102F01F01C2F34312ED
:1039680003F2BC730191202100925298114A0DF084
:103978003DFBBDF82E10BDF82C2001F01F00530AA6
:10398800400003F2BC730490C1F34510C90A0390C8
:10399800029102F01F01C2F34312539801912021B2
:1039A8000092044A0DF022FB4DB030BD4FF0FF33BA
:1039B800BFE700BF1311002000B5C7B00A46014693
:1039C8006846FFF761FF019847B05DF804FBD0F83F
:1039D800403170B50446C8B0A3B3DD6904F58476F8
:1039E8000DF1020269463046FFF7C3FD0DF10602EC
:1039F80001A93046FFF7BDFD304607F039FAD4F883
:103A0800A421214602A8FFF73FFFBDF8003002AA13
:103A1800D4F8A411ADF818302046BDF8023003954B
:103A2800ADF81A30BDF80430ADF81C30BDF80630DA
:103A3800ADF81E30FFF7D3FE6FF00103C4F8A431D0
:103A480048B070BDD0F84451002DC7D02D69C5E7E6
:103A580070B5C6B0064614460A46014668461D4675
:103A6800FFF712FF00994B1C07D1104920460DF0B3
:103A7800E1FCBDF80E0046B070BD2B46224630462C
:103A8800FFF7E6FF20460DF033FD204410F8013C17
:103A98002F2B04D02A46054920460DF0F5FB2A466F
:103AA80006A920460DF0F0FBE3E700BF7E0D0020DD
:103AB800F0B5ADF21C4D4FF4807304460D46174621
:103AC8006A46FFF7C5FF694606461E48FFF7C6FC6B
:103AD8002A462146C0A8FFF7D7FE4FF48072C6A930
:103AE80080A80DF0F4FB4FF480723946C6A80DF09B
:103AF800EEFBC0AA29462046FFF771FE4FF48073FB
:103B0800294604EB86060DEB03022046FFF7A0FFCB
:103B180040A90C48FFF7A2FCB06D40AA6946FFF720
:103B2800D0FC064650B94FF4807280A9C6A80DF0A3
:103B3800CEFBC0AA29462046FFF751FE30460DF2BB
:103B48001C4DF0BD301D0020D0F8A4318B422DE96A
:103B5800F0410446D4B00E46154603D1D0F8A03142
:103B680093422BD004F584784FF4807314AA31461D
:103B78002046FFF76DFF07464046FFF715FD10B1D9
:103B8800404607F075F904EB870714AA2B466846E8
:103B9800B96D07F087FA019B04A94046C4F8FC30C8
:103BA800029BC4F800319DF80C3084F8043107F00A
:103BB80074F96846FFF744FDC4E9685654B0BDE897
:103BC800F08170B5044616461D46002204F584743B
:103BD800FFF7BAFF324600232046FFF70BFD049A91
:103BE80029462046FFF7FAFC70BD2DE9F041B2F1F5
:103BF800FF3F14BF90468846ADF54C7D04460E46FF
:103C08004246014640A81F46FFF73EFE4FF4807229
:103C1800D2998CA80DF05BFBBDF80E31419A86A9AC
:103C2800ADF826320023204688928793CDF8188273
:103C38008DF82472CDE98A3301238DF82532FFF7F8
:103C4800E4FD40AA0546419041462046FFF7C7FDDE
:103C580087B16A4629464FF480732046FFF7F8FE7D
:103C68006A463146201DFFF7F7FC28460DF54C7DC6
:103C7800BDE8F08140F2022229462046FFF764FFA2
:103C8800F3E790F8AC310BB9FFF7CCBD70472DE9DD
:103C9800F043B2F1FF3F14BF16460E46ADF50D7D59
:103CA8000146044632466846FFF7EEFD9DF80C30A3
:103CB800002B7BD09DF80D50002D77D104F584782A
:103CC80020462A463146FFF73FFF4046FFF76CFC87
:103CD80000286BD0A94646A804F5AC77FFF7A2FCEC
:103CE800002241464AA807F043F9479B4AA93846AB
:103CF800C4F84C31489BC4F850319DF8243184F8FD
:103D0800543107F0CAF846A8FFF79AFC3846FFF77F
:103D18004BFC002841D0BDF80E3038464696ADF829
:103D280026314895FFF72FFC8DF8240148BBD4F8BD
:103D3800903103B3DB694FF480724CA9384647933E
:103D48008DF82591FFF73BFB0DF595724AA938468A
:103D5800FFF70FFCD4F89001A8B10DF597724BA9A5
:103D680006F01FF846A92046FFF74FFD05463846DE
:103D780007F07EF8AFE7D4F89431002BDBD01B694D
:103D8800D9E70023D7E7D4F894010028EAD00DF545
:103D980097724BA904F097F9E4E701236A46314684
:103DA80020468DF80D300195FFF719FD0DF50D7DB5
:103DB800BDE8F08310B5B2F1FF3F08BF0A46C8B0AE
:103DC80004460192FFF763FF0123019A214602A8E6
:103DD80084F8B431FFF758FD039BC4F8B03148B0FC
:103DE80010BD70B590F8AD4105460E4644B90123A3
:103DF80080F8AD31FFF745FFD5F8A8319C4200D3D4
:103E080070BD2246314628460134FFF740FFF3E7EC
:103E180070B5154604460E46FFF733FF35B12A46FE
:103E280031462046BDE87040FFF7C4BF3146204602
:103E3800FFF7D7FF012384F8B451C4F8B03170BD3F
:103E48002DE9F0430C46ADF53F7D00EB81010646B8
:103E5800071D002302A8896D154607F023F906A857
:103E6800FFF791FB002850D0DFF8AC9016A8FFF7B9
:103E7800D9FB2AA8FFF7D6FB002206A92EA807F02F
:103E880077F82B9B2EA91AA817932C9B18939DF8AB
:103E9800B4308DF8643007F000F81AA8FFF784FBF7
:103EA80080462AA8FFF7CCFBB8F1000F0ED12A46AE
:103EB80021463846FFF722FC16A8FFF7C1FB02A8E7
:103EC800FFF7BEFB0DF53F7DBDE8F0830DF5FC78EF
:103ED8004FF480721AA84146FFF771FA4A464FF428
:103EE80080712B463EA8CDF800800DF07FF81AA807
:103EF800FFF749FB3EAA214618B13046FFF7A0FF5D
:103F0800B7E73846FFF7C8FBB3E72A4621463846E5
:103F1800FFF7C2FBD3E700BF0D110020F0B5ADF2EB
:103F2800645D04460D464FF4807346AAFFF790FD82
:103F38002A46214686A8FFF7A7FC46AABDF82612FE
:103F48002046FFF77DFF002386AA294620468DF8E4
:103F58003032FFF744FC869A2146CCA8FFF794FC40
:103F6800CD9EB54209D1889BCCAA8699CD9320468F
:103F7800FFF735FC0DF2645DF0BD324621460DF5C4
:103F88008960FFF781FCDDF85074BD4206D1889B3B
:103F98000DF589623146CDF85034E8E73A462146B6
:103FA80068463E46FFF770FC4FF48C7269460DF583
:103FB800896008F0DFFCE6E708B54B1C01D0FFF785
:103FC800ADFF012008BD70B500EB8101ADF50A6DAC
:103FD80005461E46496D0023684607F063F804A8A5
:103FE800FFF7E2FA044650B940F2B220FFF718FA98
:103FF8006846FFF725FB20460DF50A6D70BD05EBF9
:10400800860540F20223DDF8B02814A8696D07F090
:1040180049F818A8FFF7C8FA044650B904A806F0EA
:1040280027FF40F2B520FFF7FBF914A8FFF708FBBC
:10403800DEE74FF0FF3504A8FFF773FA00280FDD1D
:104048004FF4006228A904A8FFF7C8FA051E07DB89
:104058002A4628A918A8FEF753FCB5F5006FEADA36
:1040680004A806F005FF18A806F002FF002DDCDA08
:1040780040F2C1200024FFF7D3F9D6E72DE9F0413B
:10408800ADF5AA6DB3F1FF3F14BF984690460446BC
:104098000A460F46014682A888AEFFF7F5FB42465E
:1040A8002146C8A8FFF7F0FB9DF814520DB3BDF8E0
:1040B80016123A4620460131FFF7E9FD9DF8143201
:1040C80022682046003B0096BDF82E13D56A18BF1B
:1040D80001234246A84723680546BDF82E235E6D96
:1040E800394603462046B04728460DF5AA6DBDE877
:1040F800F0814FF4807231460DF58A600DF0E7F8D3
:10410800BDF82E330DF587612046ADF84634C99BBE
:10411800CDF83C54CDF84034ADF84454CDF838844B
:10412800FFF773FBC8AA05464146C9902046FFF72A
:1041380056FB02AA39464FF4807342AF2046FFF778
:1041480087FC06463A4629464FF480732046FFF717
:104158007FFC02AA03463146201D0097FFF733FF74
:10416800C2E72DE9F043ADF26C6DB3F1FF3F14BF28
:104178001F46174604460A46014682A8FFF784FBF5
:104188003A462146C8A8BDF816820025FFF77CFBF1
:10419800839E56B92046C8AA3946C995FFF71FFB22
:1041A80001200DF26C6DBDE8F083324621460DF515
:1041B8008760FFF769FB4FF48C720DF587610DF589
:1041C800AA6008F0D7FBBDF82E330DF5AA6120468A
:1041D800ADF85E35CDF85855CDF85075FFF715FB9D
:1041E80005464FF4807302AA31462046FFF730FC9B
:1041F80042AA4FF4807329462046FFF729FC9DF810
:104208005C15201DBDF85E3542AA99B11946FFF725
:1042180023FA324641462046FFF739FD2368BDF8A8
:104228002E233146D3F8549020462B46C847DDF854
:104238004064AEE70092414602AAFFF7C4FEF6E7E3
:104248002DE9F341DDF820800E461746194642460F
:1042580001930546FFF700FA019B044648B13A4628
:1042680031462846CDF8208002B0BDE8F04100F084
:1042780009B840F2CB20FFF7D3F8204602B0BDE8DA
:10428800F08100002DE9F0410E46ADF52A7D00EBE6
:1042980081010546984602A80023496D174606F095
:1042A80001FF06A8FFF780F90446002859D0424CC0
:1042B8004FF4807239462AA80DF009F82AA80DF0A3
:1042C80017F92AAB184410F8013C2F2B05D04FF4EE
:1042D800807221462AA80CF0D7FF4FF48072B0995B
:1042E8006AA80CF0F4FF6AA80DF002F96AAB18444A
:1042F80010F8013C2F2B05D04FF4807221466AA894
:104308000CF0C2FF16A8FFF78DF9002206A91AA81B
:1043180006F02EFE1AA8FFF747F9002841D04FF4FF
:1043280080722AA91AA8FFF74AF84FF480726AA97E
:104338001AA8FFF744F81AA8FFF725F96AAB2AAAC2
:10434800314600934346C0B12846FFF779FF20BBAA
:1043580040F2E220FFF764F816A80024FFF770F98E
:1043680003E040F2CE20FFF75BF802A8FFF768F9F8
:1043780020460DF52A7DBDE8F0812846FFF723FE8B
:1043880010B940F2E620E5E72AAA31462846FFF7A9
:1043980083F910B940F2E720DCE716A8FFF750F9D7
:1043A80086E716A8FFF74CF93A4631462846FFF744
:1043B800A5F90446D9E700BF7E0D00202DE9F0439A
:1043C800ADF6CC2DB3F1FF3F14BF1F461746044688
:1043D8000A460D460146C8A8FFF756FA3A4621464E
:1043E8000DF58760FFF750FAC89A21460DF5AA60C7
:1043F800FFF74AFA9DF82C336BB19DF82D3353B96A
:104408002A46BDF82E132046FFF741FCC8AA2946C4
:104418002046FFF7E4F94FF48C72C8A90DF5CD607A
:1044280008F0A8FA4FF48C720DF587610DF5F0606D
:1044380008F0A0FA4FF4807348AA29462046FFF7EF
:1044480007FBDDF85485A8453AD1CA9B4FF0FF38E1
:104458000DF5AA62C8992046CDF85435FFF7BFF983
:10446800BDF84634C8AA29462046ADF82E33DDF8F3
:104478003C34C897CA93CDF83C54FFF7B0F90DF512
:10448800876239462046FFF7AAF94FF48073294618
:1044980088AA2046FFF7DCFABDF87616BDF88E37F5
:1044A800994255D104EB810388AA48A9986DFFF772
:1044B80008F8A8B3012630460DF6CC2DBDE8F083E8
:1044C8004246214602A8FFF7DFF94FF48C7202A991
:1044D8000DF51B6008F04EFA4FF48C720DF51B6158
:1044E8000DF6980008F046FADDF8B869AE4209D131
:1044F800CA9B0DF51B6241462046CDF8B839FFF737
:104508006EF9ADE73246214602A8B046FFF7BCF97E
:104518004FF48C7202A90DF51B6008F02BFADBE74B
:1045280040F24320FEF77CFF0DF6980241462046F4
:10453800FFF755F90DF5CD6229462046FFF74FF9EB
:104548000DF5F062394620460026FFF748F9B2E734
:104558009DF8742604F104098AB988AA484600928D
:1045680048AAFFF730FD064630B148AABDF88E17B5
:104578004846FFF791F89EE740F24720D2E788AA1D
:104588004846009248AAFFF75BFE002892D140F205
:104598004B20C7E770B500EB81050F4CA86DFEF7FF
:1045A80076FF01462046FEF71DFFA86DFEF728FBA3
:1045B80001462046FEF716FFAE6D3046FEF767FF50
:1045C80004463046FEF71CFB241AA86DFEF750FF80
:1045D800A4FB000170BD00BF301D002010B50446CB
:1045E8000AF025FC2046BDE810400AF029BC036803
:1045F8001B68184713B5044661B1084601910CF0D1
:1046080077FF2368024601995B68204602B0BDE83F
:104618001040184702B010BDFFF7ECBF10B50446B4
:10462800FFF7E8FF2046BDE810400AF009BC00008B
:1046380038B508F013FC0028FBD0094C41F2883348
:10464800084D0D212246AB60284628230AF09CFB22
:104658000023214623542846FFF7E0FF204638BDB3
:104668008A550120301D002013B50446FFF7E0FFEE
:1046780001AA03490CF00EFD019B236002B010BD96
:104688005014002013B50446FFF7D2FF01AA0349CE
:104698000CF000FD019B238002B010BD50140020D7
:1046A80010B588B008F0DAFB0028FBD008F010FC41
:1046B800C0B2642815D1FFF7BBFF07AB05AA55495F
:1046C80002930DF11303019306AB00930DF112034E
:1046D8000CF0E0FC0598DDE9061201F066FE08B072
:1046E80010BD36280AD82F28F9D93138052800F204
:1046F8008F80DFE800F081838587898B6138C3B2BA
:10470800162BECD81628EAD801A353F820F000BFDE
:1047180077200000BF1F0000B3200000BF1F00006B
:10472800BF1F00008B200000BF200000BF1F00003B
:10473800BF1F0000BF1F0000BF1F0000BF1F0000F9
:10474800BF1F0000BF1F000083200000BF1F000024
:10475800BF1F0000872000009F2000004D200000A0
:10476800BF1F0000BF1F0000D5200000FFF760FF3B
:1047780007AB05AA274902930DF11303019306AB72
:1047880000930DF112030CF085FC0598DDE9061283
:1047980001F01DFEA3E7204808B0BDE81040FFF770
:1047A80063BF1E48F8E71E48F6E71E4C2046FFF791
:1047B8005BFF206808B0BDE81040FEF7C5BD1A4C85
:1047C8002046FFF75FFF23881B0488D5002323803A
:1047D80085E7164808B0BDE81040FFF753BF144CF2
:1047E8002046FFF74FFF208840B208B0BDE81040D0
:1047F80001F02CBC0F48EDE70F48EBE70F48E9E75D
:104808000F48E7E70F48E5E70F48E3E70F48E1E718
:104818000F48DFE714100020F2220020F4220020C5
:104828006A540120D422002068540120C453012076
:10483800E822002094530120C0530120EC220020DC
:10484800EE220020F0220020EA220020BA530120A4
:10485800B85301204A00002109F03ABE4A0000215D
:1048680009F0DEBC1A4B4FF47A721A4810211B88E3
:104878004380194B1B888380184B1B88C380184BB7
:104888001B880381174B1B884381174B1B88838127
:10489800164B1B88C381164B1B880382154B1B883C
:1048A8004382154B1B888382144B1B88C382144B8D
:1048B8001B6893FBF2F30383124B1B884383124B51
:1048C8001B888383114B1B88C383FFF7C3BF00BFBB
:1048D800F222002094530120F42200206A5401207F
:1048E800C453012068540120C0530120EC22002049
:1048F800EE220020F0220020EA220020BA530120F4
:10490800D4220020E8220020BC530120B853012003
:1049180038B5054608F0A2FA0028FBD008F0D8FA06
:10492800C4B214482146FFF762FE12480AF088FA1A
:10493800772C06D1FFF796FF0F490E48FFF76EFE5A
:1049480004E06D2C07D10D48FFF79CFE08F086FAAD
:1049580060B9284638BD632C02D101F011FDF5E796
:1049680021460448FFF743FE0549E6E708F0B0FA98
:10497800ECE700BF301D0020980E0020C253012034
:10498800A80E00202DE9F0473F4C1021DFF828A1A0
:104998002046DFF82891FFF761FF2388DFF820E140
:1049A800012BDFF820C1394F394A3A4E3A4D3B487E
:1049B8003B4931D16388AAF80030A388A9F80030B0
:1049C800E388AEF80030B4F90830ACF80030B4F938
:1049D8000A303B80A3891380E389E28A3380238AE3
:1049E8002B80638A0380A38A0B802E4B1A804FF496
:1049F8007A72238B53432C4A1360B4F91A202B4B39
:104A08001A80B4F91C202A4B1A80B4F91E20294BAD
:104A18001A801D48BDE8F0874FF014080023AAF853
:104A28000080A4F802804FF03C082380A9F8008099
:104A3800AEF80030ACF800303B8013800C22A4F8AC
:104A480004803280E2812A8022821822E380028058
:104A58006282012223810A804BF68031A282114AA8
:104A680063811380104AA381116030220F49228389
:104A78000A22E3820A8062830D4AA38313800D4AC7
:104A8800E3831380C5E700BF9453012068540120D5
:104A9800C0530120EC220020EE220020F02200204A
:104AA800EA220020BA530120D4220020E822002064
:104AB800BC530120B8530120F2220020F422002028
:104AC8006A540120C453012010B588B008F0C6F913
:104AD8000028FBD008F0FCF9C0B2702840F0B18083
:104AE8009C480AF0ADF99C499A48FFF797FD06A83B
:104AF80001F049FC9DF91C30BDF9182004939DF97B
:104B08001F30964903939DF91E30924802939DF9F0
:104B18001D3001939DF91B3000939DF91A300AF05E
:104B2800ABF901F02EFC01468A48FFF777FD8C4966
:104B38008848FFF771FD8B4B864819680AF077F9AA
:104B480084480AF07DF988498248FFF765FD874B5C
:104B58008048198809B2FFF741FD85497D48FFF76C
:104B68005BFD844B7B48198809B2FFF737FD824902
:104B78007848FFF751FD814B7648198809B2FFF74D
:104B88002DFD7F497348FFF747FD7E4B7148198813
:104B980089B2FFF723FD7C496E48FFF73DFD7B4B4B
:104BA8006C48198889B2FFF719FD79496948FFF7F8
:104BB80033FD784B6748198889B2FFF70FFD7649AE
:104BC8006448FFF729FD754B6248198889B2FFF7D9
:104BD80005FD73495F48FFF71FFD724B5D48198853
:104BE80089B2FFF7FBFC70495A48FFF715FD6F4B78
:104BF8005848198889B2FFF7F1FC6D495548FFF705
:104C08000BFD6C4B5348198889B2FFF7E7FC6A49DA
:104C18005048FFF701FD694B4E48198889B2FFF7E4
:104C2800DDFC67494B48FFF7F7FC664B4948198894
:104C380089B2FFF7D3FC64494648FFF7EDFC634BA4
:104C480078E0362827D82F2829D931380528F2D8EE
:104C5800DFE810F0C400CA00D000D600DC00E20093
:104C680016281CD8DFE810F03D001B006900220060
:104C78001B0054006F001B001B001B001B001B00C7
:104C88001B001B0048001B001B004E006100310088
:104C98001B001B00DE006138C3B2162BE0D908F0F8
:104CA800DDF8002840F0C78008B010BD06A801F064
:104CB8006AFB9DF91B30BDF91820009344499DF902
:104CC8001A3024480AF0D8F8E9E706A801F05BFB97
:104CD8009DF91F309DF91D2000933E499DF91E3016
:104CE800EFE727491B48FFF797FC264B198889B23D
:104CF8001848FFF773FCD2E737491648FFF78CFCD2
:104D0800224BF3E722491348FFF786FC214BEDE7D6
:104D180013491048FFF780FC124B0E4819680AF037
:104D280086F80C480AF08CF8B9E70F490948FFF7EC
:104D380073FC0E4B198809B2DAE70D490548FFF7ED
:104D48006BFC0C4BF6E70C490248FFF765FC0B4B74
:104D5800F0E700BF301D0020C2100020B80E002070
:104D6800DE0E0020D4220020EB0E00206854012023
:104D7800F80E0020C4530120050F0020E82200206F
:104D8800120F0020F22200201F0F0020F422002022
:104D98002C0F00206A540120390F0020C053012035
:104DA800460F0020EC220020530F0020EE220020A6
:104DB800600F0020F02200206D0F0020EA22002062
:104DC8007A0F0020BA530120870F0020B853012022
:104DD800940F0020AE0F0020C90F00201749184873
:104DE800FFF71AFC174B81E717491548FFF714FC22
:104DF800164B7BE716491248FFF70EFC154B75E773
:104E080015490F48FFF708FC144B6FE714490C4885
:104E1800FFF702FC134B69E713490948FFF7FCFB4E
:104E2800124B63E7FFF7AEFD044611490448FFF74C
:104E3800F3FB21885CE708F04BF830E7D60F002039
:104E4800301D0020C0530120E20F0020EC2200207A
:104E5800EE0F0020EE220020FA0F0020F0220020A2
:104E68006D0F0020EA2200207A0F0020BA5301209B
:104E78000610002038B5044607F0F0FF00285AD085
:104E880008F026F8C1B2732908D100242B492C4810
:104E9800FFF7C2FB01F0F8F8294D48E0652929D051
:104EA80013D83F2937D00BD8212937D03A292DD00C
:104EB8002348FFF79CFB23492148FFF7AFFBEBE7AB
:104EC8006229F5D1FDF750FDE6E7722918D0782957
:104ED80019D06D29ECD11C4D1C492B881848C3F1F9
:104EE80001032B80FFF798FBB5F90010144809F06F
:104EF8009EFFD1E7164905241148FFF78DFBCBE744
:104F0800FDF71AFDC8E700F0E5FBC5E72046FFF707
:104F1800FFFC0446C0E7FFF7D7FDBDE7FFF7C0FB7E
:104F2800BAE707F0D5FFC1B22846FFF760FB07F0E4
:104F380095FF0028F5D1204638BD00BF3D0E002062
:104F4800301D0020570E0020C25301204C0E0020B7
:104F5800450E00200048704794530120044B186800
:104F6800044B1B68C01A48BF00F5905080B27047C8
:104F7800E8410120E4410120014B1868704700BF57
:104F8800D4DF0020F8B50124124D134E4FF490578A
:104F98002C6001463368114A2344126893FBF7F0EA
:104FA80007FB1033934202D100202860F8BD0C4B58
:104FB8004FF40072306803EB402007F0DBFC3368E5
:104FC8002046013393FBF7F207FB123333600023CB
:104FD8002B60EBE7D4DF0020E8410120E441012009
:104FE8000000007070B5104B0124104E104D346055
:104FF8002A681B689A4202D10020306070BD0D4BB0
:105008004FF40072296803EB412107F0B3FC2B68C9
:105018004FF490522046013393FBF2F102FB113317
:105028002B6000233360E9E7E8410120D4DF00204A
:10503800E44101200000007073B506466846154635
:105048000C4601F0A0F9BDF800209DF90330A2F24A
:10505800BC7292B27F2A24D89DF802100C2920D85D
:10506800DBB21F2B1DD843EA411343EA42239BB20C
:105078009DF805109DF907201729338013D89DF84E
:1050880006303B2B0FD8D2B23B2A0CD85B0143EA3F
:10509800C12343EA52039BB2238000232B7002B042
:1050A80070BD0023E4E70023F6E730B4856B1146B2
:1050B80025B143B9284630BC04F085BCC06B10B19B
:1050C80030BC03F03BB930BC704700230A2209F01A
:1050D800E0BE13B5044661B1084601910CF008FA28
:1050E8002368024601995B68204602B0BDE810407B
:1050F800184702B010BDFFF7ECBF10B50446FFF724
:10510800E8FF2046BDE8104009F09ABE836B13B152
:10511800184604F07DBDC06B08B103F029BF704785
:1051280010B586B00D4C04A801F02DF99DF9173083
:10513800BDF91020204603939DF9163008490293C3
:105148009DF9153001939DF9133000939DF91230A4
:105158000BF080FF204606B010BD00BF3A55012075
:10516800C80C0020F7B5314C002A01931546304B86
:10517800B8BFD51DA0618EB22360A3F57003ED10F2
:105188006284A3F2FB73E6826843A36003F15B4386
:1051980015FB06F5414303F5F11304F12C00E16119
:1051A80003F60F4323492584E36003F18243A3F602
:1051B8000243C4F8F83103F10D2303F572030533F4
:1051C80063624FF4FC736360102323614FF4E6734A
:1051D800A3620023C4F8FC310123A382164B1D6887
:1051E8000CF028F9FFF79CFF014604F130000CF0A1
:1051F80021F9019A114904F140000BF02BFFE564F5
:10520800FFF7A8FE5034034600F12005186808335C
:1052180053F8041C2246AB4203C21446F6D108498F
:1052280008480CF007F9014803B0F0BDF443012029
:1052380052494646800D002074530120850D0020F8
:105248008A0D002064440120034B5A68C3F8FC010E
:10525800024418465A607047F4430120134B9A6C75
:1052680070B50646CAB15469002522462B46104936
:10527800104809F001FE002300220F48FFF715FF30
:105288004FF4007231460948FDF744FB22462B468D
:105298000948BDE87040FFF708BFDB6C13B1D3E9DC
:1052A8000045E2E71C461D46DFE700BFB84B01207A
:1052B8008F0D0020301D0020C84B012010B588B08C
:1052C800044606A801F05FF89DF91F30274A2046DA
:1052D80004939DF91E30264903939DF91D300293CE
:1052E8009DF91B3001939DF91A300093BDF91830D0
:1052F8000BF0B0FE142363611E4B1B68A3611E4BA9
:105308001B68E361012323621C4B1B889BB2636209
:105318001B4B1B889BB2A3621A4B1B889BB2E36290
:10532800194B1B881BB22363184B1B881BB2636382
:10533800174B1B881BB2A363164B1B881BB2E36376
:10534800154B1B682364FFF705FE04F1500300F1B9
:10535800200250F8041B904243F8041BF9D14FF087
:1053680055330120C4F8FC3108B010BD800D002071
:10537800C60C0020C87D0020D4220020F222002084
:10538800F42200206A540120C453012068540120EB
:10539800E8220020BC53012074530120022810B5D4
:1053A800044654D108F088FE304B1A8892B2B0FBFC
:1053B800F2F302FB13032E4A116813608B4246D2A4
:1053C8002C4C2D4922880B8892B29BB29A4240D825
:1053D8002A4C2B4922880B8892B29BB29A420CD94C
:1053E800284B2288098892B289B2B0FBF3F3B3FB49
:1053F800F2F402FB14338B4235D2224AB0FBF2F3AB
:1054080002FB13034FF46162B3FBF2F31E4A1288E6
:1054180092B2934204D31D4A128892B2934209D39E
:105428001B4A128892B293421DD31A4A128892B22A
:10543800934218D2184B1C88124BB0FBF3F044F679
:10544800206303FA84F4A04234BF042403242046D2
:1054580010BD23880A889BB292B2B0FBF3F103FB1C
:1054680011039342B4D30424F1E700BFF2220020D1
:105478003C4801206A540120F4220020BA5301203C
:10548800EA22002080510100C0530120EC220020B4
:10549800EE220020F0220020B8530120034B1A68A6
:1054A80082421ABF186001200020704700210020A6
:1054B80010B586B0044604A800F065FF9DF91510E4
:1054C8000846FFF7EBFFE0B19DF9133020460E4A7E
:1054D80002939DF9123003910193BDF910300B49E5
:1054E80000930B4B1B680BF0B5FD0A4809F0A8FCAC
:1054F80009490848FFF7FFFD06482146FFF7FBFD6D
:10550800012006B010BD00BF57110020650D002016
:10551800C87D0020301D002054140020F0B589B04B
:10552800044606A800F02FFF1A4B9DF91F701A8831
:105538009DF91E609DF91D5012B29DF91B009DF941
:105548001A10BDF918300091CDE90367CDE90105BE
:10555800E2B9114A114920460BF07CFD104809F0C8
:105568006FFC10490E48FFF7C6FD21460C48FFF7AF
:10557800C2FD0D490A48FFF7BEFD08F079FC014657
:105588000748FFF7A2FD012009B0F0BD024A07490C
:10559800E1E700BFC4530120F1130020200D0020D3
:1055A800301D0020541400205C140020400D002001
:1055B80070B53E4C44F620623D4DB0FBF4F12B88AB
:1055C80002FA83F38B4204D9288802FA80F06043F8
:1055D80070BD384A384E15883388ADB29BB29D42AB
:1055E80012D9138835889BB2ADB2B1FBF3F603FB31
:1055F8001613AB4208D3138810889BB280B2B1FB54
:10560800F3F303FB0000E2E7284AB0FBF2F302FBE6
:1056180013034FF46162B3FBF2F3284A1488A4B26F
:105628009C4204D8264C2488A4B29C4209D8254C14
:105638002488A4B29C4215D8234C2488A4B29C4246
:1056480010D9224C224D26882D88B6B2ADB2AE4272
:1056580008D923889BB2B0FBF3F3208880B203FB00
:105668000000B5E71488A4B29C4208D91088182312
:105678004B4313FA80F04FF461635843A8E7104C8A
:105688002488A4B29C4204D80E4D2C88A4B29C4213
:1056980009D80D4C2488A4B29C4299D818231088A4
:1056A80001FB0333E5E72888E1E700BF80510100EB
:1056B800B8530120BA530120EA220020C053012028
:1056C800EC220020EE220020F02200206A54012063
:1056D800F4220020034A936B43F04003936330BFE6
:1056E800FDE700BF00400D40214B70B59E6BDA6CA2
:1056F80042F00102DA64BFF34F8F9A6B22F0020284
:105708009A639A6B12F00202FBD19A659A6D002A8D
:10571800FCD172B6164D2B6D6C6D696D2A6DA14268
:10572800F9D19A42F7D1E40B124844EA434421469E
:10573800FFF7CBFC10490F48FFF7DDFC2046FFF7C9
:1057480037FF014604460B48FFF7BFFC094809F03C
:1057580077FB074BAC659A6DA242FCD146F0020676
:105768009E639A6B9207FCD562B6FFF7B3FF00BF42
:1057780000400D40301D0020600D002030B504466B
:1057880095B0002840F082807C48FFF791FE002801
:105798004CD07B4D2B68D3F88014B1B12346774A9F
:1057A8006846009404F0CBFA70BB2B68D3F88014D9
:1057B800B9B9D3F88404F0B10C91012300F58961DB
:1057C8006E4A684603F071FC14E0D3F8840400289C
:1057D800EBD00B460C91694A0146684603F029F85C
:1057E800E2E70023654A01F58961684600930123D1
:1057F80004F064FB40B963496348FFF77EFC4FF04F
:10580800FF34204615B030BD2B68D3F8800428B18A
:105818005A4904F07FFF48B95C49EDE7D3F884049E
:105828000028F9D0554903F029FAF4E75848FFF75A
:1058380075FE0028E3D0524944F20223544A6846D0
:10584800096805F02FFC534C019B04A904F11000D2
:105858006360029BA3609DF80C30237305F01DFB69
:105868006846FDF7EDFEA36C5BB14B4B00221A6056
:105878004A4B1B881BB27BB34948FFF71FFD4849B9
:1058880033E0E36C002BF0D14649B5E70128ECD0B2
:10589800022832D0E31E9BB2022BB2D83D4B9A6C41
:1058A8000AB9DB6C7BB13D4B1B881BB243B93A4B41
:1058B8004FF4C0401B685843FFF7C6FCFFF7CEFC07
:1058C800394805F0D5FA042C4ED100F0E5FA00204D
:1058D80000F0D8FAFFF708FF344B0121202218689E
:1058E800334B1B68FFF73EFC01464FF400722E480D
:1058F800FDF706F8B0F5007F34DB4FF4C0422D49C0
:105908002948FCF7FDFFB0F5C04F0446224D24D2CC
:1059180029491D48FFF7EFFB21461B480324FFF7E1
:10592800D4FB26491848FFF7E6FB0221164809F080
:105938007EFA154809F084FA214A13680133136086
:105948004FF47A722B68B3FBF2F102FB1133002B90
:10595800A0D11548FFF7DAFB9CE72B680224013336
:105968002B60E9E7032495E7032C04D0154B0822A4
:10597800C3F8882043E7002443E700BF965401207A
:10598800DC22002062100020301D00206E10002054
:10599800E6540120B84B0120344C0120C4530120A7
:1059A800D0DD00207A100020C84B0120D42200202E
:1059B800C87D0020D07D00208C1000205C140020C1
:1059C800984B012000400042431C2DE9F041044659
:1059D80013D1FFF7D1FA05460028FAD12D48FFF771
:1059E80001FB2C4B2C4A53F8041B42F825100135B7
:1059F800082DF8D12046BDE8F0810028FADBFFF732
:105A0800CDFC0446FFF7AAFA2F28F3D9234B1D88AB
:105A18002DB22DBB1F4FB846FFF7AEFA0646002839
:105A2800FAD101354046FFF7DDFA08F50078302D48
:105A3800F2D1194B57F8042B43F826200136082ECB
:105A4800F8D14FF4C0421349154806F093FF154B9F
:105A58001B68002BCED02046BDE8F041FFF78EBE74
:105A68000F4E0027B046FFF787FA05460028FAD1FF
:105A780001374046FFF7B6FA08F50078302FF2D123
:105A8800054B56F8042B43F825200135082DF8D18D
:105A9800DDE700BFDCDF00200C4C0120C4530120EF
:105AA800D07D0020084C0120074800234FF47A726B
:105AB80006490373C0E90132C0E91233044B054AB1
:105AC800036009F0D1BA00BFB84B0120210F0000D4
:105AD80054050020082100202DE9F843214B052416
:105AE800214AD3F82032DFF89C9023F07F43DFF877
:105AF80098801E4F13601E4B1E4A1A60D9F800503A
:105B0800FF23002105F5926685F8BC3485F8C81492
:105B1800304606F0BBFB3046C5F88C6405F034FF10
:105B280080B90123D5F88C1428461A4605F050FA96
:105B380040B10E481049FFF7E0FA01200F4B1860FA
:105B4800BDE8F88341463846FFF7D7FA642008F0E5
:105B5800B5F9013CD2D105480949FFF7CEFA2046EC
:105B6800EEE700BF00441F40C87D0020301D002024
:105B7800FC47012019290000E20C0020084C0120F4
:105B8800040D0020DC220020F40C00202DE9F74F42
:105B9800044608F091FA019008F06AF9974B82469A
:105BA80000221B6854F8221043F822100132802A80
:105BB800F8D1043C03F5FE701A4652F8041F54F855
:105BC800045F9042A1EB05011160F6D1002253F861
:105BD800041F0029B8BF49428A42B8BF0A46984202
:105BE800F5D102240121631E01FA03F3934202DC7A
:105BF8000134182CF7D1824A611EDFF8188252F856
:105C08002130C346013342F821307E4B1A68944252
:105C1800424688BF1C60012303FA04F0013852F899
:105C2800041F01330140802B1160F8D1764D4FF4E9
:105C3800007200214FEA8409284606F079FE4FF0E9
:105C4800A532019B09F107072A6009F108066F4A86
:105C580007211288C5E9023A44EA0242DBF800301B
:105C68006A600122AB61002309EB02002A619C46AD
:105C7800CBF8003020236861A3EB040E55F821A06F
:105C880058F8042BBEF1000F23DD02FA0EF273461A
:105C980042EA0A0245F821200CF1010CBCF1800F00
:105CA800EAD1DFF87481D8F8004004EB0609B9F1AD
:105CB800800F26DC5648B200534900EB840006F0FA
:105CC80059FEC8F800904FF00109484603B0BDE8F6
:105CD800F08F01F1010906D14AEA0202202345F8B2
:105CE80021204946D8E7E31A22FA03F343EA0A03D4
:105CF80045F821300EF1200349469A4045F82920FD
:105D0800CAE77A2C24DD00222346414910467F2B1E
:105D180019D9802CC4F18003C8BF002323440AB1D9
:105D2800C8F800303A48FFF72DF9B0F100094FEAFA
:105D380086023549364818BF4FF0010906F01AFEA9
:105D4800C8F80060C1E741F8230001220133DEE70B
:105D5800C4F17A032C492E4A43EA004308466B6192
:105D6800234650F804CB42F823C00133802BF8D1E6
:105D78002748C4F1800A0191C8F80030FFF702F9FA
:105D88006B69A7EB0A07B0F10009D3464FEA134342
:105D98004FF0070018BF4FF0010901991B043B435E
:105DA8001B4F6B613A460023C8F80030013816D102
:105DB80013B10623C8F80030D8F80010002302EB0E
:105DC8008102B24511DB803C34445E45B8BF0024F3
:105DD8000C44002B3FF479AFC8F8004075E751F840
:105DE800043B47F8043B0123E0E755F82A300AF161
:105DF800010A42F8043B0123E3E700BFE422002044
:105E0800584C01202C4C0120F441012068540120F9
:105E1800E43F0120F44501204848012013B5044619
:105E280061B1084601910BF063FB236802460199B2
:105E38005B68204602B0BDE81040184702B010BDAC
:105E4800064B0522C3F8B4200822C3F8A422044A4A
:105E5800536843F080635360704700BF00801F4061
:105E68000080004208B5FFF7EBFF054B4FF080625A
:105E78004FF47A70C3F88420BDE8084008F01EB8D3
:105E880000800042C1B2212008B508F0BFFB6420A1
:105E9800BDE8084008F012B80021202008F0B6BB81
:105EA8000121202008F0B2BB2DE9F3410121212076
:105EB80008F0CCFB0120FFF7E5FF0121202008F0C6
:105EC800C5FBFFF7E9FF642007F0F8FFFFF7E8FFDD
:105ED800534A544901A800F00BF94C2101A800F0DD
:105EE80019F94C22002800F098804F494F480B249C
:105EF80008F0C2FF812302224C2101A84C4D00F07A
:105F080040F9302307224C2101A800F03AF9002378
:105F180008224C2101A800F034F92246013415F872
:105F2800013B4C21E4B201A800F02BF90F2CF4D16D
:105F3800302373224C2101A800F023F92023742276
:105F48004C2101A83B4E00F01CF9E02375224C219E
:105F580001A8002500F015F9DFF8EC8025236B2255
:105F68004C2101A8344F00F00CF960233B224C214E
:105F780001A800F006F916F8014B88234C2101A866
:105F88002246013500F0FDF8B8F80030621C4C21BB
:105F9800DBB201A8D2B200F0F4F83B88A21C4C2175
:105FA800373B01A8D2B2DBB200F0EBF8E21C802349
:105FB8004C21D2B201A800F0E4F8221D00234C21A4
:105FC800D2B201A800F0DDF8042DD4D11B4917483E
:105FD800FFF724FF15224C2101A800F0ACF800239C
:105FE80001461022114808F054FF104808F028FF15
:105FF80013490E48FFF712FF76224C2101A800F042
:106008009AF8002301461022084808F042FF074882
:1060180008F016FF02B0BDE8F0810A4966E700BF44
:10602800A0860100801E002032100020301D0020B4
:10603800921000208E100020BC5301205310002025
:106048005B1000203C100020E822002073B50446B5
:106058000A4E00250A4AE4B20A4901A800F048F8A5
:1060680016F8012B013523464C21013201A8D2B282
:1060780000F087F8042DF3D102B070BD8E10002017
:10608800A0860100801E002013B5144C01A8144AF4
:10609800144900F02DF820461349FFF7BFFE1522DA
:1060A8004C2101A800F047F80023014610222046A1
:1060B80008F0EFFE20460D49FFF7B0FE76224C218E
:1060C80001A800F038F8002301461022204608F005
:1060D800E0FE204608F0B4FE02B010BD301D0020DE
:1060E800A0860100801E0020521000205A100020B7
:1060F80037B50C4601600546084601920EF074FB60
:10610800642007F0DBFE2046019901F069FD28466E
:1061180003B030BD08B54900036883F8A510012114
:1061280083F8301183F82F11006801F0FFFBB0FAF3
:1061380080F0400908BD70B5036801260D46490086
:1061480083F83061044683F8A510114683F82F615F
:10615800006803681B6898470021206801F0E6FB87
:1061680008B1002070BD334632462946206801F048
:106178004FFC0028F5D0206803685B699847C0B2D7
:10618800F0E770B5044601251E460368480011462D
:1061980083F8305183F82F5183F8A50020680368ED
:1061A8001B6898472068314603681B68984729464A
:1061B800206801F0BBFBB0FA80F0400970BD000018
:1061C800F0B53C2440F26D1E64264FF4C87CB0FB49
:1061D800F4F2B2FBF4F304FB120004FB1322C871BF
:1061E80018208A71B3FBF0F200FB1233101D4B71BB
:1061F8000723B0FBF3F3C3EBC303C01A08710020F5
:106208000446C3B203F2B27313F0030740D193FB01
:10621800F6F506FB1535002D3DD193FBFCF50CFB7F
:106228001535002D14BF75464FF4B7752C44013051
:10623800A242E6D264200B80B3FBF0F600FB1636D0
:106248004FF4C870B3FBF0F500FB153337BB46BB02
:10625800002B40F26D1008BF4FF4B770121BDFF827
:1062680058C0024400200128C5B21DD1FFB906BBA1
:10627800002B14BF1C241D24944204D80130121B87
:106288000C28F0D10546013501328D70CA70F0BD79
:1062980040F26D15CAE74FF4B775C7E740F26D10C5
:1062A800DCE74FF4B770D9E710F80C40E4E71C249A
:1062B800E2E71D24E0E700BF01110020038840F257
:1062C8006D1240F2B2714E33DBB2F0B55A43642519
:1062D8004FF4C876A1F2B274A3422CDC03F2B27375
:1062E8006421254F90F902C07A43244EB3FBF1F4A0
:1062F80001FB14344FF4C871B3FBF1F501FB1535FC
:10630800012103F003038C4524DC90F906304FF497
:10631800616490F90510C3EB03139B0004FB013380
:1063280090F907100B4490F903101348013900FB4A
:1063380001301044F0BD8C070AD191FBF5F405FB40
:10634800141424B991FBF6F406FB141404B90132B1
:106358000131BFE7022909D143B904B935B902F5BA
:10636800181202F56E5201310136CCE796F800E0BA
:1063780007FB0E22F7E700BF805101000111002042
:1063880070470020704707B5019007F095FE019906
:10639800FFF716FF012003B05DF804FB08B5FFF70F
:1063A8008DFF07F09BFE012008BD73B50D4614460E
:1063B80006466846FFF7E7FF6846ADF800608DF8C7
:1063C80002508DF80340FFF7E9FF02B070BD73B5C6
:1063D8000D46144606466846FFF7D5FF68468DF811
:1063E80005608DF806508DF80740FFF7D7FF02B01B
:1063F80070BD38B504460D463C222946204608F0B3
:10640800E5FA0028F8DD38BD2DE9F0470F4600F51C
:1064180000511646D1F828341BB900F50872174CFC
:10642800226033444FF0000800F58469DFF84CA07F
:1064380000F50874C1F82834464501DCBDE8F0874A
:10644800DAF80030A6EB08023946A9EB030518462E
:106458009542A8BF15462A46A84406F08BFA03467B
:106468002F442B449945CAF80030E5D14FF4007108
:106478002046FFF7BEFFCAF80040DDE7504801207C
:1064880070B5054600684C1E002603682146DB6986
:1064980098472868214603681B6A984708B9304618
:1064A80070BD0136F5E70068013A10B50468E46C80
:1064B800A04742F2010242F20503002814BF104629
:1064C800184610BD0068013A10B40468246DA4464B
:1064D8005DF8044B60470000024B006819600368D0
:1064E8005B6C1847B051012010B50C4608F056FAFD
:1064F8000028FBD020463C21BDE8104008F004BA33
:1065080000F5005330B493F8245435B1D3F8281467
:10651800114430BCC3F82814704730BCFFF774BF6F
:1065280007B501228DF807100DF10701FFF7E8FF05
:1065380003B05DF804FB07B50222ADF806100DF1B3
:106548000601FFF7DDFF03B05DF804FB38B50C4624
:106558000978054699B12046013C0AF0C9FF013087
:10656800C1B22846FFF7DCFF14F8011F284619B905
:10657800BDE83840FFF7DFBFFFF7DDFFF4E7BDE810
:106588003840FFF7CDBF00004DF20243994202D1D7
:106598000149FFF7DBBF7047891100204DF2024324
:1065A800994210B5044618D1FFF7C5FF20464FF6AB
:1065B800FF71FFF7C0FF20460021FFF7B1FF20461B
:1065C8000649FFF7C3FF20460449FFF7BFFF2046EF
:1065D8000021BDE81040FFF7A3BF10BD89110020BE
:1065E80007B5042201910DEB0201FFF789FF03B003
:1065F8005DF804FB70B5044686B064213C4EFFF795
:106608009AFF062120460025FFF7EAFF642120466D
:10661800FFF791FF37492046FFF798FF00212046F2
:10662800FFF789FF14212046FFF7DAFF013536F816
:10663800021B2046FFF77FFF142DF7D104212046C7
:10664800FFF7CEFF44F204012046FFF774FF44F23F
:1066580005012046FFF76FFF44F20B012046FFF7C4
:106668006AFF44F20C012046FFF765FF012120462E
:10667800FFF7B6FF4DF202412046FFF75CFF00210D
:106688002046FFF7ADFF02212046FFF7A9FF4FF490
:1066980040512046FFF74FFF43F201012046FFF724
:1066A8004AFF15492046FFF751FF14492046FFF7D6
:1066B8004DFF9FED130A01AA0221032007F0B4FA47
:1066C8002A46104901A80AF0DFFD01A92046FFF774
:1066D8003DFF0D4901AA0A2331F8020F013B02F8D8
:1066E800010BF9D101A92046FFF730FF06B070BDB4
:1066F800700B0020651100207911002089110020FD
:106708001F85CB3F7E110020F622002070B504467D
:106718000068002603685B689847014605462046DE
:10672800FFF75EFFAE4200D170BD0136204631460C
:10673800FFF756FFF6E7F8B500F50057044616468A
:1067480097F8243433B1FFF79BFE01308000C7F877
:106758002804F8BD4D1EFFF793FE01462046FFF7BB
:106768003FFF2068324629460368DB69984720685E
:10677800294603681B6A984701460028E9D0204645
:10678800FFF72EFFF3E700002DE9F0430446E9B0D8
:10679800006818AD08AE03680DF1160807AF28AAFF
:1067A80003950296CDF804800097D3F8249006ABA1
:1067B800C847BDF8161020460131FFF711FF069BA8
:1067C80043F201012046013318BF0021FFF7B3FE51
:1067D80020460021FFF7AFFE06992046FFF700FF8D
:1067E80020460021FFF7A7FE20460021FFF7F8FE0C
:1067F80020460021FFF7F4FE20460021FFF7F0FEB7
:1068080020460021FFF7ECFE20460021FFF7E8FEB6
:1068180020460021FFF7E4FE07992046FFF7E0FE37
:10682800069920464B1C59425941FFF784FE2046E1
:106838000021FFF7D5FE20460021FFF7D1FE28A949
:106848002046FFF783FE31462046FFF77FFE2946A4
:106858002046FFF77BFE03492046FFF777FE69B025
:10686800BDE8F083BC0D0020F8B5094E0024094F9F
:1068780005463168FFF7B4FE3368A34200D8F8BD77
:1068880037F8021B28460134FFF755FEF4E700BF2E
:10689800D82200205C0B00202DE9F04F0446E9B017
:1068A800006815460DF116080DF1600903680DF131
:1068B800200A07AECDF8048028AACDF80C90CDF8B0
:1068C80008A00F460096D3F824B006ABD8474DF67B
:1068D8000B42BDF816309542069903F101080FD80E
:1068E800B5F55C4F14D9A5F55C45013D0A2D0FD8C7
:1068F800DFE805F0111620390E0E2227290E2B008D
:106908004DF641439D4225D04DF644439D4213D058
:1069180069B0BDE8F08F41462046FFF761FEF7E712
:10692800013143F2010118BF4FF440512046FFF7EF
:1069380002FEEDE70021F9E728A92046FFF706FE49
:10694800E6E75146F9E74946F7E731688B4208BF61
:106958000021E1E739462046FFF742FE316820462C
:10696800FFF73EFE41462046FFF73AFE0021D3E7F7
:106978002DE9F04F044600684F1E85B003684FF0BC
:10698800000B3946394E5B6998470028204614BFEA
:1069980001210421FFF7CFFD2068394603689B6970
:1069A8009847013081B22046FFF7C5FD20460021F7
:1069B800FFF7C1FD206839460368DB68984705463C
:1069C80020688846394603681B69984733688146BA
:1069D8008A465B6805222649304698470A232A4694
:1069E8003046CDE9003B434608F05DFA304608F0F2
:1069F80027FA33681F4905225B68304698470A23FF
:106A08004A46304600935346CDF804B008F04BFA96
:106A1800304608F015FA082220460DEB0201CDE9B0
:106A28000258FFF76DFDB5EB09054FF00802204647
:106A380068EB0A030DEB0201CDE90253FFF760FD95
:106A480020464FF0FF31FFF7CBFD20683946036839
:106A58009B68984701462046FFF778FD064920467F
:106A680005B0BDE8F04FFFF771BD00BF301D002035
:106A7800591100205F110020BC0D00204DF60B427B
:106A88009142D3B504460FD8B1F55C4F14D9A1F59E
:106A98005C43013B0A2B0FD8DFE803F010223E418C
:106AA8000E0E5769750E78004DF64142914270D02E
:106AB8004DF6444291425DD002B0D0BD4DF6014141
:106AC8002046FFF738FD20460621FFF734FD204613
:106AD8000021FFF725FD00212046FFF781FD10E08A
:106AE8004DF602412046FFF726FD04212046FFF718
:106AF80022FD00212046FFF713FD00212046FFF765
:106B08001AFD20460021FFF76BFD0021204602B048
:106B1800BDE8D040FFF704BD4DF60341E2E74DF66E
:106B28000441FFF708FD08212046FFF704FD002176
:106B38002046FFF7F5FC00220023CDE900230822B8
:106B480069462046FFF7DCFCDBE74DF60741FFF717
:106B5800F2FC4FF6FF712046FFF7EDFC01212046BD
:106B6800FFF7DEFC00212046FFF7DAFCC9E74DF607
:106B780008412046FFF7DFFC4FF6FF712046FFF77C
:106B8800DAFC0021EBE74DF60941F2E74DF60B413F
:106B980096E7FFF7D0FC0A2120460026FFF7CBFC3A
:106BA800002700212046FFF7BBFC08226946204643
:106BB800CDE90067FFF7A4FCCDE90067BFE72DE941
:106BC800F04F06460068036806F500552DED028B68
:106BD8009B6A85B008EE101A984795F824448046B9
:106BE8004CB1D5F828340344C5F8283405B0BDECB9
:106BF800028BBDE8F08F4FF400530C2706F5846B29
:106C080006F5087AC5F820340394039B43450CD352
:106C1800002FEBD04FF4007106F5087005B0BDECFD
:106C2800028BBDE8F04FFFF7E4BBD5F82034039A98
:106C3800B3F5005FA8EB020910D13068B9F5005F21
