:0200000460009A
:100000004643464200000156000000000103030081
:1000100000000000000000000000000000000000E0
:1000200000000000000000000000000000000000D0
:1000300000000000000000000000000000000000C0
:1000400000000000010408000000000000000000A3
:100050000000800000000000000000000000000020
:100060000000000000000000000000000000000090
:100070000000000000000000000000000000000080
:10008000EB04180A063204260000000000000000FD
:10009000050404240000000000000000000000002F
:1000A0000000000000000000000000000000000050
:1000B0000604000000000000000000000000000036
:1000C0000000000000000000000000000000000030
:1000D00020041808000000000000000000000000DC
:1000E0000000000000000000000000000000000010
:1000F0000000000000000000000000000000000000
:10010000D8041808000000000000000000000000F3
:100110000204180804200000000000000000000095
:1001200000000000000000000000000000000000CF
:10013000600400000000000000000000000000005B
:1001400000000000000000000000000000000000AF
:10015000000000000000000000000000000000009F
:10016000000000000000000000000000000000008F
:10017000000000000000000000000000000000007F
:10018000000000000000000000000000000000006F
:10019000000000000000000000000000000000005F
:1001A000000000000000000000000000000000004F
:1001B000000000000000000000000000000000003F
:1001C000000100000010000001000000000000001D
:1001D000000001000000000000000000000000001E
:1001E000000000000000000000000000000000000F
:1001F00000000000000000000000000000000000FF
:10020000FFFFFFFFFFFFFFFFFFFFFFFFFFFFFFFFFE
:10021000FFFFFFFFFFFFFFFFFFFFFFFFFFFFFFFFEE
:10100000D100204335160060000000000000000001
:10101000201000600010006000300260000000003E
:1010200000000060003C020000000000FFFFFFFF26
:10103000FFFFFFFFFFFFFFFFFFFFFFFFFFFFFFFFC0
:10104000FFFFFFFFFFFFFFFFFFFFFFFFFFFFFFFFB0
:10105000FFFFFFFFFFFFFFFFFFFFFFFFFFFFFFFFA0
:10106000FFFFFFFFFFFFFFFFFFFFFFFFFFFFFFFF90
:10140000814205D051F8043B40F8043B8242F9D8B0
:101410007047044A04494FF0000342F8043B9142EC
:10142000FBD87047C0960020E08F022080B5BFF344
:101430004F8F00BF00BF00BF00BF00F07FFA654BB9
:101440000822C3F8542100BF00BF00BF00BF00BF87
:1014500000BF00BF00BF00BF00BF00BF00BF00BF94
:1014600000BF00BF00BF5C4A5C495D48FFF7C8FF92
:101470005C4A5D495D48FFF7C3FF5D4DFFF7C9FF5B
:101480004FF0E0234FF47002C3F8882D0023594A2F
:1014900045F823200133B02BFAD1574B8021574A0E
:1014A00003F8011B9342FBD14FF0E020494C4FF071
:1014B0008037DFF87891DFF878814FF0FF32C0F89D
:1014C000085DC4F80471C4F80091C4F8F470C4F85D
:1014D000F080D0F8243D4A4E43F4E023C0F8243D88
:1014E000F36923F07F0343F04003F361736A23F051
:1014F0007F0343F040037362424B9A66DA661A67D1
:101500005A6700F020FA404BAB63404BEB63632318
:10151000002543610323856103613D4BC0F8203DF5
:10152000D0F8FC3D43F08073C0F8FC3D394B1A689D
:1015300042F001021A605A68374B1A6000F0C6FB8D
:10154000C4F804713548C4F80091C4F8F470C4F8C4
:10155000F08000F0ADFFF36E43F44053F366304B80
:101560001D60C3F80851C3F81851C3F82851C3F8D7
:10157000385103F5A0239A6BD20708D4294A5A653B
:1015800042F615621A659A6B42F001029A639A68F4
:10159000254C42F001129A6000F05EFA00F018FF4C
:1015A00000F05EFF00F0C0FB00F0C9F92368132BC8
:1015B000FCD900F0FFF82368B3F5967FFBD300F069
:1015C000C0F900F0BDF900F03FFF00F035FF30BF7B
:1015D000FDE700BF00800D40187101002827006062
:1015E00000000000C0960020449801600000002028
:1015F00000940020D5B1000000E400E0A0E400E089
:1016000000C00F4000C00A40D1BE0000D5BE00009F
:1016100000002020001000E03C8D022080D1F00866
:10162000004008400000C056408D02201B101820CA
:101630000C0D1113054B064A5A64064A1A644FF4FE
:101640002A029A63044B9D46FFF7F0FE00C00A4051
:10165000BFAAAAAA070020000080062043690A4A00
:1016600003EB011003EB011130B5047A074D02EBD7
:101670000412946852682560C06810600B690BB151
:101680004A691A6030BD00BF3C74002061F8010057
:1016900038B543690446027E03EB0212127A8A428D
:1016A00019D0187AFF2816D0814215D0197EFF294B
:1016B00011D001251968EDB25B680968194209D09B
:1016C000064B2946204603EB021305225B681A608D
:1016D000FFF7C4FF257638BD0025EBE73C740020FA
:1016E00043690A4A03EB011003EB011130B590F88E
:1016F0002840074D02EB0412946852682560C06AC6
:1017000010600B6B0BB14A6B1A6030BD3C7400204B
:1017100061F8010038B543690446427E03EB0212CA
:1017200092F828208A421BD093F82800FF2817D06F
:10173000814216D093F83810FF2911D0012519687D
:10174000EDB25B680968194209D0074B294620466B
:1017500003EB021305225B681A60FFF7C1FF657691
:1017600038BD0025EBE700BF3C7400200F4A4169FB
:10177000936B23F47C0343F4802310B593630446F6
:101780000A68496813680B43094913600222036918
:101790001A6100F05DFE217E2046FFF75FFF617E4B
:1017A0002046BDE81040FFF79BBF00BF00C00F40C0
:1017B000A0860100304B40F6617210B5C3F82021BD
:1017C00000F072FE2D4A2E49D2F8803043F0030318
:1017D000C2F8803040F204422A4BC3F860212A4A02
:1017E0001068084203D1D3F8A8118C071AD04FF023
:1017F00000415163D3F8402142F00202C3F8402176
:10180000204AD2F840319807FBD44FF0E0234FF440
:1018100000321920C3F88C224FF000421A4B9A6311
:1018200000F00EFE184B00214FF08042154C9A63D9
:101830004FF4407219600A23C4F8A831134B1846BC
:1018400000F0F6FD4FF4810240F2431302604FF4C2
:1018500080020264C4F858010D4AC4F848310D4BA7
:10186000C3F804224FF0E0234FF40032C3F80C21F8
:101870000123C4F8403110BD00800D4000C00F406E
:10188000001C1E0000002E4000900D4000000020B3
:1018900011A900000094002008B50F4B1B6E9B0798
:1018A00000D4FBBE72B60D4B0022C3F84021A3F555
:1018B0000D130B4A1A64A3F1FF53A3F52B239D4686
:1018C000BFF34F8F0748084B03604FF40013DB69E9
:1018D0009B689847E6E700BF00441F4000002E4089
:1018E0000300200000802020000012EB074B0004C2
:1018F0000122C3F8A010C3F8A400C3F8B0205A69AD
:10190000D207FCD501225A61704700BF00402A402F
:10191000084B094AC3F8A000C3F8A4200122C3F869
:10192000B0205A69D207FCD5D3F80001212280B239
:101930005A61704700402A40040003007047704716
:10194000704700BF70474FF0E02300211022C3F81A
:10195000941DC3F89C2D2E4AC3F8A02D1122C3F864
:101960009C2D2C4AC3F8A02D1222C3F89C2D2A4A84
:10197000C3F8A02D294AC3F89C2D294AC3F8A02DED
:10198000284AC3F89C2D284AC3F8A02D274A42F0C4
:101990001502C3F89C2D264AC3F8A02D02F18152EE
:1019A0000D32C3F89C2D234AC3F8A02D224AC3F858
:1019B0009C2D224AC3F8A02D214AC3F89C2D214A10
:1019C000C3F8A02D204AC3F89C2D204AC3F8A02DAF
:1019D0001F4AC3F89C2D1F4AC3F8A02D00BF00BFAB
:1019E00000BF00BF00BF0122C3F8942DBFF34F8F8B
:1019F000BFF36F8FC3F8501FBFF34F8FBFF36F8FCD
:101A0000D3F8142D42F44032C3F8142D704700BFB0
:101A10003F000010250008070900100013002000F7
:101A2000210002071400002025000813E08F022087
:101A30000900001027000B1317000040330010139B
:101A4000180000602F000B07190000702F000B1307
:101A50001A0000803B000B1373B5864B864A8749FA
:101A6000C3F85C22C3F86012C3F86422A2F53042C6
:101A7000834CC3F8682202F5E042C3F86C22C3F835
:101A80007022C3F87422C3F878221822DA661A6723
:101A90005A679A67DA67C3F88020C3F88420C3F8CE
:101AA00088200122C3F82C27C3F83027C3F8342735
:101AB000C3F83827C3F83C27C3F85027714A936905
:101AC00023F0604323F4407343F0204343F4407316
:101AD0009361D2F8843043F00C03C2F884306A4B2F
:101AE0001A6842F002021A601968684A21F4F1414A
:101AF00021F073010904090C0A4365491A604FF08B
:101B0000FF325A6002F57702886802F5605202409F
:101B1000604842F000529A60DA6822F07802DA6097
:101B20001A6A224002431A621A6A22404FF4005491
:101B3000024359485A62594A9A62DA62D1F8B82087
:101B400022F03F0242F00102C3F8B820D1F8BC20D5
:101B5000002122F03F0242F00102C3F8BC2040F213
:101B6000056219611C661867C3F880205C665867B7
:101B7000C3F884201A684A4822F002021A60494ACF
:101B80009A610222DA61484A42F8041B8242FBD180
:101B90001A6842F001021A603B4B1C6814F0010401
:101BA000FBD1404A0226214620469A6140F2F56266
:101BB000DE61C3F8002240F26642C3F8102240F210
:101BC0009942C3F82022394AC3F8302242F2014236
:101BD000C3F8342240F23542C3F84022344AC3F8F5
:101BE0005022344AC3F85422334AC3F8602242F2E6
:101BF0000122C3F86422FFF779FE0120FFF776FE89
:101C00003046FFF773FE2046FFF782FE45F60D5380
:101C10000546984227D10420FFF768FE4FF40001E3
:101C20002046FFF763FE0120FFF760FE3046FFF716
:101C30005DFE0846FFF76CFEA84212D10420FFF7B4
:101C400055FE10201D491E4B1E4A18700023521AC3
:101C50000093012302EB00521B4800F011FC02B07C
:101C600070BD0820EEE71022174802B0BDE87040B2
:101C700000F0DEBB00801F40F9B00100F910010048
:101C800000FFF07C00C00F4000402A401200FFFF20
:101C900000802A404000008063000200FF000F83A4
:101CA00000432A40F05AF05A00422A409F0418305C
:101CB000EB06180A063201263806180A00000070E2
:101CC000898F02200000007074850220F0B5154B4A
:101CD00040204FF480314FF480544FF400554FF4BE
:101CE000404643F242071A6912F0020F03D09E6188
:101CF00059619F61F7E712F4005F01D15D61F2E77E
:101D000012F4805F01D15C61EDE7002AEBDA12F496
:101D1000803F01D09961E6E7520601D45861E2E7BD
:101D2000F0BD00BF00800D403E4AB3EE096A3E4858
:101D3000D2F880309FED3D5A23F0010310B5C2F870
:101D4000803003233A4CC2F890303A4BD3F8E0305D
:101D5000D9B2016007EE901AC3F30B201B0DB8EE49
:101D6000E77A354907EE900A2060F8EEE76A07EE59
:101D7000903A37EE455A314BF8EEE77A37EE466A3D
:101D800077EEE67A81ED006A25EE275AC3ED007AF8
:101D9000D2F88030C5EE065A75EEA65AFCEEE55A2A
:101DA00015EE901ADFED265A37EE657A43EA0153B5
:101DB000C2F8803027EE277A224B66EE277AD2F8D7
:101DC0009011C7EE065A35EEA67ABCEEC77A17EE2A
:101DD000100A87EE867A03EA00430B43C2F890317B
:101DE000D2F8901177EE267AFCEEE77A17EE903A69
:101DF000C3F30B030B43C2F89031D2F8803043F0A9
:101E00000203C2F8803000220F4B83F840200F4BB2
:101E10000F4AC3F840214FF0E0230122C3F8082104
:101E200010BD00BF00810D40A08602200000AA4224
:101E30009C86022000441F40A4860220A88602201F
:101E40000000B4420000FF0F00E400E00094002016
:101E500095B8000070B5104CD4F880300B2B18D119
:101E60004FF0FF330D4A0E4E0E4D116804324B40B9
:101E7000202103F00100013906FB00F080EA530342
:101E8000F7D1AA42F1D1D4F8A800C31A5842584158
:101E900070BD0020FCE700BF00FF272080FF272047
:101EA0002083B8EDA8FF2720184A002370B5C2E9A7
:101EB0002033C2E92233C2E92433C2E92633C2F80F
:101EC000A830BFF34F8F4FF0E0248032C4F8702F5A
:101ED0002032C4F8702FBFF34F8FBFF36F8F0C4ABF
:101EE0000C4E91680C4D91601C2113632846C6F876
:101EF000C03F00F0D1FAC6F8DC0FBFF34F8FC4F833
:101F0000685FBFF34F8FBFF36F8F70BD00FF272057
:101F100000800F4000F02720C0FF27202DE9F04768
:101F20000C46FFF797FF002800F0D081AD4E204609
:101F3000AD494FF03C0800F08FFAD6F8A470AB49D9
:101F40002046B7FBF8F9B9FBF8F5C6F8A45000F045
:101F5000B3FA18232046B5FBF3F103FB1151C9B2C4
:101F600000F062FAA249204600F0A6FA08FB15919B
:101F70002046C9B200F058FA9D49204600F09CFA6C
:101F800008FB19712046C9B200F04EFA204600F055
:101F900073FA9849204600F08FFA1022D6F898106C
:101FA000204600F065FAD6F88850002D56D09249A8
:101FB000204600F081FA1022D6F88810204600F062
:101FC00057FAEA0740F1D2808C49204600F044FAE3
:101FD0002A0629D58A49204600F06EFA1022D6F842
:101FE0009010204600F05CFAD6F890201F2A00F2EC
:101FF000CE808449204600F05FFA1022D6F898106F
:10200000204600F04DFA8049204600F055FAD6F8F7
:1020100098101022204600F043FA7C49204600F038
:102020004BFA204600F028FAEB0540F1BA807849D7
:10203000204600F011FA2F0409D57649204600F019
:102040003BFA1022D6F89410204600F011FAE8036B
:1020500040F1BC807049204600F0FEF9D6F88C5063
:1020600085B16E49204600F027FA1022D6F88C1070
:10207000204600F0FDF9A80740F123816849204679
:1020800000F0EAF96749204600F016FA96ED280AB2
:1020900002212046B7EEC00A00F0F6F96249204658
:1020A00000F00AFA6149204600F006FA604B6149E7
:1020B0000A2218680023B0FBF1F1204600F0E8F98D
:1020C0005D49204600F0F8F95C4B9D68AA0708D5E9
:1020D0001A6B20465A4B9A420CBF5A495A4900F093
:1020E000BBF96F0703D55949204600F0B5F92E0713
:1020F00003D55749204600F0AFF9E80603D5554906
:10210000204600F0A9F9A90603D55349204600F05E
:10211000A3F96A0603D55149204600F09DF92B0624
:1021200003D54F49204600F097F915F4807500F06B
:10213000E6804C49204600F08FF9404A4A49204643
:10214000936823F48073936000F086F94749204632
:1021500000F082F9464B07221A64464A936B43F01B
:1021600040039363BFF34F8F30BFFDE7AB0701D54B
:1021700041492AE72F0701D5404926E7E80601D55E
:102180003F4922E7A9067FF523AF3E491DE73E4BB5
:102190009A42FFF446AF20339A42BFF442AF3B4924
:1021A0003CE7AF0501D53A4942E7680501D5394911
:1021B0003EE7290501D538493AE7EA0401D5374910
:1021C00036E7AB047FF537AF354931E7A90301D5D1
:1021D000344940E76A0301D533493CE72B0367D50F
:1021E000324938E700FF2720318000203E80002060
:1021F00067850020658000208A8000209380002071
:10220000598100207B8100209A810020D981002003
:102210003982002072830020948300207084002083
:1022200079840020BC840020DF840020E584002025
:10223000A089002040420F000385002000800F404D
:10224000F100AD0B60860020A9860020EA86002000
:10225000128700203D870020648700208E870020A1
:10226000B0870020D2870020FC8700201E88002035
:1022700000C00A4000400D40BC800020DE800020ED
:10228000088100202E810020E08F0220F7810020AD
:102290005A82002087820020CC8200200C830020FC
:1022A00040830020B8830020EB83002014840020AA
:1022B000EF0101D53349CEE6AD017FF5CFAE32490E
:1022C000C9E669007FF5DEAE3049D8E630492046E0
:1022D00000F0C2F82F49204600F0BEF82E492046F3
:1022E00000F0BAF82D49204600F0B6F82C492046F7
:1022F00000F0B2F82B49204600F0AEF8E4E62A4F91
:10230000D7F8C030C3B3D7F8DC601C21274800F0F1
:10231000C3F8864230D1DFF8A080DFF8A090DFF864
:102320008CA00123D7F8C0202E46AB4001351342C4
:1023300020D04146204600F0BFF829460AEB860629
:10234000204600F091F84946204600F0B5F80023F9
:102350000A227168204600F09BF81549204600F0DB
:10236000ABF871681022204600F09AF81149204617
:1023700000F072F8062DD4D1FFF796FD0120BDE8DC
:10238000F08700BF2B84002054840020A08400200C
:10239000088500202085002069850020B385002065
:1023A000D88500202086002000FF2720C0FF27209E
:1023B000708800201E86002061880020D9840020BB
:1023C00008B5FFF747FD003818BF012008BD00BF62
:1023D0000F4BDA6E42F44032DA66DA6E42F4407243
:1023E000DA66A3F5603340F237625A64A0229A6439
:1023F0009A6C1206FCD4074A40F237635364A02358
:102400009364936C13F08003FBD1034A13707047FD
:1024100000C00F4000800C40808F0220F8B500BF44
:10242000F8BC08BC9E4670475FF800F0C9BF0000CA
:102430005FF800F01D9C00005FF800F037C000005E
:102440005FF800F0A9B100005FF800F0E1E70000DC
:102450005FF800F0814F00005FF800F0010D000010
:102460005FF800F045BA00005FF800F01BC1000003
:102470005FF800F0D9BF00005FF800F02DC1000048
:102480005FF800F02BB800005FF800F029C20000F0
:102490005FF800F07FC100005FF800F0EDBF0000C2
:1024A0005FF800F0D1BF00005FF800F07DBD0000D4
:1024B0005FF800F061A400005FF800F0C1BF000009
:1024C000450000005D060000150C0000592F0000BB
:1024D00000F03F000F4B22F0604221F0604140F4D9
:1024E00089101867C3F88010C3F890201A6F22F47F
:1024F00080521A671A6F002AFCDAD3F8702122F48E
:10250000000222F40042C3F870211A6F22F48032D4
:102510001A67704700800D4080C00F400000000324
:102520001900000010000000E8841F4001000000B6
:10253000FF000000FF00000000000000000000009D
:102540001800000010000000E4841F40010000009B
:10255000FF000000FF00000000000000000000007D
:102560001F000000754F000070C00F40000C0000FD
:102570001100000011000000E0841F400200000074
:102580002C00000012000000E0841F400100000049
:102590001000000011000000DC841F400200000059
:1025A0002D00000012000000DC841F40010000002C
:1025B0001E000000694F000070C00F40C000000006
:1025C0001200000013000000D0841F400100000032
:1025D000FF000000FF0000000000000000000000FD
:1025E0001300000013000000CC841F400100000015
:1025F000FF000000FF0000000000000000000000DD
:102600001C0000005D4F000008034D005400500006
:1026100020035400650065006E00730079002000FF
:102620004D005400500020004400690073006B000E
:1026300018035400650065006E00730079006400A3
:10264000750069006E006F00040309040902690047
:10265000030100C032080B0002020201000904005D
:1026600000010202010005240010010524010101FE
:102670000424020605240600010705820310001049
:1026800009040100020A00000007050302400000DF
:10269000070583024000000904020003060101004F
:1026A00007058402400000070504024000000705FA
:1026B000850320000A09026900030100C032080BEB
:1026C00000020202010009040000010202010005EB
:1026D000240010010524010101042402060524063A
:1026E00000010705820310000509040100020A0029
:1026F0000000070503020002000705830200020034
:102700000904020003060101040705840200020017
:1027100007050402000200070585032000070A06DA
:082720000002EF02014001007C
:1027280000000000000000000000000000000000A1
:102738000000000000000000000000000000000091
:102748000548064B1B1AD90F01EBA301491002D00B
:10275800034B03B118477047C0960020C09600206D
:102768000000000008B5054B1BB105490548AFF34B
:102778000080BDE80840FFF7E3BF00BF000000008D
:1027880004860220003C0260002070477047836C7A
:1027980013B1184606F07CBFC06C08B106F028B922
:1027A8007047836C07B553B101220DF10701184634
:1027B80006F054FD012804D19DF8070003E0C06C21
:1027C80020B94FF0FF3003B05DF804FB01220DF192
:1027D800070105F01BFAEDE7836C13B1184606F004
:1027E80000BEC06C08B105F0D4BA4FF0FF30704796
:1027F800836C10B55BB1187810F008001EBFD8695B
:102808005B69C01A0028B8BF6FF0004010BDC06CEB
:102818000028FBD090F8313013F008030ED0D0E92F
:102828000413D0E90024881A63EB0403B0F1004FC5
:1028380073F1000328BF6FF00040E7E71846F5E79B
:1028480008B50BF07FFE0A4B1B7803F0FF006BB155
:10285800084B187810F0010008D0074B1868074B90
:102868001B68C01A0E2894BF0020012008BD00BFB5
:10287800AB8F0220AA8F0220408D0220608D02209B
:1028880000230A220CF00BB813B5044661B10846C0
:1028980001910EF085FD2368024601995B68204688
:1028A80002B0BDE81040184702B010BDFFF7ECBFFA
:1028B80010B50446FFF7E8FF2046BDE810400BF0CE
:1028C800C5BF000038B50C4B04460C4D036000F53D
:1028D800AC7040F8105C07F0D1FF04F58470C4F8C0
:1028E800F85007F0CBFF04F1B800C4F8A85007F07F
:1028F800C5FF204638BD00BF440400202004002046
:10290800836B13B1184607F0F9B8C06B08B106F02D
:102918001BBA704708B51030FFF7F2FF08BD07B5BE
:1029280001228DF807100DF107011030FFF7E8FFBD
:1029380003B05DF804FB0000094B0022642010B5C9
:10294800084CC3F840210AF0BFFF16F05DFFFFF7FF
:1029580077FF00B110BD204604F00EF9F7E700BF7D
:1029680000002E40009700202DE9F04F684E8BB0F4
:10297800684D3368684C0133336002F0A1F92B8845
:10298800664A8342136838BF288013F0010F09D1C3
:10299800634B1B68012B4FF0FF3318BF00232380C4
:1029A80001231360208800B202F02EF920802388CA
:1029B8001B0440F182805B4804F0DEF85A4B5B4F01
:1029C8001B6807933B68079A03F57A73934271D2A1
:1029D800574BDFF89CA1B3F90030DFF89891DFF886
:1029E8009881002B5BD008A803F03CFA9DF92430AD
:1029F800BDF9202004939DF927304E4903939DF992
:102A080026304D4802939DF9253001939DF92330D6
:102A180000939DF922300BF035FF48494648FFF7EF
:102A280045FF31684448FFF72BFF45494248FFF707
:102A38003DFFDAF800104048FFF722FF40493E48C2
:102A4800FFF734FFD9F800103B48FFF719FF3C495E
:102A58003948FFF72BFF2A883A4937480BF012FF0D
:102A680039493548FFF722FFD8F800103248FFF7F8
:102A780007FF36493048FFF719FF354B1C8824B249
:102A880044BB344B3449DFF8B0B053F82420013448
:102A980058460BF0F7FE082C2F492E4BF5D1002392
:102AA8003360CAF80030C9F800302B80C8F800300D
:102AB800079B3B600BB0BDE8F08F284F4FF008082C
:102AC800C7F88480208800B202F048FD2080C7F84B
:102AD800888073E7DFF894B000242149164B01344D
:102AE80018465BF8042B0BF0CDFE182C124B1C4932
:102AF800F5D11C4C18461C4922680BF0C3FE602215
:102B080000211A4809F01AFC00232360C7E700BF18
:102B1800448002208C8D02208E8D0220CCBD0020A6
:102B2800548D022000970020408D02204080022012
:102B3800948D02207C7F0020A48900209D7F0020A6
:102B4800A67F0020A17F0020A57F0020A87F00206D
:102B5800968D0220D8850220AD7F002000400042DB
:102B6800B27F0020F8850220B77F0020248602204B
:102B78001C860220208602206485022010B5FFF7FB
:102B88005FFE0028FBD00B4C0B490C48FFF790FE6A
:102B980023685BB100F028FB00F066FB02F046FFFB
:102BA80007490648BDE81040FFF782BE01200AF039
:102BB8008BFEEDE7808B02200B7E0020A48900208D
:102BC800127E002070B50546D0F88C0488B900261E
:102BD800D5F8800440B307F0C3F904463EB1D5F8F0
:102BE8008C0488B1036800215B6C984760B120466B
:102BF80070BD0368DB6B98470028E8D0D5F88C04D3
:102C080020B9D5F88C0438B90024F0E703681B6CA8
:102C180098470028DBD1F4E7036801215B6C9847EB
:102C280006460028D4D1EFE7D5F884040028D4D08C
:102C380005F0B7FCD1E700002DE9F341454CFF232F
:102C48000021454E04F5926584F8BC3484F8C81414
:102C5800284609F021F82846C4F88C5408F09AFB55
:102C6800002850D10123D4F88C1420461A4607F0C6
:102C7800B5FE002847D0394B5A68132A51DDD4F8DD
:102C88008034002B57D0DD69013D3248FFF79AFFA9
:102C9800D4F880340746002B54D09B794FF4007445
:102CA8009C40A4B233684FF00A0800260022009323
:102CB800FE232B492B480BF0E5FD2B492948FFF74C
:102CC800F5FD2A4633462748CDE900860BF0F1FD8D
:102CD80026492448FFF7EAFD3A4633462148CDE91C
:102CE80000860BF0E6FD22491E48FFF7DFFD24FAB7
:102CF80008F11C48FFF7C4FD1E491A4802B0BDE898
:102D0800F041FFF7D5BD336800221B490093FE232D
:102D180014480BF0B7FD134802B0BDE8F0410BF0C2
:102D280095BD03EB820130688860511C596003EB44
:102D380082039C65A3E7D4F88454002DA5D0D5F868
:102D48003054A2E7D4F88444002CABD0D4F83C44E7
:102D5800A8E700BFB086022020930020848B0220C1
:102D68000F7C0020A4890020267C0020397C0020CC
:102D78004A7C0020597C0020E47B002038B5304D87
:102D88000024304B4FF47A722F4928462B602F4B82
:102D9800C5F8B020C5F8A830C5F8F830C5F84831EE
:102DA8006FF001036C60C5F8AC4085F8B44085F855
:102DB800044185F85441C5F8A041A5F8AC41C5E9DE
:102DC8003F42C5E95342224AC5E96934C5E93C4452
:102DD800C5E95044C5E96444C5E966440BF04CFEB6
:102DE8001C4B1D4920461D6003F50053184AC3F8C3
:102DF800204483F82444C3F82844184BC3F890149B
:102E08001749C3F88044C3F8A4140721C3F88444BD
:102E1800C3F8A8142921C3F88C4483F8AD141149C8
:102E2800A3F89844C3F89C1483F8B14483F8B844D1
:102E380083F8C8440C49BDE838400BF01DBE00BFFC
:102E4800848B022044040020A501000048050020CE
:102E5800808D00200097002090050020B086022079
:102E680000093D00B00400206D000000F0B5494D98
:102E780087B0494840F2EE2709F082FE474E2C6899
:102E8800FFF7DEFC90B101F0B7FC03880446012B84
:102E980018D042F20F762B68B3421DD8FFF7D0FC4A
:102EA8000028F8D03E4B01221A6015E02B683278D2
:102EB8001B1B2AB1B3F5FA6FE5D80BF043FBDFE72C
:102EC800BB42F9E7374B384A1B6812689342344AC9
:102ED8008CBF00230123136042F20F762B68B342A4
:102EE80003D8FFF7ADFC0028F8D030493048FFF789
:102EF800DFFC30492E48FFF7D9FC21882C480BF01D
:102F08009CFC2B480BF0A2FC2B4816F085FC18B152
:102F18002749294816F088FCFFF78EFE1321122056
:102F280002F09EFF22482549FFF7C2FC04A802F0E0
:102F380099FF18B922491E48FFF7BAFC9DF91730C6
:102F48000124BDF9102003939DF916301D49029301
:102F58009DF91530164801939DF9133000939DF99A
:102F680012300BF08FFC12480BF070FC1649104819
:102F7800FFF79EFC02F098FB14490D48FFF798FCF8
:102F8800134B1C60FFF7FAFD21460D200BF064F887
:102F980007B0F0BD408D0220006CDC02AB8F022030
:102FA800548D02203893002034930020847E002022
:102FB800A4890020BB7F002098890020C87F0020BA
:102FC800D97F0020EE7F002015800020218000207E
:102FD800808B022010B504460BF06AFB204610BD1A
:102FE800224B1A6810B511691A79214BDA77214AF0
:102FF800A2F58063914238BF134603F58060BFF3A2
:103008004F8F03F1200219464FF0E02482428CBF13
:103018000122202203EB4212C4F85C1F20319142A6
:10302800FAD1BFF34F8FBFF36F8F13490A6801328C
:103038000A6012495A6808331212984241F8042B60
:10304800F8D10F4A13881BB243B90C4801F04CFE63
:1030580018B90C4A13680133136010BD13881BB2EA
:10306800012BFAD1054802F079FBF1E7DC77022061
:1030780000800E40000420201C8602206483022069
:10308800968D0220208602202DE9F043DFF84C912E
:10309800052205464E49D9F8003048465B682DEDB3
:1030A800028B83B09847802148460BF0C6FB484600
:1030B8000BF0CCFB1A23E901464801330A460024E9
:1030C80000FB03FC264601349CFBF2F808F10107DB
:1030D800402F05DD092C0A44F4D1362BEDD1082602
:1030E8002A463D493D4808F03F08B601CDE900476A
:1030F8000BF0C8FB07EE905AD9F800300322B8EE5F
:10310800E77B37495B6806F4E07634489FED2A6B25
:1031180027EE067B06EE904AB8EEE66B27EE067BB6
:1031280006EE907AB8EEE66B27EE067B9FED246BF1
:1031380087EE068B984702212848B0EE480B0BF023
:1031480003FC26480BF082FBFDEEC87B42F21072AE
:1031580017EE900A02FB00F307EE103A9FED1A6B88
:10316800B8EEC77B98EE067BFDEEC77B17EE901A8C
:1031780016F04EFB1B4AD36923F4406343F4006303
:10318800D361936A23F4FF7323F0010343EA08032E
:1031980033439362A2F5A022536823F4002323F05B
:1031A800070343F40023536003B0BDEC028BBDE872
:1031B800F08300BFAFF30080000000000000604013
:1031C8000000000060E37641000000000088C34072
:1031D800BD7B002000366E01C37B0020A48900203F
:1031E800E07B002000C00F40194AD36F10B543F4AC
:1031F8004023184CD367D4F88830002B27DB164BB4
:103208001868FFF741FF154B0322C3F82021C3F8C4
:103218002821C3F82421C3F87C210222C3F894256D
:103228000023C4F8E0300423C4F88C304FF0A063C6
:10323800C4F890304FF48033C4F894301B33C4F88A
:103248009830074BC4F89C30064BC4F8883010BD42
:1032580000C00F40004038401093002000801F40FD
:10326800001F1F1F0100009210B5204C01212046AD
:103278000BF0D0F923681E4A1E491A6004221E4822
:103288009A8218611D48C3E901124FF400720021A7
:10329800DA82A2F52062D9609A61DA8A92B2DA8378
:1032A80006229A832379164A9B0003F1804303F58B
:1032B8006C2319601A602379124A03F1100142F84D
:1032C80021005A1103F01F00012102F1382203F1F5
:1032D80060438140403203F56443920011606022EC
:1032E8001A70094B2279DA7610BD00BFDC7702200C
:1032F800A04038400000020200002020C108000061
:10330800130000800094002000800E4010B5084C87
:10331800D4F8883023F01043C4F88830FFF7B4FE9F
:10332800D4F8883043F01043C4F8883010BD00BF8B
:10333800004038400548002108B50BF06BF9044AF5
:1033480004490248BDE808400BF096BBDC77022030
:10335800808D0020B50800004368132B10B505DCEC
:1033680000EB83040133A2604360A16510BD40688F
:10337800704700EB81018868704700207047012082
:10338800704710B400240C70836B23B118465DF8A5
:10339800044B05F0B7BEC06B18B15DF8044B04F0E0
:1033A80033BB5DF8044B704710B5044600230A226E
:1033B8000BF075FA2046BDE810400BF047BA13B57C
:1033C8000446084659B101910DF0EAFF2368024608
:1033D800019920465B6802B0BDE81040184702B06A
:1033E80010BD000038B50B4C05460B492046FFF7C9
:1033F800E6FF0A492046FFF7E2FF2E2009F044FBCA
:10340800294620460BF019FA2046BDE838400BF053
:103418001DBA00BFA4890020D27E0020DD7E0020D6
:1034280038B50546FFF7CBFF044628460BF00EFAE1
:10343800204438BDD0F880342BB19B794FF400700C
:10344800984080B27047D0F8840408B1D0F83C04A2
:103458007047D0F8803413B1D86901387047D0F874
:10346800840408B1D0F83004704700EB810138B506
:103478008D6D2846FFF7EDFF04462846FFF7DAFF73
:10348800A4FB000138BDD0F8803430B50D4691B0AA
:1034980014468BB1002203F5896102A813460292F3
:1034A8002A46019106F03CF9019918B1224602A872
:1034B80006F05BFA11B030BDD0F884040028F9D0CA
:1034C80000F589612A4602A80E93019104F08EFE48
:1034D800019908B90020EDE7224602A805F084FB0F
:1034E8000028F7D0E6E7836B10B55BB1187810F0C9
:1034F80008001EBFD8695B69C01A0028B8BF6FF002
:10350800004010BDC06B0028FBD090F8313013F09C
:1035180008030ED0D0E90413D0E90024881A63EB1D
:103528000403B0F1004F73F1000328BF6FF00040AF
:10353800E7E71846F5E7836B33B11B7813F0700F94
:1035480014BF012000207047C06B0028FBD090F802
:10355800313013F0500FF3E7836B23B9C06B003899
:1035680018BF012070470120704738B500F1B80531
:1035780004462846FFF7F0FF10B1284607F07EF909
:10358800002384F8AC31C4F8A83138BD836B13B17B
:10359800184605F063BEC06B08B104F037BB4FF0A6
:1035A800FF30704730B4856B114625B143B92846C2
:1035B80030BC05F048BFC06B10B130BC04F0FEBB96
:1035C800002030BC704708B500F58470FFF798F903
:1035D80008BD000000224FF47A710273C0E901218E
:1035E800C0E91222014A0260704700BF4805002066
:1035F800044B10B5044640F8103B07F03FF920464D
:1036080010BD00BF2004002000EB81014B6DD3F8F2
:10361800801400B58FB051B1002301F58961684667
:103628000093012306F04FF90FB05DF804FBD3F8BF
:1036380084040028F8D00C91012300F589616846BC
:1036480005F073FAF0E7000030B5044691B00D4676
:10365800154811460192FFF7E3FE019A04EB850134
:103668004B6DD3F8801459B1002302A802930123AB
:1036780006F0A5F810B102A807F0A4F811B030BD03
:10368800D3F884040028F9D00E910123014602A83A
:1036980004F00FFE08B90020F0E702A805F0C8F80A
:1036A8000028F8D0EAE700BFA489002000EB8101D8
:1036B8004B6DD3F8801400B58FB059B1002368461C
:1036C800009306F07CF810B1684605F00CFF0FB0C7
:1036D8005DF804FBD3F884040028F8D00B460C915D
:1036E8000146684604F0E5FD08B90020EFE76846A2
:1036F80005F0E4F80028F8D0E9E7000030B500F15B
:10370800B80595B004462846FFF726FFF8B9114AD0
:1037180040F20223A16D684607F0CAF9019B04A98B
:103728002846C4F8AC30029BC4F8B0309DF80C3081
:1037380084F8B43007F0B7F86846FFF759FF284611
:10374800FFF70AFF18B904490448FFF769FE15B0E6
:1037580030BD00BFFB7E0020097F0020A489002027
:1037680010B50446B830FFF7F7FE78B12368204655
:103778001B6C98470023204684F8AD316FF0010395
:10378800C4F8A431BDE81040FFF7B8BF10BD73B549
:1037980004460D464FF488760192B834FFF7AEFF21
:1037A80006FB05F200232046FFF7FCFE324601998E
:1037B8002046FFF7A5F802B070BD10B5D0F8A841B3
:1037C8000A46611CC0F8A8112146FFF7E0FF204611
:1037D80010BD00000123164A0021F0B5044680F808
:1037E800AC31C5B00430FFF72FFF002563684FF0F8
:1037F800FF36104FC4F89831C4F8A851D4F898315E
:103808009D4201DB45B0F0BD0023394604A8ADF860
:103818000E5000960135CDE901330123ADF80C3087
:103828000DF00CFD69462046FFF7C7FFE6E700BF2D
:10383800FB7E0020BB7B0020F8B54FF488770C4650
:10384800164600213A46054608F078FDD4F8A83116
:10385800B3420ED32046B834FFF750FF07FB06F2F9
:1038680000232046FFF79EFE3A4629462046FFF7EA
:103878008DFE2846F8BD30B50446C5B0D4F8B05121
:1038880075B12A4621466846FFF7D6FF94F8B43149
:103898004BB1029BC4F8B0319DF81030002BEDD02D
:1038A800284645B030BDD4F8B011D4F8A82101316C
:1038B800914238BF0B46EDE730B5C5B015460A460C
:1038C800014668461C46FFF7B7FF04A928460DF0D5
:1038D800B5FC489B009A1A609DF80C303BB9019BD7
:1038E8002360BDF80E20499B1A8045B030BD4FF0CB
:1038F800FF33F5E700B5C5B00A4601466846FFF74D
:103908009BFF019845B05DF804FBD0F8403130B515
:103918000446C5B0BBB1DD6904F5847006F0AEFF9E
:10392800D4F8A42121466846FFF786FF6A46D4F8F2
:10393800A41120460195FFF72AFF6FF00103C4F890
:10394800A43145B030BDD0F84451002DE4D02D69E4
:10395800E2E7000070B5C4B0064614460A460146C0
:1039680068461D46FFF768FF00994B1C07D11049B0
:1039780020460DF063FCBDF80E0044B070BD2B4628
:1039880022463046FFF7E6FF20460DF009FD2044A9
:1039980010F8013C2F2B04D02A46054920460DF08B
:1039A8006FF92A4604A920460DF06AF9E3E700BF3B
:1039B800BB7B0020F0B5ADF2144D4FF48073044684
:1039C8000D4617466A46FFF7C5FF694606461E4874
:1039D800FFF726FD2A462146C0A8FFF72DFF4FF422
:1039E8008072C4A980A80DF07FF94FF4807239461F
:1039F800C4A80DF079F9C0AA29462046FFF7C7FEEA
:103A08004FF48073294604EB86060DEB030220462B
:103A1800FFF7A0FF40A90C48FFF702FDB06D40AAD0
:103A28006946FFF730FD064650B94FF4807280A909
:103A3800C4A80DF059F9C0AA29462046FFF7A7FEE9
:103A480030460DF2144DF0BDA4890020D0F8A43101
:103A58008B422DE9F0410446D4B00E46154603D1F9
:103A6800D0F8A03193422BD004F584784FF48073BA
:103A780014AA31462046FFF76DFF07464046FFF778
:103A88006BFD10B1404606F0F9FE04EB870714AA57
:103A98002B466846B96D07F00BF8019B04A9404610
:103AA800C4F8FC30029BC4F800319DF80C3084F84F
:103AB800043106F0F8FE6846FFF79AFDC4E9685637
:103AC80054B0BDE8F08170B5044616461D46002284
:103AD80004F58474FFF7BAFF324600232046FFF747
:103AE80061FD049A29462046FFF750FD70BD2DE977
:103AF800F041B2F1FF3F14BF90468846ADF5487DCE
:103B080004460E464246014640A81F46FFF794FE6B
:103B18004FF48072CE9988A80DF0E6F8BDF80E3102
:103B280084A92046ADF81E320023CDF81082859373
:103B3800419B8DF81C72869301238DF81D32FFF787
:103B48003CFE40AA0546419041462046FFF71FFE2D
:103B580087B16A4629464FF480732046FFF7FAFE7C
:103B68006A463146201DFFF74FFD28460DF5487D72
:103B7800BDE8F08140F2022229462046FFF766FFA1
:103B8800F3E790F8AC310BB9FFF724BE70472DE985
:103B9800F043B2F1FF3F14BF16460E46ADF5097D5E
:103BA8000146044632466846FFF746FE9DF80C304B
:103BB800002B62D09DF80D50002D5ED104F584775E
:103BC80020462A463146FFF741FF3846FFF7C4FC36
:103BD800002852D0A84644A804F5AC79FFF7FAFCAF
:103BE8000022394648A806F0C9FE459B48A9484620
:103BF800C4F84C31469BC4F850319DF81C3184F808
:103C0800543106F050FE44A8FFF7F2FC4846FFF78F
:103C1800A3FC48B3BDF80E3048464496ADF81E31B3
:103C28004695FFF788FC8DF81C01D8B9D4F8903177
:103C380093B1DB694FF4807248A9484645938DF8E3
:103C48001D81FFF79EFB44A92046FFF7B6FD0546F8
:103C5800484606F013FEBEE7D4F89431002BE9D0AD
:103C68001B69E7E70023E5E701236A46314620465A
:103C78008DF80D300195FFF78AFD0DF5097DBDE83A
:103C8800F08310B5B2F1FF3F08BF0A46C6B004463C
:103C98000192FFF77CFF0123019A214602A884F8CC
:103CA800B431FFF7C9FD039BC4F8B03146B010BD6D
:103CB80070B590F8AD4105460E4644B9012380F829
:103CC800AD31FFF75EFFD5F8A8319C4200D370BD37
:103CD8002246314628460134FFF759FFF3E770B50D
:103CE800154604460E46FFF74CFF35B12A463146C5
:103CF8002046BDE87040FFF7C4BF31462046FFF7B5
:103D0800D7FF012384F8B451C4F8B03170BD000066
:103D18002DE9F0430C46ADF53F7D00EB81010646E9
:103D2800071D002302A8896D154606F0C1FE06A8E6
:103D3800FFF701FC002850D0DFF8AC9016A8FFF779
:103D480049FC2AA8FFF746FC002206A92EA806F07F
:103D580015FE2B9B2EA91AA817932C9B18939DF838
:103D6800B4308DF8643006F09EFD1AA8FFF7F4FB16
:103D780080462AA8FFF73CFCB8F1000F0ED12A466E
:103D880021463846FFF792FC16A8FFF731FC02A837
:103D9800FFF72EFC0DF53F7DBDE8F0830DF5FC78AF
:103DA8004FF480721AA84146FFF7EBFA4A464FF4DF
:103DB80080712B463EA8CDF800800CF077FD1AA83C
:103DC800FFF7B9FB3EAA214618B13046FFF7A0FF1E
:103DD800B7E73846FFF738FCB3E72A4621463846A6
:103DE800FFF732FCD3E700BFF57E0020F0B5ADF257
:103DF800445D04460D464FF4807344AAFFF7AAFDBC
:103E08002A46214684A8FFF717FD44AABDF81E12CA
:103E18002046FFF77DFF002384AA294620468DF817
:103E28002032FFF7B4FC849A2146C8A8FFF704FDA6
:103E3800C99EB54209D1869BC8AA8499C9932046D0
:103E4800FFF7A5FC0DF2445DF0BD324621460DF5A5
:103E58008660FFF7F1FCDDF83874BD4206D1869B19
:103E68000DF586623146CDF83834E8E73A46214602
:103E780068463E46FFF7E0FC4FF4887269460DF548
:103E8800866008F07DFAE6E708B54B1C01D0FFF71D
:103E9800ADFF012008BD70B500EB8101ADF50A6DDD
:103EA80005461E46496D0023684606F001FE04A833
:103EB800FFF752FB044650B940F29D20FFF792FAF3
:103EC8006846FFF795FB20460DF50A6D70BD05EBBA
:103ED800860540F20223DDF8B02814A8696D06F0C3
:103EE800E7FD18A8FFF738FB044650B904A806F008
:103EF800C5FC4FF42870FFF775FA14A8FFF778FB94
:103F0800DEE74FF0FF3504A8FFF7EDFA00280FDDD4
:103F18004FF4006228A904A8FFF738FB051E07DB49
:103F28002A4628A918A8FEF7EBFCB5F5006FEADACF
:103F380004A806F0A3FC18A806F0A0FC002DDCDA03
:103F48004FF42B700024FFF74DFAD6E72DE9F04126
:103F5800ADF5A76DB3F1FF3F14BF984690460446F0
:103F68000A460F46014682A886AEFFF765FC424620
:103F78002146C6A8FFF760FC9DF814520DB3BDF8A2
:103F880016123A4620460131FFF701FE9DF8143219
:103F980022682046003B0096BDF82613D56A18BF54
:103FA80001234246A84723680546BDF826235E6DCF
:103FB800394603462046B04728460DF5A76DBDE8AB
:103FC800F0814FF4807231460DF587600CF08CFE5D
:103FD800BDF826330DF585612046ADF83634C79B0C
:103FE800CDF82C54CDF83034ADF83454CDF82884BD
:103FF800FFF7E3FBC6AA05464146C7902046FFF7F0
:10400800C6FB02AA39464FF4807342AF2046FFF739
:10401800A1FC06463A4629464FF480732046FFF72E
:1040280099FC02AA03463146201D0097FFF733FF8B
:10403800C2E72DE9F043ADF24C6DB3F1FF3F14BF79
:104048001F46174604460A46014682A8FFF7F4FBB6
:104058003A462146C6A8BDF816820025FFF7ECFBB4
:10406800839E56B92046C6AA3946C795FFF78FFBE7
:1040780001200DF24C6DBDE8F083324621460DF566
:104088008560FFF7D9FB4FF488720DF585610DF552
:10409800A76008F075F9BDF826330DF5A76120462D
:1040A800ADF84635CDF84055CDF83875FFF785FBA6
:1040B80005464FF4807302AA31462046FFF74AFCB2
:1040C80042AA4FF4807329462046FFF743FC9DF827
:1040D8004415201DBDF8463542AA99B11946FFF787
:1040E80093FA324641462046FFF751FD2368BDF852
:1040F80026233146D3F8549020462B46C847DDF88E
:104108003064AEE70092414602AAFFF7C4FEF6E724
:104118002DE9F341DDF820800E4617461946424640
:1041280001930546FFF770FA019B044648B13A46E9
:1041380031462846CDF8208002B0BDE8F04100F0B5
:1041480009B840F2B620FFF74DF9204602B0BDE8A5
:10415800F08100002DE9F0410E46ADF52A7D00EB17
:1041680081010546984602A80023496D174606F0C6
:104178009FFC06A8FFF7F0F90446002859D0424CE6
:104188004FF4807239462AA80CF0AEFD2AA80DF02B
:1041980007F92AAB184410F8013C2F2B05D04FF42F
:1041A800807221462AA80CF06BFD4FF48072B099FA
:1041B8006AA80CF099FD6AA80DF0F2F86AAB1844E9
:1041C80010F8013C2F2B05D04FF4807221466AA8C5
:1041D8000CF056FD16A8FFF7FDF9002206A91AA84B
:1041E80006F0CCFB1AA8FFF7B7F9002841D04FF426
:1041F80080722AA91AA8FFF7C4F84FF480726AA936
:104208001AA8FFF7BEF81AA8FFF795F96AAB2AAA09
:10421800314600934346C0B12846FFF779FF20BBDB
:1042280040F2CD20FFF7DEF816A80024FFF7E0F9EA
:1042380003E040F2B920FFF7D5F802A8FFF7D8F954
:1042480020460DF52A7DBDE8F0812846FFF723FEBC
:1042580010B940F2D120E5E72AAA31462846FFF7EF
:10426800F3F910B940F2D220DCE716A8FFF7C0F93D
:1042780086E716A8FFF7BCF93A4631462846FFF705
:1042880015FA0446D9E700BFBB7B00202DE9F043AF
:10429800ADF68C2DB3F1FF3F14BF1F4617460446F9
:1042A8000A460D460146C6A8FFF7C6FA3A46214611
:1042B8000DF58560FFF7C0FAC69A21460DF5A7608F
:1042C800FFF7BAFA9DF824336BB19DF8253353B93B
:1042D8002A46BDF826132046FFF759FCC6AA2946E8
:1042E8002046FFF754FA4FF48872C6A90DF5C96045
:1042F80008F046F84FF488720DF585610DF5EB600E
:1043080008F03EF84FF4807346AA29462046FFF786
:1043180021FBDDF83C85A8453AD1C89B4FF0FF3812
:104328000DF5A762C6992046CDF83C35FFF72FFA60
:10433800BDF83634C6AA29462046ADF82633DDF83E
:104348002C34C697C893CDF82C54FFF720FA0DF5F6
:10435800856239462046FFF71AFA4FF480732946DA
:1043680086AA2046FFF7F6FABDF85616BDF8663756
:10437800994255D104EB810386AA46A9986DFFF7A7
:1043880082F8A8B3012630460DF68C2DBDE8F083DF
:104398004246214602A8FFF74FFA4FF4887202A955
:1043A8000DF6781007F0ECFF4FF488720DF67811CF
:1043B8000DF6680007F0E4FFDDF88069AE4209D128
:1043C800C89B0DF6781241462046CDF88039FFF794
:1043D800DEF9ADE73246214602A8B046FFF72CFACF
:1043E8004FF4887202A90DF6781007F0C9FFDBE7D1
:1043F80040F22E20FEF7F6FF0DF6680241462046F1
:10440800FFF7C5F90DF5C96229462046FFF7BFF940
:104418000DF5EB62394620460026FFF7B8F9B2E7FA
:104428009DF8542604F104098AB986AA48460092E0
:1044380046AAFFF730FD064630B146AABDF8661712
:104448004846FFF701F99EE740F23220D2E786AAF4
:104458004846009246AAFFF75BFE002892D140F238
:104468003620C7E770B500EB81050F4CA86DFEF745
:10447800F0FF01462046FEF797FFA86DFEF7A2FB66
:1044880001462046FEF790FFAE6D3046FEF7E1FF8D
:1044980004463046FEF796FB241AA86DFEF7CAFFBD
:1044A800A4FB000170BD00BFA489002010B504461C
:1044B8000AF0C3F92046BDE810400AF0C7B910B5A4
:1044C800044600230A220AF0EAF92046BDE8104013
:1044D8000AF0BCB913B5044661B1084601910CF065
:1044E8005FFF2368024601995B68204602B0BDE879
:1044F8001040184702B010BDFFF7ECBF10B50446D6
:10450800FFF7E8FF2046BDE810400AF09FB9000019
:1045180010B508F0A9F90028FBD0074C28230D2175
:10452800064822460AF036F9002321462354034858
:10453800FFF7E4FF204610BD588F0220A489002011
:1045480013B50446FFF7E4FF01AA03490CF012FA79
:10455800019B236002B010BD9A7F002013B504466A
:10456800FFF7D6FF01AA03490CF004FA019B238048
:1045780002B010BD9A7F002010B588B008F074F919
:104588000028FBD008F0AAF9C0B2642815D1FFF7BB
:10459800BFFF07AB05AA4D4902930DF11303019321
:1045A80006AB00930DF112030CF0E4F90598DDE970
:1045B800061201F069FC08B010BD342808D830286C
:1045C800F9D93238022879D8DFE800F07A7C7E0001
:1045D8006138C3B2162BEED81628ECD801A353F8CD
:1045E80020F000BF4B1F0000971E0000871F00002F
:1045F800971E0000971E00005F1F0000931F000019
:10460800971E0000971E0000971E0000971E0000CE
:10461800971E0000971E0000971E0000571F0000FD
:10462800971E0000971E00005B1F0000731F00000C
:10463800211F0000971E0000971E0000971F000012
:10464800FFF766FF07AB05AA204902930DF1130394
:10465800019306AB00930DF112030CF08BF905984A
:10466800DDE9061201F022FCA5E7194808B0BDE80B
:104678001040FFF765BF1748F8E71748F6E7174CEB
:104688002046FFF75DFF206808B0BDE81040FEF740
:104698003DBE134C2046FFF761FF23881B048AD5D3
:1046A8000023238087E70F4808B0BDE81040FFF7D4
:1046B80055BF0D48F8E70D4B1868F5E70C48F3E7C8
:1046C8000C48F1E70C48EFE70C48EDE7007E0020C6
:1046D800309300203493002038930020109300205A
:1046E80042930020968D02204093002014930020CE
:1046F800488D022024930020289300202C9300202A
:104708004A00002109F0EABB4A00002109F08EBAEC
:104718001A4B4FF47A721A4810211B681B880380C1
:10472800184B1B684380184B1B688380174B1B680A
:10473800C380174B1B680381164B1B884381164B9C
:104748001B888381154B1B68C381154B1B6803822B
:10475800144B1B684382144B1B688382134B1B68E2
:1047680093FBF2F3C382124B1B880383114B1B8804
:10477800438300238383C383FFF7C2BF14930020BE
:104788006C8D022030930020349300204C8D022041
:1047980038930020968D022042930020488D0220F5
:1047A80024930020289300202C93002010930020AD
:1047B80040930020908D022010B5044608F054F86C
:1047C8000028FBD008F08AF8C3B2772B07D1074935
:1047D8000748FFF793FEFFF79BFF204610BD6D2BA0
:1047E800FBD10448FFF7ACFEF7E700BFBB7C002015
:1047F800A4890020948D02202DE9F0473B4C10211C
:10480800DFF814A12046DFF81481FFF77DFF238825
:10481800DFF80CE1012B364FDFF808C1354A364E78
:10482800364D374837492CD16388B4F80490CAF814
:104838000030354BC3F80090E388CEF80030238968
:10484800C8F80030B4F90A303B80B4F90C30ACF841
:104858000030E38913604FF47A72238A3360638AE5
:104868002B60A38A0360E38A5343B4F918200B60D2
:10487800264B1A80B4F91A20254B1A801B48BDE82C
:10488800F087244BD3F800900023A9F800304FF0AC
:104898003C092380CAF80090CEF800304FF4617EBE
:1048A800A4F80290C8F800E03B800827E380ACF841
:1048B800007013600C22A4F808E0326022822A609B
:1048C8006282182263810260A2824BF68032A7813D
:1048D8000A6030220D49E2820A22E3810A8022839B
:1048E8000B4A63831380A383E383C7E76C8D02209D
:1048F800968D0220488D02202493002028930020C2
:104908002C93002010930020349300204093002023
:10491800908D0220149300203093002038930020BB
:104928004C8D02204293002010B588B007F09CFF00
:104938000028FBD007F0D2FFC0B2702840F0878073
:10494800904809F083FF90498E48FFF7D7FD06A8E5
:1049580001F088FA9DF91C30BDF9182004939DF9DF
:104968001F308A4903939DF91E30864802939DF9AA
:104978001D3001939DF91B3000939DF91A3009F001
:1049880081FF83497F48FFF7B7FD824B7D4819684F
:10499800FFF795FD80497B48FFF7AEFD7F4B7948CF
:1049A8001968FFF78CFD7E497648FFF7A5FD7D4B1A
:1049B80074481968FFF783FD7B497248FFF79CFD2F
:1049C8007A4B7048196809F038FF6E4809F03EFFC5
:1049D80077496C48FFF790FD764B6A48198809B209
:1049E800FFF764FD74496748FFF786FD734B654818
:1049F800198809B2FFF75AFD71496248FFF77CFD33
:104A0800704B6048198809B2FFF750FD6E495D4840
:104A1800FFF772FD6D4B5B481968FFF750FD6C4955
:104A28005848FFF769FD6B4B56481968FFF747FD73
:104A380069495448FFF760FD684B52481968FFF709
:104A48003EFD67494F48FFF757FD664B44E0342861
:104A580018D830281AD93238022872D8DFE800F07E
:104A6800777D8300162811D8DFE800F031105F1633
:104A7800104765101010101010103B1010415425ED
:104A880010107F006138C3B2162BEBD907F0ECFE8B
:104A9800002873D108B010BD06A801F0E3F99DF90C
:104AA8001B30BDF9182000934F499DF91A3035483D
:104AB80009F0E8FEEAE706A801F0D4F99DF91F30ED
:104AC8009DF91D20009349499DF91E30EFE73049B3
:104AD8002C48FFF711FD2F4B19682A48FFF7EFFC08
:104AE800D4E743492748FFF707FD2C4BF4E72C4947
:104AF8002448FFF701FD2B4BEEE72B492148FFF730
:104B0800FBFC2A4B1F48196809F097FE1D4809F05D
:104B18009DFEBBE726491B48FFF7EEFC254B19888D
:104B280009B21848FFF7C2FCB0E723491548FFF758
:104B3800E3FC224BF3E722491248FFF7DDFC214B47
:104B4800EDE72C490F48FFF7D7FC204BC4E72A496B
:104B58000C48FFF7D1FC1F4BBEE728490948FFF76F
:104B6800CBFC1E4BB8E726496CE7FFF745FE044629
:104B780024490448FFF7C0FC2188D2E707F0AEFEBD
:104B880084E700BFA4890020AB7E0020CB7C0020F6
:104B9800F17C002030930020FE7C0020349300201C
:104BA8000B7D002038930020187D002010930020F2
:104BB800257D002042930020327D0020968D022022
:104BC8003F7D0020409300204C7D0020488D02202E
:104BD800597D002024930020667D00202893002022
:104BE800737D00202C930020807D00209A7D00207A
:104BF800B57D0020C27D0020CE7D0020DA7D00201A
:104C0800E67D0020F27D002038B5044607F02CFE32
:104C180060B107F063FEC0B2732809D100242049AF
:104C28002048FFF769FC07F01FFEA8BB204638BDE7
:104C3800652805D11C4905241A48FFF75DFCF2E7F1
:104C48006D280ED1194D1A492B881648C3F1010356
:104C58002B80FFF751FCB5F90010124809F0EDFD63
:104C6800E1E7722802D1FDF767FEDCE73A2804D1B4
:104C78002046FFF7A1FD0446D5E73F2802D1FFF7FC
:104C880053FED0E7212802D1FFF776FCCBE709498C
:104C98000448FFF733FCC6E707F020FEC3E700BF70
:104CA800607C0020A4890020687C0020948D02206C
:104CB8006F7C00207A7C0020004870476C8D0220B1
:104CC800044B1868044B1B68C01A48BFC03080B238
:104CD800704700BFE8790220E4790220014B186888
:104CE800704700BFD4D70020F8B5124DC026014642
:104CF800114A2B681268013393FBF6F006FB103358
:104D0800934215D001240D4F0D4B4FF400723C60B7
:104D1800286803EB402007F033FB2B682046234428
:104D280093FBF6F206FB12332B6000233B60F8BDC1
:104D38000020FCE7E8790220E4790220D4D700209B
:104D4800D8D700200F4B70B50F4D2A681B689A42C0
:104D580016D001240D4E0E4B4FF4007234602968B2
:104D680003EB412107F00CFB2B68C02220462344AB
:104D780093FBF2F102FB11332B600023336070BD0B
:104D88000020FCE7E8790220E4790220D4D700204B
:104D9800D8D7002073B50646684615460C4601F07C
:104DA80061F8BDF800209DF90330A2F2BC7292B2FE
:104DB8007F2A24D89DF802100C2920D8DBB21F2B9B
:104DC8001DD843EA411343EA42239BB29DF80510DC
:104DD8009DF907201729338013D89DF806303B2BFF
:104DE8000FD8D2B23B2A0CD85B0143EAC12343EA6D
:104DF80052039BB2238000232B7002B070BD0023A6
:104E0800E4E70023F6E730B4856B114625B143B9D2
:104E1800284630BC04F017BBC06B10B130BC02F0A0
:104E2800CDBF30BC704713B5044661B10846019147
:104E38000CF0B6FA2368024601995B68204602B076
:104E4800BDE81040184702B010BD10B50446FFF782
:104E5800EAFF2046BDE8104009F0F8BC836B13B1A7
:104E6800184604F015BCC06B08B103F0C1BD70470B
:104E780010B586B00D4C04A800F0F4FF9DF917306A
:104E8800BDF91020204603939DF916300849029376
:104E98009DF9153001939DF9133000939DF9123057
:104EA8000BF048FD204606B010BD00BF088F022059
:104EB800057B002073B52E4C002A019316462D4B16
:104EC800B8BFD61DA06115462360A3F57003F61080
:104ED8001022A3F2FB7365847043A36003F15B4364
:104EE800484311FB06F103F5F113E06104F12C00CE
:104EF80003F60F4321842049E36003F18243A3F6BC
:104F08000243C4F8F83103F10D2303F572030533A6
:104F180063624FF4FC7363604FF4E673A36200238B
:104F2800C4F8FC314FF00113C4E904230CF086F9EE
:104F3800FFF79EFF014604F130000CF07FF9019A5B
:104F48000E4904F140000BF0F5FC4A34FFF7B4FEBB
:104F580000F1200350F8042B984244F8042BF9D1AF
:104F6800074908480CF06AF9014802B070BD00BF53
:104F7800F47B022052494646F47A0020F97A002050
:104F8800FE7A00205E7C0220034B5A68C3F8FC01BD
:104F9800024418465A607047F47B0220134B9A6CFF
:104FA80070B50646CAB15469002522462B461049F9
:104FB800104809F067FC002300220F48FFF723FF81
:104FC8004FF4007231460C48FDF79AFC22462B46F6
:104FD8000948BDE87040FFF716BFDB6C13B1D3E991
:104FE8000045E2E71C461D46DFE700BF8485022036
:104FF800957B0020A48900209485022010B588B0F4
:10500800044606A800F02EFF9DF91F301E4A2046D0
:1050180004939DF91E301D4903939DF91D30029399
:105028009DF91B3001939DF91A300093BDF9183092
:105038000BF080FC142301206361154B20621B6870
:10504800A361144B1B68E361134B1B686362134B2A
:105058001B68A362124B1B68E362124B1B881BB2CE
:105068002363114B1B881BB26363104B1B881BB255
:10507800A3630F4B1B881BB2E3634FF05533C4F88F
:10508800FC3108B010BD00BFF47A0020037B00207B
:10509800C8BD0020109300203093002034930020D6
:1050A80038930020968D02204293002040930020E0
:1050B800908D0220022810B5044613D108F002FD95
:1050C8000F4B1A68B0FBF2F302FB13030D4A116889
:1050D80013608B4206D20C4B0C4A1C6811688C4238
:1050E80002D80324204610BD1B681468B0FBF3F2F5
:1050F80003FB1200A04234BF03240424F2E700BFDC
:10510800309300203C800220389300203493002004
:10511800034B1A6882421ABF1860012000207047AA
:10512800748D002010B586B0044604A800F09AFEDD
:105138009DF915100846FFF7EBFFE0B19DF9133014
:1051480020460E4A02939DF9123003910193BDF94E
:1051580010300B4900930B4B1B680BF0EBFB0A4814
:1051680009F074FB09490848FFF75DFE0648214627
:10517800FFF759FE012006B010BD00BFA07B00203C
:10518800A27B0020C8BD0020A48900209E7F0020AB
:1051980010B588B0044606A800F064FE174B9DF9C8
:1051A8001F001A889DF91E1012B29DF91D30EAB928
:1051B80002939DF91B30124A01939DF91A30CDE9EB
:1051C800031000932046BDF918300E490BF0B2FBCE
:1051D8000D4809F03BFB0D490B48FFF724FE21461B
:1051E8000948FFF720FE012008B010BDCDE90010E6
:1051F800034A204606490BF09DFBE9E7968D0220FD
:105208005D7B00205F7B0020A48900209E7F00201A
:10521800817B0020214AB0FBF2F302FB13034FF419
:105228006162B3FBF2F31E4A1168994270B503D864
:105238001C490968994213D81B4D2968994203D81B
:105248001A49096899420BD8166814499E42B0FB5E
:10525800F1F40DD8134E36689E4210D8286808E03D
:10526800134A1368B0FBF3F3106803FB000070BD2A
:1052780010684FF46163584301FB0400F7E70B4DD6
:105288002E689E42F3D810682B68C01A4FF46163E9
:10529800584300F5A83000F5C070EDE780510100D3
:1052A800488D022024930020289300202C9300206E
:1052B8003893002038B5184B9D6BDA6C42F0010228
:1052C800DA649A6B22F002029A639A6B9207FCD412
:1052D80072B6114C206D636D616D226D9942F9D1E2
:1052E8008242F7D1DB0B43EA4040FFF793FFA0650A
:1052F800094CA36D8342FCD145F00205A563A36B5D
:105308009B07FCD562B6002000F084FBA36B43F03A
:105318004003A36330BFFDE700400D4030B50446AD
:1053280095B000287FD17A48FFF7FCFE00284AD0C4
:10533800784D2B68D3F88014B1B12346744A684677
:10534800009404F03CFA60BB2B68D3F88014B9B918
:10535800D3F88404F0B10C91012300F589616C4AFB
:10536800684603F0E2FB14E0D3F884040028EBD08D
:105378000B460C91664A0146684602F09AFFE2E73E
:105388000023634A01F5896168460093012304F00C
:105398009AFA30B960496148FFF757FD4FF0FF347A
:1053A800B2E02B68D3F8800428B1594904F0B8FE5C
:1053B80048B95B49EFE7D3F884040028F9D0544989
:1053C80003F09CF9F4E75748FFF7E2FE0028E5D020
:1053D800504944F20223534A6846096805F068FBBD
:1053E800514C019B04A904F110006360029BA36067
:1053F8009DF80C30237305F056FA6846FEF7F8F866
:10540800A36C5BB1494B00221A60494B1B881BB245
:1054180063B34848FFF7F2FD464930E0E36C002BE0
:10542800F0D14549B7E70128ECD002282FD0E31E78
:105438009BB2022B68D83C4B9A6C0AB9DB6C7BB1E7
:105448003B4B1B881BB243B9384B4FF4C0501B6809
:105458005843FFF799FDFFF7A1FD384805F00EFA0C
:10546800042C4DD1364B1868FFF724FF354B01212A
:1054780018221868344B1B68FFF71CFD01464FF4CF
:1054880000722E48FDF73CFAB0F5007F36D34FF492
:10549800C0522E492948FDF733FAB0F5C05F0446DB
:1054A800224D26D22A491D48FFF7BDFC00230A22B7
:1054B80021461A48032409F0F2F926491748FFF74C
:1054C800B2FC0221154809F0B8F9144809F0BEF9F0
:1054D800214A1368013313604FF47A722B68B3FBC7
:1054E800F2F102FB1133002BA1D11448FFF7B6FCEF
:1054F8009DE72B68022401332B60E9E7032496E734
:10550800033C18BF4FF0FF34204615B030BD00BF34
:10551800648E02201C9300204C7E0020A489002069
:10552800587E0020B48E0220848502200086022046
:10553800968D0220D0D50020647E0020948502201C
:105548003893002010930020C8BD0020D0BD002053
:10555800767E0020A67F002064850220431C2DE96A
:10556800F041044616D1FFF7B9FB05460028FAD1E9
:105578003B48FFF7E7FB3A4B3A4A53F8041B42F81B
:1055880025100135082DF8D1374BC3F88450204633
:10559800BDE8F081344B08220028C3F88820F6DBE8
:1055A800FFF788FD0446FFF78BFB0F2853D901212D
:1055B8000D2008F031FD2D4B1D882DB295BB284FCD
:1055C800B846FFF78BFB06460028FAD1013540465E
:1055D800FFF7B8FB08F50078102DF2D1204A3346C2
:1055E800204952F8040B41F823000133082BF8D165
:1055F8001F4B57F8042B03360333110A03F8032C07
:10560800B6F5C05F4FEA124203F8021C03F8012CFA
:10561800EFD1184B1B68002BB9D02046BDE8F041EC
:10562800FFF77CBE124E0027B046FFF757FB054632
:105638000028FAD101374046FFF784FB08F50078C7
:105648000C2FF2D1074B56F8042B43F825200135CF
:10565800082DF8D1DDE700210D2008F0DDFC96E7E4
:10566800DC570220D885022000400042968D022097
:10567800D0BD0020D4850220074800234FF47A7259
:1056880006490373C0E90132C0E91233044B054AE5
:10569800036009F0F1B900BF84850220D10E000033
:1056A80048050020808D00202DE9F843214B052472
:1056B800214AD3F82032DFF89C9023F07F43DFF8AB
:1056C80098801E4F13601E4B1E4A1A60D9F800506E
:1056D800FF23002105F5926685F8BC3485F8C814C7
:1056E800304606F0D9FA3046C5F88C6405F052FE0B
:1056F80080B90123D5F88C1428461A4605F06EF9AE
:1057080040B10E481049FFF7A0FB01200F4B18606D
:10571800BDE8F88341463846FFF797FB642008F058
:10572800D3F8013CD2D105480949FFF78EFB204642
:10573800EEE700BF00441F40C8BD0020A489002038
:10574800FC7F0220752600001F7B0020D4850220E4
:10575800417B00201C930020317B00202DE9F74F6E
:10576800044608F0AFF9019008F088F8974B04F563
:10577800FE76974982461A68236813600B602346B1
:10578800114614461D460433D5E900509E42A0EB4D
:10579800050044F8040FF5D102F5FE72002351F814
:1057A800040F0028B8BF40428342B8BF0346914265
:1057B800F5D102240121621E01FA02F29A4202DCAA
:1057C8000134182CF7D1834A611EDFF81C8252F885
:1057D8002130C346013342F821307F4B1A68944286
:1057E800424688BF1C60012303FA04F0013852F8CE
:1057F800041F01330140802B1160F8D1774D4FF41D
:10580800007200214FEA8409284606F097FD4FF000
:10581800A532019B09F107072A6009F10806704AB9
:1058280007211288C5E9023A44EA0242DBF800304F
:105838006A600122AB61002309EB02002A619C46E1
:10584800CBF8003020236861A3EB040E55F821A0A3
:1058580058F8042BBEF1000F23DD02FA0EF273464E
:1058680042EA0A0245F821200CF1010CBCF1800F34
:10587800EAD1DFF87881D8F8004004EB0609B9F1DD
:10588800800F26DC5748B200544900EB840006F02C
:1058980077FDC8F800904FF00109484603B0BDE80D
:1058A800F08F01F1010906D14AEA0202202345F8E6
:1058B80021204946D8E7E31A22FA03F343EA0A0308
:1058C80045F821300EF1200349469A4045F8292031
:1058D800CAE77A2C24DD00222346424910467F2B52
:1058E80019D9802CC4F18003C8BF002323440AB10E
:1058F800C8F800303B48FFF7F7F9B0F100094FEA64
:1059080086023649374818BF4FF0010906F038FDBE
:10591800C8F80060C1E741F8230001220133DEE73F
:10592800C4F17A032D492F4A43EA004308466B61C4
:10593800234650F804CB42F823C00133802BF8D11A
:105948002848C4F1800A0191C8F80030FFF7CCF963
:105958006B69A7EB0A07B0F10009D3464FEA134376
:105968004FF0070018BF4FF0010901991B043B4392
:105978001C4F6B613A460023C8F80030013816D135
:1059880013B10623C8F80030D8F80010002302EB42
:105998008102B24511DB803C34445E45B8BF002427
:1059A8000C44002B3FF479AFC8F8004075E751F874
:1059B800043B47F8043B0123E0E755F82A300AF195
:1059C800010A42F8043B0123E3E700BF3C930020AF
:1059D800508D022024860220F8850220F4790220C6
:1059E80042930020E4770220F47D022048800220C0
:1059F80013B5044661B1084601910BF0D1FC236848
:105A0800024601995B68204602B0BDE8104018477D
:105A180002B010BDC1B2212008F0FEBA002120203A
:105A280008F0FABA0121202008F0F6BA2DE9F3416E
:105A38000121212008F010FB0120FFF7EBFF0121D5
:105A4800202008F009FBFFF7E9FF642007F03CFF7E
:105A5800FFF7E8FF514A524901A800F0B5F8C820FD
:105A680007F032FF4C2101A800F0C0F84C220028B2
:105A780000F092804B494C480B2408F003FF812327
:105A880002224C2101A8494D00F0E7F830230722F3
:105A98004C2101A800F0E1F8002308224C2101A8BC
:105AA80000F0DBF82246013415F8013B4C21E4B242
:105AB80001A800F0D2F80F2CF4D1902373224C21C6
:105AC80001A800F0CAF8902374224C2101A8384E8E
:105AD80000F0C3F80025602375224C2101A8DFF8E7
:105AE800E48000F0BAF8334F00233B224C2101A890
:105AF80000F0B3F816F8014B88234C2101A8224680
:105B0800013500F0AAF8B8F80030621C4C21DBB26D
:105B180001A8D2B200F0A1F83B88A21C4C21373B67
:105B280001A8D2B2DBB200F098F8E21C80234C2125
:105B3800D2B201A800F091F8221D00234C21D2B264
:105B480001A800F08AF8042DD4D11B491648FFF7A4
:105B58004FFF15224C2101A800F059F800230146F7
:105B68001022114808F09BFE0F4808F06FFE1349F9
:105B78000D48FFF73DFF76224C2101A800F047F8B9
:105B8800002301461022084808F089FE064808F05C
:105B98005DFE02B0BDE8F08109496CE7A08601000E
:105BA800B48900201E7E0020A48900207C7E00206D
:105BB800787E0020908D02203E7E0020457E0020C9
:105BC800287E00204093002037B50C46016005462A
:105BD8000846019213F024FE642007F075FE204663
:105BE800019901F05DFD284603B030BD08B54900B4
:105BF800036883F8A510012183F8301183F82F1169
:105C0800006801F0F3FBB0FA80F0400908BD70B5F8
:105C1800036801260D46490083F83061044683F87D
:105C2800A510114683F82F61006803681B68984720
:105C38000021206801F0DAFB08B1002070BD33466E
:105C480032462946206801F043FC0028F5D0206838
:105C580003685B699847C0B2F0E770B50446012550
:105C68001E4603684800114683F8305183F82F51C7
:105C780083F8A500206803681B68984720683146A8
:105C880003681B6898472946206801F0AFFBB0FA03
:105C980080F0400970BD0000F0B53C2440F26D1E54
:105CA80064264FF4C87CB0FBF4F2B2FBF4F304FBB7
:105CB800120004FB1322C87118208A71B3FBF0F29A
:105CC80000FB1233101D4B710723B0FBF3F3C3EB3A
:105CD800C303C01A087100200446C3B203F2B273AA
:105CE80013F0030740D193FBF6F506FB1535002D9D
:105CF8003DD193FBFCF50CFB1535002D14BF754603
:105D08004FF4B7752C440130A242E6D264200B80D0
:105D1800B3FBF0F600FB16364FF4C870B3FBF0F592
:105D280000FB153337BB46BB002B40F26D1008BF94
:105D38004FF4B770121BDFF858C002440020012846
:105D4800C5B21DD1FFB906BB002B14BF1C241D24EE
:105D5800944204D80130121B0C28F0D105460135B5
:105D680001328D70CA70F0BD40F26D15CAE74FF46C
:105D7800B775C7E740F26D10DCE74FF4B770D9E7A5
:105D880010F80C40E4E71C24E2E71D24E0E700BF1C
:105D9800E97E0020038840F2B2712E4A4E33DBB20E
:105DA800F0B55A4364254FF4C876A1F2B274A34201
:105DB8002CDC03F2B273642190F90270264EDFF8EE
:105DC8009CC0B3FBF1F401FB14344FF4C871B3FB6E
:105DD800F1F501FB1535012103F003038F4227DCA0
:105DE80090F906304FF4616490F90510C3EB031382
:105DF8009B0004FB013390F907100B4490F9031042
:105E08001648013900FB01301044F0BD8C070DD154
:105E180091FBF5F405FB141424B991FBF6F406FB89
:105E280014141CB902F5A83202F5C0720131BCE79E
:105E3800022909D143B904B935B902F5181202F596
:105E48006E5201310136C9E796F800E00CFB0E22CC
:105E5800F7E700BF8033E101E97E002080510100AF
:105E68000120704707B5019007F02CFE0199FFF754
:105E780013FF012003B05DF804FB08B5FFF78AFFA4
:105E880007F032FE012008BD73B50D4614460646DC
:105E98006846FFF7E7FF6846ADF800608DF80250E6
:105EA8008DF80340FFF7E9FF02B070BD73B50D46EA
:105EB800144606466846FFF7D5FF68468DF8056024
:105EC8008DF806508DF80740FFF7D7FF02B070BD78
:105ED80038B504460D463C222946204608F07CFA8F
:105EE8000028F8DD38BD00002DE9F0470F4600F521
:105EF80000511646D1F828341BB900F50872174C22
:105F0800226033444FF0000800F58469DFF84CA0A4
:105F180000F50874C1F82834464501DCBDE8F0876F
:105F2800DAF80030A6EB08023946A9EB0305184653
:105F38009542A8BF15462A46A84406F021FA03460A
:105F48002F442B449945CAF80030E5D14FF400712D
:105F58002046FFF7BDFFCAF80040DDE75080022069
:105F680070B5054600684C1E002603682146DB69AB
:105F780098472868214603681B6A984708B930463D
:105F880070BD0136F5E70068013A10B50468E46CA5
:105F9800A04742F2010242F20503002814BF10464E
:105FA800184610BD0068013A10B40468246DA44670
:105FB8005DF8044B60470000024B006819600368F5
:105FC8005B6C18477C8B022010B50C4608F0ECF986
:105FD8000028FBD020463C21BDE8104008F09AB9C3
:105FE80000F5005330B493F8245435B1D3F828148D
:105FF800114430BCC3F82814704730BCFFF774BF95
:1060080007B501228DF807100DF10701FFF7E8FF2A
:1060180003B05DF804FB07B50222ADF806100DF1D8
:106028000601FFF7DDFF03B05DF804FB38B50C4649
:106038000978054699B12046013C0BF0B1F90130C9
:10604800C1B22846FFF7DCFF14F8011F284619B92A
:10605800BDE83840FFF7DFBFFFF7DDFFF4E7BDE835
:106068003840FFF7CDBF00004DF20243994202D1FC
:106078000149FFF7DBBF7047577F00204DF202430D
:10608800994210B5044618D1FFF7C5FF20464FF6D0
:10609800FF71FFF7C0FF20460021FFF7B1FF204640
:1060A8000649FFF7C3FF20460449FFF7BFFF204614
:1060B8000021BDE81040FFF7A3BF10BD577F0020A7
:1060C80007B5042201910DEB0201FFF789FF03B028
:1060D8005DF804FB70B5044686B064213C4EFFF7BA
:1060E8009AFF062120460025FFF7EAFF6421204693
:1060F800FFF791FF37492046FFF798FF0021204618
:10610800FFF789FF14212046FFF7DAFF013536F83B
:10611800021B2046FFF77FFF142DF7D104212046EC
:10612800FFF7CEFF44F204012046FFF774FF44F264
:1061380005012046FFF76FFF44F20B012046FFF7E9
:106148006AFF44F20C012046FFF765FF0121204653
:10615800FFF7B6FF4DF202412046FFF75CFF002132
:106168002046FFF7ADFF02212046FFF7A9FF4FF4B5
:1061780040512046FFF74FFF43F201012046FFF749
:106188004AFF15492046FFF751FF14492046FFF7FB
:106198004DFF9FED130A01AA0221032007F04AFAD6
:1061A8002A46104901A80AF06BFD01A92046FFF70D
:1061B8003DFF0D4901AA0A2331F8020F013B02F8FD
:1061C800010BF9D101A92046FFF730FF06B070BDD9
:1061D800F8790020337F0020477F0020577F002078
:1061E8001F85CB3F4C7F00204493002070B50446A8
:1061F8000068002603685B68984701460546204604
:10620800FFF75EFFAE4200D170BD01362046314631
:10621800FFF756FFF6E7F8B500F5005704461646AF
:1062280097F8243433B1FFF79BFE01308000C7F89C
:106238002804F8BD4D1EFFF793FE01462046FFF7E0
:106248003FFF2068324629460368DB699847206883
:10625800294603681B6A984701460028E9D020466A
:10626800FFF72EFFF3E70000F0B50446C7B000685B
:106278000DF10E0605AD036806AA019600955F6A42
:1062880004ABB847BDF80E1020460131FFF718FFE0
:10629800049B43F201012046013318BF0021FFF798
:1062A800BAFE20460021FFF7B6FE04992046FFF704
:1062B80007FF20460021FFF7AEFE20460021FFF72A
:1062C800FFFE20460021FFF7FBFE20460021FFF7D6
:1062D800F7FE20460021FFF7F3FE20460021FFF7D6
:1062E800EFFE20460021FFF7EBFE05992046FFF759
:1062F800E7FE049920464B1C59425941FFF78BFE93
:1063080020460021FFF7DCFE20460021FFF7D8FEDB
:1063180006A92046FFF78AFE20460649FFF786FEB3
:1063280020460449FFF782FE02492046FFF77EFE19
:1063380047B0F0BDDF7B0020F8B5094E0024094FB7
:1063480005463168FFF7BCFE3368A34200D8F8BDA4
:1063580037F8021B28460134FFF75DFEF4E700BF5B
:1063680018930020E87900202DE9F0430446C7B0CF
:10637800006815460DF10E0805AE036806AACDF8AB
:1063880004800F460096D3F8249004ABC8474DF616
:106398000B42BDF80E309542049903F101080FD85D
:1063A800B5F55C4F14D9A5F55C45013D0A2D0FD80C
:1063B800DFE805F0111620370E0E2227270E2900D8
:1063C8004DF641439D4223D04DF644439D4213D0A0
:1063D80047B0BDE8F08341462046FFF771FEF7E776
:1063E800013143F2010118BF4FF440512046FFF735
:1063F80012FEEDE70021F9E706A92046FFF716FE91
:10640800E6E70A49F9E731688B4208BF0021E3E76C
:1064180039462046FFF754FE31682046FFF750FE04
:1064280041462046FFF74CFE0021D5E7DF7B0020E0
:106438002DE9F04F044600684F1E85B003684FF001
:10644800000B3946394E5B6998470028204614BF2F
:1064580001210421FFF7DFFD2068394603689B69A5
:106468009847013081B22046FFF7D5FD204600212C
:10647800FFF7D1FD206839460368DB689847054671
:1064880020688846394603681B69984733688146FF
:106498008A465B6805222649304698470A232A46D9
:1064A8003046CDE9003B434608F003FA304608F091
:1064B800CDF933681F4905225B68304698470A239F
:1064C8004A46304600935346CDF804B008F0F1F937
:1064D800304608F0BBF9082220460DEB0201CDE951
:1064E8000258FFF77DFDB5EB09054FF0080220467D
:1064F80068EB0A030DEB0201CDE90253FFF770FDCB
:1065080020464FF0FF31FFF7DBFD2068394603686E
:106518009B68984701462046FFF788FD06492046B4
:1065280005B0BDE8F04FFFF781BD00BFA48900208A
:10653800277F00202D7F0020DF7B00204DF60B42B7
:106548009142D3B504460FD8B1F55C4F14D9A1F5E3
:106558005C43013B0A2B0FD8DFE803F010223E41D1
:106568000E0E5769750E78004DF64142914270D073
:106578004DF6444291425DD002B0D0BD4DF6014186
:106588002046FFF748FD20460621FFF744FD204638
:106598000021FFF735FD00212046FFF791FD10E0AF
:1065A8004DF602412046FFF736FD04212046FFF74D
:1065B80032FD00212046FFF723FD00212046FFF78A
:1065C8002AFD20460021FFF77BFD0021204602B06E
:1065D800BDE8D040FFF714BD4DF60341E2E74DF6A4
:1065E8000441FFF718FD08212046FFF714FD00219C
:1065F8002046FFF705FD00220023CDE900230822ED
:1066080069462046FFF7ECFCDBE74DF60741FFF74C
:1066180002FD4FF6FF712046FFF7FDFC01212046E1
:10662800FFF7EEFC00212046FFF7EAFCC9E74DF62C
:1066380008412046FFF7EFFC4FF6FF712046FFF7B1
:10664800EAFC0021EBE74DF60941F2E74DF60B4174
:1066580096E7FFF7E0FC0A2120460026FFF7DBFC5F
:10666800002700212046FFF7CBFC08226946204678
:10667800CDE90067FFF7B4FCCDE90067BFE72DE976
:10668800F04F06460068036806F500552DED028BAD
:106698009B6A85B008EE101A984795F824448046FE
:1066A8004CB1D5F828340344C5F8283405B0BDECFE
:1066B800028BBDE8F08F4FF400530C2706F5846B6E
:1066C80006F5087AC5F820340394039B43450CD398
:1066D800002FEBD04FF4007106F5087005B0BDEC43
:1066E800028BBDE8F04FFFF7F3BBD5F82034039ACF
:1066F800B3F5005FA8EB020910D13068B9F5005F67
:1067080038BF4B4618EE101A02680093136B039AB1
:106718001C465B46A0470023C5F82034C7F5007324
:10672800D5F820140AEB0700994528BF9946C1F50A
:1067380000535944994528BF99464A464F4405F0A5
:106748001FFED5F82034B7F5007F4B44C5F8203438
:10675800039B4B440393B8D1394650460027FFF7B3
:10676800B7FBB2E72DE9F04F804600681C46164695
:10677800036808F500552DED028B9B6A85B008EE7D
:10678800101A9847801BB4F1FF3F08BF04468442A3
:10679800234628BF0346029395F8243403935BB13C
:1067A800D5F82834029A1344C5F82834029805B05D
:1067B800BDEC028BBDE8F08F4FF400530C2708F5B1
:1067C800846B08F5087AC5F82034029BB342EDD9EA
:1067D800D5F82034029AB3F5005FA2EB060911D16F
:1067E800D8F80000B9F5005F38BF4B4618EE101A0C
:1067F80002680093136B32461C465B46A047039B16
:10680800C5F82034C7F50073D5F820140AEB070043
:10681800994528BF9946C1F500535944994528BF61
:1068280099464A464F4405F0ABFDD5F82034B7F5F4
:10683800007F4E444B44C5F82034C6D139465046F3
:106848000027FFF745FBC0E72DE9F84F80460D46C6
:106858001446DFF854B012B300F120094FF0000AD3
:10686800DBF80060C6F50077A74228BF274635B198
:1068780028463D443A4609EB060105F081FD3E44B1
:10688800E41BB6F5007FCBF8006005D149464046C9
:10689800FFF79AFBCBF800A0002CE1D101E0CBF880
:1068A8000020BDE8F88F00BF4C8002201FB50C22E5
:1068B80001A9FFF7C9FFBDF80830022B0ABF0198EC
:1068C80000200C3805B05DF804FB07B501220DF176
:1068D8000701FFF7B9FF9DF8070003B05DF804FB57
:1068E80007B502220DF10601FFF7AEFFBDF806005D
:1068F80003B05DF804FB07B504220DEB0201FFF7B6
:10690800A3FF019803B05DF804FB70B50D46064679
:10691800FFF7DBFF1DB12C18A54208D170BD02B2EC
:10692800294630465200BDE87040FFF78DBF30461B
:10693800FFF7D6FF05F8010BEEE730B50446C1B006
:106948000D46FFF7B3FF69462046FFF7DEFF2068D4
:106958006A46294603689B6C984742F2010242F254
:106968000503002814BF1046184641B030BD00008A
:106978002DE9F0430446C3B00E4600F12001174646
:10698800FFF722FB0022314B20460DF108091A605F
:10699800FFF78CFF05462046FFF7ADFF2046FFF7BF
:1069A8009FFF43F20103343D013EC31A2046D3F151
:1069B800000848EB0308FFF793FF2046FFF79BFF0B
:1069C8002046FFF78DFF2046FFF795FF2046FFF78B
:1069D80092FF2046FFF78FFF2046FFF78CFF2046E7
:1069E800FFF789FF2046FFF786FF2046FFF783FF62
:1069F8002046FFF775FF2046FFF77DFF2046FFF78B
:106A08007AFF49462046FFF780FF48460AF0C8FC4F
:106A18000130A5EB4005013D032D0CDC85B920684C
:106A28003A4631460368CDF80090DC6A4346A047F1
:106A380043B0BDE8F0832046043DFFF75CFFEBE779
:106A48002046013DFFF741FFE8E700BF4C800220E8
:106A58002DE9F74F00F1200904464FF00C0A49468A
:106A680004F50056FFF7B0FA354B0022204604F52E
:106A7800846B1A60FFF71AFF00230746C6F8203414
:106A8800002FD6F8203409DC20680268002B4CD18E
:106A9800206803689B6B9847012023E0CAF50078BB
:106AA800C3F500550BEB030009EB0A01B84528BFF5
:106AB800B846454528BF45462A4605F061FCD6F844
:106AC80020247B1B2A440193B2F5005FC6F82024DA
:106AD80021D12068594603685B6B9847B0F5005F81
:106AE80003D2002003B0BDE8F08F0023B8EB050205
:106AF800C6F820340FD00AEB0501584601924944E4
:106B080005F03EFCD6F82034019A1344C6F8203428
:106B1800A7EB08030193019B2BB14FF0000A4946EC
:106B28002046FFF751FA019FAAE7556B04F58461E7
:106B38001A46A847D6F820349842A9D2D1E700BF10
:106B48004C80022070B50D4600F12001164604461F
:106B5800FFF73AFA074B00221A604DF607439E42A8
:106B680005D129462046BDE87040FFF7E6BE42F24F
:106B7800050070BD4C8002202DE9F04F8FB004460F
:106B880007F012FC002800F02B8204F1200B3C21B6
:106B9800584607F0BFFB002800F02282A36ABD49CF
:106BA8000193A38CBC480093236AE28C07F06AFE29
:106BB800236A0C2B04D9E26AB849B74807F062FE89
:106BC800236A102B04D9226BB449B34807F05AFE44
:106BD800236A142B04D9626BB049AF4807F052FE00
:106BE800AF4904F50055AC4842F2010707F04AFEE8
:106BF800E36AA16AA08C1E46E28CD4F82090039325
:106C08000491D4E90C83C5F82C1442F2050102283A
:106C180008BF0F4641F21B00824243D8B2F5805F9D
:106C280002D842F205077CE0A2F58052013A1A2AFE
:106C3800F7D801A151F822F0A7450000FB45000054
