:0200000460009A
:100000004643464200000156000000000103030081
:1000100000000000000000000000000000000000E0
:1000200000000000000000000000000000000000D0
:1000300000000000000000000000000000000000C0
:1000400000000000010408000000000000000000A3
:100050000000800000000000000000000000000020
:100060000000000000000000000000000000000090
:100070000000000000000000000000000000000080
:10008000EB04180A063204260000000000000000FD
:10009000050404240000000000000000000000002F
:1000A0000000000000000000000000000000000050
:1000B0000604000000000000000000000000000036
:1000C0000000000000000000000000000000000030
:1000D00020041808000000000000000000000000DC
:1000E0000000000000000000000000000000000010
:1000F0000000000000000000000000000000000000
:10010000D8041808000000000000000000000000F3
:100110000204180804200000000000000000000095
:1001200000000000000000000000000000000000CF
:10013000600400000000000000000000000000005B
:1001400000000000000000000000000000000000AF
:10015000000000000000000000000000000000009F
:10016000000000000000000000000000000000008F
:10017000000000000000000000000000000000007F
:10018000000000000000000000000000000000006F
:10019000000000000000000000000000000000005F
:1001A000000000000000000000000000000000004F
:1001B000000000000000000000000000000000003F
:1001C000000100000010000001000000000000001D
:1001D000000001000000000000000000000000001E
:1001E000000000000000000000000000000000000F
:1001F00000000000000000000000000000000000FF
:10020000FFFFFFFFFFFFFFFFFFFFFFFFFFFFFFFFFE
:10021000FFFFFFFFFFFFFFFFFFFFFFFFFFFFFFFFEE
:10100000D100204335160060000000000000000001
:10101000201000600010006000400260000000002E
:1010200000000060004C020000000000FFFFFFFF16
:10103000FFFFFFFFFFFFFFFFFFFFFFFFFFFFFFFFC0
:10104000FFFFFFFFFFFFFFFFFFFFFFFFFFFFFFFFB0
:10105000FFFFFFFFFFFFFFFFFFFFFFFFFFFFFFFFA0
:10106000FFFFFFFFFFFFFFFFFFFFFFFFFFFFFFFF90
:10140000814205D051F8043B40F8043B8242F9D8B0
:101410007047044A04494FF0000342F8043B9142EC
:10142000FBD87047C09A0020000C012080B5BFF3A4
:101430004F8F00BF00BF00BF00BF00F07FFA654BB9
:101440000822C3F8542100BF00BF00BF00BF00BF87
:1014500000BF00BF00BF00BF00BF00BF00BF00BF94
:1014600000BF00BF00BF5C4A5C495D48FFF7C8FF92
:101470005C4A5D495D48FFF7C3FF5D4DFFF7C9FF5B
:101480004FF0E0234FF47002C3F8882D0023594A2F
:1014900045F823200133B02BFAD1574B8021574A0E
:1014A00003F8011B9342FBD14FF0E020494C4FF071
:1014B0008037DFF87891DFF878814FF0FF32C0F89D
:1014C000085DC4F80471C4F80091C4F8F470C4F85D
:1014D000F080D0F8243D4A4E43F4E023C0F8243D88
:1014E000F36923F07F0343F04003F361736A23F051
:1014F0007F0343F040037362424B9A66DA661A67D1
:101500005A6700F020FA404BAB63404BEB63632318
:10151000002543610323856103613D4BC0F8203DF5
:10152000D0F8FC3D43F08073C0F8FC3D394B1A689D
:1015300042F001021A605A68374B1A6000F0C6FB8D
:10154000C4F804713548C4F80091C4F8F470C4F8C4
:10155000F08000F07DFFF36E43F44053F366304BB0
:101560001D60C3F80851C3F81851C3F82851C3F8D7
:10157000385103F5A0239A6BD20708D4294A5A653B
:1015800042F615621A659A6B42F001029A639A68F4
:10159000254C42F001129A6000F05EFA00F018FF4C
:1015A00000F08AFF00F0C0FB00F0C9F92368132B9C
:1015B000FCD900F0FFF82368B3F5967FFBD300F069
:1015C000C0F900F0BDF900F067FF00F04DFF30BF3B
:1015D000FDE700BF00800D40187A01002C27006055
:1015E00000000000C09A002048A101600000002017
:1015F00000980020E1BA000000E400E0A0E400E070
:1016000000C00F4000C00A40DDC70000E1C7000075
:1016100000002020001000E04809012080D1F008DF
:10162000004008400000C0564C0901201B10182043
:101630000C0D1113054B064A5A64064A1A644FF4FE
:101640002A029A63044B9D46FFF7F0FE00C00A4051
:10165000BFAAAAAA070020000080062043690A4A00
:1016600003EB011003EB011130B5047A074D02EBD7
:101670000412946852682560C06810600B690BB151
:101680004A691A6030BD00BF3C74002061F8010057
:1016900038B543690446027E03EB0212127A8A428D
:1016A00019D0187AFF2816D0814215D0197EFF294B
:1016B00011D001251968EDB25B680968194209D09B
:1016C000064B2946204603EB021305225B681A608D
:1016D000FFF7C4FF257638BD0025EBE73C740020FA
:1016E00043690A4A03EB011003EB011130B590F88E
:1016F0002840074D02EB0412946852682560C06AC6
:1017000010600B6B0BB14A6B1A6030BD3C7400204B
:1017100061F8010038B543690446427E03EB0212CA
:1017200092F828208A421BD093F82800FF2817D06F
:10173000814216D093F83810FF2911D0012519687D
:10174000EDB25B680968194209D0074B294620466B
:1017500003EB021305225B681A60FFF7C1FF657691
:1017600038BD0025EBE700BF3C7400200F4A4169FB
:10177000936B23F47C0343F4802310B593630446F6
:101780000A68496813680B43094913600222036918
:101790001A6100F085FE217E2046FFF75FFF617E23
:1017A0002046BDE81040FFF79BBF00BF00C00F40C0
:1017B000A0860100304B40F6617210B5C3F82021BD
:1017C00000F072FE2D4A2E49D2F8803043F0030318
:1017D000C2F8803040F204422A4BC3F860212A4A02
:1017E0001068084203D1D3F8A8118C071AD04FF023
:1017F00000415163D3F8402142F00202C3F8402176
:10180000204AD2F840319807FBD44FF0E0234FF440
:1018100000321920C3F88C224FF000421A4B9A6311
:1018200000F026FE184B00214FF08042154C9A63C1
:101830004FF4407219600A23C4F8A831134B1846BC
:1018400000F01AFE4FF4810240F2431302604FF49D
:1018500080020264C4F858010D4AC4F848310D4BA7
:10186000C3F804224FF0E0234FF40032C3F80C21F8
:101870000123C4F8403110BD00800D4000C00F406E
:10188000001C1E0000002E4000900D4000000020B3
:101890001DB200000098002008B50F4B1B6E9B077F
:1018A00000D4FBBE72B60D4B0022C3F84021A3F555
:1018B0000D130B4A1A64A3F1FF53A3F52B239D4686
:1018C000BFF34F8F0748084B03604FF40013DB69E9
:1018D0009B689847E6E700BF00441F4000002E4089
:1018E0000300200000802020000012EB074B0004C2
:1018F0000122C3F8A010C3F8A400C3F8B0205A69AD
:10190000D207FCD501225A61704700BF00402A402F
:10191000084B094AC3F8A000C3F8A4200122C3F869
:10192000B0205A69D207FCD5D3F80001212280B239
:101930005A61704700402A40040003007047704716
:10194000704700BF70474FF0E02300211022C3F81A
:10195000941DC3F89C2D2E4AC3F8A02D1122C3F864
:101960009C2D2C4AC3F8A02D1222C3F89C2D2A4A84
:10197000C3F8A02D294AC3F89C2D294AC3F8A02DED
:10198000284AC3F89C2D284AC3F8A02D274A42F0C4
:101990001502C3F89C2D264AC3F8A02D02F18152EE
:1019A0000D32C3F89C2D234AC3F8A02D224AC3F858
:1019B0009C2D224AC3F8A02D214AC3F89C2D214A10
:1019C000C3F8A02D204AC3F89C2D204AC3F8A02DAF
:1019D0001F4AC3F89C2D1F4AC3F8A02D00BF00BFAB
:1019E00000BF00BF00BF0122C3F8942DBFF34F8F8B
:1019F000BFF36F8FC3F8501FBFF34F8FBFF36F8FCD
:101A0000D3F8142D42F44032C3F8142D704700BFB0
:101A10003F000010250008070900100013002000F7
:101A2000210002071400002025000813000C0120EB
:101A30000900001027000B1317000040330010139B
:101A4000180000602F000B07190000702F000B1307
:101A50001A0000803B000B1373B5864B864A8749FA
:101A6000C3F85C22C3F86012C3F86422A2F53042C6
:101A7000834CC3F8682202F5E042C3F86C22C3F835
:101A80007022C3F87422C3F878221822DA661A6723
:101A90005A679A67DA67C3F88020C3F88420C3F8CE
:101AA00088200122C3F82C27C3F83027C3F8342735
:101AB000C3F83827C3F83C27C3F85027714A936905
:101AC00023F0604323F4407343F0204343F4407316
:101AD0009361D2F8843043F00C03C2F884306A4B2F
:101AE0001A6842F002021A601968684A21F4F1414A
:101AF00021F073010904090C0A4365491A604FF08B
:101B0000FF325A6002F57702886802F5605202409F
:101B1000604842F000529A60DA6822F07802DA6097
:101B20001A6A224002431A621A6A22404FF4005491
:101B3000024359485A62594A9A62DA62D1F8B82087
:101B400022F03F0242F00102C3F8B820D1F8BC20D5
:101B5000002122F03F0242F00102C3F8BC2040F213
:101B6000056219611C661867C3F880205C665867B7
:101B7000C3F884201A684A4822F002021A60494ACF
:101B80009A610222DA61484A42F8041B8242FBD180
:101B90001A6842F001021A603B4B1C6814F0010401
:101BA000FBD1404A0226214620469A6140F2F56266
:101BB000DE61C3F8002240F26642C3F8102240F210
:101BC0009942C3F82022394AC3F8302242F2014236
:101BD000C3F8342240F23542C3F84022344AC3F8F5
:101BE0005022344AC3F85422334AC3F8602242F2E6
:101BF0000122C3F86422FFF779FE0120FFF776FE89
:101C00003046FFF773FE2046FFF782FE45F60D5380
:101C10000546984227D10420FFF768FE4FF40001E3
:101C20002046FFF763FE0120FFF760FE3046FFF716
:101C30005DFE0846FFF76CFEA84212D10420FFF7B4
:101C400055FE10201D491E4B1E4A18700023521AC3
:101C50000093012302EB00521B4800F0F1FB02B09D
:101C600070BD0820EEE71022174802B0BDE87040B2
:101C700000F002BC00801F40F9B00100F910010023
:101C800000FFF07C00C00F4000402A401200FFFF20
:101C900000802A404000008063000200FF000F83A4
:101CA00000432A40F05AF05A00422A409F0418305C
:101CB000EB06180A063201263806180A0080017061
:101CC000B70B01200000007074010120F0B5154B26
:101CD00040204FF480314FF480544FF400554FF4BE
:101CE000404643F242071A6912F0020F03D09E6188
:101CF00059619F61F7E712F4005F01D15D61F2E77E
:101D000012F4805F01D15C61EDE7002AEBDA12F496
:101D1000803F01D09961E6E7520601D45861E2E7BD
:101D2000F0BD00BF00800D403E4AB3EE096A3E4858
:101D3000D2F880309FED3D5A23F0010310B5C2F870
:101D4000803003233A4CC2F890303A4BD3F8E0305D
:101D5000D9B2016007EE901AC3F30B201B0DB8EE49
:101D6000E77A354907EE900A2060F8EEE76A07EE59
:101D7000903A37EE455A314BF8EEE77A37EE466A3D
:101D800077EEE67A81ED006A25EE275AC3ED007AF8
:101D9000D2F88030C5EE065A75EEA65AFCEEE55A2A
:101DA00015EE901ADFED265A37EE657A43EA0153B5
:101DB000C2F8803027EE277A224B66EE277AD2F8D7
:101DC0009011C7EE065A35EEA67ABCEEC77A17EE2A
:101DD000100A87EE867A03EA00430B43C2F890317B
:101DE000D2F8901177EE267AFCEEE77A17EE903A69
:101DF000C3F30B030B43C2F89031D2F8803043F0A9
:101E00000203C2F8803000220F4B83F840200F4BB2
:101E10000F4AC3F840214FF0E0230122C3F8082104
:101E200010BD00BF00810D40AC0201200000AA429D
:101E3000A802012000441F40B0020120B40201208A
:101E40000000B4420000FF0F00E400E00098002012
:101E5000A1C1000070B5104CD4F880300B2B18D104
:101E60004FF0FF330D4A0E4E0E4D116804324B40B9
:101E7000202103F00100013906FB00F080EA530342
:101E8000F7D1AA42F1D1D4F8A800C31A5842584158
:101E900070BD0020FCE700BF00FF272080FF272047
:101EA0002083B8EDA8FF2720184A002370B5C2E9A7
:101EB0002033C2E92233C2E92433C2E92633C2F80F
:101EC000A830BFF34F8F4FF0E0248032C4F8702F5A
:101ED0002032C4F8702FBFF34F8FBFF36F8F0C4ABF
:101EE0000C4E91680C4D91601C2113632846C6F876
:101EF000C03F00F0A1FAC6F8DC0FBFF34F8FC4F863
:101F0000685FBFF34F8FBFF36F8F70BD00FF272057
:101F100000800F4000F02720C0FF27202DE9F04768
:101F20000C46FFF797FF002800F0D081AD4E204609
:101F3000AD494FF03C0800F08FFAD6F8A470AB49D9
:101F40002046B7FBF8F9B9FBF8F5C6F8A45000F045
:101F500097FA18232046B5FBF3F103FB1151C9B2E0
:101F600000F07EFAA249204600F08AFA08FB15919B
:101F70002046C9B200F074FA9D49204600F080FA6C
:101F800008FB19712046C9B200F06AFA204600F039
:101F90007BFA9849204600F073FA1022D6F8981080
:101FA000204600F051FAD6F88850002D56D09249BC
:101FB000204600F065FA1022D6F88810204600F07E
:101FC00043FAEA0740F1D2808C49204600F044FAF7
:101FD0002A0629D58A49204600F052FA1022D6F85E
:101FE0009010204600F064FAD6F890201F2A00F2E4
:101FF000CE808449204600F043FA1022D6F898108B
:10200000204600F055FA8049204600F039FAD6F80B
:1020100098101022204600F04BFA7C49204600F030
:102020002FFA204600F030FAEB0540F1BA807849EB
:10203000204600F011FA2F0409D57649204600F019
:102040001FFA1022D6F89410204600F0FDF9E8039C
:1020500040F1BC807049204600F0FEF9D6F88C5063
:1020600085B16E49204600F00BFA1022D6F88C108C
:10207000204600F0E9F9A80740F12381684920468D
:1020800000F0EAF96749204600F0FAF996ED280ACF
:1020900002212046B7EEC00A00F0C6F96249204688
:1020A00000F0EEF96149204600F0EAF9604B614921
:1020B0000A2218680023B0FBF1F1204600F0E8F98D
:1020C0005D49204600F0DCF95C4B9D68AA0708D505
:1020D0001A6B20465A4B9A420CBF5A495A4900F093
:1020E000BBF96F0703D55949204600F0B5F92E0713
:1020F00003D55749204600F0AFF9E80603D5554906
:10210000204600F0A9F9A90603D55349204600F05E
:10211000A3F96A0603D55149204600F09DF92B0624
:1021200003D54F49204600F097F915F4807500F06B
:10213000E6804C49204600F08FF9404A4A49204643
:10214000936823F48073936000F086F94749204632
:1021500000F082F9464B07221A64464A936B43F01B
:1021600040039363BFF34F8F30BFFDE7AB0701D54B
:1021700041492AE72F0701D5404926E7E80601D55E
:102180003F4922E7A9067FF523AF3E491DE73E4BB5
:102190009A42FFF446AF20339A42BFF442AF3B4924
:1021A0003CE7AF0501D53A4942E7680501D5394911
:1021B0003EE7290501D538493AE7EA0401D5374910
:1021C00036E7AB047FF537AF354931E7A90301D5D1
:1021D000344940E76A0301D533493CE72B0367D50F
:1021E000324938E700FF2720F1800020FE800020E0
:1021F00027860020258100204A810020538100206D
:10220000198200203B8200205A82002099820020FF
:10221000F982002032840020548400203085002080
:10222000398500207C8500209F850020A585002021
:10223000608A002040420F00C385002000800F40CC
:10224000F100AD0B2087002069870020AA870020BD
:10225000D2870020FD870020248800204E8800209F
:102260007088002092880020BC880020DE88002032
:1022700000C00A4000400D407C8100209E8100206B
:10228000C8810020EE810020000C0120B7820020D0
:102290001A830020478300208C830020CC830020F9
:1022A0000084002078840020AB840020D4840020A7
:1022B000EF0101D53349CEE6AD017FF5CFAE32490E
:1022C000C9E669007FF5DEAE3049D8E630492046E0
:1022D00000F0C2F82F49204600F0BEF82E492046F3
:1022E00000F0BAF82D49204600F0B6F82C492046F7
:1022F00000F0B2F82B49204600F0AEF8E4E62A4F91
:10230000D7F8C030C3B3D7F8DC601C21274800F0F1
:1023100093F8864230D1DFF8A080DFF8A090DFF894
:102320008CA00123D7F8C0202E46AB4001351342C4
:1023300020D04146204600F0A3F829460AEB860645
:10234000204600F075F84946204600F099F8002331
:102350000A227168204600F09BF81549204600F0DB
:102360008FF871681022204600F0A2F8114920462B
:1023700000F072F8062DD4D1FFF796FD0120BDE8DC
:10238000F08700BFEB8400201485002060850020CA
:10239000C8850020E0850020298600207386002063
:1023A00098860020E086002000FF2720C0FF27201D
:1023B00030890020DE8600202189002099850020B8
:1023C00008B5FFF747FD003818BF012008BD00BF62
:1023D0000F4BDA6E42F44032DA66DA6E42F4407243
:1023E000DA66A3F5603340F237625A64A0229A6439
:1023F0009A6C1206FCD4074A40F237635364A02358
:102400009364936C13F08003FBD1034A13707047FD
:1024100000C00F4000800C40AE0B0120F8B500BF9B
:10242000F8BC08BC9E4670475FF800F031CB000056
:102430005FF800F027CA00005FF800F0F9C800005C
:102440005FF800F037C100005FF800F0E5C8000059
:102450005FF800F06DAD00005FF800F02D0D00009A
:102460005FF800F0D5C800005FF800F043C9000035
:102470005FF800F0B5BA00005FF800F029A5000091
:102480005FF800F0CDC800005FF800F039CA000026
:102490005FF800F08BCA00005FF800F0E9F0000080
:1024A0005FF800F08D5800005FF800F089C600006A
:1024B0005FF800F0DDC800005FF800F051C30000D5
:1024C0004500000071060000410C0000FD2F0000D7
:0424D000613A00006D
:1024D40000F03F000F4B22F0604221F0604140F4D5
:1024E40089101867C3F88010C3F890201A6F22F47B
:1024F40080521A671A6F002AFCDAD3F8702122F48A
:10250400000222F40042C3F870211A6F22F48032D0
:102514001A67704700800D4080C00F400000000320
:102524001900000010000000E8841F4001000000B2
:10253400FF000000FF000000000000000000000099
:102544001800000010000000E4841F400100000097
:10255400FF000000FF000000000000000000000079
:102564001F0000008158000070C00F40000C0000E4
:102574001100000011000000E0841F400200000070
:102584002C00000012000000E0841F400100000045
:102594001000000011000000DC841F400200000055
:1025A4002D00000012000000DC841F400100000028
:1025B4001E0000007558000070C00F40C0000000ED
:1025C4001200000013000000D0841F40010000002E
:1025D400FF000000FF0000000000000000000000F9
:1025E4001300000013000000CC841F400100000011
:1025F400FF000000FF0000000000000000000000D9
:102604001C0000006958000008034D0054005000ED
:1026140020035400650065006E00730079002000FB
:102624004D005400500020004400690073006B000A
:1026340018035400650065006E007300790064009F
:10264400750069006E006F00040309040902690043
:10265400030100C032080B00020202010009040059
:1026640000010202010005240010010524010101FA
:102674000424020605240600010705820310001045
:1026840009040100020A00000007050302400000DB
:10269400070583024000000904020003060101004B
:1026A40007058402400000070504024000000705F6
:1026B400850320000A09026900030100C032080BE7
:1026C40000020202010009040000010202010005E7
:1026D4002400100105240101010424020605240636
:1026E40000010705820310000509040100020A0025
:1026F4000000070503020002000705830200020030
:102704000904020003060101040705840200020013
:1027140007050402000200070585032000070A06D6
:082724000002EF020140010078
:10272C00000000000000000000000000000000009D
:10273C00000000000000000000000000000000008D
:10274C000548064B1B1AD90F01EBA301491002D007
:10275C00034B03B118477047C09A0020C09A002061
:10276C000000000008B5054B1BB105490548AFF347
:10277C000080BDE80840FFF7E3BF00BF0000000089
:10278C0004020120004C0260002070477047836CEB
:10279C0013B1184607F002BCC06C08B106F0AEBD10
:1027AC007047836C07B553B101220DF10701184630
:1027BC0007F0DAF9012804D19DF8070003E0C06C9A
:1027CC0020B94FF0FF3003B05DF804FB01220DF18E
:1027DC00070105F0A1FEEDE7836C13B1184607F075
:1027EC0086BAC06C08B105F05ABF4FF0FF30704785
:1027FC00836C10B55BB1187810F008001EBFD86957
:10280C005B69C01A0028B8BF6FF0004010BDC06CE7
:10281C000028FBD090F8313013F008030ED0D0E92B
:10282C000413D0E90024881A63EB0403B0F1004FC1
:10283C0073F1000328BF6FF00040E7E71846F5E797
:10284C0008B50CF005FB0A4B1B7803F0FF006BB1CD
:10285C00084B187810F0010008D0074B1868074B8C
:10286C001B68C01A0E2894BF0020012008BD00BFB1
:10287C00D90B0120D80B01204C0901206C09012037
:10288C0000230A220CF091BC13B5044661B1084632
:10289C0001910FF005FA2368024601995B68204606
:1028AC0002B0BDE81040184702B010BDFFF7ECBFF6
:1028BC0010B50446FFF7E8FF2046BDE810400CF0C9
:1028CC004BBC000038B50C4B04460C4D036000F5B6
:1028DC00AC7040F8105C08F057FC04F58470C4F838
:1028EC00F85008F051FC04F1B800C4F8A85008F0F6
:1028FC004BFC204638BD00BF4404002020040020BF
:10290C00836B13B1184607F07FBDC06B08B106F09E
:10291C00A1BE704708B51030FFF7F2FF08BD07B530
:10292C0001228DF807100DF107011030FFF7E8FFB9
:10293C0003B05DF804FB0000094B0022642010B5C5
:10294C00084CC3F840210BF045FC17F0E5FBFFF7F2
:10295C0077FF00B110BD204604F094FDF7E700BFEF
:10296C0000002E40009B00204FF0E023014AC3F8EA
:10297C000C2D70470400FA052DE9F04F6B4E8BB00F
:10298C006B4D33686B4C0133336002F0CFF92B88FD
:10299C00694A8342136838BF288013F0010F09D1AC
:1029AC00664B1B68012B4FF0FF3318BF00232380AD
:1029BC0001231360208800B202F042F920802388A2
:1029CC001B0402D55E4804F05DFD23881BB2002B6E
:1029DC0003DD5C4B0822C3F88420208800B202F08F
:1029EC002DFE208023881BB2002B03DD554B0822C3
:1029FC00C3F88820544B554F1B6807933B68079AC4
:102A0C0003F57A73934271D2514BDFF880A1B3F97D
:102A1C000030DFF87C91DFF87C81002B5BD008A8BC
:102A2C0003F01EFB9DF92430BDF9202004939DF981
:102A3C002730484903939DF92630474802939DF966
:102A4C00253001939DF9233000939DF922300CF031
:102A5C009FFB42494048FFF729FF31683E48FFF78A
:102A6C000FFF3F493C48FFF721FFDAF800103A48C6
:102A7C00FFF706FF3A493848FFF718FFD9F800105E
:102A8C003548FFF7FDFE36493348FFF70FFF2A881C
:102A9C00344931480CF07CFB33492F48FFF706FFD3
:102AAC00D8F800102C48FFF7EBFE30492A48FFF706
:102ABC00FDFE2F4B1C8824B2DCB92E4B2E49DFF8BF
:102ACC0098B053F82420013458460CF061FB082CC4
:102ADC002949284BF5D100233360CAF80030C9F8D6
:102AEC0000302B80C8F80030079B3B600BB0BDE872
:102AFC00F08FDFF894B000242049174B01341846AE
:102B0C005BF8042B0CF044FB182C134B1B49F5D130
:102B1C001B4C18461B4922680CF03AFB6022002122
:102B2C0019480AF091F800232360D4E744FC0020F4
:102B3C00980901209A090120CCC1002060090120CC
:102B4C00009B0020004000424C09012040FC00206A
:102B5C00A00901203B800020648A00205C800020BA
:102B6C006580002060800020648000206780002049
:102B7C00A2090120D80101206C8000207180002066
:102B8C00F801012076800020240201201C02012083
:102B9C00200201206401012010B50B4C0B490C489C
:102BAC00FFF786FE23685BB100F032FB00F072FB8E
:102BBC0002F0B4FF07490648BDE81040FFF778BEA5
:102BCC0001200BF007FBEDE78C070120507E002065
:102BDC00648A0020577E002070B50546D0F88C041E
:102BEC0088B90026D5F8800440B307F03FFE0446B0
:102BFC003EB1D5F88C0488B1036800215B6C984712
:102C0C0060B1204670BD0368DB6B98470028E8D0A4
:102C1C00D5F88C0420B9D5F88C0438B90024F0E729
:102C2C0003681B6C98470028DBD1F4E7036801218B
:102C3C005B6C984706460028D4D1EFE7D5F884049E
:102C4C000028D4D006F033F9D1E700002DE9F34188
:102C5C00454CFF230021454E04F5926584F8BC34A5
:102C6C0084F8C814284609F09DFC2846C4F88C54F6
:102C7C0009F016F8002850D10123D4F88C14204602
:102C8C001A4608F031FB002847D0394B5A68132AF2
:102C9C0051DDD4F88034002B57D0DD69013D32482A
:102CAC00FFF79AFFD4F880340746002B54D09B7959
:102CBC004FF400749C40A4B233684FF00A0800260D
:102CCC0000220093FE232B492B480CF061FA2B4970
:102CDC002948FFF7EBFD2A4633462748CDE9008605
:102CEC000CF06DFA26492448FFF7E0FD3A463346CE
:102CFC002148CDE900860CF062FA22491E48FFF704
:102D0C00D5FD24FA08F11C48FFF7BAFD1E491A48F4
:102D1C0002B0BDE8F041FFF7CBBD336800221B4980
:102D2C000093FE2314480CF033FA134802B0BDE8AC
:102D3C00F0410CF011BA03EB820130688860511C31
:102D4C00596003EB82039C65A3E7D4F88454002DEF
:102D5C00A5D0D5F83054A2E7D4F88444002CABD0DD
:102D6C00D4F83C44A8E700BFBC020120DC9300204F
:102D7C0090070120547C0020648A00206B7C00208A
:102D8C007E7C00208F7C00209E7C0020297C0020F3
:102D9C0038B5304D0024304B4FF47A722F49284609
:102DAC002B602F4BC5F8B020C5F8A830C5F8F8300B
:102DBC00C5F848316FF001036C60C5F8AC4085F87C
:102DCC00B44085F8044185F85441C5F8A041A5F8F4
:102DDC00AC41C5E93F42C5E95342224AC5E96934D1
:102DEC00C5E93C44C5E95044C5E96444C5E96644B9
:102DFC000CF0C6FA1C4B1D4920461D6003F5005310
:102E0C00184AC3F8204483F82444C3F82844184BC8
:102E1C00C3F890141749C3F88044C3F8A4140721CD
:102E2C00C3F88444C3F8A8142921C3F88C4483F84C
:102E3C00AD141149A3F89844C3F89C1483F8B14419
:102E4C0083F8B84483F8C8440C49BDE838400CF00A
:102E5C0097BA00BF9007012044040020A501000090
:102E6C0048050020408E0020009B0020900500208B
:102E7C00BC02012000093D00B00400206D000000E0
:102E8C00F0B54C4D87B04C4840F2EE270AF0FEFAF4
:102E9C004A4E2C68FFF7D4FC90B101F0CDFC0388AE
:102EAC000446012B18D042F20F762B68B3421DD882
:102EBC00FFF7C6FC0028F8D0414B01221A6015E040
:102ECC002B6832781B1B2AB1B3F5FA6FE5D80BF0DF
:102EDC00BFFFDFE7BB42F9E73A4B3B4A1B6812687E
:102EEC009342374A8CBF002301231360374938487B
:102EFC00FFF7DEFC37493648FFF7D8FC2188344809
:102F0C000CF021F932480CF027F9334817F00CF982
:102F1C0018B12F49304817F0FBF802F0DDFDFFF730
:102F2C0095FE2E492A48FFF7C3FC1321122003F00B
:102F3C0077F803F0F9F804A803F092F818B92849C7
:102F4C002348FFF7B5FC9DF917300124BDF910207B
:102F5C0003939DF91630234902939DF915301C48B3
:102F6C0001939DF9133000939DF912300CF010F978
:102F7C0017480CF0F1F81C491548FFF797FC03F0C3
:102F8C00E7F801461248FFF793FC18491048FFF781
:102F9C008FFC02F0DBFB164B16490D481C60FFF74B
:102FAC0087FCFFF7F9FD21460D200BF0DBFC07B089
:102FBC00F0BD00BF4C090120006CDC02D90B0120D4
:102FCC00600901205C090120F0930020E47E0020C0
:102FDC00648A00207A800020588A00208780002094
:102FEC0090800020A5800020CC800020D58000207F
:102FFC008C070120E180002010B504460BF0DEFFA9
:10300C00204610BD08B5234B1A6811691A79224B5A
:10301C00DA77224AA2F50063914238BF134619466B
:10302C00BFF34F8F03F1200003F50062824234BFDF
:10303C00012240224FF0E02003EB4212C0F85C1F4B
:10304C0020319142FAD1BFF34F8FBFF36F8F1449E8
:10305C000A6801320A600022124953F82200043235
:10306C00B2F5007F41F8040BF7D10F4A13881BB25D
:10307C0043B90C4801F06EFE18B90C4A13680133C1
:10308C00136008BD13881BB2012BFAD1054802F05E
:10309C00B7FBF1E7DCF3002000800E400008202095
:1030AC001C02012064FF0020A20901202002012043
:1030BC002DE9F043DFF84C91052205464E49D9F82D
:1030CC00003048465B682DED028B83B098474FF477
:1030DC00807148460CF037F848460CF03DF81A233E
:1030EC002902464801330A46002400FB03FC26460D
:1030FC0001349CFBF2F808F10107402F05DD092C87
:10310C000A44F4D1362BEDD108262A463C493D48D9
:10311C0008F03F08B601CDE900470CF039F807EE8E
:10312C00905AD9F800300322B8EEE77B36495B6839
:10313C0006F4E07633489FED2A6B27EE067B06EE0D
:10314C00904AB8EEE66B27EE067B06EE907AB8EE68
:10315C00E66B27EE067B9FED246B87EE068B98477C
:10316C0002212848B0EE480B0CF072F825480BF001
:10317C00F3FFFDEEC87B42F2107217EE900A02FBD1
:10318C0000F307EE103A9FED1A6BB8EEC77B98EE82
:10319C00067BFDEEC77B17EE901A16F0ADFF1B4AAF
:1031AC00D36923F4406343F40063D361936A23F43B
:1031BC00FF7323F0010343EA080333439362A2F540
:1031CC00A022536823F4002323F0070343F40023C5
:1031DC00536003B0BDEC028BBDE8F083AFF300800D
:1031EC0000000000000070400000000060E3764129
:1031FC00000000000088C340027C002000366E01F5
:10320C00087C0020648A0020257C002000C00F4030
:10321C00194AD36F10B543F44023184CD367D4F834
:10322C008830002B27DB164B1868FFF741FF154B36
:10323C000322C3F82021C3F82821C3F82421C3F8A2
:10324C007C210222C3F894250023C4F8E030042327
:10325C00C4F88C304FF0A063C4F890304FF4803336
:10326C00C4F89430084BC4F89830084BC4F89C3020
:10327C00074BC4F8883010BD00C00F4000403840E8
:10328C00D093002000801F401B000300001F1F1F55
:10329C000100009210B5204C012120460BF040FE9D
:1032AC0023681E4A1E491A6004221E489A8218611D
:1032BC001D48C3E901124FF480620021DA82A2F5A5
:1032CC00A052D9609A61DA8A92B2DA8306229A8382
:1032DC002379164A9B0003F1804303F56C23196094
:1032EC001A602379124A03F1100142F821005A1195
:1032FC0003F01F00012102F1382203F160438140E9
:10330C00403203F564439200116060221A70094B3D
:10331C002279DA7610BD00BFDCF30020A0403840E3
:10332C000000020200002020E508000013000080CD
:10333C000098002000800E4010B5084CD4F888305E
:10334C0023F01043C4F88830FFF7B2FED4F888306D
:10335C0043F01043C4F8883010BD00BF0040384023
:10336C000548002108B50BF0DBFD044A044902486E
:10337C00BDE808400CF004B8DCF30020408E0020BF
:10338C00D90800004368132B10B505DC00EB83044F
:10339C000133A2604360A16510BD4068704700EB2B
:1033AC00810188687047002070470120704710B475
:1033BC0000240C70836B23B118465DF8044B06F0A7
:1033CC0027BBC06B18B15DF8044B04F0A3BF5DF8CC
:1033DC00044B704710B5044600230A220BF0E5FE9F
:1033EC002046BDE810400BF0B7BE13B504460846A6
:1033FC0059B101910EF054FC236802460199204604
:10340C005B6802B0BDE81040184702B010BD000068
:10341C0038B50B4C05460B492046FFF7E6FF0A4929
:10342C002046FFF7E2FF2E2009F0B4FF2946204684
:10343C000BF089FE2046BDE838400BF08DBE00BF76
:10344C00648A0020347F00203F7F002038B5054679
:10345C00FFF7CBFF044628460BF07EFE204438BD18
:10346C00D0F880342BB19B794FF40070984080B227
:10347C007047D0F8840408B1D0F83C047047D0F8F9
:10348C00803413B1D86901387047D0F8840408B17E
:10349C00D0F83004704700EB810138B58D6D2846AB
:1034AC00FFF7EDFF04462846FFF7DAFFA4FB000107
:1034BC0038BDD0F8803430B50D4691B014468BB180
:1034CC00002203F5896102A8134602922A46019153
:1034DC0006F0ACFD019918B1224602A806F0CBFE0D
:1034EC0011B030BDD0F884040028F9D000F5896102
:1034FC002A4602A80E93019105F0FEFA019908B92B
:10350C000020EDE7224602A805F0F4FF0028F7D0D2
:10351C00E6E7836B10B55BB1187810F008001EBF9E
:10352C00D8695B69C01A0028B8BF6FF0004010BDA5
:10353C00C06B0028FBD090F8313013F008030ED08C
:10354C00D0E90413D0E90024881A63EB0403B0F12A
:10355C00004F73F1000328BF6FF00040E7E71846F7
:10356C00F5E7836B33B11B7813F0700F14BF012098
:10357C0000207047C06B0028FBD090F8313013F05E
:10358C00500FF3E7836B23B9C06B003818BF0120D1
:10359C0070470120704738B500F1B805044628463D
:1035AC00FFF7F0FF10B1284607F0EEFD002384F87A
:1035BC00AC31C4F8A83138BD836B13B1184606F092
:1035CC00D3BAC06B08B104F0A7BF4FF0FF307047FF
:1035DC0030B4856B114625B143B9284630BC06F092
:1035EC00B8BBC06B10B130BC05F06EB8002030BC5D
:1035FC00704708B500F58470FFF782F908BD00002C
:10360C0000224FF47A710273C0E90121C0E9122241
:10361C00014A0260704700BF48050020044B10B5FA
:10362C00044640F8103B07F0AFFD204610BD00BF2C
:10363C002004002000EB81014B6DD3F8801400B501
:10364C008FB051B1002301F58961684600930123C5
:10365C0006F0BFFD0FB05DF804FBD3F8840400281E
:10366C00F8D00C91012300F58961684605F0E3FE62
:10367C00F0E7000030B5044691B00D4615481146F0
:10368C000192FFF7E3FE019A04EB85014B6DD3F831
:10369C00801459B1002302A80293012306F015FDF2
:1036AC0010B102A807F014FD11B030BDD3F884049A
:1036BC000028F9D00E910123014602A805F07FFAEB
:1036CC0008B90020F0E702A805F038FD0028F8D072
:1036DC00EAE700BF648A002000EB81014B6DD3F850
:1036EC00801400B58FB059B100236846009306F0E2
:1036FC00ECFC10B1684606F07CFB0FB05DF804FBE7
:10370C00D3F884040028F8D00B460C910146684687
:10371C0005F055FA08B90020EFE7684605F054FDAE
:10372C000028F8D0E9E7000030B500F1B80595B0F5
:10373C0004462846FFF726FFF8B9114A40F2022347
:10374C00A16D684607F03AFE019B04A92846C4F80F
:10375C00AC30029BC4F8B0309DF80C3084F8B43017
:10376C0007F027FD6846FFF759FF2846FFF70AFFC9
:10377C0018B904490448FFF769FE15B030BD00BF05
:10378C005D7F00206B7F0020648A002010B504460A
:10379C00B830FFF7F7FE78B1236820461B6C9847CA
:1037AC000023204684F8AD316FF00103C4F8A43136
:1037BC00BDE81040FFF7B8BF10BD73B504460D4609
:1037CC004FF488760192B834FFF7AEFF06FB05F292
:1037DC0000232046FFF7FCFE324601992046FFF7F6
:1037EC008FF802B070BD10B5D0F8A8410A46611C24
:1037FC00C0F8A8112146FFF7E0FF204610BD0000DD
:10380C000123164A0021F0B5044680F8AC31C5B04E
:10381C000430FFF72FFF002563684FF0FF36104F81
:10382C00C4F89831C4F8A851D4F898319D4201DB02
:10383C0045B0F0BD0023394604A8ADF80E500096F3
:10384C000135CDE901330123ADF80C300EF076F9DA
:10385C0069462046FFF7C7FFE6E700BF5D7F002003
:10386C00EB7B0020F8B54FF488770C461646002108
:10387C003A46054609F0E8F9D4F8A831B3420ED31C
:10388C002046B834FFF750FF07FB06F20023204612
:10389C00FFF79EFE3A4629462046FFF78DFE284646
:1038AC00F8BD30B50446C5B0D4F8B05175B12A4650
:1038BC0021466846FFF7D6FF94F8B4314BB1029B12
:1038CC00C4F8B0319DF81030002BEDD0284645B02F
:1038DC0030BDD4F8B011D4F8A8210131914238BFD1
:1038EC000B46EDE730B5C5B015460A4601466846AD
:1038FC001C46FFF7B7FF04A928460EF01FF9489B9A
:10390C00009A1A609DF80C303BB9019B2360BDF8FE
:10391C000E20499B1A8045B030BD4FF0FF33F5E7C0
:10392C0000B5C5B00A4601466846FFF79BFF0198F3
:10393C0045B05DF804FBD0F8403130B50446C5B055
:10394C00BBB1DD6904F5847007F01EFCD4F8A4212A
:10395C0021466846FFF786FF6A46D4F8A411204634
:10396C000195FFF72AFF6FF00103C4F8A43145B0AD
:10397C0030BDD0F84451002DE4D02D69E2E70000B1
:10398C0070B5C4B0064614460A46014668461D4644
:10399C00FFF768FF00994B1C07D1104920460EF029
:1039AC00CDF8BDF80E0044B070BD2B462246304613
:1039BC00FFF7E6FF20460EF073F9204410F8013CA7
:1039CC002F2B04D02A46054920460DF0DDFD2A4652
:1039DC0004A920460DF0D8FDE3E700BFEB7B0020E7
:1039EC00F0B5ADF2144D4FF4807304460D461746F6
:1039FC006A46FFF7C5FF694606461E48FFF726FDD7
:103A0C002A462146C0A8FFF72DFF4FF48072C4A9A7
:103A1C0080A80DF0EDFD4FF480723946C4A80DF06E
:103A2C00E7FDC0AA29462046FFF7C7FE4FF4807376
:103A3C00294604EB86060DEB03022046FFF7A0FF98
:103A4C0040A90C48FFF702FDB06D40AA6946FFF78C
:103A5C0030FD064650B94FF4807280A9C4A80DF011
:103A6C00C7FDC0AA29462046FFF7A7FE30460DF237
:103A7C00144DF0BD648A0020D0F8A4318B422DE99E
:103A8C00F0410446D4B00E46154603D1D0F8A0310F
:103A9C0093422BD004F584784FF4807314AA3146EA
:103AAC002046FFF76DFF07464046FFF76BFD10B150
:103ABC00404607F069FB04EB870714AA2B466846BF
:103ACC00B96D07F07BFC019B04A94046C4F8FC309F
:103ADC00029BC4F800319DF80C3084F8043107F0D7
:103AEC0068FB6846FFF79AFDC4E9685654B0BDE818
:103AFC00F08170B5044616461D46002204F5847408
:103B0C00FFF7BAFF324600232046FFF761FD049A07
:103B1C0029462046FFF750FD70BD2DE9F041B2F16A
:103B2C00FF3F14BF90468846ADF5487D04460E46CF
:103B3C004246014640A81F46FFF794FE4FF48072A0
:103B4C00CE9988A80DF054FDBDF80E3184A92046FD
:103B5C00ADF81E320023CDF810828593419B8DF871
:103B6C001C72869301238DF81D32FFF73CFE40AA90
:103B7C000546419041462046FFF71FFE87B16A4635
:103B8C0029464FF480732046FFF7FAFE6A46314609
:103B9C00201DFFF74FFD28460DF5487DBDE8F0814F
:103BAC0040F2022229462046FFF766FFF3E790F821
:103BBC00AC310BB9FFF724BE70472DE9F043B2F1DD
:103BCC00FF3F14BF16460E46ADF5097D014604466F
:103BDC0032466846FFF746FE9DF80C30002B62D04B
:103BEC009DF80D50002D5ED104F5847720462A46B1
:103BFC003146FFF741FF3846FFF7C4FC002852D08E
:103C0C00A84644A804F5AC79FFF7FAFC0022394623
:103C1C0048A807F039FB459B48A94846C4F84C31E5
:103C2C00469BC4F850319DF81C3184F8543107F090
:103C3C00C0FA44A8FFF7F2FC4846FFF7A3FC48B3D0
:103C4C00BDF80E3048464496ADF81E314695FFF748
:103C5C0088FC8DF81C01D8B9D4F8903193B1DB698C
:103C6C004FF4807248A9484645938DF81D81FFF7A3
:103C7C009EFB44A92046FFF7B6FD0546484607F0D3
:103C8C0083FABEE7D4F89431002BE9D01B69E7E73F
:103C9C000023E5E701236A46314620468DF80D30B6
:103CAC000195FFF78AFD0DF5097DBDE8F08310B590
:103CBC00B2F1FF3F08BF0A46C6B004460192FFF7B7
:103CCC007CFF0123019A214602A884F8B431FFF746
:103CDC00C9FD039BC4F8B03146B010BD70B590F867
:103CEC00AD4105460E4644B9012380F8AD31FFF7CE
:103CFC005EFFD5F8A8319C4200D370BD22463146F8
:103D0C0028460134FFF759FFF3E770B51546044612
:103D1C000E46FFF74CFF35B12A4631462046BDE82A
:103D2C007040FFF7C4BF31462046FFF7D7FF012391
:103D3C0084F8B451C4F8B03170BD00002DE9F043E3
:103D4C000C46ADF53F7D00EB81010646071D0023B7
:103D5C0002A8896D154607F031FB06A8FFF701FC98
:103D6C00002850D0DFF8AC9016A8FFF749FC2AA821
:103D7C00FFF746FC002206A92EA807F085FA2B9B1C
:103D8C002EA91AA817932C9B18939DF8B4308DF874
:103D9C00643007F00EFA1AA8FFF7F4FB80462AA845
:103DAC00FFF73CFCB8F1000F0ED12A4621463846ED
:103DBC00FFF792FC16A8FFF731FC02A8FFF72EFCC8
:103DCC000DF53F7DBDE8F0830DF5FC784FF4807266
:103DDC001AA84146FFF7EBFA4A464FF480712B467E
:103DEC003EA8CDF800800DF0E5F91AA8FFF7B9FB55
:103DFC003EAA214618B13046FFF7A0FFB7E7384678
:103E0C00FFF738FCB3E72A4621463846FFF732FC69
:103E1C00D3E700BF577F0020F0B5ADF2445D0446F8
:103E2C000D464FF4807344AAFFF7AAFD2A4621469B
:103E3C0084A8FFF717FD44AABDF81E122046FFF711
:103E4C007DFF002384AA294620468DF82032FFF7F7
:103E5C00B4FC849A2146C8A8FFF704FDC99EB5425C
:103E6C0009D1869BC8AA8499C9932046FFF7A5FC63
:103E7C000DF2445DF0BD324621460DF58660FFF72C
:103E8C00F1FCDDF83874BD4206D1869B0DF58662D7
:103E9C003146CDF83834E8E73A46214668463E4686
:103EAC00FFF7E0FC4FF4887269460DF5866008F068
:103EBC00EDFEE6E708B54B1C01D0FFF7ADFF012086
:103ECC0008BD70B500EB8101ADF50A6D05461E46C7
:103EDC00496D0023684607F071FA04A8FFF752FBFE
:103EEC00044650B940F29D20FFF792FA6846FFF75E
:103EFC0095FB20460DF50A6D70BD05EB860540F26D
:103F0C000223DDF8B02814A8696D07F057FA18A839
:103F1C00FFF738FB044650B904A807F035F94FF405
:103F2C002870FFF775FA14A8FFF778FBDEE74FF05F
:103F3C00FF3504A8FFF7EDFA00280FDD4FF40062FF
:103F4C0028A904A8FFF738FB051E07DB2A4628A979
:103F5C0018A8FEF7D5FCB5F5006FEADA04A807F04F
:103F6C0013F918A807F010F9002DDCDA4FF42B70B8
:103F7C000024FFF74DFAD6E72DE9F041ADF5A76D1A
:103F8C00B3F1FF3F14BF9846904604460A460F46CD
:103F9C00014682A886AEFFF765FC42462146C6A8BC
:103FAC00FFF760FC9DF814520DB3BDF816123A469B
:103FBC0020460131FFF701FE9DF81432226820469D
:103FCC00003B0096BDF82613D56A18BF0123424664
:103FDC00A84723680546BDF826235E6D394603467F
:103FEC002046B04728460DF5A76DBDE8F0814FF48B
:103FFC00807231460DF587600DF0FAFABDF8263364
:10400C000DF585612046ADF83634C79BCDF82C54A0
:10401C00CDF83034ADF83454CDF82884FFF7E3FBF9
:10402C00C6AA05464146C7902046FFF7C6FB02AA22
:10403C0039464FF4807342AF2046FFF7A1FC064689
:10404C003A4629464FF480732046FFF799FC02AAA2
:10405C0003463146201D0097FFF733FFC2E72DE9D9
:10406C00F043ADF24C6DB3F1FF3F14BF1F46174642
:10407C0004460A46014682A8FFF7F4FB3A4621465D
:10408C00C6A8BDF816820025FFF7ECFB839E56B937
:10409C002046C6AA3946C795FFF78FFB01200DF2C3
:1040AC004C6DBDE8F083324621460DF58560FFF777
:1040BC00D9FB4FF488720DF585610DF5A76008F0FA
:1040CC00E5FDBDF826330DF5A7612046ADF8463564
:1040DC00CDF84055CDF83875FFF785FB05464FF404
:1040EC00807302AA31462046FFF74AFC42AA4FF4DD
:1040FC00807329462046FFF743FC9DF84415201D8C
:10410C00BDF8463542AA99B11946FFF793FA3246E3
:10411C0041462046FFF751FD2368BDF82623314662
:10412C00D3F8549020462B46C847DDF83064AEE7F0
:10413C000092414602AAFFF7C4FEF6E72DE9F341CF
:10414C00DDF820800E461746194642460193054677
:10415C00FFF770FA019B044648B13A4631462846AF
:10416C00CDF8208002B0BDE8F04100F009B840F273
:10417C00B620FFF74DF9204602B0BDE8F0810000F3
:10418C002DE9F0410E46ADF52A7D00EB8101054687
:10419C00984602A80023496D174607F00FF906A8A8
:1041AC00FFF7F0F90446002859D0424C4FF48072C6
:1041BC0039462AA80DF01CFA2AA80DF071FD2AAB7D
:1041CC00184410F8013C2F2B05D04FF48072214677
:1041DC002AA80DF0D9F94FF48072B0996AA80DF0A5
:1041EC0007FA6AA80DF05CFD6AAB184410F8013CA4
:1041FC002F2B05D04FF4807221466AA80DF0C4F91C
:10420C0016A8FFF7FDF9002206A91AA807F03CF83A
:10421C001AA8FFF7B7F9002841D04FF480722AA9E9
:10422C001AA8FFF7C4F84FF480726AA91AA8FFF70E
:10423C00BEF81AA8FFF795F96AAB2AAA3146009383
:10424C004346C0B12846FFF779FF20BB40F2CD2092
:10425C00FFF7DEF816A80024FFF7E0F903E040F2C0
:10426C00B920FFF7D5F802A8FFF7D8F920460DF5CD
:10427C002A7DBDE8F0812846FFF723FE10B940F2F5
:10428C00D120E5E72AAA31462846FFF7F3F910B901
:10429C0040F2D220DCE716A8FFF7C0F986E716A893
:1042AC00FFF7BCF93A4631462846FFF715FA0446A3
:1042BC00D9E700BFEB7B00202DE9F043ADF68C2D48
:1042CC00B3F1FF3F14BF1F46174604460A460D467E
:1042DC000146C6A8FFF7C6FA3A4621460DF5856099
:1042EC00FFF7C0FAC69A21460DF5A760FFF7BAFA98
:1042FC009DF824336BB19DF8253353B92A46BDF88C
:10430C0026132046FFF759FCC6AA29462046FFF77C
:10431C0054FA4FF48872C6A90DF5C96008F0B6FCC2
:10432C004FF488720DF585610DF5EB6008F0AEFC6D
:10433C004FF4807346AA29462046FFF721FBDDF88F
:10434C003C85A8453AD1C89B4FF0FF380DF5A762C4
:10435C00C6992046CDF83C35FFF72FFABDF8363418
:10436C00C6AA29462046ADF82633DDF82C34C6976C
:10437C00C893CDF82C54FFF720FA0DF58562394619
:10438C002046FFF71AFA4FF48073294686AA204676
:10439C00FFF7F6FABDF85616BDF86637994255D1B7
:1043AC0004EB810386AA46A9986DFFF782F8A8B39F
:1043BC00012630460DF68C2DBDE8F0834246214691
:1043CC0002A8FFF74FFA4FF4887202A90DF6781085
:1043DC0008F05CFC4FF488720DF678110DF668004D
:1043EC0008F054FCDDF88069AE4209D1C89B0DF68B
:1043FC00781241462046CDF88039FFF7DEF9ADE75B
:10440C003246214602A8B046FFF72CFA4FF48872C8
:10441C0002A90DF6781008F039FCDBE740F22E20EB
:10442C00FEF7F6FF0DF6680241462046FFF7C5F988
:10443C000DF5C96229462046FFF7BFF90DF5EB6271
:10444C00394620460026FFF7B8F9B2E79DF8542606
:10445C0004F104098AB986AA4846009246AAFFF7D5
:10446C0030FD064630B146AABDF866174846FFF740
:10447C0001F99EE740F23220D2E786AA4846009224
:10448C0046AAFFF75BFE002892D140F23620C7E720
:10449C0070B500EB81050F4CA86DFEF7F0FF0146DF
:1044AC002046FEF797FFA86DFEF796FB01462046C7
:1044BC00FEF790FFAE6D3046FEF7E1FF0446304646
:1044CC00FEF78AFB241AA86DFEF7CAFFA4FB0001B5
:1044DC0070BD00BF648A002010B504460AF033FE9C
:1044EC002046BDE810400AF037BE10B50446002344
:1044FC000A220AF05AFE2046BDE810400AF02CBEF3
:10450C0013B5044661B1084601910DF0C9FB23684F
:10451C00024601995B68204602B0BDE8104018477E
:10452C0002B010BDFFF7ECBF10B50446FFF7E8FF73
:10453C002046BDE810400AF00FBE000038B508F068
:10454C0019FE0028FBD0094C41F28833084D0D218F
:10455C002246AB60284628230AF0A2FD0023214600
:10456C0023542846FFF7E0FF204638BD660B012098
:10457C00648A002013B50446FFF7E0FF01AA034943
:10458C000CF07CFE019B236002B010BD5980002012
:10459C0013B50446FFF7D2FF01AA03490CF06EFED7
:1045AC00019B238002B010BD5980002010B588B04B
:1045BC0008F0E0FD0028FBD008F016FEC0B264281D
:1045CC0015D1FFF7BBFF07AB05AA514902930DF1BB
:1045DC001303019306AB00930DF112030CF04EFE86
:1045EC000598DDE9061201F04DFD08B010BD342828
:1045FC0009D83028F9D93238022800F28180DFE856
:10460C0000F0818385006138C3B2162BEDD81628D3
:10461C00EBD801A353F820F07F1F0000CB1E000045
:10462C00BB1F0000CB1E0000CB1E0000931F000020
:10463C00C71F0000CB1E0000CB1E0000CB1E0000CD
:10464C00CB1E0000CB1E0000CB1E0000CB1E0000BA
:10465C008B1F0000CB1E0000CB1E00008F1F000024
:10466C00A71F0000551F0000CB1E0000CB1E000032
:10467C00DD1F0000FFF762FF07AB05AA2449029378
:10468C000DF11303019306AB00930DF112030CF023
:10469C00F5FD0598DDE9061201F006FDA5E71D48BC
:1046AC0008B0BDE81040FFF765BF1B48F8E71B4892
:1046BC00F6E71B4C2046FFF75DFF206808B0BDE80D
:1046CC001040FEF739BE174C2046FFF761FF2388D8
:1046DC001B048AD50023238087E7134808B0BDE864
:1046EC001040FFF755BF114C2046FFF751FF2088B3
:1046FC0040B208B0BDE8104001F0E2BA0C48EDE75A
:10470C000C48EBE70C48E9E70C48E7E70C48E5E711
:10471C00457E0020EC930020F09300205C090120E2
:10472C00D0930020460A0120A2090120F893002012
:10473C007809012054090120E0930020E493002023
:10474C00E89300204A0000210AF04EB84A000021EC
:10475C0009F0F2BE184B4FF47A72184810211B68FE
:10476C004380174B1B688380164B1B68C380164B0A
:10477C001B680381154B1B884381154B1B88838158
:10478C00144B1B68C381144B1B680382134B1B68AF
:10479C004382134B1B688382124B1B6893FBF2F30F
:1047AC00C382114B1B880383104B1B88438300234C
:1047BC008383C383FFF7C6BFEC93002078090120E5
:1047CC00F0930020580901205C090120A209012066
:1047DC00460A012054090120E0930020E4930020B4
:1047EC00E8930020D0930020F89300209C0901202E
:1047FC0010B5044608F0BEFC0028FBD008F0F4FC11
:10480C00C3B2772B07D109490948FFF78DFEFFF793
:10481C00A1FF204610BD6D2B03D10648FFF7B8FE53
:10482C00F7E7632BF5D101F051FCF2E7007D002096
:10483C00648A0020A00901202DE9F047364C102194
:10484C00DFF800A12046DFF80081FFF77FFF238807
:10485C00DFF8F8E0012BDFF8F8C0304F304A314E6A
:10486C00314D324832492CD16388B4F80490CAF8DF
:10487C000030304BC3F80090E388C8F8003023892F
:10488C00CEF80030B4F90A30ACF80030B4F90C3082
:10489C003B80E38913604FF47A72238A3360638A16
:1048AC002B60A38A0360E38A5343B4F918200B608E
:1048BC00214B1A80B4F91A20204B1A801648BDE8F7
:1048CC00F08700234FF01409CAF80090C8F80030A4
:1048DC00CEF80030ACF800303B8013600C22238003
:1048EC00326022822A6062821822A4F8029002604E
:1048FC00A282134AE3800A60C0220F49E2820A2294
:10490C0023810A8022830D4A6381A381E381138072
:10491C006383A383E383D1E778090120460A01204E
:10492C0054090120E0930020E4930020E893002038
:10493C00D0930020F0930020F89300209C090120D4
:10494C0000EE0200EC930020580901205C090120C4
:10495C00A209012010B588B008F00CFC0028FBD08F
:10496C0008F042FCC0B2702840F08D8093480AF0E9
:10497C00F3FB93499148FFF7D7FD06A801F070FBB4
:10498C009DF91C30BDF9182004939DF91F308D49F9
:10499C0003939DF91E30894802939DF91D300193B4
:1049AC009DF91B3000939DF91A300AF0F1FB01F0D0
:1049BC00CFFB01468148FFF7B7FD83497F48FFF7DE
:1049CC00B1FD824B7D481968FFF78FFD80497B480C
:1049DC00FFF7A8FD7F4B79481968FFF786FD7E49E4
:1049EC007648FFF79FFD7D4B74481968FFF77DFDF6
:1049FC007B497248FFF796FD7A4B704819680AF0AC
:104A0C00A2FB6E480AF0A8FB77496C48FFF78AFDB9
:104A1C00764B6A48198809B2FFF75EFD74496748FE
:104A2C00FFF780FD734B6548198809B2FFF754FDF9
:104A3C0071496248FFF776FD704B6048198809B2DE
:104A4C00FFF74AFD6E495D48FFF76CFD6D4B5B4807
:104A5C001968FFF74AFD6C495848FFF763FD6B4B2B
:104A6C0056481968FFF741FD69495448FFF75AFD4C
:104A7C00684B52481968FFF738FD67494F48FFF7F4
:104A8C0051FD664B44E0342818D830281AD93238F6
:104A9C00022872D8DFE800F0777D8300162811D841
:104AAC00DFE800F031105F16104765101010101081
:104ABC0010103B101041542510107F006138C3B208
:104ACC00162BEBD908F056FB002873D108B010BD9B
:104ADC0006A801F0C5FA9DF91B30BDF9182000930A
:104AEC004F499DF91A3035480AF052FBEAE706A8FF
:104AFC0001F0B6FA9DF91F309DF91D20009349492C
:104B0C009DF91E30EFE730492C48FFF70BFD2F4B7A
:104B1C0019682A48FFF7E9FCD4E743492748FFF70F
:104B2C0001FD2C4BF4E72C492448FFF7FBFC2B4BE5
:104B3C00EEE72B492148FFF7F5FC2A4B1F48196873
:104B4C000AF001FB1D480AF007FBBBE726491B488E
:104B5C00FFF7E8FC254B198809B21848FFF7BCFC95
:104B6C00B0E723491548FFF7DDFC224BF3E7224958
:104B7C001248FFF7D7FC214BEDE72C490F48FFF704
:104B8C00D1FC204BC4E72A490C48FFF7CBFC1F4B48
:104B9C00BEE728490948FFF7C5FC1E4BB8E7264974
:104BAC006CE7FFF749FE044624490448FFF7BAFCBA
:104BBC002188D2E708F018FB84E700BF648A002044
:104BCC000C7F0020107D0020367D0020EC9300200F
:104BDC00437D0020F0930020507D00205C090120D3
:104BEC005D7D0020D09300206A7D0020460A0120C4
:104BFC00777D0020A2090120847D0020F8930020FD
:104C0C00917D0020540901209E7D0020E09300201E
:104C1C00AB7D0020E4930020B87D0020E8930020B9
:104C2C00C57D0020DF7D0020FA7D0020077E00205E
:104C3C00137E00201F7E00202B7E0020377E00205C
:104C4C0038B5044608F096FA00285DD008F0CCFA86
:104C5C00C1B2732908D100242C492D48FFF762FCFE
:104C6C0001F04CF82A4D4BE065292BD015D83F2983
:104C7C0039D00DD8212939D03A292FD0244D2B6881
:104C8C0028461B68984723492846FFF74DFCE9E75F
:104C9C006229F3D1FDF768FEE4E7722918D0782970
:104CAC0019D06D29EAD11C4D1C492B881848C3F129
:104CBC0001032B80FFF736FCB5F9001014480AF0FD
:104CCC0042FACFE7164905241148FFF72BFCC9E738
:104CDC00FDF732FEC6E700F023FBC3E72046FFF7E3
:104CEC0087FD0446BEE7FFF735FEBBE7FFF75EFC2A
:104CFC00B8E708F079FA2B68C1B205481B689847E9
:104D0C0008F038FA0028F4D1204638BDA57C0020E4
:104D1C00648A0020BF7C0020A0090120B47C002004
:104D2C00AD7C00200048704778090120044B1868BE
:104D3C00044B1B68C01A48BFC03080B2704700BF1C
:104D4C00E8F50020E4F50020014B1868704700BF1F
:104D5C00D4DB0020F8B50124124D134EC0272C6073
:104D6C0001463368114A2344126893FBF7F007FBA2
:104D7C001033934202D100202860F8BD0C4B4FF445
:104D8C000072306803EB402007F080FF3368204648
:104D9C00013393FBF7F207FB1233336000232B60D4
:104DAC00EBE700BFD4DB0020E8F50020E4F50020A1
:104DBC000000007070B5104B0124104E104D346083
:104DCC002A681B689A4202D10020306070BD0D4BDE
:104DDC004FF40072296803EB412107F057FF2B6851
:104DEC00C0222046013393FBF2F102FB11332B60FE
:104DFC0000233360EAE700BFE8F50020D4DB002095
:104E0C00E4F500200000007073B5064668461546B0
:104E1C000C4601F025F9BDF800209DF90330A2F2F3
:104E2C00BC7292B27F2A24D89DF802100C2920D88B
:104E3C00DBB21F2B1DD843EA411343EA42239BB23A
:104E4C009DF805109DF907201729338013D89DF87C
:104E5C0006303B2B0FD8D2B23B2A0CD85B0143EA6D
:104E6C00C12343EA52039BB2238000232B7002B070
:104E7C0070BD0023E4E70023F6E730B4856B1146E0
:104E8C0025B143B9284630BC04F063BFC06B10B1E8
:104E9C0030BC03F019BC30BC704713B5044661B18B
:104EAC00084601910CF0FCFE2368024601995B68F0
:104EBC00204602B0BDE81040184702B010BD10B536
:104ECC000446FFF7EAFF2046BDE810400AF044B95B
:104EDC00836B13B1184605F061B8C06B08B104F0D0
:104EEC000DBA704710B586B00D4C04A801F0B8F897
:104EFC009DF91730BDF91020204603939DF916300B
:104F0C00084902939DF9153001939DF913300093D4
:104F1C009DF912300CF092F9204606B010BD00BF7E
:104F2C00160B0120057B0020F7B52E4C002A0193AF
:104F3C0015462D4BB8BFD51DA0618EB22360A3F5CD
:104F4C007003ED106284A3F2FB73E6826843A360E6
:104F5C0003F15B4315FB06F5414303F5F11304F133
:104F6C002C00E16103F60F4320492584E36003F133
:104F7C008243A3F60243C4F8F83103F10D2303F581
:104F8C007203053363624FF4FC7363601023236177
:104F9C004FF4E673A3620023C4F8FC310123A3820F
:104FAC000CF0CCFDFFF79EFF014604F130000CF035
:104FBC00C5FD019A0E4904F140000CF03FF94A344A
:104FCC00FFF7B0FE00F1200350F8042B984244F890
:104FDC00042BF9D1074908480CF0B0FD014803B087
:104FEC00F0BD00BFF4F7002052494646F47A002089
:104FFC00F97A0020FE7A00205EF80020034B5A68F4
:10500C00C3F8FC01024418465A607047F4F70020BC
:10501C00134B9A6C70B50646CAB1546900252246EA
:10502C002B46104910480AF0B3F8002300220F4811
:10503C00FFF723FF4FF4007231460C48FDF760FC7C
:10504C0022462B460948BDE87040FFF716BFDB6CC3
:10505C0013B1D3E90045E2E71C461D46DFE700BF6C
:10506C0084010120C57B0020648A0020940101206A
:10507C0010B588B0044606A800F0F2FF9DF91F3069
:10508C001E4A204604939DF91E301D4903939DF939
:10509C001D3002939DF91B3001939DF91A3000933A
:1050AC00BDF918300CF0CAF8142301206361154BBC
:1050BC0020621B68A361144B1B68E361134B1B68D4
:1050CC006362134B1B68A362124B1B68E362124BA7
:1050DC001B881BB22363114B1B881BB26363104BE1
:1050EC001B881BB2A3630F4B1B881BB2E3634FF0EF
:1050FC005533C4F8FC3108B010BD00BFF47A002061
:10510C00037B0020C8C10020D0930020EC9300202A
:10511C00F09300205C090120A2090120460A01201D
:10512C00F89300209C090120022810B5044613D1E5
:10513C0009F04EF90F4B1A68B0FBF2F302FB1303A4
:10514C000D4A116813608B4206D20C4B0C4A1C683A
:10515C0011688C4202D80324204610BD1B681468C9
:10516C00B0FBF3F203FB1200A04234BF032404246F
:10517C00F2E700BFEC9300203CFC00205C0901200E
:10518C00F0930020034B1A6882421ABF186001206A
:10519C0000207047348E002010B586B0044604A859
:1051AC0000F05EFF9DF915100846FFF7EBFFE0B12C
:1051BC009DF9133020460E4A02939DF9123003914B
:1051CC000193BDF910300B4900930B4B1B680CF08D
:1051DC0035F80A4809F0C0FF09490848FFF75DFE99
:1051EC0006482146FFF759FE012006B010BD00BF4E
:1051FC00D07B0020D27B0020C8C10020648A002014
:10520C005D800020F0B589B0044606A800F028FFA8
:10521C00154B9DF91F701A889DF91E609DF91D5044
:10522C0012B29DF91B009DF91A10BDF918300091AE
:10523C00CDE90367CDE9010592B90C4A0C4920462A
:10524C000BF0FCFF0B4809F087FF0B490948FFF7EF
:10525C0024FE21460748FFF720FE012009B0F0BDCF
:10526C00024A0649EBE700BFA20901205D7B002042
:10527C005F7B0020648A00205D8000207F7B002003
:10528C00214AB0FBF2F302FB13034FF46162B3FB50
:10529C00F2F31E4A1168994270B503D81C4909688B
:1052AC00994213D81B4D2968994203D81A490968A9
:1052BC0099420BD8166814499E42B0FBF1F40DD8F4
:1052CC00134E36689E4210D8286808E0134A1368BB
:1052DC00B0FBF3F3106803FB000070BD10684FF4D3
:1052EC006163584301FB0400F7E70B4D2E689E42A7
:1052FC00F3D810682B68C01A4FF46163584300F55B
:10530C00A83000F5C070EDE7805101005409012070
:10531C00E0930020E4930020E89300205C09012036
:10532C00034A936B43F04003936330BFFDE700BF28
:10533C0000400D40244B73B59E6BDA6C42F00102B9
:10534C00DA64BFF34F8F9A6B22F002029A639A6B66
:10535C0012F00202FBD19A659A6D002AFCD172B64A
:10536C00194D2A6D6C6D696D2B6DA142F9D19B1A8B
:10537C0018BF0123002BF4D1E40B1448019344EA29
:10538C0042440A22214609F010FF11490F48FFF749
:10539C0084FD2046FFF774FF019B014604460A2258
:1053AC000A4809F002FF094809F0D6FE064BAC6525
:1053BC009A6DA242FCD146F002069E639A6B92074C
:1053CC00FCD562B6FFF7ACFF00400D40648A0020AC
:1053DC006580002030B5044695B0002840F08380ED
:1053EC008148FFF7D9FE00284CD0804D2B68D3F8AC
:1053FC008014B1B123467C4A6846009404F065FEE3
:10540C0070BB2B68D3F88014B9B9D3F88404F0B10D
:10541C000C91012300F58961734A684604F00BF87E
:10542C0014E0D3F884040028EBD00B460C916E4AA0
:10543C000146684603F0C3FBE2E700236A4A01F524
:10544C00896168460093012304F0C3FE40B96849A2
:10545C006848FFF734FD4FF0FF34204615B030BDDF
:10546C002B68D3F8800428B15F4905F0DFFA48B9FE
:10547C006149EDE7D3F884040028F9D05A4903F0C8
:10548C00C3FDF4E75D48FFF7BDFE0028E3D05749A4
:10549C0044F20223594A6846096805F08FFF584CBC
:1054AC00019B04A904F110006360029BA3609DF8AA
:1054BC000C30237305F07DFE6846FEF7AFF8A36C45
:1054CC0063B1504B00221A604F4B1B881BB2002B50
:1054DC0036D04E48FFF7CCFD4C493AE0E36C002B3C
:1054EC00EFD14B49B4E70128EBD0022839D0E31EA9
:1054FC009BB2022BB1D8424B9A6C0AB9DB6C7BB1D4
:10550C00414B1B881BB243B93E4B4FF4C0501B6838
:10551C005843FFF773FDFFF77BFD3E4805F034FE63
:10552C00042C57D13C4C3D4B22681B689A4258D9ED
:10553C0000F0ECFA002000F0DFFA2068FFF7FAFE2A
:10554C00374B012120221868364B1B68FFF7ECFC07
:10555C0001464FF400722F48FDF7D2F9B0F5007FE9
:10556C0036DB4FF4C05230492A48FDF7C9F9B0F583
:10557C00C05F0446234D26D22C491E48FFF78DFCF4
:10558C0000230A2221461B48032409F00EFE284959
:10559C001848FFF782FC0221164809F0D4FD154883
:1055AC0009F0DAFD234A1368013313604FF47A7261
:1055BC002B68B3FBF2F102FB1133002B97D115488A
:1055CC00FFF786FC93E72B68022401332B60E9E795
:1055DC0003248CE7032C04D0174B0822C3F8882033
:1055EC0039E7002439E700BF720A0120D893002064
:1055FC00AC7E0020648A0020B87E0020C20A012004
:10560C008401012000020120A2090120D0D9002030
:10561C00C47E0020940101205C090120F09300203D
:10562C00D0930020C8C10020D0C10020D67E00201D
:10563C00658000206401012000400042431C2DE9DC
:10564C00F041044613D1FFF77FFB05460028FAD141
:10565C002D48FFF7AFFB2C4B2C4A53F8041B42F898
:10566C0025100135082DF8D12046BDE8F081002821
:10567C00FADBFFF759FD0446FFF758FB0B28F3D96B
:10568C00234B1D882DB22DBB1F4FB846FFF75CFB7B
:10569C0006460028FAD101354046FFF78BFB08F58A
:1056AC0000780C2DF2D1194B57F8042B43F8262017
:1056BC000136082EF8D14FF4C0521349154807F0A3
:1056CC00E5FA154B1B68002BCED02046BDE8F04107
:1056DC00FFF780BE0F4E0027B046FFF735FB05469F
:1056EC000028FAD101374046FFF764FB08F5007833
:1056FC000C2FF2D1054B56F8042B43F8252001351D
:10570C00082DF8D1DDE700BFDCDB0020D80101203B
:10571C00A2090120D0C10020D40101200748002398
:10572C004FF47A7206490373C0E90132C0E91233AF
:10573C00044B054A036009F023BE00BF840101201D
:10574C00FD0E000048050020408E00202DE9F84396
:10575C00214B0524214AD3F82032DFF89C9023F00A
:10576C007F43DFF898801E4F13601E4B1E4A1A6051
:10577C00D9F80050FF23002105F5926685F8BC345A
:10578C0085F8C814304606F00DFF3046C5F88C6419
:10579C0006F086FA80B90123D5F88C1428461A46EF
:1057AC0005F0A2FD40B10E481049FFF788FB01201F
:1057BC000F4B1860BDE8F88341463846FFF77FFB76
:1057CC00642008F007FD013CD2D105480949FFF7D8
:1057DC0076FB2046EEE700BF00441F40C8C1002006
:1057EC00648A0020FCFB0020E92600001F7B0020BF
:1057FC00D4010120417B0020D8930020317B002074
:10580C002DE9F74F044608F0E3FD019008F0BCFCCD
:10581C00974B824600221B6854F8221043F8221042
:10582C000132802AF8D1043C03F5FE701A4652F876
:10583C00041F54F8045F9042A1EB05011160F6D1EE
:10584C00002253F8041F0029B8BF49428A42B8BF4E
:10585C000A469842F5D102240121631E01FA03F392
:10586C00934202DC0134182CF7D1824A611EDFF816
:10587C00188252F82130C346013342F821307E4B56
:10588C001A689442424688BF1C60012303FA04F054
:10589C00013852F8041F01330140802B1160F8D1FC
:1058AC00764D4FF4007200214FEA8409284607F028
:1058BC00CBF94FF0A532019B09F107072A6009F1DA
:1058CC0008066F4A07211288C5E9023A44EA0242E7
:1058DC00DBF800306A600122AB61002309EB0200A7
:1058EC002A619C46CBF8003020236861A3EB040EA0
:1058FC0055F821A058F8042BBEF1000F23DD02FA55
:10590C000EF2734642EA0A0245F821200CF1010C12
:10591C00BCF1800FEAD1DFF87481D8F8004004EBB9
:10592C000609B9F1800F26DC5648B200534900EB4A
:10593C00840007F0ABF9C8F800904FF00109484615
:10594C0003B0BDE8F08F01F1010906D14AEA020269
:10595C00202345F821204946D8E7E31A22FA03F31D
:10596C0043EA0A0345F821300EF1200349469A40D8
:10597C0045F82920CAE77A2C24DD00222346414928
:10598C0010467F2B19D9802CC4F18003C8BF00238B
:10599C0023440AB1C8F800303A48FFF7DBF9B0F1FC
:1059AC0000094FEA86023549364818BF4FF0010905
:1059BC0007F06CF9C8F80060C1E741F82300012238
:1059CC000133DEE7C4F17A032C492E4A43EA004343
:1059DC0008466B61234650F804CB42F823C00133D0
:1059EC00802BF8D12748C4F1800A0191C8F8003007
:1059FC00FFF7B0F96B69A7EB0A07B0F10009D346C2
:105A0C004FEA13434FF0070018BF4FF001090199FB
:105A1C001B043B431B4F6B613A460023C8F8003014
:105A2C00013816D113B10623C8F80030D8F800108D
:105A3C00002302EB8102B24511DB803C34445E450D
:105A4C00B8BF00240C44002B3FF479AFC8F80040D9
:105A5C0075E751F8043B47F8043B0123E0E755F8A0
:105A6C002A300AF1010A42F8043B0123E3E700BFA4
:105A7C00F493002024020120F8010120F4F5002009
:105A8C00460A0120E4F30020F4F9002048FC002031
:105A9C0013B5044661B1084601910CF001F9236875
:105AAC00024601995B68204602B0BDE810401847D9
:105ABC0002B010BD064B0522C3F8B4200822C3F86F
:105ACC00A422044A536843F080635360704700BFBC
:105ADC0000801F400080004208B5FFF7EBFF054B2C
:105AEC004FF080624FF47A70C3F88420BDE8084010
:105AFC0008F070BB00800042C1B2212008B508F04C
:105B0C0011FF6420BDE8084008F064BB0021202090
:105B1C0008F008BF0121202008F004BF2DE9F34153
:105B2C000121212008F01EFF0120FFF7E5FF0121D4
:105B3C00202008F017FFFFF7E9FF642008F04AFB6C
:105B4C00FFF7E8FF534A544901A800F00BF94C2128
:105B5C0001A800F019F94C22002800F098804F4958
:105B6C004F480B2409F014FB812302224C2101A87D
:105B7C004C4D00F040F9302307224C2101A800F0D5
:105B8C003AF9002308224C2101A800F034F92246EE
:105B9C00013415F8013B4C21E4B201A800F02BF9BB
:105BAC000F2CF4D1302373224C2101A800F023F9DF
:105BBC00202374224C2101A83B4E00F01CF9E02359
:105BCC0075224C2101A8002500F015F9DFF8EC80B6
:105BDC0025236B224C2101A8344F00F00CF96023D3
:105BEC003B224C2101A800F006F916F8014B882342
:105BFC004C2101A82246013500F0FDF8B8F8003020
:105C0C00621C4C21DBB201A8D2B200F0F4F83B8844
:105C1C00A21C4C21373B01A8D2B2DBB200F0EBF84E
:105C2C00E21C80234C21D2B201A800F0E4F8221D22
:105C3C0000234C21D2B201A800F0DDF8042DD4D100
:105C4C001B491748FFF724FF15224C2101A800F02F
:105C5C00ACF8002301461022114809F0A6FA1048AE
:105C6C0009F07AFA13490E48FFF712FF76224C21FD
:105C7C0001A800F09AF8002301461022084809F008
:105C8C0094FA074809F068FA02B0BDE8F0810A49B5
:105C9C0066E700BFA0860100B48B0020637E002065
:105CAC00648A0020DC7E0020D87E00209C09012024
:105CBC009D7E0020A57E00206D7E0020F8930020A4
:105CCC0073B504460A4E00250A4AE4B20A4901A8F3
:105CDC0000F048F816F8012B013523464C2101320F
:105CEC0001A8D2B200F087F8042DF3D102B070BD38
:105CFC00D87E0020A0860100B48B002013B5144C74
:105D0C0001A8144A144900F02DF820461349FFF756
:105D1C00BFFE15224C2101A800F047F800230146D4
:105D2C001022204609F041FA20460D49FFF7B0FE3B
:105D3C0076224C2101A800F038F8002301461022ED
:105D4C00204609F032FA204609F006FA02B010BDDE
:105D5C00648A0020A0860100B48B00209C7E002069
:105D6C00A47E002037B50C4601600546084601921A
:105D7C0014F0CAF9642008F02DFA2046019902F0BB
:105D8C0015F9284603B030BD08B54900036883F8FF
:105D9C00A510012183F8301183F82F11006801F050
:105DAC00ABFFB0FA80F0400908BD70B5036801265E
:105DBC000D46490083F83061044683F8A51011465E
:105DCC0083F82F61006803681B68984700212068DE
:105DDC0001F092FF08B1002070BD334632462946CF
:105DEC00206801F0FBFF0028F5D0206803685B6990
:105DFC009847C0B2F0E770B5044601251E4603680B
:105E0C004800114683F8305183F82F5183F8A500D0
:105E1C00206803681B6898472068314603681B6834
:105E2C0098472946206801F067FFB0FA80F04009D6
:105E3C0070BD13B5044649B1084601910BF030FF13
:105E4C002368024601995B6820469847204602B0B9
:105E5C00BDE8104009F080B9F0B53C2440F26D1E4D
:105E6C0064264FF4C87CB0FBF4F2B2FBF4F304FBF1
:105E7C00120004FB1322C87118208A71B3FBF0F2D4
:105E8C0000FB1233101D4B710723B0FBF3F3C3EB74
:105E9C00C303C01A087100200446C3B203F2B273E4
:105EAC0013F0030740D193FBF6F506FB1535002DD7
:105EBC003DD193FBFCF50CFB1535002D14BF75463D
:105ECC004FF4B7752C440130A242E6D264200B800B
:105EDC00B3FBF0F600FB16364FF4C870B3FBF0F5CD
:105EEC0000FB153337BB46BB002B40F26D1008BFCF
:105EFC004FF4B770121BDFF858C002440020012881
:105F0C00C5B21DD1FFB906BB002B14BF1C241D2428
:105F1C00944204D80130121B0C28F0D105460135EF
:105F2C0001328D70CA70F0BD40F26D15CAE74FF4A6
:105F3C00B775C7E740F26D10DCE74FF4B770D9E7DF
:105F4C0010F80C40E4E71C24E2E71D24E0E700BF56
:105F5C004B7F0020038840F2B2712E4A4E33DBB2E5
:105F6C00F0B55A4364254FF4C876A1F2B274A3423B
:105F7C002CDC03F2B273642190F90270264EDFF828
:105F8C009CC0B3FBF1F401FB14344FF4C871B3FBA8
:105F9C00F1F501FB1535012103F003038F4227DCDA
:105FAC0090F906304FF4616490F90510C3EB0313BC
:105FBC009B0004FB013390F907100B4490F903107C
:105FCC001648013900FB01301044F0BD8C070DD18F
:105FDC0091FBF5F405FB141424B991FBF6F406FBC4
:105FEC0014141CB902F5A83202F5C0720131BCE7D9
:105FFC00022909D143B904B935B902F5181202F5D1
:10600C006E5201310136C9E796F800E00CFB0E2206
:10601C00F7E700BF8033E1014B7F00208051010086
:10602C0007B50A4814F070F8012308491A460848C5
:10603C00009300F0ADFB38B906490748FFF7F9FEAD
:10604C00012003B05DF804FB0449F6E7748A0020D4
:10605C0084020120837E0020648A0020907E002030
:10606C0007B5019008F0B4F90199FFF7F5FE01208E
:10607C0003B05DF804FB08B5FFF76CFF08F0BAF944
:10608C00012008BD73B50D46144606466846FFF759
:10609C00E7FF6846ADF800608DF802508DF80340BC
:1060AC00FFF7E9FF02B070BD73B50D461446064606
:1060BC006846FFF7D5FF68468DF805608DF80650E9
:1060CC008DF80740FFF7D7FF02B070BD7FB508F021
:1060DC007FF90146114800F087FA04A8FFF7C0FFCA
:1060EC00BDF810209DF8133003929DF812200093F8
:1060FC009DF817100948CDE901329DF815309DF82F
:10610C00162000F01AFA30B90549064807B05DF8B8
:10611C0004EBFFF78EBE07B05DF804FB8402012090
:10612C009F7B0020648A002010B508F051F90446CA
:10613C00064800F0D0F9A04206D9044800F0CBF98B
:10614C00BDE8104008F056B910BD00BF8402012014
:10615C0010B5084800F0ABF9044620B10548BDE87D
:10616C00104000F04FB804490448FFF762FE204687
:10617C0010BD00BF84020120ED7B0020648A00204A
:10618C00014800F003B800BF84020120704738B505
:10619C00A42283680125044683F8A52083F8305196
:1061AC0083F82F51806803681B6898472946A068BC
:1061BC0001F0A2FD2B462A465221A06801F00EFEEA
:1061CC00A06803681B69984728B1A06803685B69DD
:1061DC009847C0B238BDFF20FCE7102108B5FFF787
:1061EC00D6FFC0F3400008BD38B505460221FFF7C5
:1061FC00CEFF04462846FFF7F0FF08B1C4F3401069
:10620C0038BD0000F0B587B00446FFF7E6FF002864
:10621C004AD02046FFF7E8FF6379A27900284FEABD
:10622C00131603F00F03217908BF412706EB8606EE
:10623C00A078657818BF502703EB4603247816091D
:10624C0002F00F02DBB2049706EB860602EB460265
:10625C00260904F00F04D2B206EB860604EB4604C2
:10626C00E4B203942C0905F00F0504EB840405EB50
:10627C004405040900F00F00EDB204EB8404029510
:10628C0000EB4400C0B20190080901F00F0100EBD3
:10629C00800001EB40012448C9B2009123490AF067
:1062AC00CDFF214807B0F0BD6379A2791E0903F038
:1062BC000F03217906EB8606A078657803EB46037D
:1062CC002478160902F00F02DBB206EB860602EB0D
:1062DC004602260904F00F04D2B206EB860604EB44
:1062EC004604E4B203942C0905F00F0504EB840476
:1062FC0005EB4405040900F00F00EDB204EB840437
:10630C00029500EB4400C0B20190080901F00F01A6
:10631C0000EB800001EB40010348C9B20091044935
:10632C000AF08CFFBDE700BF8E0B0120DE7F002042
:10633C000E80002070B5836801251646A422044601
:10634C0083F8305183F8A52083F82F5180680368B7
:10635C001B689847A068314603681B689847294614
:10636C00A06801F0C9FCB0FA80F0400970BD70B5AE
:10637C000546FFF732FF064680BB02212846FFF791
:10638C0006FF00F00F0403091021284603EB8303DA
:10639C0004EB4304FFF7FBFE40F00200E4B21021D3
:1063AC00C2B22846FFF7C6FF34B10C2C02D004D978
:1063BC000C3CE4B2012600E00C240A22B4FBF2F3FC
:1063CC0002FB134202EB0312D2B20EB142F02002D6
:1063DC0028460221BDE87040FFF7ACBF70BD70B518
:1063EC000546FFF7FAFE0646B0B302212846FFF732
:1063FC00CEFE10F0200304464FF0100118BF00F041
:10640C00DF04284608BF1E46FFF7C1FE102100F02E
:10641C00FD022846FFF78EFF04F00F02230903EB61
:10642C00830302EB4302D2B20EB10C32D2B20C2A6D
:10643C0010D0182A08BF0C220A212846B2FBF1F30F
:10644C0001FB1322022102EB0312BDE87040D2B211
:10645C00FFF770BF0022EFE770BDF8B501271446B7
:10646C001E46A4228368054683F8A52083F8307164
:10647C0083F82F71806803681B6898473946A868B1
:10648C0001F03AFC88B9324626443B465221A868B2
:10649C0001F0A4FCA64201D10120F8BDA868036854
:1064AC005B69984704F8010BF4E70020F5E738B571
:1064BC000246072300210446FFF7CFFF054640B1F3
:1064CC002046FFF78AFE20B1A378054623F020036F
:1064DC00A370284638BD042307B51B210DEB03021E
:1064EC00FFF7BBFF019803B05DF804FB70B51446D1
:1064FC001D46A42283680646254483F8A520012264
:10650C0083F8302183F82F21806803681B68984733
:10651C00AC42B06806D1012101F0EEFBB0FA80F07C
:10652C00400970BD036814F8011B1B689847EFE71E
:10653C000A4607230021FFF7D9BF2DE9F0410A25B0
:10654C009DF818809DF81CE004469DF820C0BDF80D
:10655C002460B1FBF5F705FB171101EB0711017076
:10656C00B2FBF5F105FB112202EB0117B3FBF5F2BF
:10657C00477005FB1237B8FBF5F305FB138107EBEE
:10658C00021701EB03118770BEFBF5F305FB13E259
:10659C00C17002EB03120271BCFBF5F205FB12C3D6
:1065AC0003EB0213437106F13003DBB2B3FBF5F2DC
:1065BC0005FB123303EB02138371FFF70EFE28B9B0
:1065CC0021462046BDE8F041FFF7B2BF2046FFF759
:1065DC0006FF21462046FFF7ABFF05462046FFF796
:1065EC00C6FE2846BDE8F081042307B501910DEBEA
:1065FC0003021B21FFF77AFF03B05DF804FB0000D8
:10660C0070B50A4D06462C6804F5FA740E21304616
:10661C00FFF7BDFD030602D52B689C42F6D828680F
:10662C00844294BF0020012070BD00BF4C090120A2
:10663C00F8B5044617460E46FFF7E2FF0F21054654
:10664C002046FFF7A4FD40F008000F21C2B22046FF
:10665C00FFF770FE00283A463146204608BF002559
:10666C00FFF768FE002227212046FFF763FE112268
:10667C0027212046FFF75EFE2046FFF7C1FF0028CA
:10668C004FF00F01204608BF0025FFF780FD021ECA
:10669C004FF00F01204602F0F70208BF0025FFF76C
:1066AC0049FE2046FFF7ACFF002814BF2846002007
:1066BC00F8BD70B504460E46FFF7A2FF0F21054644
:1066CC002046FFF764FD40F008000F21C2B22046BF
:1066DC00FFF730FE002832464FF02501204608BF58
:1066EC000025FFF727FE002227212046FFF722FE78
:1066FC00222227212046FFF71DFE2046FFF780FFB0
:10670C0000284FF02601204608BF0025FFF73FFD6B
:10671C0006462046FFF774FF00284FF00F01204675
:10672C0008BF0025FFF733FD021E4FF00F01204676
:10673C0008BF002502F0F702FFF7FCFD002D14BF87
:10674C003046FF2070BD10B504463721FFF7B1FF6E
:10675C00372100F0DF022046BDE81040FFF768BF8C
:10676C0070B50E4637210546FFF7A3FF20F00C024B
:10677C000446284642EA8601CAB2372142F010028A
:10678C00FFF756FF18B1B4F1FF0018BF012070BD20
:10679C00F8B516460446816001201D469DF8187018
:1067AC0007F018FD2EB12046FFF719FE012007F067
:1067BC0011FD2DB12046FFF7C6FF012007F00AFDA1
:1067CC0037B9204600220E21BDE8F840FFF7B2BDD4
:1067DC0003212046FFF7C4FF0028F2D1F8BD38B5DD
:1067EC0004460D463C222946204608F07BFA002838
:1067FC00F8DD38BD2DE9F0470F4600F5005116467F
:10680C00D1F828341BB900F50872174C22603344B8
:10681C004FF0000800F58469DFF84CA000F508740F
:10682C00C1F82834464501DCBDE8F087DAF80030C1
:10683C00A6EB08023946A9EB030518469542A8BFFA
:10684C0015462A46A84406F021FA03462F442B4449
:10685C009945CAF80030E5D14FF400712046FFF796
:10686C00BEFFCAF80040DDE750FC002070B50546BD
:10687C0000684C1E002603682146DB69984728688F
:10688C00214603681B6A984708B9304670BD01362B
:10689C00F5E70068013A10B50468E46CA04742F2D1
:1068AC00010242F20503002814BF1046184610BD21
:1068BC000068013A10B40468246DA4465DF8044BDA
:1068CC0060470000024B0068196003685B6C184756
:1068DC008807012010B50C4608F0ECF90028FBD015
:1068EC0020463C21BDE8104008F09AB900F5005351
:1068FC0030B493F8245435B1D3F82814114430BC77
:10690C00C3F82814704730BCFFF774BF07B50122D9
:10691C008DF807100DF10701FFF7E8FF03B05DF8E4
:10692C0004FB07B50222ADF806100DF10601FFF7C6
:10693C00DDFF03B05DF804FB38B50C46097805465D
:10694C0099B12046013C0BF0ABF90130C1B228469D
:10695C00FFF7DCFF14F8011F284619B9BDE83840D1
:10696C00FFF7DFBFFFF7DDFFF4E7BDE83840FFF7C7
:10697C00CDBF00004DF20243994202D10149FFF70D
:10698C00DBBF7047B97F00204DF20243994210B52E
:10699C00044618D1FFF7C5FF20464FF6FF71FFF7ED
:1069AC00C0FF20460021FFF7B1FF20460649FFF744
:1069BC00C3FF20460449FFF7BFFF20460021BDE876
:1069CC001040FFF7A3BF10BDB97F002007B504220C
:1069DC0001910DEB0201FFF789FF03B05DF804FB99
:1069EC0070B5044686B064213C4EFFF79AFF062131
:1069FC0020460025FFF7EAFF64212046FFF791FFB0
:106A0C0037492046FFF798FF00212046FFF789FF02
:106A1C0014212046FFF7DAFF013536F8021B204619
:106A2C00FFF77FFF142DF7D104212046FFF7CEFF8F
:106A3C0044F204012046FFF774FF44F2050120469E
:106A4C00FFF76FFF44F20B012046FFF76AFF44F299
:106A5C000C012046FFF765FF01212046FFF7B6FF2A
:106A6C004DF202412046FFF75CFF00212046FFF764
:106A7C00ADFF02212046FFF7A9FF4FF440512046FD
:106A8C00FFF74FFF43F201012046FFF74AFF15497C
:106A9C002046FFF751FF14492046FFF74DFF9FEDAD
:106AAC00130A01AA0221032007F04AFA2A461049C8
:106ABC0001A80AF069FD01A92046FFF73DFF0D4929
:106ACC0001AA0A2331F8020F013B02F8010BF9D19C
:106ADC0001A92046FFF730FF06B070BDF879002001
:106AEC00957F0020A97F0020B97F00201F85CB3F18
:106AFC00AE7F0020FA93002070B504460068002693
:106B0C0003685B689847014605462046FFF75EFF21
:106B1C00AE4200D170BD013620463146FFF756FF1C
:106B2C00F6E7F8B500F500570446164697F82434F6
:106B3C0033B1FFF79BFE01308000C7F82804F8BD85
:106B4C004D1EFFF793FE01462046FFF73FFF2068DE
:106B5C00324629460368DB69984720682946036852
:106B6C001B6A984701460028E9D02046FFF72EFF04
:106B7C00F3E70000F0B50446C7B000680DF10E064F
:106B8C0005AD036806AA019600955F6A04ABB84789
:106B9C00BDF80E1020460131FFF718FF049B43F29D
:106BAC0001012046013318BF0021FFF7BAFE204631
:106BBC000021FFF7B6FE04992046FFF707FF204699
:106BCC000021FFF7AEFE20460021FFF7FFFE204616
:106BDC000021FFF7FBFE20460021FFF7F7FE2046C1
:106BEC000021FFF7F3FE20460021FFF7EFFE2046C1
:106BFC000021FFF7EBFE05992046FFF7E7FE04990D
:106C0C0020464B1C59425941FFF78BFE2046002170
:106C1C00FFF7DCFE20460021FFF7D8FE06A9204630
:106C2C00FFF78AFE20460649FFF786FE20460449F8
:106C3C00FFF782FE02492046FFF77EFE47B0F0BD0B
