:0200000460009A
:100000004643464200000156000000000103030081
:1000100000000000000000000000000000000000E0
:1000200000000000000000000000000000000000D0
:1000300000000000000000000000000000000000C0
:1000400000000000010408000000000000000000A3
:100050000000800000000000000000000000000020
:100060000000000000000000000000000000000090
:100070000000000000000000000000000000000080
:10008000EB04180A063204260000000000000000FD
:10009000050404240000000000000000000000002F
:1000A0000000000000000000000000000000000050
:1000B0000604000000000000000000000000000036
:1000C0000000000000000000000000000000000030
:1000D00020041808000000000000000000000000DC
:1000E0000000000000000000000000000000000010
:1000F0000000000000000000000000000000000000
:10010000D8041808000000000000000000000000F3
:100110000204180804200000000000000000000095
:1001200000000000000000000000000000000000CF
:10013000600400000000000000000000000000005B
:1001400000000000000000000000000000000000AF
:10015000000000000000000000000000000000009F
:10016000000000000000000000000000000000008F
:10017000000000000000000000000000000000007F
:10018000000000000000000000000000000000006F
:10019000000000000000000000000000000000005F
:1001A000000000000000000000000000000000004F
:1001B000000000000000000000000000000000003F
:1001C000000100000010000001000000000000001D
:1001D000000001000000000000000000000000001E
:1001E000000000000000000000000000000000000F
:1001F00000000000000000000000000000000000FF
:10020000FFFFFFFFFFFFFFFFFFFFFFFFFFFFFFFFFE
:10021000FFFFFFFFFFFFFFFFFFFFFFFFFFFFFFFFEE
:10100000D100204327140060000000000000000011
:10101000201000600010006000540160000000001B
:10102000000000600060010000000000FFFFFFFF03
:10103000FFFFFFFFFFFFFFFFFFFFFFFFFFFFFFFFC0
:10104000FFFFFFFFFFFFFFFFFFFFFFFFFFFFFFFFB0
:10105000FFFFFFFFFFFFFFFFFFFFFFFFFFFFFFFFA0
:10106000FFFFFFFFFFFFFFFFFFFFFFFFFFFFFFFF90
:10140000884207D0904205D251F8043B40F8043B93
:101410008242F9D87047884204D2002340F8043B46
:101420008142FBD870472DE9F843654A654B5A6401
:10143000654A1A644FF42A029A63644B9D46BFF3CF
:101440004F8FBFF36F8F00F0DDF9614B08226149C8
:101450006148C3F85421614AFFF7D2FF604A6149ED
:101460006148FFF7CDFF61496148FFF7D4FF4FF0B6
:10147000E0234FF470025F4DC3F8882D00235E4ACD
:1014800045F823200133B02BFAD15C4B80215C4A14
:1014900003F8011B9342FBD14FF0E0204C4C4FF07E
:1014A0008037DFF88891DFF888814FF0FF32C0F88D
:1014B000085DC4F80471C4F80091C4F8F470C4F86D
:1014C000F080D0F8243D4F4E43F4E023C0F8243D93
:1014D000F36923F07F0343F04003F361736A23F061
:1014E0007F0343F040037362364B9A66DA661A67ED
:1014F0005A6700F08AF9444BAB63444BEB636323B8
:1015000000254361032385610361414BC0F8203D01
:10151000D0F8FC3D43F08073C0F8FC3D3D4B1A68A9
:1015200042F001021A605A683B4B1A6000F020FB3F
:10153000C4F804713948C4F80091C4F8F470C4F8D0
:10154000F08000F035FFF36E43F44053F366344B04
:101550001D60C3F80851C3F81851C3F82851C3F8E7
:10156000385103F5A0239A6BD20708D42D4A5A6547
:1015700042F615621A659A6B42F001029A639A6804
:10158000294C42F001129A6000F0B8F900F0B4FE64
:1015900000F012FF00F01AFB00F035F92368132B5E
:1015A000FCD900F06BF82368B3F5967FFBD300F00D
:1015B0002BF900F0DDFE00F017FF30BFFDE700BFA4
:1015C000BFAAAAAA00C00A40070020000080062087
:1015D00000800D40EC2700600000000018050100AD
:1015E000C0260020082D016000000020607C002043
:1015F000C0260020002400204589000000E400E00F
:10160000A0E400E000C00F40B1910000B5910000DF
:1016100000002020001000E0E470002000366E0181
:10162000004008400000C056E87000201B10182041
:101630000C0D111300F03F000F4B22F0604221F01F
:10164000604140F489101867C3F88010C3F89020F7
:101650001A6F22F480521A671A6F002AFCDAD3F844
:10166000702122F4000222F40042C3F870211A6FA4
:1016700022F480321A67704700800D40304B40F6EC
:10168000617210B5C3F8202100F08EFE2D4A2E495C
:10169000D2F8803043F00303C2F8803040F20442B5
:1016A0002A4BC3F860212A4A1068084203D1D3F8B4
:1016B000A8118C071AD04FF000415163D3F8402194
:1016C00042F00202C3F84021204AD2F84031980784
:1016D000FBD44FF0E0234FF400321920C3F88C22E2
:1016E0004FF000421A4B9A6300F032FE184B002173
:1016F0004FF08042154C9A634FF4607219600A23D0
:10170000C4F8A831134B184600F02EFE4FF48102A6
:1017100040F2431302604FF480020264C4F858019F
:101720000D4AC4F848310D4BC3F804224FF0E023B2
:101730004FF40032C3F80C210123C4F8403110BD2E
:1017400000800D4000C00F40001C1E0000002E4015
:1017500000900D40000000200982000000240020BD
:1017600008B50F4B1B6E9B0700D4FBBE72B60D4B2A
:101770000022C3F84021A3F50D130B4A1A64A3F10C
:10178000FF53A3F52B239D46BFF34F8F0748084B0C
:1017900003604FF40013DB699B689847E6E700BFDE
:1017A00000441F4000002E40030020000080202045
:1017B000000012EB074B00040122C3F8A010C3F88D
:1017C000A400C3F8B0205A69D207FCD501225A619F
:1017D000704700BF00402A40084B094AC3F8A000E8
:1017E000C3F8A4200122C3F8B0205A69D207FCD55F
:1017F000D3F80001212280B25A61704700402A408C
:10180000040003007047704770474FF0E023002149
:101810001022C3F8941DC3F89C2D284AC3F8A02DAC
:101820001122C3F89C2D264AC3F8A02D1222C3F81A
:101830009C2D244AC3F8A02D234AC3F89C2D234A8B
:10184000C3F8A02D224AC3F89C2D224AC3F8A02D2C
:10185000214A42F01502C3F89C2D204AC3F8A02D5E
:1018600002F181520D32C3F89C2D1D4AC3F8A02D00
:101870001C4AC3F89C2D1C4AC3F8A02D1B4AC3F870
:101880009C2D1B4AC3F8A02D1A4AC3F89C2D1A4A56
:10189000C3F8A02D0122C3F8942DBFF34F8FBFF3DF
:1018A0006F8FC3F8501FBFF34F8FBFF36F8FD3F805
:1018B000142D42F44032C3F8142D70473F0000103D
:1018C0002500080309001000130020002100020772
:1018D0001400002025000813607C0020090000107F
:1018E00027000B131700004033001013180000608E
:1018F0002F000B07190000702F000B1373B5864BD8
:10190000864A8749C3F85C22C3F86012C3F8642290
:10191000A2F53042834CC3F8682202F5E042C3F8D6
:101920006C22C3F87022C3F87422C3F878221822FC
:10193000DA661A675A679A67DA67C3F88020C3F8CD
:101940008420C3F888200122C3F82C27C3F830274D
:10195000C3F83427C3F83827C3F83C27C3F8502707
:10196000714A936923F0604323F4407343F02043AA
:1019700043F440739361D2F8843043F00C03C2F80F
:1019800084306A4B1A6842F002021A601968684A89
:1019900021F4F14121F073010904090C0A4365495E
:1019A0001A604FF0FF325A6002F57702886802F53C
:1019B00060520240604842F000529A60DA6822F0B9
:1019C0007802DA601A6A224002431A621A6A2240D6
:1019D0004FF40054024359485A62594A9A62DA62F3
:1019E000D1F8B82022F03F0242F00102C3F8B8203B
:1019F000D1F8BC20002122F03F0242F00102C3F8DE
:101A0000BC2040F2056219611C661867C3F880208B
:101A10005C665867C3F884201A684A4822F00202BC
:101A20001A60494A9A610222DA61484A42F8041B64
:101A30008242FBD11A6842F001021A603B4B1C68DB
:101A400014F00104FBD1404A0226214620469A6147
:101A500040F2F562DE61C3F8002240F26642C3F84C
:101A6000102240F29942C3F82022394AC3F83022AA
:101A700042F20142C3F8342240F23542C3F8402218
:101A8000344AC3F85022344AC3F85422334AC3F8C4
:101A9000602242F20122C3F86422FFF78BFE01208C
:101AA000FFF788FE3046FFF785FE2046FFF794FEDD
:101AB00045F60D530546984227D10420FFF77AFEDC
:101AC0004FF400012046FFF775FE0120FFF772FE7C
:101AD0003046FFF76FFE0846FFF77EFEA84212D1A0
:101AE0000420FFF767FE10201D491E4B1E4A187088
:101AF0000023521A0093012302EB00521B4800F00E
:101B00003FFC02B070BD0820EEE71022174802B07B
:101B1000BDE8704000F028BC00801F40F9B0010013
:101B2000F910010000FFF07C00C00F4000402A4087
:101B30001200FFFF00802A40400000806300020086
:101B4000FF000F8300432A40F05AF05A00422A4017
:101B50009F041830EB06180A063201263806180AC8
:101B6000000000700A7C002000000070E06C002083
:101B7000F0B5154B40204FF480314FF480544FF4B2
:101B800000554FF4404643F242071A6912F0020F23
:101B900003D09E6159619F61F7E712F4005F01D1A4
:101BA0005D61F2E712F4805F01D15C61EDE7002A2C
:101BB000EBDA12F4803F01D09961E6E7520601D4D6
:101BC0005861E2E7F0BD00BF00800D403E4AB3EE31
:101BD000096A3E48D2F880309FED3D5A23F0010358
:101BE00010B5C2F8803003233A4CC2F890303A4B1B
:101BF000D3F8E030D9B2016007EE901AC3F30B209E
:101C00001B0DB8EEE77A354907EE900A2060F8EE32
:101C1000E76A07EE903A37EE455A314BF8EEE77A2D
:101C200037EE466A77EEE67A81ED006A25EE275AAE
:101C3000C3ED007AD2F88030C5EE065A75EEA65A8A
:101C4000FCEEE55A15EE901ADFED265A37EE657A6E
:101C500043EA0153C2F8803027EE277A224B66EE22
:101C6000277AD2F89011C7EE065A35EEA67ABCEE66
:101C7000C77A17EE100A87EE867A03EA00430B4311
:101C8000C2F89031D2F8901177EE267AFCEEE77A1E
:101C900017EE903AC3F30B030B43C2F89031D2F81E
:101CA000803043F00203C2F8803000220F4B83F8EB
:101CB00040200F4B0F4AC3F840214FF0E023012290
:101CC000C3F8082110BD00BF00810D40D470002072
:101CD0000000AA42D070002000441F40D8700020AD
:101CE000DC7000200000B4420000FF0F00E400E0C0
:101CF00000240020F18B000070B5104CD4F8803027
:101D00000B2B18D14FF0FF330D4A0E4E0E4D1168BC
:101D100004324B40202103F00100013906FB00F0A2
:101D200080EA5303F7D1AA42F1D1D4F8A800C31A2C
:101D30005842584170BD0020FCE700BF00FF27203B
:101D400080FF27202083B8EDA8FF27200F4A00231B
:101D5000C2E92033C2E92233C2E92433C2E926337F
:101D6000C2F8A830BFF34F8F4FF0E0220849C2F805
:101D7000701F2031C2F8701FBFF34F8FBFF36F8FFA
:101D8000044A916891601363704700BF00FF2720E9
:101D900080FF272000800F402DE9F0470C46FFF719
:101DA000ABFF002800F0D081AD4E2046AD494FF08A
:101DB0003C0800F015FBD6F8A470AB492046B7FBF1
:101DC000F8F9B9FBF8F5C6F8A45000F001FB1823A8
:101DD0002046B5FBF3F103FB1151C9B200F0DCFA68
:101DE000A249204600F0F4FA08FB15912046C9B23A
:101DF00000F0D2FA9D49204600F0EAFA08FB19717A
:101E00002046C9B200F0C8FA204600F0B5FA984959
:101E1000204600F0DDFA1022D6F89810204600F097
:101E20009FFAD6F88850002D56D09249204600F0EF
:101E3000CFFA1022D6F88810204600F091FAEA076F
:101E400040F1D2808C49204600F0CAFA2A0629D5F2
:101E50008A49204600F0BCFA1022D6F8901020469D
:101E600000F092FAD6F890201F2A00F2CE80844922
:101E7000204600F0ADFA1022D6F89810204600F067
:101E800083FA8049204600F0A3FAD6F89810102271
:101E9000204600F079FA7C49204600F099FA204665
:101EA00000F06AFAEB0540F1BA807849204600F06C
:101EB00097FA2F0409D57649204600F089FA1022B6
:101EC000D6F89410204600F04BFAE80340F1BC80AD
:101ED0007049204600F084FAD6F88C5085B16E49DE
:101EE000204600F075FA1022D6F88C10204600F03B
:101EF00037FAA80740F123816849204600F070FABC
:101F00006749204600F064FA96ED280A022120462F
:101F1000B7EEC00A00F054FA6249204600F058FAC1
:101F20006149204600F054FA604B61490A22186862
:101F30000023B0FBF1F1204600F032FA5D49204663
:101F400000F046FA5C4B9D68AA0708D51A6B20463C
:101F50005A4B9A420CBF5A495A4900F041FA6F074E
:101F600003D55949204600F03BFA2E0703D55749BF
:101F7000204600F035FAE80603D55549204600F022
:101F80002FFAA90603D55349204600F029FA6A061C
:101F900003D55149204600F023FA2B0603D54F49BB
:101FA000204600F01DFA15F4807500F0E6804C49DB
:101FB000204600F015FA404A4A492046936823F427
:101FC0008073936000F00CFA4749204600F008FA4D
:101FD000464B07221A64464A936B43F040039363CF
:101FE000BFF34F8F30BFFDE7AB0701D541492AE76B
:101FF0002F0701D5404926E7E80601D53F4922E7EA
:10200000A9067FF523AF3E491DE73E4B9A42FFF4F8
:1020100046AF20339A42BFF442AF3B493CE7AF059D
:1020200001D53A4942E7680501D539493EE7290516
:1020300001D538493AE7EA0401D5374936E7AB0418
:102040007FF537AF354931E7A90301D5344940E77A
:102050006A0301D533493CE72B0367D5324938E79A
:1020600000FF272053120020601200208917002053
:1020700087120020AC120020B51200207B13002034
:102080009D130020BC130020FB1300205B140020D4
:1020900094150020B6150020921600209B160020F3
:1020A000DE1600200117002007170020C01B0020AB
:1020B00040420F002517002000800F40F100AD0BBB
:1020C00082180020CB1800200C19002034190020A1
:1020D0005F19002086190020B0190020D2190020B5
:1020E000F41900201E1A0020401A002000C00A40E7
:1020F00000400D40DE120020001300202A130020B3
:1021000050130020607C0020191400207C14002053
:10211000A9140020EE1400202E15002062150020C6
:10212000DA1500200D16002036160020EF0101D52B
:102130003749CEE6AD017FF5CFAE3649C9E6690035
:102140007FF5DEAE3449D8E63449204600F048F940
:102150003349204600F044F93249204600F040F966
:102160003149204600F03CF93049204600F038F96A
:102170002F49204600F034F9E4E62E4FD7F8C0305E
:10218000002B3FD0DFF8C080DFF8C090DFF8B4A0AC
:102190000123D7F8C0202E46AB400135134220D092
:1021A0004146204600F014F929460AEB86062046EF
:1021B00000F012F94946204600F00AF900230A22ED
:1021C0007168204600F0ECF81B49204600F000F949
:1021D00071681022204600F0D7F81849204600F018
:1021E000FFF8062DD4D1164B0022C3F8C02FBFF341
:1021F0004F8F4FF0E023134AC3F8682FBFF34F8F80
:10220000BFF36F8F0120FFF7A1FDBDE8F08700BF8E
:102210004D16002076160020C21600202A17002036
:10222000421700208B170020D5170020FA17002036
:102230004218002000FF2720921A0020401800209A
:1022400000F02720C0FF2720831A0020FB16002063
:102250007CE508B5FFF750FD003818BF012008BD28
:10226000B1F5607F28BF4FF46071F8B505460E46A2
:1022700072B61B4B0024702218602146194B1A4875
:102280001C8000F071F82346174901249E4216D1A4
:10229000002202354FF4827193421CD1134B1C78FB
:1022A0005CB9082000F058F88022114902710460DE
:1022B000104A00F089F800F06BF862B6F8BD5809D2
:1022C00003F01F02013351F8207004FA02F23A437E
:1022D00041F82020DAE701FB02F02A520132DBE765
:1022E000B468002034710020BC680020F97100201F
:1022F000359400001B1001000F4BDA6E42F440329F
:10230000DA66DA6E42F44072DA66A3F5603340F2C0
:1023100037625A64A0229A649A6C1206FCD4074A67
:1023200040F237635364A0239364936C13F08003EB
:10233000FBD1034A1370704700C00F4000800C406F
:1023400001720020F8B500BFF8BC08BC9E4670477B
:102350005FF800F0198900005FF800F01FA000008E
:102360005FF800F0EB9200005FF800F029750000C4
:102370005FF800F049B100005FF800F09B9E00009C
:102380005FF800F0878B00005FF800F0CF9200004C
:102390005FF800F0A19700005FF800F0C79200001E
:1023A0005FF800F0DD9E00005FF800F0459000004F
:1023B0005FF800F0597D00005FF800F0C58D000067
:1023C0005FF800F0F19E00005FF800F0C1A000008F
:1023D0005FF800F0BF9200005FF800F0899E0000F7
:1023E0005FF800F0D79200005FF800F0259400003D
:1023F00045000000C5050000550C0000411000001C
:04240000A91B000014
:1024040070C00F40C0000000120000001300000064
:10241400D0841F4001000000FF000000FF00000006
:102424000000000000000000130000001300000082
:10243400CC841F4001000000FF000000FF000000EA
:1024440000000000000000001C000000310C00002F
:1024540070C00F40000C00001100000011000000CB
:10246400E0841F40020000002C0000001200000065
:10247400E0841F4001000000100000001100000073
:10248400DC841F40020000002D0000001200000048
:10249400DC841F40010000001E0000003D0C000011
:1024A40080C00F400000000319000000100000006D
:1024B400E8841F4001000000FF000000FF0000004E
:1024C40000000000000000001800000010000000E0
:1024D400E4841F4001000000FF000000FF00000032
:1024E40000000000000000001F000000490C000074
:1024F40024035400650065006E0073007900200019
:102504004D004900440049002F004100750064005B
:1025140069006F0018035400650065006E007300C5
:1025240079006400750069006E006F0004030904FB
:1025340009025501060100C032080B000202020123
:102544000009040000010202010005240010010535
:102554002401010104240206052406000107058262
:102564000310001009040100020A0000000705031B
:102574000240000007058302400000090402000233
:1025840001030000072401000125000624020101C3
:1025940000062402020200092403010301020100CF
:1025A400092403020401010100090504024000009A
:1025B4000000052501010109058402400000000016
:1025C4000525010103080B030301010000090403AD
:1025D4000000010100000A240100013E000204057C
:1025E4000C24020102060002030000000924030275
:1025F40001010001000C2402030101000203000098
:10260400000A240631030101020200092403040222
:10261400060031000904040000010200000904045A
:10262400010101020000072401020301000B24023E
:10263400010202100144AC0009058509B40001003F
:102644000007250100000000090405000001020044
:10265400000904050102010200000724010303012B
:10266400000B2402010202100144AC000905050517
:10267400B400010086072501000000000905861149
:10268400030001050009025501060100C032080BD0
:102694000002020201000904000001020201000517
:1026A4002400100105240101010424020605240666
:1026B40000010705820310000509040100020A0055
:1026C4000000070503020002000705830200020060
:1026D400090402000201030000072401000125008F
:1026E4000624020101000624020202000924030157
:1026F4000301020100092403020401010100090588
:1027040004020002000000052501010109058402FC
:1027140000020000000525010103080B0303010169
:1027240000000904030000010100000A2401000163
:102734003E000204050C240201020600020300000C
:10274400000924030201010001000C240203010119
:102754000002030000000A24063103010102020002
:1027640009240304020600310009040400000102E4
:10277400000009040401010102000007240102030E
:1027840001000B2402010202100144AC000905857A
:1027940009B4000400000725010000000009040535
:1027A4000000010200000904050102010200000703
:1027B4002401030301000B2402010202100144ACB2
:1027C4000009050505B40004008607250100000082
:1027D400000905861104000407000A060002EF023E
:0827E4000140010001000000AA
:1027EC0000000000000000000000000000000000DD
:1027FC0000000000000000000000000000000000CD
:10280C000548064B1B1AD90F01EBA301491002D046
:10281C00034B03B118477047C0260020C026002088
:10282C000000000008B5054B1BB105490548AFF386
:10283C000080BDE80840FFF7E3BF00BF00000000C8
:10284C000C6D00200060016000207047006910B121
:10285C000368DB6818477047006910B103681B698F
:10286C0018477047006910B103685B6918474FF04F
:10287C00FF307047006910B103689B6918477047B7
:10288C0007B5006920B94FF0FF3003B05DF804FBC9
:10289C00036801220DF107019B6898470028F2D0CC
:1028AC009DF80700F1E707B500698DF8071028B10E
:1028BC00036801220DF10701DB68984703B05DF84E
:1028CC0004FB0000094B10B504460360006958B1C5
:1028DC004368013B43603BB90368DB6A9847206956
:1028EC0010B103685B689847204610BDB8060020FD
:1028FC001E4B70B51A6819791D4B1269D9771D4B8F
:10290C009A420AD21C4A127822B14FF0E02240219E
:10291C00C2F8081203F5007402E01C46A3F500731C
:10292C00164A116801B3164A1268EAB1154D288887
:10293C00402819D8861C403001EB4601288002EB58
:10294C004602114D53F8080BB5F900609C4240FA51
:10295C0006F021F8020B53F8040CB5F9006040FAAC
:10296C0006F022F8020BEDD870BD00BF8C69002078
:10297C0000800E4098660020FE71002084690020C3
:10298C00886900203A71002084210020F8B50646A1
:10299C0009F078F9044630B309F074F9054618B912
:1029AC0020462C4609F0B6F972B6184B1A887F2AC5
:1029BC001BD9174A17681460164A14681560002250
:1029CC001A8062B63946304609F0CCF9384609F01F
:1029DC00A1F930460122214609F0C4F92046BDE890
:1029EC00F84009F097B90546DEE734B108490A68A2
:1029FC002AB90C6007491A800D6062B6F8BD62B640
:102A0C00204609F087F92846E9E700BF3A71002013
:102A1C00846900208869002008B508F069FC002151
:102A2C0008BD10B50446FFF74DFF1421204609F0F0
:102A3C00E8FE204610BD10B5044609F009F8204602
:102A4C0010BD13B50446084601910AF0E9FF23684E
:102A5C000246019920465B689847204602B0BDE8C3
:102A6C00104009F00ABE00000E4B10B5044610468B
:102A7C0023600023617222618A0023721946E3608D
:102A8C0007F042F9084A136833B914600023204652
:102A9C0063616360A37210BD1A465B69002BFBD1A6
:102AAC005461F3E7EC050020B8680020000000003A
:102ABC0007EE900A830242F21072B8EEE77B9FEDAC
:102ACC00246B10B5284C27EE067BB1EE006B94FB03
:102ADC00F3F4631C27EE067B04F03F0406EE103A79
:102AEC00B8EEC66B9FED1C5B27EE067B87EE056B85
:102AFC009FED1B5BFDEEC67B17EE900A02FB00F30D
:102B0C0007EE103AB8EEC77B96EE057BFDEEC77B61
:102B1C0017EE901A10F0DCF8144AD36923F44063D2
:102B2C0043F40063D361936A23F4FF7323F001032E
:102B3C00234343F0C0039362A2F5A022536823F40D
:102B4C00002323F0070343F40023536010BD00BFA0
:102B5C0000000000000070400000000060E37641BF
:102B6C00000000000088C34000B29F2600C00F4048
:102B7C001A4A38B5D36F1A4C43F44023D367A36871
:102B8C00002B2ADBD4F88830002B26DB4AF6444095
:102B9C000025FFF78DFF134B032201204FF48031EA
:102BAC00C3F82021C3F82821C3F824210E4B256635
:102BBC000E4AE06023610E4B6161A261E361C4F8CF
:102BCC00E050C4F88C0000F1E060C4F89000C4F848
:102BDC009410C4F89820C4F89C3038BD00C00F4045
:102BEC000040384000801F40010000471B1F0100BF
:102BFC00001F1F1F38B5254C05460121204608F043
:102C0C00D9FE2846FFF7B4FF214B032204212148AB
:102C1C00C3F87C210222C3F8942523681E4A9982AA
:102C2C001A601E4A18611E48C3E901214FF48071D5
:102C3C0000229861D982D9830621DA60998323799D
:102C4C009B0003F1804303F56C231A60154A1A604C
:102C5C00154B164AC3F8882009F092F9144B2279C7
:102C6C001870144B02F110011348DA76134B43F829
:102C7C0021005311012102F01F0203F1382301FA44
:102C8C0002F240339B001A6038BD00BF8C690020F3
:102C9C0000801F4098640020A040384000000202D1
:102CAC0000FCFFFF13000080004038400100009240
:102CBC00FE71002000800E40110100000024002055
:102CCC00F8B5041E18DB0D4800F071F9092813DD66
:102CDC000B4E0025094F3846013500F093F94FF49F
:102CEC0080720146304607F031F8384600F0A7F9FB
:102CFC000A2D06F58076EED12046F8BD606D0020D9
:102D0C000272002030B585B01D4C00F095FA3C23C2
:102D1C0090FBF3F202FB13001A4B1A68002A03DD36
:102D2C008242C4BF032222801860B4F90000FFF76E
:102D3C00C7FF1549154A0B68208010681B1AB3F59C
:102D4C007A7F1AD90B68124C1360124B1D686A1CDF
:102D5C001A6000F071FA104A034610481268B2F972
:102D6C0002100291B2F900200D49019222680092E2
:102D7C002A4609F096FC0023236005B030BD00BF45
:102D8C003C710020A4690020E8700020A06900209C
:102D9C00D06C00209C69002080210020C41B0020E6
:102DAC00101200202DE9F743DFF804810024344988
:102DBC0042463448344E09F0CDFD0022334F3046A4
:102DCC00334D1146DFF8EC90FFF74EFE314B304699
:102DDC003360FFF70FFF07F1180202213846FFF7A7
:102DEC0043FE2D4B38463B6009F0A4FA05F118025E
:102DFC0001212846FFF738FE284B85F8644322460C
:102E0C0085F8654331462B6048462B46C5F8604330
:102E1C0085F86643224D009409F040F84846DFF8E7
:102E2C0098904246294609F095FD3B46224631468C
:102E3C004846009409F032F842462946484609F0C3
:102E4C0089FDDFF8789001223B46314648460092D6
:102E5C0009F024F842462946484609F07BFD114802
:102E6C004FF47A73424610498360104B047104731B
:102E7C000360046103B0BDE8F04309F06BBD00BF13
:102E8C00570200008C690020B86C0020F070002004
:102E9C00606D002008070020F805002004060020C3
:102EAC0079970000F46C0020E5000000B8060020C3
:102EBC00F01B0020246D0020386D00204C6D00208C
:102ECC0070B51E4800F0C2F91D4D1E481E4E07F08D
:102EDC0033FB1E4C3C211E480FF0FEFE08F0F6FCA6
:102EEC002B78002BFAD03378DB07F7D5194A2368F7
:102EFC0012689B1A0E2BF1D917480FF0E1FE18B18E
:102F0C00164915480FF0E0FEFE21154801F006FAAF
:102F1C0040B9FE21124801F001FA18B911490F48C5
:102F2C00FFF78FFD104C11490C48FFF78AFD204626
:102F3C0000F048F8012384F8663370BD39020000B4
:102F4C00337C002000366E01327C0020E8700020BB
:102F5C000000202020710020B81B0020C41B002082
:102F6C00085B002028120020606D00204512002014
:102F7C0010B50021044608F009FFB8B194F8663387
:102F8C001BB9BDE8104008F0C5BE94F8643394F842
:102F9C0065130133D12BA8BF00239942F1D0991DA1
:102FAC00DBB204EB8101486084F8643310BD90F807
:102FBC00641390F86523CBB29142D0B238BFD133B1
:102FCC00181A704738B50546D0F8600320B108F0E0
:102FDC00A1FE0023C5F8603395F86543E4B295F87B
:102FEC006433A34203D1E4B285F8654338BD0134A0
:102FFC00D12C28BF0024A31D05EB8303586808F0CF
:10300C0089FEECE7D0F8602310B5B2B990F86513DF
:10301C0090F86443CBB2A1420DD00133D12B28BF21
:10302C0000239A1DDBB200EB8202526880F86533F4
:10303C00C0F860230432104610BD0022FBE710B527
:10304C000446D0F8600320B108F064FE0023C4F8F5
:10305C00603310BD2DE9F0413C2440F26D184FF067
:10306C00640C4FF4C87EB0FBF4F3B3FBF4F104FB37
:10307C00130004FB1133107018205370B1FBF0F3E4
:10308C0000FB131107209170191DB1FBF0F0C0EB80
:10309C00C000091A002001310446D170C6B206F2F4
:1030AC00B27111F0030741D191FBFCF50CFB151526
:1030BC00002D3ED191FBFEF50EFB1515002D14BF16
:1030CC0045464FF4B7752C440130A342E6D2642038
:1030DC009671B1FBF0F600FB16164FF4C870B1FBFD
:1030EC00F0F500FB15113FBB4EBB002940F26D10F3
:1030FC0008BF4FF4B7701B1BDFF858C00344002007
:10310C000128C5B21ED107BB0EBB002914BF1C245D
:10311C001D249C4204D801301B1B0C28F0D1054601
:10312C000135013355711371BDE8F08140F26D1515
:10313C00C9E74FF4B775C6E740F26D10DBE74FF403
:10314C00B770D8E710F80C40E3E71C24E1E71D2426
:10315C00DFE700BF3811002070B5074C06460D465E
:10316C00D4E900238B4208BF824204D0034AFFF704
:10317C0071FFC4E9006570BDF85A00208871002009
:10318C00074B084A1860084B1B6803441360022263
:10319C00064B1A70064B1A68064B1A60704700BF34
:1031AC00A068002094640020D41B0020F77100203C
:1031BC00E87000208C640020F8B518480025184CE5
:1031CC0003682268174F3968561CC91AB1F57A7F03
:1031DC0013D20DB103602260134D23682A689A4202
:1031EC0008D8124B1B682BB1984750EA010309D041
:1031FC00FFF7C6FF20680021F8BD03F57A7332464D
:10320C000125E0E70A4A236812681344094A2B6037
:10321C001378003B18BF01231370EBE78C6400207C
:10322C00A0680020E870002094640020086D002045
:10323C00D41B0020F771002008B5FFF7BDFFFFF786
:10324C008BFF014B187808BD88710020034B186068
:10325C00034B1A68034B1A60FFF7AEBF086D0020D2
:10326C00A06800209464002090F8A32090F8A2009D
:10327C00101A704790F8A23090F8A3209A4281BFA0
:10328C005A1C80F8A220C018807E98BF4FF0FF30E7
:10329C00704790F8A23090F8A3209A4286BFC018CD
:1032AC00807E4FF0FF3070477047B0F830312BB153
:1032BC0090F82F31882B03D901230371002070471C
:1032CC005A1C80F82F21184480F8A5100120704753
:1032DC0038B5B0F8303105461446ABB190F82F3103
:1032EC00C3F18902944282BF01201446287105F172
:1032FC00A5002246184406F029FD95F82F312344E9
:10330C0085F82F31204638BD1C46FBE738B54FF405
:10331C007A73002504468360154B057103600573B1
:10332C0005764576C0E90412294688221A3006F043
:10333C00EBFC8922294604F1A50084F8A25084F8FC
:10334C00A35084F8A45006F0DFFC204684F82E51DC
:10335C0084F82F5184F8305184F8315184F832516B
:10336C0084F8335184F83451C4E94E5538BD00BF4C
:10337C00C407002038B503690446D3F8145115F47A
:10338C00706201D0C3F81421A8070FD5D3F87021AF
:10339C00110444BF0023A4F8A23094F8A330872B67
:1033AC009FBF591C1B1984F8A3109A76EA071DD5E8
:1033BC0094F830314BB9D4F8383103B19847002325
:1033CC0084F82E31012384F8303194F82E3194F89E
:1033DC002F112269994285BF591C1B19002384F8AF
:1033EC002E1188BF93F8A530C2F86031AB050DD50E
:1033FC0094F8A30018B1D4F83C3103B198470023DA
:10340C00A4F8A230A4F82E3184F8303138BD000075
:10341C000148FFF7AFBF00BFC86000200148FFF7AD
:10342C00A9BF00BF086200200148FFF7A3BF00BF7F
:10343C004863002010B5094C094922460948FFF79A
:10344C0065FF04F1500208490848FFF75FFF04F1DB
:10345C00A00207490748FFF759FF10BD042400607C
:10346C0000003F40C860002000803F400862002000
:10347C0000C03F4048630020C38B89B21B0406D4B4
:10348C00C1F30E01C183C38B9BB2C3827047C38B44
:10349C00C1F3080103F47E430B43C383F3E738B550
:1034AC0000250446C0E90012142229460561C0E932
:1034BC000255104406F028FC1422294604F1280079
:1034CC0006F022FC2046A587C4E91055C4E9125524
:1034DC0038BD000043682DE9F047D3F80080B827C9
:1034EC005968D8F8002022EA01027B49C8F800206C
:1034FC008A6922F0E05222F0300242F0006242F07F
:10350C0010028A61057C754A03EB050C03EB8505FB
:10351C009CF8101002EB011189680F60447C1E1995
:10352C000A3496F8241002EB011189680F6090F8A8
:10353C0012A003EB0A0E9EF8389002EB0919D9F889
:10354C000890C9F800705968D8F800700F4303EB65
:10355C008A01C8F800709CF810706D6902EB0717AF
:10356C007F683D6096F8245053F8244002EB051513
:10357C006D682C609EF8384002EB04125268C96BDF
:10358C0011609A6C9EF8441011601A6A9CF81C1019
:10359C005B6B116096F830201A60022203681A6186
:1035AC000F229A65C37C002B39D072B6C37CDC0722
:1035BC0008D54FF0E0214469D1F880212240826285
:1035CC00C1F88021990708D54FF0E0218469D1F822
:1035DC0084212240C262C1F884215A0708D54FF0D9
:1035EC00E021C469D1F8882122400263C1F8882106
:1035FC001F0708D54FF0E021046AD1F88C21224036
:10360C004263C1F88C21DE0608D54FF0E022416AF6
:10361C00D2F890310B408363C2F8903162B63049D6
:10362C0083688B4226D02C4B81609B692D4AC3F357
:10363C000114C3F3826352F824200133B2FBF3F27A
:10364C00294B9A420BD9B2FBF1F3B2FBF3F28A424B
:10365C0088BF0133B3F5817F03D2022B03D800233B
:10366C0002E040F20113023B59080A0442EA01222B
:10367C001343C360036800221A6103225A62C268B2
:10368C001A6407221A6601221A61C37C13B3DD0780
:10369C0004D5816A4FF0E022C2F800119C0704D5D2
:1036AC00C16A4FF0E022C2F80411590704D5016B2E
:1036BC004FF0E022C2F808111A0704D5416B4FF005
:1036CC00E022C2F80C11DB0604D5826B4FF0E0232C
:1036DC00C3F81021BDE8F08700C00F40E80A0020B5
:1036EC0000093D0054080020FF083D0070B5D3B11F
:1036FC00046840F2012525611C46A9B111F8015B53
:10370C000668013B756605682E6FB60704D46D6FAD
:10371C000AB102F8015B013C05686D69ED07F2D551
:10372C00002BEAD11CB970BD90F83C50E8E7036857
:10373C00196F8907F6D45B6F0AB102F8013B013CA3
:10374C00F0E743681A6811685A68114210B50446CC
:10375C001AD00268002111610521027C1344187CE7
:10376C0007F09AFE627C63680521134493F82400E9
:10377C0007F092FE6368A27C05211344BDE810405B
:10378C0093F8380007F088BE10BD00002DE9F04119
:10379C00876C0446194B3D79DD77406C06791E77B2
:1037AC001D77226CAAB1B2F5004F08D3A2F5FF42E7
:1037BC007F3A124B2264DD76DE76BDE8F08111464D
:1037CC000068FFF759FE114638680022FFF754FED7
:1037DC00EFE723680F21E06C996540F20131DA6163
:1037EC0019614FF47C5159610323114684F83D3023
:1037FC000368BDE8F0411B68184700BF00800E400D
:10380C00024808B5FFF7C2FF08BD00BFD85F002013
:10381C00024808B5FFF7BAFF08BD00BF28600020BA
:10382C0008B5084A08490948FFF739FE084A09490A
:10383C000948FFF734FE094A09490A48FFF72FFEE9
:10384C0008BD00BF5005002000003A40D85F0020A2
:10385C00E004002000C039402860002070040020E3
:10386C0000403940786000207047704737B50546F6
:10387C000C4607F03DFD1C4B984204D800232B80CE
:10388C00238003B030BD694608F03CF99DF8062052
:10389C009DF80510503A9DF8043092B27F2A1ED83C
:1038AC000131C9B20C291AD81F2B18D843EA41137D
:1038BC0043EA42239BB29DF802102B8017299DF8F6
:1038CC0001309DF800200CD83B2B0AD83B2A08D895
:1038DC005B0143EAC12343EA52039BB2D0E70023C6
:1038EC00E9E70023CCE700BFFFA5CE12002307B504
:1038FC0000930123D0F888141A4604F0D3FB03B0CC
:10390C005DF804FB38B5856D04466DB94FF48070D5
:10391C0009F026F80146A06580B10570206D28B12C
:10392C004FF4807202F069FFA06D38BD606D002805
:10393C00FAD04FF4807201F054F9F5E7014BA3650E
:10394C00F2E700BF0072002038B5046D11464CB18F
:10395C009BB9204603F0F1F878B12046BDE8384019
:10396C0003F0D9BC446D44B1204601F009FB20B1F1
:10397C002046BDE8384002F0C3BA002038BD036DC4
:10398C0013B50C4683B10DF1060201A9184603F0DC
:10399C00C8FA30B1BDF80430BDF8062053EA020174
:1039AC000BD1002002B010BD406D0028F9D00DF1F4
:1039BC00060201A901F0A6F9EBE702F01F010120B4
:1039CC0049002170C2F34511D20A6170A27003F054
:1039DC001F022271C3F343125B0A013A03F5EA6337
:1039EC006271A371DEE7036D13B50C4683B10DF163
:1039FC00060201A9184603F084FA30B1BDF8043070
:103A0C00BDF8062053EA02010BD1002002B010BD14
:103A1C00406D0028F9D00DF1060201A901F062F900
:103A2C00EBE702F01F01012049002170C2F34511A0
:103A3C00D20A6170A27003F01F022271C3F3431209
:103A4C005B0A013A03F5EA636271A371DEE7036D69
:103A5C0013B1586900217047436D13B1D3E90001CC
:103A6C0070471846F6E70A46D0F8841400B58FB0B4
:103A7C0059B100236846009303F021FA10B168464F
:103A8C0003F05EF90FB05DF804FBD0F88804002851
:103A9C00F8D00B460C910146684601F0EAFC08B9D7
:103AAC000020EFE7684601F0C5FF0028F8D0E9E7F1
:103ABC00D0F8843430B50D4691B014468BB1002249
:103ACC0003F2444102A8134602922A46019103F0E4
:103ADC00A9F9019918B1224602A803F0FFFA11B016
:103AEC0030BDD0F888040028F9D000F589612A4649
:103AFC0002A80E93019101F05BFC019908B900201A
:103B0C00EDE7224602A802F029F90028F7D0E6E7F3
:103B1C000A46D0F8841400B58FB061B10023684612
:103B2C000093012303F0CBF910B1684604F0B4F90B
:103B3C000FB05DF804FBD0F888040028F8D00C9185
:103B4C0001230146684601F094FC08B90020EFE718
:103B5C00684601F029FF0028F8D0E9E70A46D0F8BA
:103B6C00841400B58FB051B1002301F24441684672
:103B7C000093012303F062FA0FB05DF804FBD0F858
:103B8C0088040028F8D00C91012300F5896168465F
:103B9C0002F087F8F0E70A46D0F8841400B58FB02D
:103BAC0039B100236846009303F089F90FB05DF832
:103BBC0004FBD0F888040028F8D00B460C91014681
:103BCC00684601F056FCF1E7036D13B1D86900218A
:103BDC007047436D13B1D3E9040170471846F6E7FB
:103BEC00D0F880342BB19B794FF40070984080B2A0
:103BFC007047D0F8840408B1D0F83C0470470346F1
:103C0C0090F8CC0410B588B1D3F88424181D32B1C7
:103C1C00D469013CFFF7E4FFA4FB000110BDD3F80D
:103C2C008844002CF6D0D4F83044F3E70146F5E78D
:103C3C00836B10B55BB1187810F008001EBFD86903
:103C4C005B69C01A0028B8BF6FF0004010BDC06B94
:103C5C000028FBD090F8313013F008030ED0D0E9D7
:103C6C000413D0E90024881A63EB0403B0F1004F6D
:103C7C0073F1000328BF6FF00040E7E71846F5E743
:103C8C0008B51030FFF7D4FF08BD08B51830FFF7A2
:103C9C00CFFF08BD836B33B11B7813F0D00F14BF6B
:103CAC00012000207047C06B0028FBD090F8313009
:103CBC0013F0500FF3E708B51830FFF7EBFF08BD12
:103CCC0010B504461830FFF7E5FF60B1206D10B158
:103CDC00002102F032FF606D28B100220023BDE804
:103CEC00104001F04DB910BD836B23B9C06B003887
:103CFC0018BF012070470120704708B51830FFF736
:103D0C00F3FF08BD10B50446806D18B108F030FE05
:103D1C000023A36518342046FFF7E6FF20B12046A8
:103D2C00BDE8104004F042B910BD0000064B10B5C0
:103D3C0003600446FFF7E6FF044B04F11800A36090
:103D4C0004F034F9204610BD14070020C8050020EB
:103D5C0010B50446FFF7EAFF5C21204608F051FD40
:103D6C00204610BD836B13B1184602F0B4BEC06B75
:103D7C0008B101F0F0B84FF0FF30704708B51030C3
:103D8C00FFF7F0FF08BD08B51830FFF7EBFF08BDD3
:103D9C00836B13B1184602F0DBBDC06B08B101F0A8
:103DAC0017B84FF0FF30704707B501220DF107012E
:103DBC001030FFF7EDFF01280CBF9DF807004FF006
:103DCC00FF3003B05DF804FB08B51830FFF7E0FFD7
:103DDC0008BD30B4856B114625B143B9284630BCBB
:103DEC0002F0ABBEC06B10B130BC01F0C9B8002002
:103DFC0030BC704738B50446049811461D4620B9AE
:103E0C0004F11800FFF7E5FF38BD01280ED1236D32
:103E1C0004F1180013B15A69002303E0636D93B1E8
:103E2C00D3E900238A1843EB0503EBE702280CD1F6
:103E3C00236D04F118000BB1DA69EDE7636D13B172
:103E4C00D3E90423EEE71A46ECE70020DCE7836BAA
:103E5C0013B1184602F09ABFC06B08B101F084BED2
:103E6C00704708B51030FFF7F2FF08BD08B51830E1
:103E7C00FFF7EDFF08BDD0F838C0F0B49DF8104046
:103E8C009DF814509DF818609DF81C70BCF1000F43
:103E9C0007D06046CDE90667CDE90445F0BC03F0D8
:103EAC00E5B9C06B30B1CDE90667CDE90445F0BC8E
:103EBC0001F09EBFF0BC70471FB58A79A2F1500388
:103ECC001B0612D40C7802F26C724B7918300394E6
:103EDC004C7801330294DBB28C780194097900910F
:103EEC000421FFF7C8FF04B010BD0020FBE71FB58D
:103EFC008A79A2F150031B0612D40C7802F26C7270
:103F0C004B79183003944C7801330294DBB28C78E3
:103F1C000194097900910221FFF7ADFF04B010BDA7
:103F2C000020FBE7836B13B1184603F029BAC06B72
:103F3C0008B102F04BB8704708B51030FFF7F2FF2C
:103F4C0008BD07B501228DF807100DF107011030DF
:103F5C00FFF7E8FF03B05DF804FB08B51830FFF776
:103F6C00E1FF08BD38B500250E4B04461031456005
:103F7C00183040F8183C11F80C3C00F80C3C0A4B7B
:103F8C0040F8103C51F8083C40F8083C11F8043C4F
:103F9C0000F8043C03F0DCFF044B2046A565A3604D
:103FAC0038BD00BF1407002070070020E406002075
:103FBC00012B70B5044694B027D0022B40F202239B
:103FCC0018BF00230431684604F0E6F804A8144E28
:103FDC00FFF78AFEE0B15C2008F011FC694605464B
:103FEC00FFF7C0FF00234FF47A722660237123730E
:103FFC006B68A260013325616B600A4B04A80093C7
:10400C0003F0D4FF204614B070BD44F20223D9E76C
:10401C004FF47A7320712073A36026602061ECE763
:10402C00B8060020C80500202DE9F041002594B009
:10403C001B4B4FF47A772A461831044604A8009398
:10404C008DF8045002978DF80C50DFF85C80CDE9A8
:10405C00125503F0F7FF04A8FFF746FEC0B15C2031
:10406C0008F0CDFB06466946FFF77CFF73682571A7
:10407C000133A7602573C4F8008026617360094B77
:10408C0004A8009303F092FF204614B0BDE8F08121
:10409C002071A7602073C4F800802061EFE700BF97
:1040AC00E4060020C8050020B806002070B50546BF
:1040BC00D0F8880488B90026D5F8800440B303F002
:1040CC00EEFA04463EB1D5F8880488B103680021A5
:1040DC001B6C984760B1204670BD03689B6B98477A
:1040EC000028E8D0D5F8880420B9D5F8880438B968
:1040FC000024F0E70368DB6B98470028DBD1F4E77A
:10410C00036801211B6C984706460028D4D1EFE7C1
:10411C00D5F8840410B101F024FBD2E74FF0FF3046
:10412C00CFE738B590F8CC44B4B1D0F88434051D41
:10413C005BB1DC69013C2846FFF7B8FF241A28461E
:10414C00FFF74EFDA4FB000138BDD0F88844002CCD
:10415C00F1D0D4F83044EEE720462146F4E738B5E8
:10416C0000F28C45FF23044680F8C41480F8B83460
:10417C00284605F087F92846C4F8885404F038FD21
:10418C0020B92046BDE83840FFF7B0BB002038BD51
:10419C0070B58AB0044601A804AE07ADC4F8C034AB
:1041AC0080E80E00BDF80420A4F8B824029AC4F8E4
:1041BC00BC2407C886E80B0004F5936685E80B0061
:1041CC00304695E80E0004F03DFC94F8AA34C4F88F
:1041DC0088642BB920460AB0BDE87040FFF786BB57
:1041EC0000200AB070BD1FB590F8B824FF2A06D184
:1041FC0090F8C414FFF7B3FF05B05DF804FBD0F8DA
:10420C00BC24D0F8C034B0F8B814CDE9022304AB08
:10421C00ADF8041013E90E00FFF7BAFFECE7F0B5A8
:10422C00D0F88C548FB007461DB9002420460FB02F
:10423C00F0BD2A682846019392699047B0F5405F1B
:10424C000446F2D94FF4007008F08AFB06460028A9
:10425C00EBD0B4F1806F0246294603A8019B0FD91D
:10426C0000F06CFA0446304608F082FB002CDCD0DF
:10427C002B682846DB699847381DFFF7B4FFD5E754
:10428C0002F0BCF9EEE70000F0B5D0F88C7485B004
:10429C0005462FB90024204685F8CC4405B0F0BD66
:1042AC0090F8CC4490F8CD341CB3FE2B09D095F883
:1042BC00CE04362816D807F0DDF8041E18BF0124EA
:1042CC00E9E73B6838469B6D9847421CEFD00028C5
:1042DC00E1D195F8CD34FE2BDCD103212E2007F053
:1042EC00DBF8D7E73B68694638465B6C9847044671
:1042FC00D1E7FE2B07D1084B9B689B03CAD5281D21
:10430C00FFF771FFF3E790F8CE043628F7D807F0E3
:10431C00B1F80028F3D1BDE7008000427FB50E460E
:10432C000546174800F064F9FE2E85F8CD6411D1CE
:10433C004FF00001281DFFF712FF044685F8CC044E
:10434C002E2085F8CE0414B9032107F0A5F82046D9
:10435C0004B070BD362E4FF00004F8D8094B281D60
:10436C008DF805408DF80460CDE9023404AB13E9F7
:10437C000E00FFF70DFF044685F8CC04E7E700BFFD
:10438C008D10000040787D0119481A4A1A4BC0F86C
:10439C0090241A4A03600023C0F8A4240722C0F812
:1043AC008434C0F88834C0F88C34A0F89834C0F841
:1043BC00A034C0F8A8244FF42812A0F8B03480F828
:1043CC00B234C0F8B43480F8B83480F8C8344FF440
:1043DC007F43C0F8AC24A0F8CC34FF23084A094929
:1043EC00C0F89C2480F8CE34074A08F0B3BA00BF5A
:1043FC00085B0020E80700209407002000093D001E
:10440C001C0600208B100000F01B0020B1F5807FF3
:10441C0030B52FD810294FF020042DD920292DD9B3
:10442C0080292DD9B1F5FC7F2CD9B1F57C7F2BD906
:10443C00B1F5FC6F2AD9B1F57C6F94BF8023FF23B3
:10444C0013FB04F3B2FBF3F1B1F5806F20D203FB45
:10445C001123B2FBF4F5B3FBF4F304FB1522DBB22E
:10446C000132D2B203708B08817023F03F031A43E0
:10447C00427030BD3F24D3E70223E1E70423DFE79A
:10448C000823DDE71023DBE72023D9E74023D7E718
:10449C003F22FE2340F2FF31E4E773B50378044674
:1044AC00DA0720D5406804F11002A1680368019274
:1044BC001B6A9847019A054618B90025284602B090
:1044CC0070BD23789B0704D4237823F00103237059
:1044DC00F4E7D4E90106E168036831441B6A9847A4
:1044EC000028F1D1E9E70125E8E7436870B50446F7
:1044FC000E4615460BB9002070BD83688B4208D060
:10450C00FFF7CBFF0028F6D06B070AD50023A66077
:10451C002370237805F0030520462B4300F8103B4D
:10452C00EAE7606804F11002314603681B6998479A
:10453C000028EBD1DFE700007E2830B527D8A0F1AA
:10454C006103192B8CBF00230123A0EB431398B2FA
:10455C0030BD03EB520231F8225085428CBF144619
:10456C001346E21A012AF4D89AB231F82230984252
:10457C002DD301EB8201C31ACA78934227DA91F941
:10458C000220012A07D103F00103C31ADFE7352407
:10459C0000231149E5E71AB192B2024490B2D7E771
:1045AC004EF2A032F9E703EB520231F82250854269
:1045BC008CBF14461346E21A012AF4D89BB231F888
:1045CC002320824204BF01EB83014888C0E74B24BF
:1045DC0000230249EFE700BF64100020380F0020D1
:1045EC0000231370014B1B68184700BFB0680020F4
:1045FC00024B034A1A60034B18607047AC680020EA
:10460C00011E0000B068002013B504460846019155
:10461C0009F006FA23680246019920465B6802B04D
:10462C00BDE8104018478368C3F3080310B483B186
:10463C0000210269D1540133B3F5007FF9D1C3686D
:10464C0001681A68146A0269184623465DF8044B1F
:10465C00184701205DF8044B7047826803460069D7
:10466C00C2F3080210B48154586801EB7001596010
:10467C0099680131996040F2FF118A420AD1D868D9
:10468C0019680268146A4A1C1A601A6923465DF894
:10469C00044B184701205DF8044B704738B50C46A5
:1046AC00C9B20546FFF7D9FF28B1210A2846BDE853
:1046BC003840FFF7D2BF38BDF8B50024054601607D
:1046CC00C0E90144A0B2FFF737FFA04201460CD06D
:1046DC002846FFF7E3FF10B30134B4F5803FF1D166
:1046EC002846BDE8F840FFF79EBF661CB6F5803F34
:1046FC0006D0B0B2FFF720FFB04201D10136F5E78A
:10470C00371BB7F5007F13D34FF6FF712846FFF721
:10471C00C5FF20B1B9B22846FFF7C0FF58B9002039
:10472C00F8BDA1B228460134FFF7B8FF0028F6D037
:10473C00A642F6D8D1E73446CFE700002DE9F04F7A
:10474C001E4689B00B680D46029014469B69C0E961
:10475C00031208469847B0F5801F07460CD216B9CD
:10476C004FF0000A01E291493046FFF74DFF9049A6
:10477C003046FFF749FFF3E70023012201335200D3
:10478C00DBB2202B04D09742F8D81C2B40F2E380EC
:10479C00A3F10B02C2F347021A2B01924FF0000156
:1047AC00204686BF013301224FF4005A4FF0010915
:1047BC0084BFC3F3460302FA03FA019A4FEA8A0351
:1047CC004FEA4A0B0493A7EB8A03D34003FA02F88F
:1047DC0003934FF4007208EB4A034AF655280593ED
:1047EC0005F092FA072384F8BF9184F8C091224611
:1047FC0084F8C231FE230021284684F8C331FF23FC
:10480C00C4F8C6B184F8C43184F8C531059BA4F84A
:10481C00FE81C4F8CA312B681B6A9847002800F047
:10482C00A8814FF400720021204605F06DFAEB23AD
:10483C0084F86E904FF00009237076234FF4C37206
:10484C00F4216370902304F17800C4F840B0A37095
:10485C004523C4F858B0E370582323714623637181
:10486C004123A3715423E371202323726372A37237
:10487C00059BA364039BE3650423C4E918374FF439
:10488C0080734F46A4F86830092384F86C30019B80
:10489C0084F86D308023C4E914AA84F86F3005F0D5
:1048AC0033FAA4F8FE81A9F16A03012B06D9B9F1F8
:1048BC00700F1CBF14F8093003EB770709F10109DD
:1048CC00B9F5007FEFD12B682246594628461B6A62
:1048DC009847002800F04D812B6822460BF10C0103
:1048EC0028461B6A9847002800F043814A4600215D
:1048FC0020460BF1010805F007FA4AF65523A4F8F7
:10490C00FE310BF109030793631E059304F2FF13A9
:10491C000693059B13F8012F02EB7707069A934237
:10492C00F8D12B682246414628461B6A9847002836
:10493C0000F01F812B68224608F10C0128461B6AE7
:10494C009847002800F0158108F10109079B99454B
:10495C0003D0C846DDE708221EE708F103084FF430
:10496C0000720021204605F0CFF9059B13F8012FAA
:10497C0002EB7707069A9A42F8D12B6822464946F1
:10498C0028461B6A9847002800F0F3802B682246C3
:10499C0009F10C0128461B6A9847002800F0E980B1
:1049AC0009F10101884505D08946DEE79711002001
:1049BC00EE110020231F04F5FE7243F8047F9A4287
:1049CC00FBD12B68224628461B6A9847002800F02A
:1049DC00D0802B68224609F10D0128461B6A9847A6
:1049EC00002800F0C6801EB164493046FFF70CFE6B
:1049FC00039B4FF40072002120464FEA8308DA44EF
:104A0C0005F082F9204608F20728F8230027DFF882
:104A1C0080B14FEA582913224FEA9838FF2100F849
:104A2C00013B05F071F9B7FBF8F308FB137323B9DD
:104A3C001EB159463046FFF7E7FD2B6822460AEBBC
:104A4C00070128461B6A9847002800F092802FB96E
:104A5C004FF400723946204605F056F90137B94536
:104A6C00E1D11EB146493046FFF7CEFD039F4FF012
:104A7C000109019B073709FA03F9FF0807F2FF1335
:104A8C00B9EB532F4FEA532A73D34FF40072002122
:104A9C0020464FF0000805F037F9072323702B68E8
:104AAC002246049928461B6A41449847002860D046
:104ABC00B8F1000F01D184F8008008F10108C2455B
:104ACC00EDD11EB12F493046FFF79EFD049B029895
:104ADC0003EB0901FFF7F0FD00284AD0019A4FF4CF
:104AEC0000739340029A92689A4242D81EB12649AA
:104AFC003046FFF789FD019B4FF0020A4FF400721C
:104B0C0000210AFA03F8049B2046984405F0FCF8AF
:104B1C00822103228123C4F834A084F84010029926
:104B2C00227084F82030002349686265029AA763DA
:104B3C001F4661649268C4E916232B68224608EB71
:104B4C00070128461B6A9847824690B12FB94FF44B
:104B5C0000723946204605F0D7F80137B945ECD13B
:104B6C001EB10A493046FFF74FFD504609B0BDE86B
:104B7C00F08F002E7FF4FBADF2E500BFAD110020ED
:104B8C0062110020BA110020D1110020E011002088
:104B9C005914002070B5956801F11E04536831F862
:104BAC00020F9D4203D1B0FA80F0400970BD5E1C2B
:104BBC007E2856601B7812D8A3F16106C0B2192E5C
:104BCC00A0F161069CBF203BDBB2192E9CBF2038A4
:104BDC00C0B2984203D1A142E0D10120E6E7002007
:104BEC00E4E72DE9F84390F8313080460F469146C2
:104BFC0043B30225002498F83030AB4204D2002392
:104C0C003B552046BDE8F88300222946404600F07B
:104C1C0043F80346B0B10278C12A13D13A1900F116
:104C2C001E0133F8026F002EE9D001344C4509D235
:104C3C007F2E28BF3F268B4202F8016BF1D1013544
:104C4C00EDB2D8E700243C70DBE730B58868002271
:104C5C000D684D604B68834208D1401B0A82C860C6
:104C6C000138FE288CBF0020012030BD5C1C4C603C
:104C7C001C78A4F16103192B4FEAC23398BF203C76
:104C8C0043EA520398BFE4B22344C3F34E02DB035E
:104C9C0003F400431A43DDE7F0B500F1240385B0BB
:104CAC0004460F4601AD164693E8070085E8070059
:104CBC007A012946206A00F0EAFC012806D1324626
:104CCC002946206A00F096FC05B0F0BD0020FBE7F9
:104CDC0010B5044600F048FF002384F8313084F806
:104CEC00333010BD38B50D46144600F124010022B6
:104CFC00006A00F07FFC20B143892B8003890120DE
:104D0C00238038BD38B50D46144600F1240100222D
:104D1C00006A00F06FFC20B1C3892B8083890120CD
:104D2C00238038BD38B50D4690F83110044651B982
:104D3C00382204F0E9FF40230120256284F8313049
:104D4C0084F8330038BD0020FCE70000F0B40D46B9
:104D5C0011F8014B202CFAD01C4F156095602E4693
:104D6C0016F8014B0CB12F2C0BD12C4615F8011B4E
:104D7C002029FAD02F29F8D01C601146F0BCFFF77F
:104D8C0064BF3C2C17D8212C0BD8611E1E290FD9BF
:104D9C0021060DD42E2C02D0202C18BF966035463F
:104DAC00DDE7A4F12201C9B227FA01F1CD07EFD555
:104DBC000020F0BC70475C2CFAD003D8A4F13E0163
:104DCC000129E4E77C2CF3D0E2E700BF01210005C8
:104DDC002DE9F04F2DED028B90F8333083B0044663
:104DEC008946DD07164663D5580603D494F831304E
:104DFC0019070BD5D4E90023D4E90410B51843F1F5
:104E0C000003A94270EB030300D28E1A04F11803BD
:104E1C00B04608EE103A71E0206AD4E90032D0F8BE
:104E2C0038741F40C7F3080A4FB913432CD194F8B8
:104E3C0031305A064CBFD0F83434E369A361D4F84E
:104E4C0020B0780AA2699BF84514951EDBF82C2437
:104E5C008D4005EB57251544BAF1000F31D1B8F54B
:104E6C00007F2ED3DBF8182295422AD0B8F5806F3C
:104E7C004ED2DBF814024A46294603681B69984750
:104E8C00B0B14FF400772FE094F83330A1695B0692
:104E9C0002D50131A161D2E718EE102A00F0C4FB53
:104EAC00002805DBCBD194F8313013F0500F28D10A
:104EBC0094F832304FF0FF3043F0020384F8323074
:104ECC0021E0CAF50077002229460BF5047047450E
:104EDC0028BF4746FFF709FB0028E9D000EB0A0181
:104EEC003A46484604F032FFB944A8EB0708D4E927
:104EFC000032DB1942F10002C4E90032B8F1000FB4
:104F0C008AD1A6EB080003B0BDEC028BBDE8F08F94
:104F1C0001238B404FEA58211B1A8B4228BF0B46AA
:104F2C0095424FEA43270AD9DBF814022946026856
:104F3C00D2F814B04A46D8470028D5D1B8E7E918BA
:104F4C008A42F1D20BF504700193FFF7A6FA019B8C
:104F5C000028E9D1ACE7F7B501220DF107010446B1
:104F6C008569D0E90067FFF733FF0128A5610CBF05
:104F7C009DF807004FF0FF30C4E9006703B0F0BDA7
:104F8C002DE9F84F90F831C0044616461F46D0F86C
:104F9C001880BCF1000F5BD0D0E90003BB4208BF06
:104FAC00904206D056EA070205D10023A361C4E95A
:104FBC00006701204FE01CF0080F04D0D4E9041264
:104FCC00B142BA4144D3D4F820E0751E9EF8451482
:104FDC0047F1FF3A0931C9B2C1F12009A1F1200210
:104FEC00CD400AFA09F92AFA02F2A1F1200A45EA9F
:104FFC000905C1F12009154394F8332012F0400F34
:10500C0002D0E3692B44D1E710F1FF3B43F1FF32AF
:10501C002BFA01F102FA09F922FA0AF241EA090122
:10502C0011438D4201D3034317D11CF0400F14BF21
:10503C00DEF83434E369A36104F11809002DB6D00D
:10504C004A46A169206A013D00F0EEFA0028F5DC21
:10505C000020C4F81880BDE8F88F6D1AECE700004A
:10506C002DE9F04F9A4690F831308DB004460E463B
:10507C001546002B43D191F8313013F0500F3ED030
:10508C000AF00309B9F1030F39D009F101090AF04B
:10509C00080349EA0309002A38D0D7680F230022F5
:1050AC0008460E37B7FBF3F702370023FFB2FFF7C2
:1050BC0067FF4FF0000BD846202204A93046FFF7BB
:1050CC0087FE002800F0C780202818D19DF9101009
:1050DC009DF8102000291EDBBBF1000F05D13168B3
:1050EC00A1F120030193B3690093BB453CBF0BF1C5
:1050FC0001035FFA83FB5AB9002D40F0AC804FF0EE
:10510C00000884F8318084F833806EE00327D0E700
:10511C0000208046D0E7B8F1000F27D1BB4538BF3F
:10512C004FF0000B852AF3D138224146204604F07B
:10513C00EBFD9DF811209DF81410012084F830200F
:10514C0001F03702C90658BF42F0080284F831203A
:10515C00326A2262B26962623268203AA26296F8BE
:10516C003320C2F3801284F82C20D2E7C02A51D10C
:10517C009DF8112084F833909307DDE9060148BFB0
:10518C0049F04002C4E9040148BF84F83320099A6D
:10519C00DDE90A01E261C4E9020155BB1AF4006FB2
:1051AC00ADD11AF4884F03D194F833309D0705D54F
:1051BC0094F83130D806A2D4D907A0D41AF4806F51
:1051CC0039D094F833309A0799D500220023204621
:1051DC00FFF7D6FE002892D0204600F091FE002862
:1051EC008DD094F833309B072ED440460DB0BDE8DB
:1051FC00F08F2A68E9686A609DF81320914287D184
:10520C00288ABDF81420A0EB020CDCF1000040EB66
:10521C000C007EE7C12A7FF47BAF2A4604A9204606
:10522C00FFF7B8FC00283FF474AFD5E90121914297
:10523C007FF46FAFB2E71AF4804FD2D02046D4E996
:10524C000423FFF79DFECAE794F8313043F02003A6
:10525C0084F83130C9E71AF4007F3FF450AF19F0ED
:10526C00020F3FF44CAF002D3FF449AFBB4524D3A4
:10527C0038220021204696F8338004F045FD336A2D
:10528C00C8F380184FF0000A2362282384F82C807E
:10529C0007F1FF3884F83130009B5FFA88F86362BD
:1052AC00019BA3622B686B605FFA8AFBBB4526D31C
:1052BC00204600F059FC804697E7202204A930468E
:1052CC00FFF786FD50B93046D6F8188000F06DFC1B
:1052DC0000283FF414AFC6F81880C7E720287FF4E5
:1052EC000EAFBBF1000F05D13268A2F12003019380
:1052FC00B36900930BF101035FFA83FBB6E701225C
:10530C0059462046FFF7C8FC064600283FF4F7AE86
:10531C0090F90020002AFFF6F2AE2022002104F0C2
:10532C00F3FCBBF1000F20D1852333701F4B84F8A5
:10533C00308086F801801B688BB10DF10B020DF1EA
:10534C000E0103A89847BDF80C307381BDF80E30E0
:10535C0033819DF80B3033750AF1010AA4E745F24D
:10536C0021637381F3817382F6E7BBF1010F0CD1DA
:10537C0069F07F03C02286F801B0327084F83330B4
:10538C00EB68F3702B8AB380E6E7C12306F11E02AB
:10539C003370A8686B688342DED0591C69601B7837
:1053AC0026F8023FB242F5D1D6E700BFAC68002028
:1053BC00F0B51F4697B0002305460C460192149396
:1053CC0090F8313013B1002017B0F0BD91F83110C6
:1053DC0011F0500FF7D011782F291CD1104612F86C
:1053EC00011B2F2908D003B10190246A31B9214641
:1053FC002846FFF797FCE7E70123EFE73822002167
:10540C0008A804F081FC4023109408AC8DF85130AE
:10541C0001238DF8533001AB03AA01992846FFF7FD
:10542C0095FC0028CFD0019B1B78DBB1002303AA8D
:10543C0021462846FFF714FE0028C4D008AE2A46A1
:10544C0005F1300C34461068083252F8041C33460F
:10545C00624503C31E46F6D1106818602846FFF754
:10546C0037FCD8E73B4603AA21462846FFF7F8FD50
:10547C00AAE719B101F58961FFF79ABF0846704791
:10548C00134610B490F8312062B991F8312012F023
:10549C00500F07D00A6812F01F0203D15DF8044BBD
:1054AC00FFF7DEBD00205DF8044B70472DE9F84F87
:1054BC00074693468A46C9B18D1ED7F8303401246D
:1054CC00AB4298BF002505F00703C5F3C809A846F1
:1054DC002E469C40E4B2D7F82C140022384601EB3F
:1054EC001631FFF702F8C0B9BDE8F88FD0F8205498
:1054FC00E3E7B046B5422BD0D7F83024B24221D9DD
:10550C00640014F0FF040AD109F1010301244FF0E7
:10551C000009B3F5007FDED2994610F8093023421A
:10552C0006F10106E5D1A6EB08025A45E2D1BAF123
:10553C00000F04D1BBF1010F08BFC7F8208408F19C
:10554C000200D1E74FF000084FF400794646DBE744
:10555C000120C9E702392DE9F84305461F46D0F86A
:10556C0030048B18164683423FD8D5F82024BFB39D
:10557C00914206D8934204D9834228BF0023C5F830
:10558C00203401F007034FF00109C1F3C80409FAF4
:10559C0003F9D5F82C345FFA89F903EB11380122A1
:1055AC00414628469044FEF7A0FFF0B10319494646
:1055BC0000F500701A780A4214BF01240024BC4282
:1055CC0013D04A40013E1A7012D0490011F0FF016D
:1055DC00F0D101330C46012198428946EAD1DEE72D
:1055EC00914238BFC5F82014CBE70020BDE8F88302
:1055FC000120FBE738B5D0F838340C46496800F583
:10560C00047090F8355219402368023BAB4003EB11
:10561C005123D0F81C121944FEF767FF18B16368C8
:10562C00C3F30803184438BD38B5D0F830340C46F1
:10563C00154601338B4202D24FF0FF3038BDD0F803
:10564C002414002200F5047001EBD411FEF74DFF79
:10565C000028F1D0A400C4F3080403595A1C16BF47
:10566C00012000202B60E9E737B5054600240191A5
:10567C0001AA01992846FFF7D7FF002805DB04F1A2
:10568C000104F5D1204603B030BD0024FAE770B513
:10569C004B680646D0F838440D461C4014441A4456
:1056AC004A6090F845340933DBB2DC400CB9012078
:1056BC000CE02B7A29681BB101312960013CF5E71C
:1056CC002A463046FFF7B0FF0128F7D070BD0129FC
:1056DC0038B50C46154601D8002038BDD0F830340A
:1056EC0001338B42F8D3D0F82414012200F5047056
:1056FC0001EBD411FEF7F9FE0028EDD0A400C4F3A1
:10570C00080405510120E8E72DE9F34107460C4652
:10571C00884601AA21463846FFF786FF061E04DAA2
:10572C000025284602B0BDE8F0810022214638460B
:10573C00FFF7CDFF05460028F2D0621C16B1019B85
:10574C0093420AD00023A2EB080241463846FFF7E9
:10575C0001FF0028E4D0DDF80480019C002ED8D194
:10576C00DFE72DE9F04100240646D0F82C7400F553
:10577C00047825463946002240460137FEF7B5FE2F
:10578C00F8B1431E05F5805C13F8010FFF2808D112
:10579C0008340835D6F83004A8420FD8001BBDE8F1
:1057AC00F0810028F5D00821012210424FEA420274
:1057BC0018BF01340139D2B2F7D1EAE76545E3D11C
:1057CC00D8E74FF0FF30EAE770B51E4600230446D9
:1057DC00C0F8401480F844341546416003704FF013
:1057EC00FF30C4F81412A06084F81032C4F8180208
:1057FC00D2B1042A01D9002070BD1A46194604F50D
:10580C000470FEF772FE0028F5D005F1805200F509
:10581C00DF70013A130100EB021211790029EAD072
:10582C00C35C5B06E7D196680022314604F5047030
:10583C00FEF75BFE05460028DDD01A490522033031
:10584C0007F088FF01460028D5D195F86C30092B5C
:10585C00D1D12B6D3344C4F824346B6DC4F8283487
:10586C00AB6D3344C4F82C34EB6DC4F830342B6E70
:10587C00C4F8343495F86D300125C4F82004204662
:10588C0084F8453409332A4605FA03F3C4F83C344A
:10589C00013BC4F83834FFF709FE4023284684F84E
:1058AC004434A9E7FE11002010B50446D0F8341496
:1058BC00FFF7DAFE94F845340933DBB2984010BD9B
:1058CC0010B500230478CA03012B42EA5102C15CD3
:1058DC0011FA82F291B208D1852C14BF0122032255
:1058EC0013441F2BEFD9084610BD0122F8E710B561
:1058FC000446FEF7D2FD58B104F50470FEF7CDFD59
:10590C0030B1D4F840040368BDE81040DB69184797
:10591C00002010BDF8B50446006AA16901B101313F
:10592C000122FFF7C3FD0128054602D800263046A8
:10593C00F8BD01230146206A1A46FFF70BFE064606
:10594C000028F3D0A26994F833302AB943F040030D
:10595C0084F83330A561EAE7590611D44FF0FF32D1
:10596C002946206AFFF7B3FE0028DFD0A169002981
:10597C00F0D02A46206AFFF7AAFE0028EAD1D5E724
:10598C000132AA42E6D023F04003E16984F83330B7
:10599C00A369206A8B42E1D94F1C3A46FFF797FE68
:1059AC000028C3D03946F3E7F8B590F833300446F5
:1059BC009A0701D40020F8BDC169D1B90025012294
:1059CC00E9B22046FFF768F90028F3D003780135D7
:1059DC0003F07F030370EBB294F830209A42EED2BE
:1059EC000023206A84F8313084F83330FFF77FFFCE
:1059FC00E1E75B06006A1AD590F84534D4E9022534
:105A0C000933013ADBB245F1FF35C3F12007A3F1AD
:105A1C002006DA40002305FA07F725FA06F63A4382
:105A2C0032430132FFF796FD0028C7D1C2E7FFF7DA
:105A3C006BFEF9E710B590F8313088B00446DB0600
:105A4C0002D4002008B010BD00220023FFF798FA02
:105A5C00202269462046FFF7BBF948B12028F0D137
:105A6C009DF900209DF80030002AEADB002BEFD1D5
:105A7C000823204684F8313094F8333043F0020385
:105A8C0084F83330FFF790FFDCE700002DE9F34199
:105A9C0000270446DFF8CC803E460022F9B22046AF
:105AAC00FFF7FAF8054600283DD00378C02B44D008
:105ABC00C12B21D0852B36D194F8313003F037032C
:105ACC008380D8F8003083B10DF103020DF106018B
:105ADC0001A898479DF80330BDF806206B75BDF8FA
:105AEC000430AA81EB812A826B82226A92F81032EE
:105AFC0043F0010382F81032013731462846FFF794
:105B0C00DFFE94F83020FBB206469A42C5D2012241
:105B1C0004F12401206AFFF76DFD20B14680206A54
:105B2C00FFF7E5FE30B994F83230002043F0010362
:105B3C0084F8323002B0BDE8F08194F83320437819
:105B4C0052064CBF43F0020303F0FD034370D4E94B
:105B5C000423C0E90223E3694361D4E90223C0E9C9
:105B6C000623C2E7AC68002010B590F8313004462B
:105B7C000BB9012010BD90F9332090F83330002A76
:105B8C0007DA03F07F0380F83330BDE81040FFF7ED
:105B9C007DBF006AFFF7ABFE0028EAD194F83230E3
:105BAC0043F0010384F83230E4E7F8B590F8313073
:105BBC0004465A063FD5006AFFF776FE236AD3F8EF
:105BCC003C341844B0F1806F45D22046FFF7A2FE5A
:105BDC00002840D0236A0026A569012793F84524A4
:105BEC00023DD3F82C3495401D44206A90F845347E
:105BFC0007FA03F39E4220D394F831305B0615D498
:105C0C0094F8333063F07F0384F83330D0F83C24BD
:105C1C00D4E902319B1841F10001C4E90231D4E905
:105C2C0004319B1841F10001C4E904312046BDE860
:105C3C00F840FFF799BF8068C0E70522A91900F565
:105C4C000470FEF752FC30B14FF4007200210136A3
:105C5C0004F05AF8C9E70020F8BD10B591F83130BE
:105C6C00044613F0500F1AD040F60223FFF7F8F950
:105C7C00A8B13023204684F83130FFF796FF70B17D
:105C8C00A36920460022E3610023FFF779F9C123C1
:105C9C00204684F83330BDE81040FFF765BF002084
:105CAC0010BD2DE9F041984696B0002305460C46F0
:105CBC000192149390F831301BB1002016B0BDE85E
:105CCC00F08191F8313013F0500FF6D013782F2B60
:105CDC000AD1019A13782F2B2CD0216A08A8FFF730
:105CEC0021F80028E9D008AC01AB03AA0199284699
:105CFC00FFF72CF80028E0D0019B1B7843B300235E
:105D0C0003AA21462846FFF7ABF9B0B108AE2A46E4
:105D1C0005F1300334461068083252F8041C37463B
:105D2C009A4203C73E46F6D1106838602846FEF703
:105D3C00CFFFD9E701320192CBE7B8F1000FBCD00D
:105D4C0003AA21462846FFF788FF0028DED1B4E7D6
:105D5C0003AA21462846FFF780FFAFE7F0B50446BB
:105D6C009DB000200C901A9094F8310010F0180F90
:105D7C0002D100201DB0F0BD206A0B6A9842F8D108
:105D8C0040F601236846FFF713FB0028F1D00EAA5A
:105D9C00234604F1300716461868083353F8041CE0
:105DAC001546BB4203C52A46F6D1186809AA04F168
:105DBC002403286007CA83E807009DF8303020468A
:105DCC0084F8303094F8333063F07F0384F8333048
:105DDC00FFF7CAFE0028CCD00023304615930223CF
:105DEC008DF86B3008238DF86930FFF7DDFDC1E7C6
:105DFC002DE9F84F1F4690F83130044689461B07B1
:105E0C009DF828509DF82CA09DF830B09DF834607A
:105E1C0001D4002054E0A2F2BC721FFA82F8B8F14F
:105E2C007F0FF6D87B1E0B2BF3D86B1E1E2BF0D8D6
:105E3C00BAF1170FEDD8BBF13B0FEAD83B2EE8D8DF
:105E4C00FFF792FE0028E4D045EA4713770816F0D6
:105E5C00010643EA482547EA4B174FF0000BADB259
:105E6C0018BF642647EACA27D84609F0010ABFB210
:105E7C0000225FFA8BF12046FEF70EFF0028C8D0F7
:105E8C000378852B1ED04033DBB2012BC1D80BF12C
:105E9C00010B4146FFF714FD94F830205FFA8BF3A9
:105EAC0080469A42E4D2012204F12401206AFFF7D1
:105EBC00A1FB0028ADD0A0F80280206AFFF717FDE7
:105ECC00BDE8F88F94F83130226A03F037038380F1
:105EDC0092F8103243F0010382F81032BAF1000F3D
:105EEC0001D00782458219F0020F1EBF067507818B
:105EFC00458119F0040F1EBF46758781C581C6E721
:105F0C00F7B590F833200446930702D4002003B071
:105F1C00F0BDC369002B56D012F04002816937D016
:105F2C00006A90F84554D4E902260935013AEDB2DD
:105F3C0046F1FF36C5F1200CA5F12007EA4006FA20
:105F4C000CFC26FA07F742EA0C023A430132A9B1DB
:105F5C00013B4D1C5B1A01951A4492B92046D4E9B9
:105F6C000023C4E90223C4E9042394F8333063F01A
:105F7C007F0384F83330FFF7F7FDC8E70193E16145
:105F8C00EBE700230199FFF7E5FA0028E6D1BDE71E
:105F9C00B1B1019201AA006AFFF746FB0028B5DBFC
:105FAC0007D04FF0FF32A169206AFFF790FB002861
:105FBC00ACD001990029D1D0206AFFF7A5FBE4E70A
:105FCC000193C161F5E70120A1E700002DE9F74F2E
:105FDC0090F8333088460446914699071ED51A0727
:105FEC0016D44F4604F1180A4FF0010BD4E90053B4
:105FFC00EFB9D4E90212A9429A4180F0E180C4E9D8
:10600C00025394F8333063F07F0384F83330DCE0D0
:10601C00D0E90423FEF7B4FF0028E2D194F8323023
:10602C004FF0000943F0010384F83230CDE0206AD0
:10603C00A169D0F838341D40C5F3080625BB0029EA
:10604C0055D094F833305B064AD590F84504D4E922
:10605C0002320930013BC0B242F1FF32C0F1200ED6
:10606C00A0F1200CC34002FA0EFE22FA0CFCE269ED
:10607C0043EA0E0343EA0C0313448B422DD820460B
:10608C00FFF748FC0028C9D0D4F820C06B0AA169DE
:10609C009CF845240239DCF82C04914001EB552185
:1060AC00014486BBB7F5007F2DD3B7F5806FDCF8C4
:1060BC0018E2DCF814026AD27145424602BF4FF076
:1060CC00FF338CF81062CCF8183203681B6A9847BF
:1060DC000028A3D04FF400753FE00131A161D3E754
:1060EC005246FFF7A1FA002898DBC8D0CCE7E36949
:1060FC003BB92046FFF70EFC00288FD0A369E36163
:10610C00C2E7A361C0E7C6F50075BD4228BF3D4696
:10611C00002E3AD163692068019323696268984222
:10612C00019B72EB030330D305220CF50470FEF7D0
:10613C00DCF900283FF472AF30442E442A46414625
:10614C0003F004FEB6F5007F206A06D100F504705A
:10615C00FEF7A3F900283FF461AFA8447F1BD4E9F4
:10616C000032D4E90401EB1842F10002984291414B
:10617C003CBF94F8331061F07F01C4E900323CBF9E
:10618C0084F83310C4E9043230E70122CDE70BFA6E
:10619C0002F2D31A7A0A934228BF134671454FEA8A
:1061AC00432508D8CA18724582BF4FF0FF328CF8CD
:1061BC001062CCF818220268566A4246B047C9E70A
:1061CC00044B1B68002B7FF41CAF484603B0BDE8A2
:1061DC00F08F00BFAC68002013B50446084601914F
:1061EC0007F01EFC23680246019920465B6802B04A
:1061FC00BDE81040184700002DE9F04704460F4653
:10620C00164600214FF40072406A03F07DFD206AAF
:10621C0010B12449FFF7E0FF4FEA56180125DFF8CB
:10622C008C9013E0E069E1680368626A29441B6A98
:10623C009847002832D0B5FBF8F308FB135323B969
:10624C00206A10B14946FFF7C7FF0135B542E9D3C3
:10625C00206A10B11449FFF7BFFFF822636A102FB0
:10626C004FF0FF001A704FF001030CBF04220C22F8
:10627C00616AC85401339A42FAD1E069626A0368D0
:10628C00E1681B6A984748B1E069626A0368D4E91F
:10629C0002151B6A2944BDE8F04718470020BDE8E9
:1062AC00F08700BFAD1100206211002059140020AE
:1062BC0038B5436A4FF40075044600212A46184647
:1062CC0003F022FDEB22A0F80B50027076224270F4
:1062DC00902282704FF02032C0F80320C0F80720C3
:1062EC0094F82B204273228DC28102220274F82270
:1062FC0042752269C261A26902624AF65522A0F86F
:10630C00FE2138BD70B504464FF400720021406A7E
:10631C0003F0FAFC656A2269216805F2BF10FEF7EA
:10632C0075F8A369226905F2C31021681A44013A71
:10633C00FEF76CF894F82A30002185F8C2312369F5
:10634C00E069C5F8C631A369626AC5F8CA314AF674
:10635C005523A5F8FE310368BDE870401B6A184749
:10636C00F8B5D0F814C04FF480730446456A90F821
:10637C002B6043606368ACEB0301B1FBF6F101F2F7
:10638C000110000A420002F1A107BB4210D3DB1B33
:10639C00A06003F180002061A1F6F570B0F5704F9C
:1063AC0009D3206A10B12B49FFF716FF0020F8BD66
:1063BC0080336360DEE781330120E36001FB062359
:1063CC00208520462133B3F5803FA36134BF0423DD
:1063DC00062384F82A30FFF795FF0028E6D02046E4
:1063EC00FFF766FF4FF40073A5F81130A368EB823A
:1063FC00802385F82430292385F82630164BC5F8E0
:10640C0027304FF02033C5F82F30C5F82B30C5F8A6
:10641C003230462385F83630412385F83730542303
:10642C0085F83830312385F83930362385F83A3001
:10643C00E069626A036821691B6A98470028B5D035
:10644C0062682046E3681021D21ABDE8F840FFF7D5
:10645C00D3BE00BF8311002087D61200F8B54FF4CD
:10646C0000530446456A42F2090C03614FF4804321
:10647C00476990F82B6043606368F91AB1FBF6F139
:10648C0001F18102D2090CEB420E5000734503D28C
:10649C0003F500536360EFE7A2604FF6F47291428C
:1064AC0006D8206A10B14F49FFF796FE0020F8BDC0
:1064BC00A3F5005201FB0633121A204692B2228534
:1064CC0002F50052E260A3F50052A261464A9342E3
:1064DC0094BF0B230C2384F82A30FFF713FF0028FA
:1064EC00E4D02046FFF7E4FEA36802226B623F4B28
:1064FC00C5E90B23802385F84030292385F84230E9
:10650C003B4BC5F843304FF02033C5F84B30C5F842
:10651C004730C5F84E30462385F85230412385F874
:10652C005330542385F85430332385F855303223B7
:10653C0085F85630E069626A036821691B6A9847DE
:10654C000028B3D0E06921690368626A06311B6ACE
:10655C0098470028AAD04FF400720021606A03F01B
:10656C00D3FB244BE069C5F8FC31036821691B6A35
:10657C00626A02319847002898D0E0692169036863
:10658C00626A08311B6A984700288FD01A4BE06961
:10659C002B6003F1FF53626A03F500532033C5F8F7
:1065AC00E4314FF0FF33C5E97A33036821691B6A84
:1065BC000131984700283FF479AFE06921690368FD
:1065CC00626A07311B6A984700283FF46FAFA268D4
:1065DC00204694F82B30202103EB4202BDE8F84012
:1065EC00FFF70ABE831100200004FB000100060027
:1065FC0087D61200000055AA5252614138B50446A4
:10660C000846C4E908320B68E1619B69984700F2BF
:10661C00FF736061DB0A062B236008D8206A10B96F
:10662C000025284638BD1B49FFF7D6FDF8E7102B8F
:10663C001ED9202B1ED9402B1ED9802B1ED9B3F569
:10664C00806F1DD9B3F5004F8CBF80234023B0F56C
:10665C00800F84F82B30204614D2FFF781FE0546BC
:10666C00206A95B10028DCD00B49FFF7B5FDD8E7BF
:10667C000223ECE70423EAE70823E8E71023E6E724
:10668C002023E4E7FFF7EAFEE9E70028C8D0034936
:10669C00EBE700BF501100206511002073110020A2
:1066AC0010B54901044600F048FA28B120460021F3
:1066BC00BDE8104000F022BA10BD042A04D801EB4A
:1066CC004202B2F8010070470A2A03D801EB4202D9
:1066DC00908870470C2A9ABF01EB4202D0880020A8
:1066EC007047F8B504780D461746BCB314F0C004D7
:1066FC0007D0012A32D92F2301200B7000234B70B5
:10670C00F8BD214600F0F8F840B3064621460822B1
:10671C00082933780BD1202B1CD010222E23A44611
:10672C000134BC421AD2E4B205F80C300FE0A3F1EC
:10673C00410C0136BCF1190F07D890F80CC012EAC5
:10674C000C0FECD02033DBB2E9E7202BE7D1013181
:10675C000C29DDD1002320462B55D1E700202870D1
:10676C00CEE72DE9F04300248BB0037805460F46A5
:10677C00904601946BB1C37833B9FFF7B2FF04466E
:10678C0020460BB0BDE8F083014601A800F0C9F823
:10679C0088BB00243C70F3E7A98801A8891B89B247
:1067AC00FFF77EFF01460028F3D0C37A0F2BF0D100
:1067BC00037803F01F034B45EBD107EB04090023CF
:1067CC001A462846FFF779FF90B101344445E0D2D0
:1067DC0001337F28DBB228BF3F200D2B09F8010BBA
:1067EC00EED10136B6B25FFA86F9EB784B45D3D2CF
:1067FC0000233B55C4E70126F5E7FFF7B2BF38B5D8
:10680C000D4604462422002103F07EFAA560EB79A4
:10681C00102B06D0202B06D1802301202370A070D2
:10682C0038BD4023F9E70020FAE710B504462430C0
:10683C00FDF733FE50B104F50D70FDF72EFE28B1B7
:10684C0020680368BDE81040DB691847002010BDC4
:10685C00024638B552F8105F04468068294600F0AD
:10686C00C6FE40B1A3783DB943F04003A370A378B2
:10687C0063F07F03A37038BD01352269AA42F6D0BC
:10688C0023F04003F2E70000F8B50578044615F054
:10689C00400502D000263046F8BD4269154B9A429D
:1068AC00F8D2FFF7D5FF06460028F3D0A26823697B
:1068BC009179023B57698B401F44A068E9B2037978
:1068CC008B4208D882794FF400739340626912FAB4
:1068DC0083F36361DFE70522394424300135FDF78A
:1068EC0004FE0028D6D04FF40072002103F00CFAFD
:1068FC00E3E700BF00FE1F0010B5044680680A469F
:10690C002430A169FDF7F1FD20B1A38803F00F033A
:10691C0000EB431010BD03780BB9FFF770BF0020DC
:10692C00704738B5CB6804460D4623B98968BDE875
:10693C003840FFF7F0BF2422002103F0E5F91023C3
:10694C0001202370A070AB68A360EB68236238BD94
:10695C002DE9F04F2DED028B8378044683B08846E9
:10696C00D807154671D52378190713D5E3696269E1
:10697C009B1A9D4228BF1D4604F110032E464FF072
:10698C00000908EE103A76B9A81B03B0BDEC028BD7
:10699C00BDE8F08F5A06EFD5A3681A896369C3EB7B
:1069AC0042139BB2E5E7227867695306A068C7F3E8
:1069BC00080B4FEA57211BD5026A1144D4F808A0E2
:1069CC00BBF1000F48D1B6F5007F45D3DAF82C2087
:1069DC00914241D0B6F5806F56D2DAF82800424683
:1069EC0003681B69984700282FD04FF4007745E0C7
:1069FC0090F8059009EA0109BBF1000F08D1B9F133
:106A0C00000F05D16FB912064CBF026A226A2261CF
:106A1C00A268216990790239526981401144494434
:106A2C00CCE71307216905D5A278570602D50131A9
:106A3C002161EDE718EE102A00F074FD002804DB4C
:106A4C00E6D1237813F0D00F9ED163784FF0FF304E
:106A5C0043F00203637098E7CBF5007700220AF14C
:106A6C002400B74228BF3746FDF73FFD0028ECD085
:106A7C0000EB0B013A46404603F068F96369B844F1
:106A8C00F61B3B4463617EE72078730A400606D40C
:106A9C009AF80400A0EB0900834228BF03469142F8
:106AAC004FEA432709D9DAF828000268D2F814A073
:106ABC004246D0470028E1D1C7E7C8188242F2D23B
:106ACC000AF12400CDE90013FDF7E7FCDDE9001322
:106ADC000028E8D1B9E773B501220DF1070104468E
:106AEC00D0E90456FFF734FF01280CBF9DF80700CE
:106AFC004FF0FF30C4E9045602B070BD436913F483
:106B0C00F07F37B50446C3F3431500D099B9012281
:106B1C000DF107012046FFF71BFF40B2012802D000
:106B2C00002003B030BD63691F33A068636134304B
:106B3C0000EB4510F5E72033F7E72DE9F0410D4662
:106B4C0001780446076981B14069A84206D03DB975
:106B5C002561A378656123F02003A370012006E072
:106B6C000B0706D5E369AB420BD200202761BDE8C9
:106B7C00F0814E0605D5A3681B89B5EB431FF4D8ED
:106B8C00E7E7D4F808C06E1EA2789CF806305206CF
:106B9C0003F10903DBB226FA03F603D5236A334467
:106BAC002361D6E7421E22FA03F39E4200D390B92A
:106BBC000B064CBFDCF82030236A236104F110086B
:106BCC00002EC6D042462169A068013E00F0AAFC06
:106BDC000028F5DCC9E7F61AF0E7F8B50F461646BB
:106BEC000021242204461D4603F08EF8B8683B6A47
:106BFC00A68006F00F06E36000F13403A06003EBFF
:106C0C004613DA7A17073ED402F037022270D97A8B
:106C1C0011F0180F04BF42F0080222709DF81820E2
:106C2C00E27005F00302012A25D0022A25D052BBBE
:106C3C006E0528D401229107A27007D52178CF06C2
