:0200000460009A
:100000004643464200000156000000000103030081
:1000100000000000000000000000000000000000E0
:1000200000000000000000000000000000000000D0
:1000300000000000000000000000000000000000C0
:1000400000000000010408000000000000000000A3
:100050000000800000000000000000000000000020
:100060000000000000000000000000000000000090
:100070000000000000000000000000000000000080
:10008000EB04180A063204260000000000000000FD
:10009000050404240000000000000000000000002F
:1000A0000000000000000000000000000000000050
:1000B0000604000000000000000000000000000036
:1000C0000000000000000000000000000000000030
:1000D00020041808000000000000000000000000DC
:1000E0000000000000000000000000000000000010
:1000F0000000000000000000000000000000000000
:10010000D8041808000000000000000000000000F3
:100110000204180804200000000000000000000095
:1001200000000000000000000000000000000000CF
:10013000600400000000000000000000000000005B
:1001400000000000000000000000000000000000AF
:10015000000000000000000000000000000000009F
:10016000000000000000000000000000000000008F
:10017000000000000000000000000000000000007F
:10018000000000000000000000000000000000006F
:10019000000000000000000000000000000000005F
:1001A000000000000000000000000000000000004F
:1001B000000000000000000000000000000000003F
:1001C000000100000010000001000000000000001D
:1001D000000001000000000000000000000000001E
:1001E000000000000000000000000000000000000F
:1001F00000000000000000000000000000000000FF
:10020000FFFFFFFFFFFFFFFFFFFFFFFFFFFFFFFFFE
:10021000FFFFFFFFFFFFFFFFFFFFFFFFFFFFFFFFEE
:10100000D10020432914006000000000000000000F
:101010002010006000100060007C016000000000F3
:10102000000000600088010000000000FFFFFFFFDB
:10103000FFFFFFFFFFFFFFFFFFFFFFFFFFFFFFFFC0
:10104000FFFFFFFFFFFFFFFFFFFFFFFFFFFFFFFFB0
:10105000FFFFFFFFFFFFFFFFFFFFFFFFFFFFFFFFA0
:10106000FFFFFFFFFFFFFFFFFFFFFFFFFFFFFFFF90
:10140000884207D0904205D251F8043B40F8043B93
:101410008242F9D8704700BF884204D2002340F8C6
:10142000043B8142FBD870472DE9F84F684A4FF4DE
:101430002A01684B68485A641864684A996395465B
:10144000BFF34F8FBFF36F8F00F09CF90824644BFC
:10145000644AC3F8544164496448FFF7D1FF644AC1
:1014600064496548FFF7CCFF64496548FFF7D4FF3E
:10147000644C4FF0E0214FF470000023624AC1F841
:10148000880D44F823200133B02BFAD15F4B802123
:101490005F4A03F8011B9342FBD14FF0E025504E09
:1014A0004FF08039DFF894B1DFF894A14FF0FF31AD
:1014B000C5F8084D0027C6F80491C6F800B1C6F873
:1014C000F490C6F8F0A0D5F8243DDFF8788143F415
:1014D000E023404AC5F8243DD8F81C3023F07F03B0
:1014E00043F04003C8F81C30D8F8243023F07F03C1
:1014F00043F04003C8F824309166D1661167516704
:1015000000F046F9434B4449A363444BE363632330
:101510006B610323AF612B61414BC5F8203DD5F8CA
:10152000FC3D43F08073C5F8FC3D3E4B1A6842F029
:1015300001021A605B680B6000F068FBC6F804915A
:101540003948C6F800B1C6F8F490C6F8F0A000F02B
:10155000CFFCD8F86C10354B354A41F44051C8F8EF
:101560006C101F60C3F80871C3F81871C3F82871B4
:10157000C3F83871936BDB0708D442F615632D4925
:1015800051651365936B43F001039363284A2A4C1A
:10159000936843F00113936000F076F900F060FC6B
:1015A00000F08EFC00F060FB00F0EEF82368132BD7
:1015B000FCD900F049F82368B3F5967FFBD300F01F
:1015C000E5F800F0A1FC00F08FFC30BFFDE700BFA4
:1015D000BFAAAAAA00C00A40070020000080062077
:1015E00000800D40B8360100782300600000000044
:1015F000C01E0020345A016000000020A07B0020A3
:10160000C01E0020001C0020C1B8000000E400E063
:10161000A0E400E08DC20000E87A002091C2000042
:1016200000002020001000E000366E01004008405D
:1016300000400D400000C056EC7A00201B1018201E
:101640000C0D111300C00F40314B40F6617210B504
:10165000C3F8202140F2044400F04EFC2D4A2E49EC
:10166000D2F880302D4843F00303C2F880302C4B71
:10167000C1F8604102681A4203D1D1F8A8319A0733
:101680001BD0254A4FF00041244B5963D2F840311A
:1016900043F00203C2F84031D2F840319B07FBD43B
:1016A0004FF400304FF0E0211C4B4FF00042C1F8E6
:1016B0008C0219209A6300F00FFC184A4FF080400A
:1016C000154C002190630A20164B11604FF4607294
:1016D000C4F8A801184600F003FC4FF4800203464A
:1016E0004FF4810040F243111860C4F858311A6475
:1016F0000D4B0E4AC4F84811C3F804224FF0E02203
:101700004FF400310123C2F80C11C4F8403110BD70
:1017100000800D4000C00F4000002E4000900D40A2
:10172000001C1E0000000020001C002075AE000000
:1017300008B50E4B1B6E9B0700D4FBBE72B60C4B5C
:1017400000200C4AC3F8400103F160430A49A3F5A5
:101750005F2311649D46BFF34F8F4FF4001307487A
:10176000074ADB6902609B68984700BF00441F403E
:1017700000002E4000C00A4003002000008020200E
:10178000000012EB704700BF704700BF704700BFFA
:1017900010B44FF0E023002110242B48C3F8941D0F
:1017A000C3F89C4D1124C3F8A00D2848C3F89C4DE4
:1017B0001224C3F8A00D2648C3F89C4D254AC3F84F
:1017C000A00D254C42F015022448C3F89C4DC3F8E7
:1017D000A00D234C2348C3F89C4DC3F8A00D224C08
:1017E000C3F89C2D2148224AC3F8A04DC3F89C0D94
:1017F000C3F8A02D02F5A0221E4C0C321E48C3F8DF
:101800009C4DC3F8A02D1D4AC3F89C0D1C4CC3F879
:10181000A02D01221B48C3F89C4DC3F8A00DC3F8AE
:10182000942DBFF34F8FBFF36F8FC3F8501FBFF3DB
:101830004F8FBFF36F8FD3F8142D5DF8044B42F434
:101840004032C3F8142D70473F00001025000803F4
:1018500009001000A07B00201300200021000207D7
:101860001400002025000813090000101600202095
:1018700027000B1317000040180000602F000B0713
:10188000190000702F000B13F0B5B84B1822B84E9A
:101890000120B84F83B0C3F85C62B749C3F86072E7
:1018A000B64DC3F86462A6F53046B54CC3F868621D
:1018B000C3F86C52C3F87052C3F87452C3F878522C
:1018C00048F20C75DA661A675A679A67DA67C3F8DE
:1018D0008020C3F88420C3F88820C1F82C03A94ACB
:1018E000C1F83003C1F83403C1F83803C1F83C0330
:1018F000C1F85003A169A44B0A40A448A44913436A
:10190000A44AA361D4F8843043F00C03C4F88430B3
:101910004FF0FF34036843F00203036003682B4079
:101920004FF400551A439C4B026044608A689B4CFC
:1019300013409B4A43F000538360C36823F078034D
:10194000C360036A134023430362036A1340954A4A
:101950002343954C43628262C2620022D1F8B830C0
:1019600023F03F0343F00103C0F8B830D1F8BC3096
:101970008E4923F03F0343F00103C0F8BC3040F22E
:101980000563026105660467C0F8803045664467F8
:101990000224C0F88430036823F0020303608161ED
:1019A000834B8449C46143F8042B8B42FBD1774AB3
:1019B000136843F001031360136813F00103FBD1B4
:1019C0007A48022140F2F564906140F29940D16179
:1019D00040F26641C2F8004242F20144C2F81012DD
:1019E0007549C2F82002C2F8301240F235417348FE
:1019F000C2F83442C2F84012714CC2F8500242F2AE
:101A000001207049C2F854120121C2F86042C2F8A4
:101A100064025E48C2F8A030C2F8A430C2F8B01028
:101A20004369DA07FCD5012300244FF4803257497B
:101A30004361C0F8A040C0F8A420C0F8B0304B69A2
:101A4000DB07FCD5012300244FF400304F4A4B61E3
:101A5000C1F8A040C1F8A400C1F8B0305369DF0755
:101A6000FCD501230024584848495361C2F8A040DE
:101A7000C2F8A400C2F8B0304B69DE07FCD5D1F83B
:101A8000003145F60D5221209BB24861934265D149
:101A900000244FF4802201233C48C1F8A040C1F843
:101AA000A420C1F8B0304369DD07FCD501234FF411
:101AB00000040021354A4361C0F8A040C0F8A410DA
:101AC000C0F8B0305369DC07FCD501234FF40004A3
:101AD0004FF480302D495361C2F8A040C2F8A400F1
:101AE000C2F8B0304B69D807FCD501234FF400048D
:101AF0004FF40030254A4B61C1F8A040C1F8A40062
:101B0000C1F8B0305369D907FCD501234FF4000464
:101B10002D481E495361C2F8A040C2F8A400C2F883
:101B2000B0304B69DA07FCD5D1F8003145F60D52DB
:101B300021209BB24861934250D008254FF4000405
:101B400022490020224B234A009015705A1A012383
:101B50002148224400F0BCF903B0F0BD1E4B002226
:101B6000C3E90022C3E9022203B0F0BD00801F4098
:101B7000F9B00100F910010000841F40F970010064
:101B800000C00F40FFFCFF1F000300A000402A40E0
:101B900000802A401200FFFFFF37F700400000805E
:101BA00000FFF07CFF000F8363000200F05AF05A40
:101BB00000422A4000432A409F041830EB06180ACE
:101BC0003806180A063201260400030000000070DF
:101BD00000000070627B0020A07300204FF400041E
:101BE0004FF4802201230848C1F8A040C1F8A42086
:101BF000C1F8B0304369DB07FCD5012310254FF055
:101C0000807443619CE700BF00402A40F0B4154A4D
:101C100040274FF480314FF480564FF400554FF475
:101C2000404443F24200136913F0020F0ED113F443
:101C3000005F0FD013F4805F0ED0002BF3DA13F4A3
:101C4000803F0BD15B060BD5F0BC704794615161AE
:101C50009061E8E75561E6E75661E4E79161E2E704
:101C60005761E0E700800D403F4A03203F49F3EE13
:101C7000095AD2F880304FF0000C9FED3D6A23F0F6
:101C800001039FED3C5A30B4C2F88030C2F8900096
:101C9000D1F8E010384DCBB2384C39482B6007EE04
:101CA000903A0B0DC1F30B21F8EEE77A06EE903A6D
:101CB00007EE101A334BB8EEC77A2160F8EEE66AE9
:101CC000314937EEC66A37EEC55A76EEC76A77EE07
:101CD000E57A26EE266AC3ED006A25EE265AD2F88A
:101CE000803067EEA64AC0ED007AC6EE275A274834
:101CF00085EE276AC4EEA76A75EE875AFCEEE55AB0
:101D000036EE076A15EE904ABCEEC66A43EA045303
:101D100076EE877AC2F8803016EE103AD2F890410B
:101D2000FCEEE77A01EA0341214317EE903AC2F84C
:101D30009011C3F30B03D2F890110B431449C2F86E
:101D40009031D2F8803043F00203C2F88030114B5A
:101D500080F840C0C1F840314FF0E023012230BC90
:101D6000C3F80821704700BF00810D4000441F40A8
:101D70000000AA420000B442D87A0020D47A0020A1
:101D8000DC7A0020E07A00200000FF0F00E400E091
:101D9000001C002095BB0000B1F5607FF8B50E4631
:101DA0000F4628BF4FF46076054672B6234B0024D9
:101DB000702218602146224B22481C8000F090F8C7
:101DC000CFB121461F484FF0010C4A0901F01F0313
:101DD000013150F822400CFA03F38E4243EA040327
:101DE00040F82230F1D8284600234380013300F523
:101DF00082709E42F9D8144C25780DB162B6F8BDB8
:101E0000082000F061F88022104902710560104A34
:101E100000F076F82378002BF0D10E4B0E4AC3F871
:101E200058210E49D0204FF0E023402281F846008F
:101E3000C3F808210123237062B6F8BD0C640020AA
:101E40003C7B002014640020597B002029C5000041
:101E50001B100100001C002035C5000000E400E05C
:101E6000104BA020104AD96E41F4403110B4D9660D
:101E700040F23764D96E41F44071D966546490647D
:101E8000936C1B06FCD4094A40F23761A0235164CD
:101E90009364936C13F08003FBD1054A13705DF8D3
:101EA000044B704700C00F4000400C4000800C40C5
:101EB000617B0020F8B500BFF8BC08BC9E467047A7
:101EC0005FF800F05DBD00005FF800F099D0000001
:101ED0005FF800F011BB00005FF800F0C5B700002C
:101EE0005FF800F065E000005FF800F019C5000041
:101EF0005FF800F039A900005FF800F07DC0000035
:101F00005FF800F05DD100005FF800F0DDE2000056
:101F100045000000491A00000D1C0000411C000093
:101F2000711C0000891C0000A11C0000B91C0000ED
:101F3000D11C0000E91C0000011D0000191D00005B
:101F4000311D0000491D0000711E0000891E0000A7
:101F5000A11E0000B91E0000D11E0000E91E0000F5
:101F6000011F0000191F0000311F00003D2000006C
:101F7000552000006D200000852000009D200000FD
:0C1F800011240000352900004930000049
:101F8C0070C00F40C00000001200000013000000E1
:101F9C00D0841F4001000000FF000000FF00000083
:101FAC0000000000000000001300000013000000FF
:101FBC00CC841F4001000000FF000000FF00000067
:101FCC0000000000000000001C000000ED230000D9
:101FDC0070C00F40000C0000110000001100000048
:101FEC00E0841F40020000002C00000012000000E2
:101FFC00E0841F40010000001000000011000000F0
:10200C00DC841F40020000002D00000012000000C4
:10201C00DC841F40010000001E000000F9230000BA
:10202C0080C00F40000000031900000010000000E9
:10203C00E8841F4001000000FF000000FF000000CA
:10204C00000000000000000018000000100000005C
:10205C00E4841F4001000000FF000000FF000000AE
:10206C0000000000000000001F000000052400001C
:10207C0024035400650065006E0073007900200095
:10208C004D004900440049002F00410075006400D8
:10209C0069006F0018035400650065006E00730042
:1020AC0079006400750069006E006F000403090478
:1020BC0009025501060100C032080B0002020201A0
:1020CC0000090400000102020100052400100105B2
:1020DC0024010101042402060524060001070582DF
:1020EC000310001009040100020A00000007050398
:1020FC0002400000070583024000000904020002B0
:10210C00010300000724010001250006240201013F
:10211C00000624020202000924030103010201004B
:10212C000924030204010101000905040240000016
:10213C000000052501010109058402400000000092
:10214C000525010103080B03030101000009040329
:10215C000000010100000A240100013E00020405F8
:10216C000C240201020600020300000009240302F1
:10217C0001010001000C2402030101000203000014
:10218C00000A24063103010102020009240304029F
:10219C0006003100090404000001020000090404D7
:1021AC00010101020000072401020301000B2402BB
:1021BC00010202100144AC0009058509B4000100BC
:1021CC0000072501000000000904050000010200C1
:1021DC0000090405010201020000072401030301A8
:1021EC00000B2402010202100144AC000905050594
:1021FC00B4000100860725010000000009058611C6
:10220C00030001050000000009025501060100C091
:10221C0032080B0002020201000904000001020254
:10222C00010005240010010524010101042402060B
:10223C0005240600010705820310000509040100AE
:10224C00020A0000000705030200020007058302D2
:10225C00000200090402000201030000072401002F
:10226C0001250006240201010006240202020009D5
:10227C0024030103010201000924030204010101EA
:10228C0000090504020002000000052501010109F6
:10229C0005840200020000000525010103080B0360
:1022AC0003010100000904030000010100000A24DD
:1022BC000100013E000204050C240201020600028A
:1022CC00030000000924030201010001000C240298
:1022DC000301010002030000000A2406310301017E
:1022EC000202000924030402060031000904040060
:1022FC00000102000009040401010102000007248E
:10230C0001020301000B2402010202100144AC0083
:10231C0009058509B4000400000725010000000030
:10232C000904050000010200000904050102010274
:10233C000000072401030301000B24020102021018
:10234C000144AC0009050505B4000400860725010D
:10235C0000000000090586110400040700000000BD
:0C236C000A060002EF020140010001001F
:102378000000000000000000000000000000000055
:102388000000000000000000000000000000000045
:102398000548064B1B1AD90F01EBA301491002D0BF
:1023A800034B03B118477047C01E0020C01E002011
:1023B8000000000008B5054B1BB105490548AFF3FF
:1023C8000080BDE80840FFF7E3BF00BF0000000041
:1023D8004C7600200088016000207047704700BFDD
:1023E800036D0BB101207047406D003818BF012004
:1023F800704700BF384B3949394AF0B51C6818791D
:102408002369D0778B420BD2364B1B78002B60D0D8
:102418004FF0E023402201F5007CC3F8082202E0D7
:102428008C46A1F5007100231A4651F83300013398
:10243800402B0244F9D1002A2B4F2C4D4FF00003BA
:10244800B8BF3F323C68081D2E684FEAA21E51F8FB
:102458003320121B41F8332050F83320921B40F8E8
:1024680033200133402BF2D1AEEB0403204A13EBA7
:102478000413106848BF0F331B113B60AEEB060313
:1024880013EB061348BF0F331B112B60194B1C6845
:10249800F0B1ECB1184A1388402B19D89D1C403371
:1024A80000EB4500138004EB4504144D51F8082B4C
:1024B800B5F900308C4542FA03F251F8043C20F893
:1024C800022BB5F9002043FA02F324F8023BEDD8B9
:1024D800F0BD01F5007CA6E7BC6500208C5E0020FD
:1024E80000800E405E7B0020C4650020C865002087
:1024F800B4650020B8650020427B0020421A002005
:10250800F8B506460CF000FAC0B104460CF0FCF928
:10251800054680B172B61E4B1A887F2A17D81D4906
:102528000A6872B362B620460CF044FA2846BDE841
:10253800F8400CF03FBA20460CF03CFA72B6144B47
:102548001A887F2A01D862B6F8BD00252C461148A2
:102558000022114907681A8004600C680D6062B691
:10256800394630460CF04EFA38460CF023FA30461D
:10257800214601220CF046FA2046BDE8F8400CF04E
:1025880019BA0C6004491A80086062B6F8BD00BF29
:10259800427B0020B4650020B865002010B50446D1
:1025A800806D18B10DF004F80023A365236D2BB1DD
:1025B80004F11800BDE8104007F098BA636D002BCD
:1025C800F6D110BD10B504460CF084F8204610BDB5
:1025D80010B50446806D00B110BD4FF480700CF04A
:1025E800DFFFA065B0B10022236D02703BB1014648
:1025F8004FF48072184605F009FCA06D10BD636D9C
:10260800002BE9D001464FF48072184603F0BEFB58
:10261800A06D10BD014B1846A36510BD607B00205E
:1026280038B5056D6DB10BB1002038BD114628468F
:1026380006F048F90028F7D02846BDE8384006F0EB
:10264800E7BA446D002CEFD0204603F0A9FD00281E
:10265800EAD02046BDE8384004F0C6BE8A79A2F127
:1026680050031B0622D402F26C72F0B54B7985B088
:10267800046D01330D798E784F78DBB209784CB14F
:10268800204601960095CDE90271022106F054FA20
:1026980005B0F0BD406D0028FAD001960095CDE94F
:1026A8000271022104F0E4FD05B0F0BD002070477E
:1026B80010B50446006D80B1037813F0D00F00D137
:1026C80010BD002106F0FEF8606D0028F8D0002249
:1026D8000023BDE8104003F063BD606D0028EFD013
:1026E80090F8313013F0500FEAD000220023BDE8F3
:1026F800104003F055BD00BF036D10B50C4682B005
:102708002BB30DF1060201A9184605F08FFC38B36A
:10271800BDF80430BDF8062053EA020120D0C2F308
:10272800451C02F01F00D20AC3F34311400084F88D
:1027380001C0A2705A0A013903F01F0302F5EA62C8
:102748002070012061712371A27102B010BD406D2B
:1027580030B10DF1060201A903F0C6FB0028D7D15C
:10276800002002B010BD00BF036D10B50C4682B04A
:102778002BB30DF1060201A9184605F047FC38B342
:10278800BDF80430BDF8062053EA020120D0C2F398
:10279800451C02F01F00D20AC3F34311400084F81D
:1027A80001C0A2705A0A013903F01F0302F5EA6258
:1027B8002070012061712371A27102B010BD406DBB
:1027C80030B10DF1060201A903F07CFB0028D7D136
:1027D800002002B010BD00BF006990B10368154A1F
:1027E8001B69934225D1036D63B1187810F0080076
:1027F80007D0D8695B69C01A48BF6FF000407047BE
:1028080018467047436D002BFAD093F8310010F04A
:102818000800F6D0186919685A69401A5B6862EBB3
:102828000303B0F1004F73F10003EAD36FF00040E7
:1028380070471847DD070000036963B11A68074944
:1028480092698A4208D1186D08B106F06FB9586DBF
:1028580008B104F099BB70471846104705070000F7
:10286800036973B11A68084952698A4207D1186D19
:1028780008B105F0B3BE586D18B103F07BBC18461B
:1028880010474FF0FF30704775060000036923B307
:102898001968134A10B58C6882B0944214D1186D27
:1028A80048B101220DF1070105F0C4FD90B19DF872
:1028B800070002B010BD586D0028F8D001220DF1B4
:1028C800070103F087FBF1E701220DF10701184624
:1028D800A047EBE74FF0FF30EBE74FF0FF307047D2
:1028E800B5060000036D13B1586900217047436DA8
:1028F80013B1D3E90001704718461946704700BF65
:10290800036D13B1D86900217047436D13B1D3E942
:102918000401704718461946704700BFF0B595B0D6
:1029280000224FF47A74244F1831054604A88DF814
:10293800042002948DF80C200097CDE9122207F0AC
:102948003DF9129B73B35C2000260CF05DFD9DF8E9
:10295800043004464660037304A9029B183040F80B
:10296800083C9DF80C3000F8043C144B40F8183C27
:10297800134B40F8103C07F077F8124B4FF47A727B
:10298800A7602B606368A66501332E712E73AA6059
:102998002C6163600C4B04A8009307F0A7F8284645
:1029A80015B0F0BD139B002BCDD1064A2B71AC603E
:1029B8002B732A602B61EDE7B80A0020E80A002093
:1029C800440B00208C0A00209C090020836C13B162
:1029D800184605F003BEC06C08B103F0CBBB4FF03E
:1029E800FF307047036D13B1184605F0F7BD406D11
:1029F80008B103F0BFBB4FF0FF307047036D33B130
:102A08001B7813F0D00F14BF012000207047406DD1
:102A180030B190F8313013F0500F14BF012000206E
:102A2800704700BF036D13B1184605F003BD406D34
:102A380008B103F0CFBA4FF0FF307047836C00B590
:102A480083B063B101220DF10701184605F0F2FCCD
:102A580001280CD19DF8070003B05DF804FBC06C99
:102A680028B101220DF1070103F0B4FAF0E74FF0A5
:102A7800FF30F1E7036D13B1184606F057B8406D03
:102A880008B104F081BA7047836C13B1184606F098
:102A98004DB8C06C08B104F077BA7047036D13B134
:102AA800184606F0EFB8406D08B104F00FBD704746
:102AB800836C13B1184606F0E5B8C06C08B104F091
:102AC80005BD704700B5836C83B08DF8071043B11E
:102AD80001220DF10701184606F0D4F803B05DF89D
:102AE80004FBC06C0028F9D001220DF1070104F0A5
:102AF800EDFC03B05DF804FB8A79A2F150031B06D4
:102B080022D402F26C72F0B54B7985B0046D0133B2
:102B18000D798E784F78DBB209784CB12046019652
:102B28000095CDE90271042106F006F805B0F0BD64
:102B3800406D0028FAD001960095CDE90271042174
:102B480004F096FB05B0F0BD00207047036D53B14B
:102B5800187810F008000DD0D8695B69C01A48BF12
:102B68006FF000407047436DA3B193F8310010F047
:102B7800080000D17047186919685A69401A5B68DB
:102B880062EB0303B0F1004F73F10003F2D36FF06F
:102B9800004070471846EDE7836C53B1187810F081
:102BA80008000DD0D8695B69C01A48BF6FF00040B3
:102BB8007047C36CA3B193F8310010F0080000D13E
:102BC8007047186919685A69401A5B6862EB030311
:102BD800B0F1004F73F10003F2D36FF0004070477B
:102BE8001846EDE700B5006983B08DF8071060B1AD
:102BF8000368104ADB68934215D1036D43B1012283
:102C08000DF10701184606F03DF803B05DF804FB26
:102C1800406D0028F9D001220DF1070104F056FC9F
:102C280003B05DF804FB01220DF10701984703B0DA
:102C38005DF804FB2D0700000369D3B10E4810B4FA
:102C48001C68E46884420FD1186D18B15DF8044B14
:102C580006F018B8586D18B15DF8044B04F036BC8E
:102C680000205DF8044B7047184623465DF8044B76
:102C780018470020704700BF2D07000038B50446EC
:102C88000C4B806D236018B10CF092FC0023A365F7
:102C9800236D04F118054BB1284606F027FF064BB3
:102CA8002846A36006F022FF204638BD636D002B3E
:102CB800F2D1F4E7E80A00209C09002038B5044660
:102CC8000E4B806D236018B10CF072FC0023A365D5
:102CD800236D04F118056BB1284606F007FF084B71
:102CE8002846A36006F002FF20465C210CF08EFB0C
:102CF800204638BD636D002BEED1F0E7E80A0020CE
:102D08009C09002030B4029C11469C4634B1012C29
:102D18001CD0022C0ED0002030BC7047056DF5B1D8
:102D28004FF0FF33934274EB0C04F4D3284630BCC5
:102D380005F0C8BD026D0AB3D36959184CF10003F8
:102D4800002BE8D1104630BC05F0BCBD026D62B165
:102D5800536959184CF10003002BDCD1F2E7406DA0
:102D68000028D8D030BC03F01BBA406D0028D2D060
:102D7800D0E900238A184CEB0303F3E7406D0028E1
:102D8800C9D0D0E9042330BC8A184CEB030303F004
:102D980007BA00BF70B5244B044605690360002DCF
:102DA80032D06E68013E6E6076BB2B681F4ADB6AC4
:102DB80093422FD1A86D10B10CF0FAFBAE652B6DC4
:102DC80023B305F1180006F091FE2569E5B12B68DB
:102DD800174A5B68934224D1164BA86D2B6018B133
:102DE8000CF0E6FB0023AB652B6D05F11806A3B1CB
:102DF800304606F07BFE104B3046AB6006F076FEA0
:102E08005C2128460CF002FB204670BD6B6D002B40
:102E1800D7D1DAE728469847D7E76B6D002BE7D17B
:102E2800E9E728469847EFE78C0A00202D020000C2
:102E38004D090000E80A00209C09002070B5264BC7
:102E4800044605690360002D32D06E68013E6E604D
:102E580076BB2B68214ADB6A934233D1A86D10B147
:102E68000CF0A6FBAE652B6D43B305F1180006F018
:102E78003DFE2569E5B12B68194A5B68934228D164
:102E8800184BA86D2B6018B10CF092FB0023AB65B2
:102E98002B6D05F11806C3B1304606F027FE124B1C
:102EA8003046AB6006F022FE5C2128460CF0AEFAF4
:102EB800204614210CF0AAFA204670BD6B6D002B39
:102EC800D3D1D6E728469847D3E76B6D002BE3D1DB
:102ED800E5E728469847EBE78C0A00202D0200001A
:102EE8004D090000E80A00209C090020324A3349B5
:102EF800D36F43F44023D3678B68002B5ADBD1F898
:102F08008830002B56DB2E4B42F210722D484FF4BE
:102F18000C6130B41867C3F88010C3F890201A6F9A
:102F280022F480521A671A6F002AFCDAD3F870016B
:102F38000025254A20490240244C2548C3F8702121
:102F48001A6F22F480321A67CA69224B22F440624F
:102F580042F40062CA618A6A13401F4A43F0CE03F2
:102F68008B62032163681A40144B42F400226260AA
:102F780001241A4AC0F82011C0F82811C0F82411F9
:102F88004FF480301D661649DC601A61154A586195
:102F98009961DA61C3F8E050C3F88C4004F1E06449
:102FA800C3F89040C3F89400C3F89810C3F89C2065
:102FB80030BC7047704700BF00C00F400040384029
:102FC80000800D401C201100FF7F7FFF00C00A40D9
:102FD80000801F4000FEFFFFF8FFF7FF01000047D9
:102FE8001B1F0100001F1F1F38B5244C0546012177
:102FF80020460BF015FB2846FFF778FF20490320F1
:10300800204B02220625C1F87C01C3F89421042232
:1030180023681D499A6059609A824FF480721B4850
:103028001B49186000201961DA822179DA839D83AF
:10303800A5F20645174AD8609D6142F82100164856
:10304800164B42F82100164AC3F888200BF00EFEF2
:103058002379144C0121144A207003F11000134CF9
:1030680002EB5312E37603F01F039200104C9940D1
:10307800104B43F82040116038BD00BFBC650020EC
:1030880000801F4000841F4000000202A04038401A
:103098008C5C002000C00E401300008000403840C7
:1030A800010000925E7B00204038003800800E400E
:1030B80085000000001C00202DE9F04F85B00C466B
:1030C80003900AF0A5FE82460AF088FDAC4B04F195
:1030D800FE06B4F9002081461D68234629462C4681
:1030E8002A80184602334288B3420088A2EB0002C5
:1030F80024F8022FF5D105F1FE04002231F9023F30
:10310800002BC3F10000B8BF03B29A42B8BF1A46F9
:10311800A142F3D1022701217D1E01FA05F3934252
:1031280000F300810137102FF6D1964A4FF08D0831
:1031380081234FF6FF700F2502929349934C51F863
:10314800252004F1FE06A346013241F82520224637
:1031580032F8021F014096421180F9D18C4DE822C5
:103168000021019305F118000DF034F9BBF8002097
:10317800029B00212A834FF0A5324FF0100C0D203E
:103188002A600122C5F80C90ABF800102A61C5E945
:10319800013A019B6B610AE035F8101094464EEA3B
:1031A800010E25F810E0A64218D034F8021FACEB47
:1031B8000702002A01FA02FEEEDCA7EB0C0E00F172
:1031C800010902F1100C35F810202FD10A43A6424C
:1031D8004FF0100C25F810204846E6D16D4E3468A3
:1031E80004EB0802802A2DDC6FF000436A4A684825
:1031F8004AF2A551234402EB4302002301E030F8D0
:10320800021F013322F8021F4345F8DBB8F1000F13
:1032180008F1FF3304F101044FF00107D8BF002380
:1032280023443360384605B0BDE8F08F41FA0EFEFE
:1032380001FA0CF14EEA020E25F810E0484625F88E
:103248001910B0E7742C21DD7F2C0ADCC4F1800250
:1032580051480021520000EB44000DF0BBF88023D8
:1032680033600BF051FB0746002879D1B8F1000F05
:103278004FEA48024649D8BF0222474809F0DAF81F
:103288003846C6F8008005B0BDE8F08FC4F17A0270
:10329800414842EA03434AF2A5526B616FF000438A
:1032A8003B4D2344294600EB4303FE3001E031F84F
:1032B800022F23F8022F9842F9D18023C4F1800904
:1032C80033600BF021FB0746002839D16A69C145F4
:1032D800324BDFF8BCE003EA0203A8EB0902DFF88F
:1032E800B8C043EA02036B614FF00C033360BEE8D9
:1032F8000F00ACE80F009EE803008CE8030091DAA9
:10330800A4F1800205EB49010CF108004244520087
:1033180009F090F8A4F1740338464344336005B0CB
:10332800BDE8F08F01FA07F04FEAC70847F42023F9
:103338000138029308F1010380B208F10D08FCE698
:103348004FF480721449043009F074F83946039830
:1033580000220BF057FB38460BF02CFB0127B5E792
:103368004FF480720C49043009F064F80398394628
:1033780000220BF047FB384601270BF01BFB75E7D3
:10338800281A002010000A00D0760020FC620020D5
:10339800FC610020DC6500208C6000200000FFFF3D
:1033A80038B5002105460BF051FB48B10446011D14
:1033B8002846FFF781FE2046BDE838400BF0FABAF0
:1033C80038BD00BF30B587B004460AF021FD1D4B5B
:1033D80002461D4D83FB0213D11728681344C1EB25
:1033E800E32383422AD02B600AF012FD04AA0021AD
:1033F80001F018F89DF816209DF814109DF8150096
:1034080002F2B2729DF81250104BCDE902151B68FA
:103418000F49CDE900200F4A204612680CF062FEE1
:1034280001210D4809F0C2FB20460DF0A1F9014623
:10343800204609F0BBFB012007B030BD002007B0D3
:1034480030BD00BFC5B3A29148760020C058002007
:10345800F804002048140020A007002030B58BB0E5
:1034680004460AF0D5FC002108AA00F0DBFF9DF80D
:103478002100184B069018689DF8221004909DF8BA
:1034880020509DF824009DF82620134B079502F242
:10349800B2721B680591CDE902019DF825000F491C
:1034A800CDE900200E4A204612680CF01BFE0121CF
:1034B8000C4809F07BFB02210B4809F077FB2046FA
:1034C8000DF056F90146204609F070FB01200BB0BB
:1034D80030BD00BF54140020C0580020C404002090
:1034E80048140020A0070020F404002030B500256F
:1034F80089B004460AF08CFC06AA294600F092FF1F
:103508009DF818109DF8192020469DF81E30CDE929
:1035180003219DF81A1003F2B2739DF81C20CDE91F
:1035280001219DF81D100E4A00910E490CF0DAFD9C
:1035380001220D498318E250234408684FF05531A1
:103548009D614AF64445DA60586010469D604FF424
:1035580096723C25C3E90452C4F8FC1109B030BD89
:103568007004002078040020C05800202DE9F041A4
:1035780094B0052800F23681DFE810F0600096006C
:10358800BB00DB0006000600994D2C69002C00F0FA
:1035980029812368974EDB6AB34240F07482A06D9C
:1035A80018B10CF005F80023A365236D002B00F07B
:1035B800458204F1180006F099FA2F697C68013CED
:1035C8007C60002C33D13B68DB6AB34240F06C82EC
:1035D800B86D10B10BF0ECFFBC653B6D002B00F033
:1035E800558207F1180006F081FA2C69FCB12368AE
:1035F800814A5B68934240F06E82804BA06D2360E5
:1036080018B10BF0D5FF0023A365236D04F118064C
:10361800002B00F00B82304606F068FA784B3046F3
:10362800A36006F063FA5C2120460BF0EFFE00234E
:103638004FF0FF302B6114B0BDE8F0817148FFF7FF
:10364800C1FE002800F0FF806F4CD4F88424002AC3
:1036580000F0EA806D46002311466A4A2846009326
:1036680004F098FE002840F0EE80D4F88464002E20
:1036780000F07B8200240123624A06F24441284676
:10368800009404F099FD002840F0DD805F480BF0BD
:1036980095FE09225E495D480BF042F85B480BF045
:1036A8008DFE4FF0FF309FE05A48FFF71FFF504B49
:1036B8001B698BB11968584ACC68944240F0F7816D
:1036C800186D002800F05A814FF40072514905F036
:1036D800D9FAB0F5007F28D24C480BF06FFE0C21C8
:1036E8004E4809F063FA49480BF068FE4FF0FF3086
:1036F8007AE04B4A3E4913680C6901331360002C89
:1037080000F02F812368444ADB68934240F0D88157
:10371800206D002800F03C814FF42062414905F0FB
:10372800B1FAB0F5206FC0F01C81022014B0BDE8DA
:10373800F0812F4D2C69002C00F0878123682D4ED5
:10374800DB6AB34240F0B981A06D18B10BF030FFCD
:103758000023A365236D002B00F09D8104F1180060
:1037680006F0C4F92F697C68013C7C60002C33D1D9
:103778003B68DB6AB34240F05E81B86D10B10BF074
:1037880017FFBC653B6D002B00F0C88107F11800DE
:1037980006F0ACF92C69FCB12368174A5B689342C0
:1037A80040F0D681154BA06D236018B10BF000FFD7
:1037B8000023A365236D04F11806002B00F0BD81DA
:1037C800304606F093F90E4B3046A36006F08EF9AA
:1037D8005C2120460BF01AFE002318462B6114B01A
:1037E800BDE8F0814FF0FF3014B0BDE8F08100BFB4
:1037F800B47300202D0200004D090000E80A0020E3
:103808009C0900200869002000530020581400205B
:1038180014050020487400202D07000048050020EA
:103828008873002088690020D4F8881400293FF4A0
:103838002DAF6D4613460C922846A84A02F084FF25
:1038480000283FF412AFA648FFF708FE002800F052
:10385800A38140F20223A24AA249684606F072FAFE
:10386800129B002B00F0F7805C2000250BF0CCFDAC
:103878009D4B9DF804600446029918309DF80C2071
:1038880040F8183C994B00F80C6C40F8081C04A947
:1038980040F8145C00F8042C40F8103C06F0E4F8FA
:1038A8006368934A04A80133DFF86C82A5656360F6
:1038B800A260904DCDF8008006F018F967682E696F
:1038C8007B1C6360002E00F0BE807368013B736050
:1038D800002B66D13368884ADB6A934240F0358111
:1038E800B06D18B10BF064FE0023B365336D002B87
:1038F80000F0198106F1180006F0F8F82E69FEB1FB
:1039080033687E4A5B68934240F04081764BB06DE5
:10391800336018B10BF04CFE0023B365336D06F12C
:103928001807002B00F01781384606F0DFF83846F4
:10393800C6F8088006F0DAF85C2130460BF066FD20
:103948002C61002C40F025816D480BF037FD1121CA
:103958006C4809F02BF96A480BF030FD4FF0FF3046
:1039680042E767480BF02AFD0A21674809F01EF96B
:1039780063480BF023FD4FF0FF3035E7586D002802
:103988003FF4AAAE4FF40072604903F09FFDA0E631
:10399800606D0028E5D04FF420625D4903F096FD84
:1039A800BFE667682C61013F6760002F51D123682B
:1039B800514ADB6A934240F0C580A06D10B10BF00C
:1039C800F7FDA765236D002B00F0B28004F1180005
:1039D80006F08CF82368494A5B68934237D1424B1A
:1039E800A06D236018B10BF0E3FD0023A365236DE0
:1039F80004F11806002B00F0B380304606F076F884
:103A08003046C4F8088006F071F820465C210BF0B7
:103A1800FDFC2869002897D003683E4A1B6B934237
:103A280054D1036D002B3BD00120DDE6636D002BE4
:103A38007FF4F1ADF2E538469847ABE6636D002BAD
:103A48007FF4B7ADB9E52C61AEE72046CCE6204659
:103A580098472869DEE7139C002C7FF405AFDFF850
:103A6800B88004A8234DCDF8008006F03FF82E69F1
:103A7800002E3FF469AF7368013B7360002B3FF47D
:103A880029AF2C6160E72046984796E57B6D002BAF
:103A98007FF4A7ADA9E5636D002B7FF45FAE61E607
:103AA800436D002BC0D14FE7384698479DE54FF44A
:103AB800007216491846A0470BE62046984751E67B
:103AC8004FF420621249204698472AE69847002872
:103AD8003FF43AAFA8E720469847A8E508690020D0
:103AE800C873002004530020E80A0020440B00207B
:103AF800B80A0020B47300202D0200004D09000010
:103B0800581400203405002058050020487400206F
:103B180088690020710000009C0900207B6D002B43
:103B28007FF434AE36E6736D002B7FF4E3AEE5E642
:103B3800636D002B7FF44AAF4CE7636D002B7FF475
:103B48003FAE40E62046984744E730469847D5E6DA
:103B58002046984740E6736D002B7FF4E5AEE6E615
:103B6800636D002B7FF449AF4AE7D4F88814002925
:103B78003FF48CAD01230F4A01F5896128460C9664
:103B880003F00CFB00283FF481AD5CE63046984713
:103B9800D6E66768013F07E707480BF00FFC1021DE
:103BA800064809F003F804480BF008FC4FF0FF3012
:103BB8001AE600BF086900205814002020050020DC
:103BC80008B5FE210E4801F08BFB20B9FE210C48F8
:103BD80001F086FB50B10D210A4808F0E7FF0A48BA
:103BE8000BF0ECFB094B01221A8008BD1C21084888
:103BF80008F0DCFF0448BDE808400BF0DFBB00BF5D
:103C080000530020B404002058140020467B0020F4
:103C18009404002010B53C210B4811F0F9FE0B4B21
:103C28000B490A20D3F820320A4A23F07F430A4C72
:103C380008801360FFF7C4FF204600F069FB0123EA
:103C480084F8663310BD00BF0000202000441F40E8
:103C5800421A0020C058002010770020F0B587B025
:103C680008F03AFF002841D1444EB6F900400AF066
:103C7800CFF8434B012CA3FB0023424A4FEA5313CE
:103C8800C3EB0313A0EB830303DD11688B4238BF3A
:103C980003243D481360348000F02EFB09281BDD07
:103CA8003A4C394D04F52067284600F055FB4FF48F
:103CB800807201462046144408F0BCFB284600F0F8
:103CC80069FBBC42F0D1324BB6F90000B3F90030C1
:103CD8000BB1FFF74BFC30802E4A2F491368086858
:103CE8001B1AB3F57A7F13D807B0F0BD08F038FF78
:103CF800224EC0B273283ED0652804BF0423338007
:103D080001E008F02DFF08F0E7FE0028F9D1ACE744
:103D1800224B12681F680A607A1C214D214C1A60D8
:103D28000AF076F8B6F900303A46DFED1F6A0493D8
:103D38002968238801EB81010093090207EE901A94
:103D48000F49F8EE677AA1FB0031490986EEA77A98
:103D5800C1EB0111A0EB810314491548B7EEC77AEE
:103D68008DED027B0BF040FB124B00221B882A6072
:103D7800238007B0F0BD00233380C4E7441A002035
:103D880089888888F47A00201077002088690020C4
:103D9800467B0020EC7A0020D8650020D4650020FE
:103DA80088730020367B002000442C472C1200200A
:103DB80058140020347B002070B55B4A82B05B4900
:103DC80000245B480BF0E6FB5A485B4B4FF47A71D2
:103DD8005A4D554A8160036059490471047304615E
:103DE8000BF0D8FB574E584A2B68166014611481A3
:103DF800D460002B00F0918019465B69002BFBD141
:103E08004A610024514B50481360546154609472C5
:103E1800FFF7EAF84E4A2B681146D46041F8186B50
:103E280011614FF40071C2E906441181002B79D069
:103E380019465B69002BFBD14A610024454B444875
:103E480054615460947213600BF00CF9424A4FF4B9
:103E580080711346D46094612C6843F8186B118103
:103E68001361002C5BD0234619465B69002BFBD1FC
:103E78004A61002339493A4882F8643310600120C6
:103E880082F86533536153609372C2F8603382F8E5
:103E9800663301F118020B724872CB608B610A61BC
:103EA80022466469002CFBD12E48516122460094B9
:103EB800274B4C614C608C72086023492A480AF0F1
:103EC8005DFE194A294928480BF064FB0122204B62
:103ED80000921D4926480AF051FE134A23492448F6
:103EE8000BF058FB1D4B22461749009421480AF055
:103EF80045FE0D4A1D491F480BF04CFB2246174949
:103F0800154B00941C480AF039FE074A17491A480D
:103F180002B0BDE870400BF03DBB2A6071E7144663
:103F28002A60A6E72A6088E784140020550200006A
:103F3800BC650020B47300208C0A002010640020A7
:103F4800250A0000C0090020F0680020DC0A0020D3
:103F5800F87A0020D809002010770020B4760020D5
:103F6800E4090020CC09002064760020C9C80000BC
:103F7800787600208C760020A0760020024A03493B
:103F880003480BF007BB00BF841400205502000053
:103F98007C65002010B5054C04F108000AF09AFB76
:103FA8002046BDE810400AF095BB00BFDC64002045
:103FB80010B5084C002120460AF032FB04F1080035
:103FC80000210AF02DFB044A04490020BDE81040F6
:103FD8000BF0E0BADC64002084140020251C0000EB
:103FE800024A034903480BF0D5BA00BF84140020E5
:103FF800550200008C640020024A034903480BF074
:10400800C9BA00BF8414002055020000A46500202E
:10401800024A034903480BF0BDBA00BF84140020CC
:104028005502000084650020024A034903480BF04A
:10403800B1BA00BF84140020550200005C6500205E
:10404800024A034903480BF0A5BA00BF84140020B4
:1040580055020000C4640020024A034903480BF0DB
:1040680099BA00BF8414002055020000446500205E
:10407800024A034903480BF08DBA00BF841400209C
:1040880055020000BC640020024A034903480BF0B3
:1040980081BA00BF8414002055020000B4640020D7
:1040A800024A034903480BF075BA00BF8414002084
:1040B800550200006C650020024A034903480BF0D2
:1040C80069BA00BF84140020550200009C650020D6
:1040D80030B482B00C4602AB03E90600C37C002B67
:1040E80030D072B6C37CDA0708D54FF0E0214569B5
:1040F800D1F880212A408262C1F880219D0708D525
:104108004FF0E0218569D1F884212A40C262C1F8C4
:104118008421590708D54FF0E021C569D1F88821D5
:104128002A400263C1F888211A0708D54FF0E02118
:10413800056AD1F88C212A404263C1F88C21DB063C
:104148002FD462B683689C4235D0224B84609B6929
:10415800214AC3F30111C3F3826352F821100133DA
:10416800B1FBF3F2CCB1944227D8B2FBF4F3B2FB23
:10417800F3F294422CD3B3F5817F20D3174CC4605B
:10418800036803220020019918615A6201221C6405
:1041980019661A6102B030BC70479942EFD3531CBC
:1041A800E9E74FF0E022416AD2F890310B4083638F
:1041B800C2F89031C5E7C468E2E70024DFE7022BC4
:1041C800FBD9023B5A08140244EA02441C43D6E7CE
:1041D8001A46E4E700C00F40280C0020FF7F7F004C
:1041E800024A034903480BF0D5B900BF84140020E4
:1041F800550200003C650020024A034903480BF0C1
:10420800C9B900BF8414002055020000346500209D
:10421800024A034903480BF0BDB900BF84140020CB
:104228005502000074650020024A034903480BF058
:10423800B1B900BF84140020550200005465002065
:10424800024A034903480BF0A5B900BF84140020B3
:1042580055020000EC640020024A034903480BF0B1
:1042680099B900BF84140020550200009C64002006
:10427800024A034903480BF08DB900BF841400209B
:10428800550200004C650020024A034903480BF020
:1042980081B900BF841400205502000094650020F5
:1042A800024A034903480BF075B900BF8414002083
:1042B80055020000D464002010B5002104460AF01D
:1042C800C5FB98B194F866338BB194F8643394F8CD
:1042D80065130133D12BA8BF0023994207D0991D3C
:1042E800DBB204EB8101486084F8643310BDBDE89B
:1042F80010400AF05FBB00BF90F8641390F8652384
:10430800CBB29142D0B238BFD133181A704700BF30
:1043180038B50546D0F8600320B10AF04BFB0023FE
:10432800C5F8603395F8652395F86433D4B29A429A
:10433800D9B20ED00134D12C28BF0024A31D05EB1F
:10434800830358680AF036FB95F86433A342F1D129
:10435800E1B285F8651338BDD0F86023B2B990F89A
:10436800651390F864C3CBB261450DD00133D02BEF
:104378008CBF1346DAB2063300EB83035B6880F820
:1043880065231A1DC0F86033104670470022104696
:10439800704700BF10B50446D0F8600320B10AF09A
:1043A80009FB0023C4F8603310BD00BF024A03496B
:1043B80003480BF0EFB800BF84140020550200003A
:1043C800AC650020024A034903480BF0E3B800BF7C
:1043D800841400205502000094640020024A034916
:1043E80003480BF0D7B800BF841400205502000022
:1043F800CC640020024A034903480BF0CBB800BF45
:1044080084140020550200008C650020024A0349EC
:1044180003480BF0BFB800BF841400205502000009
:104428006465002053492DE9F047A1FB004340F2A1
:104438006D1A514F5B09DFF85081DFF85091A1FBED
:104448000341C3EB03144909A0EB84004B4CC1EBB7
:104458000115A4FB014EA3EB850310704FEA1E1E45
:1044680053700EF104040EEB4E00454BA1EBC00156
:10447800A3FB040300209170E11A03EB51030146EA
:104488009B08C3EBC303E41A0134D470C4B240F2EE
:104498006D1C04F2B27313F0030507FB03F608D191
:1044A800B8EBB60F4FF4B77C03D3B9EB361F38BF60
:1044B800D446614401308E45E8D2324E9471A6FB51
:1044C800030695B3770964244FF4C870F60904FB12
:1044D800173700FB163640F26D10AEEB010E0023C5
:1044E80001217044DFF8A8E00AE013F80E40844286
:1044F80032D80C29A0EB04000FD001310133C9B226
:10450800012B5FFA83FCF0D115B9DFB11D2400E05F
:104518001C24A0422AD3001BEFE74FF00D0C0130FA
:1045280082F805C01071BDE8F08764207709F609A4
:1045380000FB17374FF4C87000FB16363FB14FF435
:10454800B770CAE7002E14BF1C241D24E1E7002E13
:10455800C1D14FF4B770C0E70CF1010C01305FFA1C
:104568008CFC107182F805C0BDE8F0874FF0020C92
:10457800D5E700BF89888888295C8FC2ABAAAAAA18
:10458800254992241F85EB51285C8F020AD7A30086
:104598006407002090F8A32090F8A200101A704732
:1045A80090F8A23090F8A3209A4205D95A1C0344E7
:1045B80080F8A220987E70474FF0FF30704700BF08
:1045C80090F8A23090F8A3209A4202D91844807E2D
:1045D80070474FF0FF307047704700BF0346B0F890
:1045E800300178B193F82F21882A03D901220020BD
:1045F8001A71704702F1010C01201A4483F82FC187
:1046080082F8A510704700BF38B5B0F830410CB932
:10461800204638BD90F82F310546C3F18904A242DF
:104628000DD8144605F1A5002246184407F002FFEC
:1046380095F82F312046234485F82F3138BD0122C3
:104648000271EFE738B5002513464FF47A72044635
:10465800057182608822154821612946206004F18D
:104668001A0063612573257665760BF0B3FE8922FF
:10467800294604F1A50084F8A25084F8A35084F8D0
:10468800A4500BF0A7FE204684F82E5184F82F5131
:1046980084F8305184F8315184F8325184F8335118
:1046A80084F83451C4E94E5538BD00BF980B00203A
:1046B800036970B5D3F81451044615F4706201D03B
:1046C800C3F81421AE070BD5D3F8701108043ED5F2
:1046D8000022012084F8A220224484F8A3009176C5
:1046E800EA0710D594F83061F6B194F82E6194F881
:1046F8002F21B24227D9721C264484F82E2196F81D
:10470800A520C3F86021AB050DD594F8A30018B116
:10471800D4F83C3103B198470023A4F8A230A4F898
:104728002E3184F8303170BDD4F838210AB1904761
:104738002369002284F82E21012284F8302194F87C
:104748002F21B242D7D80022C3F86021DBE794F8C2
:10475800A320872AC4D8501CC0B2BDE70148FFF780
:10476800A7BF00BFC45800200148FFF7A1BF00BF82
:10477800045A00200148FFF79BBF00BF445B00209C
:1047880010B5094C094922460948FFF75BFF04F1B7
:10479800500208490848FFF755FF04F1A0020749ED
:1047A8000748FFF74FFF10BD8C1F006000003F4017
:1047B800C458002000803F40045A002000C03F40F9
:1047C800445B002090F81CC04160BCF1020FC2603D
:1047D80001D18368184709F0ADBE00BFF0B4046882
:1047E80040F201251E462561A3B121B311F8015BF2
:1047F800013B6566256FAF0707D41546013E676F15
:104808001AB105F8017B2A4604686569ED07F1D5F8
:10481800002BEAD16EB10368196F8907FAD41146E3
:10482800013E5B6F002AF5D001F8013B0A46002ED5
:10483800F1D1F0BC704790F83C50D9E7324B33497E
:1048480030B5D3E911542079C8771A6C95F804C0AB
:1048580081F81CC0087752B1B2F5004F23D32C4918
:1048680011442A4A1964D07682F81BC030BD1968F1
:104878000F24D86C8C6540F20134CA610C614FF486
:104888007C544C6103210468246883F83D10214B53
:104898009C4226D1037F4260022BC26026D18368E6
:1048A800BDE8304018472D68E98B090422D492B23C
:1048B800EA832168EC8BA4B2EC82CC8B240405D566
:1048C800CC8BC2F3080204F47E442243CA83CA8B09
:1048D80092B2CA8200210D4A1964D07682F81BC0B0
:1048E80030BD23461146BDE830401847BDE830408A
:1048F80009F020BEE98BC2F3080E92B201F47E41A2
:1049080041EA0E01E983D4E72058002000800E40D8
:104918000180FFFF55240000324B334930B5D3E9FD
:1049280011542079C8771A6C95F804C081F81CC016
:10493800087752B1B2F5004F23D32C4911442A4AC3
:104948001964D07682F81BC030BD19680F24D86C62
:104958008C6540F20134CA610C614FF47C544C619F
:1049680003210468246883F83D10214B9C4226D11A
:10497800037F4260022BC26026D18368BDE83040C5
:1049880018472D68E98B090422D492B2EA8321687A
:10499800EC8BA4B2EC82CC8B240405D5CC8BC2F36F
:1049A800080204F47E442243CA83CA8B92B2CA82A4
:1049B80000210D4A1964D07682F81BC030BD234609
:1049C8001146BDE830401847BDE8304009F0B2BD97
:1049D800E98BC2F3080E92B201F47E4141EA0E015E
:1049E800E983D4E7D057002000800E400180FFFF04
:1049F800552400000023C0E90012C0E90233C0E9D1
:104A08000433C0E90633C0E90833C0E90A33C0E912
:104A18000C3383638387C0E91033C0E912337047CE
:104A280043682DE9F04FD3E90041814D4FF0B80AB2
:104A380022684FF0020822EA01027E492260AA6930
:104A480011407D4A0A43AA6190F810E07B4A03EBC3
:104A58000E0603EB8E0E317C02EB01118968C1F85A
:104A680000A090F811C003EB0C050CF10A0C95F8A6
:104A7800241002EB01118968C1F800A0817C03EBC6
:104A8800010903EB810199F838B002EB0B1BDBF845
:104A980008B0CBF800A0D4F800A05F684AEA070A7B
:104AA800C4F800A0347CDEF814E002EB0414646857
:104AB800C4F800E095F8244053F82CC002EB041425
:104AC8006468C4F800C099F8384002EB04125268D0
:104AD800C96B11609A6C99F8441011601A6A317F99
:104AE8005B6B116095F830201A600F220368C3F8D9
:104AF80010809A65C27C002A31D072B6C37CDC076C
:104B080008D54FF0E0214469D1F880212240826223
:104B1800C1F88021990708D54FF0E0218469D1F8C0
:104B280084212240C262C1F884215A0708D54FF077
:104B3800E021C469D1F8882122400263C1F88821A4
:104B48001F0708D54FF0E021046AD1F88C212240D4
:104B58004263C1F88C21DE0655D462B60368384C2E
:104B68008268A24259D0324A846092693549C2F3B8
:104B78000116C2F38262344D51F826100132B1FB9E
:104B8800F2F2AA4231D80022C260002403211C613B
:104B98000724596201211A641C661961C37C13B386
:104BA800DD0704D5816A4FF0E022C2F800119C07A6
:104BB80004D5C16A4FF0E022C2F80411590704D5A0
:104BC800016B4FF0E022C2F808111A0704D5416BB7
:104BD8004FF0E022C2F80C11DB0604D5826B4FF0CF
:104BE800E023C3F81021BDE8F08F1849A1FB02515A
:104BF800090DB2FBF1F2A24288BF0131B1F5817F04
:104C08000DD3134AC0E74FF0E022416AD2F8903141
:104C18000B408363C2F890319FE7C268B5E7022969
:104C2800B1D902394C08220242EA04420A43ABE7EE
:104C380000C00F40CFFFFFE310000008BC0E0020AB
:104C480000093D00280C0020FF083D0083DE1B43BF
:104C5800FF7F7F000BB1FFF7C1BD70474368D3E901
:104C680000120968114200D1704710B50268044665
:104C7800002005211061227C1344187C09F0B0F94A
:104C8800627C63680521134493F8240009F0A8F9AD
:104C98006368A27C05211344BDE8104093F83800EE
:104CA80009F09EB908B5084A08490948FFF7A2FE65
:104CB800084A09490948FFF79DFE094A09490A486F
:104CC800FFF798FE08BD00BF2409002000003A4005
:104CD800D0570020B408002000C0394020580020D8
:104CE800440800200040394070580020704700BF39
:104CF80030B583B005460C4609F08AF81C4B98423B
:104D080004D800232B80238003B030BD694609F006
:104D18000FFD9DF805309DF8062001339DF804101D
:104D2800503ADBB292B21F2998BF0C2B01D87F2AC8
:104D380018D900219DF802209DF801302980172AF2
:104D480098BF3B2B9DF8001001D83B2903D90023BD
:104D5800238003B030BD5B0143EAC22343EA510319
:104D68009BB2F5E741EA431141EA422189B2E1E702
:104D7800FFA5CE12012BF0B5054695B03ED0022B0B
:104D880040F2022001F104010CBF034600236846EB
:104D980004F0D8FF129B002B39D05C2000260AF0C3
:104DA80033FB214B04AF0446C0E900369DF80430BC
:104DB8003946183000F80C3C1C4B40F8103C029B5C
:104DC80040F8083C9DF80C3000F8043C04F04CFE18
:104DD800174B4FF47A72A665A360164B2E712B60A1
:104DE80063682E730133AA602C616360124B3846E6
:104DF800009304F07BFE284615B0F0BD44F2022370
:104E08000431684604F09EFF129B002BC5D1139B0A
:104E1800002BC2D14FF47A71064A04AF2B71A960F6
:104E28002B732A602B61E1E7E80A0020440B00207D
:104E3800B80A00208C0A00209C09002010B5D0F880
:104E480084448EB00A4644B1002321466846009344
:104E580003F0A0FA80B90EB010BDD0F8881441B1A3
:104E6800234668460C9401F06FFC50B900200EB040
:104E780010BD08460EB010BD684603F0DBFC0EB04E
:104E880010BD684601F0B4FF0028EFD0E3E700BF8B
:104E980070B5D0F884548EB016465DB105F244451D
:104EA80000230A4668462946009303F0F7F990B9AB
:104EB8000EB070BDD0F888040028F9D000F58964D8
:104EC8000A462B46684621460C9501F0C3FB48B9B3
:104ED80000200EB070BD32462946684603F0B4FB88
:104EE8000EB070BD32462146684602F0D5F800285B
:104EF800EED0DDE710B5D0F884448EB00A464CB148
:104F08000020012321460090684603F043FA80B947
:104F18000EB010BDD0F8881441B1012368460C9436
:104F280001F012FC50B900200EB010BD08460EB0BA
:104F380010BD684604F010FD0EB010BD684601F0C3
:104F4800FDFE0028EFD0E3E730B5D0F884448FB0F9
:104F58000A464CB10025012304F2444168460095F5
:104F680003F02AF90FB030BDD0F888040028F9D032
:104F780000F58961012368460C9402F00FF90FB01F
:104F880030BD00BF10B5D0F884448EB00A463CB19D
:104F9800002321466846009303F0FCF90EB010BDCB
:104FA800D0F8881431B1234668460C9401F0CCFB44
:104FB8000EB010BD08460EB010BD00BFF8B50546CE
:104FC80090F8CC0408B90146F8BDD5F88434002B14
:104FD8004BD0DC69D5F88C04013C00285BD0036811
:104FE8009B6B9847E0B1D5F88C0478B30368DB6B0A
:104FF8009847A8B9D5F88C0440B3036801211B6C05
:105008009847074610B3D5F8840458BBD5F88834B8
:1050180073B9D5F88C04002845D04FF0FF360FE05F
:10502800D5F88404E8B9D5F88834002B3BD0074676
:10503800184601F07FFD06463FB1D5F88C0428B12B
:10504800036800211B6C984700B1A41BD5F8843471
:10505800CBB19B794FF40071994089B2A1FB04014F
:10506800F8BD002703F0F6FFE5E7D5F88834D5F852
:105078008C04ABB1D3F830440028B0D1184601F005
:1050880059FD0646E1E7D5F8883463B1D3F83C14F6
:10509800A1FB0401F8BD184603F0DCFF0646D4E77F
:1050A80008B11C469BE7002001468DE790F8CC34F8
:1050B80063B1D0F8843463B19A794FF40070D96938
:1050C8009040013980B2A0FB0101704718460146A3
:1050D8007047D0F888040028F9D0D0F83C14D0F8EC
:1050E8003004A1FB000170472DE9F043D0F88C543F
:1050F8008FB04DB198462B68044628469B6998475F
:10510800B0F5405F064604D8002630460FB0BDE82B
:10511800F0834FF400700AF043FA07460028F3D0F2
:105128000DF10C09B6F1806F024643462946484600
:105138002FD900F063FB064638460AF039FA002EEC
:10514800E2D02B682846271DDB69984794F8BC34C1
:10515800FF2B22D0D4F8C03404F29C45049328468F
:10516800D4F8C4340593B4F8BC34ADF80C3099E8DD
:105178000E0005F0C9FD94F8AE24C4F88C54002A3A
:10518800C3D101230092294638461A4604F050FD3F
:10519800BBE702F00FFD0646CEE704F5926594F8EA
:1051A800C814284606F0E8FA2846C4F88C5405F0D6
:1051B80055FE02460028A8D10123D4F88C1438469D
:1051C80000921A4604F034FD9FE700BFF0B5D0F80E
:1051D8008C6487B00446002E43D090F8CC5490F8E5
:1051E800CD3485B1FE2B66D094F8CE0436283ED94E
:1051F800336802A930465B6C98470546284684F810
:10520800CC5407B0F0BDFE2B27D090F8CE0436283A
:105218004CD994F8BC34271DFF2B2ED0D4F8C034B9
:1052280004F29C46D4F8C42403933046B4F8BC3442
:105238000492ADF8083002AB0ECB05F065FD94F88A
:10524800AE24C4F88C646AB901230092314638460A
:105258001A4604F0EDFC054604E0204B9B689B03CE
:10526800D7D40025284684F8CC5407B0F0BD08F000
:10527800A5FE051E18BF0125F4E704F5926694F80B
:10528800C814304606F078FA3046C4F88C6405F045
:10529800E5FD02460028E5D1012300923846D4F8FE
:1052A8008C141A4604F0C4FC0546DBE708F086FEB9
:1052B8000028AED1D5E7336830469B6D9847421C2D
:1052C800034691D00028CDD194F8CD24FE2AC8D128
:1052D80003212E201D4608F083FEC3E7008000420C
:1052E800F0B50D46044687B0314800F0B5F9FE2DFB
:1052F80084F8CD5426D0362D02D9002007B0F0BD51
:1053080000262C4B04F29C478DF80C50C4F8C0348E
:105318008DF80D60384684F8BC5484F8BD64C4F830
:10532800C464CDE9043606AB13E90E0005F0ECFCC5
:1053380094F8AE24C4F88C7492B3304684F8CC0444
:1053480007B0F0BD0023FF2204F5926584F8BC2461
:10535800194684F8C834284606F00EFA2846C4F8D8
:105368008C5405F07BFD024678B90123D4F88C14DF
:10537800201D00921A4604F05BFC30B101222E2356
:1053880084F8CC2484F8CE34B8E72E2000250321F5
:1053980084F8CE0484F8CC5408F022FE2846ADE701
:1053A800012300923946201D1A4604F041FCC5E746
:1053B8008129000040787D011B4800231B4A4FF0DB
:1053C800FF0C1B4910B41B4CC0F890240722046042
:1053D8004FF42814C0F8A4144FF47F41C0F8A8244F
:1053E800154AA0F8CC14A0F89834C0F8AC44A0F83A
:1053F800B03480F8B23480F8C83480F8CEC4C0F82D
:105408009C240E490E4A5DF8044BC0F88434C0F859
:105418008834C0F88C34C0F8A034C0F8B43480F8AC
:10542800B8340AF0B7B800BF00530020BC0B002006
:1054380000093D00680B0020F00900207D290000CC
:1054480084140020B1F5807F21D810292ED840235C
:105458004FF0200CB2FBF3F1B1F5806F20D203FBC3
:10546800112300B5B2FBFCFEB3FBFCF30CFB1E22C0
:105478004FEA910CDBB201322CF03F0CC9B2037039
:1054880042EA0C028170D2B242705DF804FB3F23FD
:105498009C46802910D9B1F5FC7F0FD81B01D9E7AC
:1054A800FF21FE234170037081707047202916D8B0
:1054B80080234FF0200CCDE7DB00CBE7B1F57C7FF4
:1054C80004D9B1F5FC6F03D89B01C3E75B01C1E7C1
:1054D800B1F57C6F94BFDB01C3EB0323BAE720234C
:1054E8009C46D6E730B5037883B0DC071DD5044663
:1054F800406804F110020368A16801921B6A98478A
:10550800019A0546A8B12378990708D5E368D4E934
:105518000101194403681B6A984750B1237823F0A6
:1055280001032846237003B030BD0125284603B087
:1055380030BD0025284603B030BD00BFF8B543682C
:105548000BB3836804460F4615468B4206D110F804
:10555800103B05F003052B432370F8BDFFF7C2FF8E
:1055680088B16B0705D504F1100630460023A76003
:10557800EFE7606804F110063946036832461B6994
:1055880098470028F1D10020F8BD00BF7E283ED9F9
:105598004FF0350C002330B4284C04E034F82120B7
:1055A800824220D80B46ACEB0302012A03EB5201DE
:1055B800F4D89BB234F82320904216D24B2400230F
:1055C8001F4D04E035F8212082421ED80B46E21A0E
:1055D800012A03EB5201F5D89BB235F82320824209
:1055E8001FD030BC70478C46DDE704EB8304821A79
:1055F800E3789A42E2DA94F90230012B16D0D3B15B
:105608009BB2034430BC98B270470C46DFE7A0F168
:105618006103192B8CBF00230123A0EB431398B21D
:10562800704705EB8305688830BC704702F00102BB
:10563800831A98B2D5E74EF2A033E2E7900600202D
:10564800640500204FF0000C024B82F800C01B6874
:10565800184700BF08640020024A0349034B116041
:105668001860704704640020D532000008640020E8
:1056780010B5044682B0084601910BF079F823680A
:105688000246019920465B6802B0BDE81040184701
:105698008368C3F3080383B1002110B40269D154AD
:1056A8000133B3F5007FF9D10168D0E903321C68F2
:1056B8001846236A5DF8044B18470120704700BF5D
:1056C80082680346006940F2FF1CC2F30802815455
:1056D8006245586801EB7001986800F10100C3E960
:1056E800011001D001207047D868196810B4046807
:1056F8004A1C246A1A601A6923465DF8044B184745
:1057080038B58368CAB20D460169C3F3080340F28D
:10571800FF1C0446CA546345416802EB71024260AB
:10572800826802F10102826005D0290A2046BDE89C
:105738003840FFF7C5BF0168C0684A1C03681B6A88
:105748002260226998470028EFD138BDF8B50023B8
:10575800064601601D46C0E90133A8B2FFF716FFEF
:10576800A842044607D0C1B23046FFF7A9FF002877
:105778003BD10020F8BD6C1CB4F5803F04D12AE071
:105788000134B4F5803F04D0A0B2FFF7FFFEA04279
:10579800F6D0671BB7F5007F1DD34FF6FF71304673
:1057A800FFF7AEFF0028E4D0B9B23046FFF7A8FFF4
:1057B8000028DED02546B5F5803FCED13046BDE87D
:1057C800F840FFF765BFC5F3072130460135FFF7FD
:1057D80077FF0028CDD0A542E9B23046EBD2FFF7DB
:1057E8006FFF0028EFD10020F8BDC4F30721304631
:1057F800FFF766FF0028BCD00135DCE72DE9F04F44
:105808001F4689B00B680D4604901446C1600261BA
:1058180008469B699847B0F5801F0090C0F0D88073
:1058280000230122009E01335200DBB201D09642D0
:10583800F9D81C2B009640F2B780A3F10B0801227F
:1058480048FA02F1C8F347088A40029107920133E7
:1058580001225B109A40069204229A400392022287
:1058680002FA03F30193009A0021039B2046029E4B
:105878004FF0010AD31A4FF400724AF6552BF34041
:1058880003FA06F90593019E0AF0A4FDFF2384F8A4
:10589800BFA184F8C0A1B14484F8C431224684F879
:1058A800C53107230021284684F8C231FE23C4F8F5
:1058B800C66184F8C3312B68C4F8CA911B6AA4F87E
:1058C800FEB19847002863D04FF4007200212046AB
:1058D8000AF080FD009B84F86D804FF00008636635
:1058E800F421059B04F17800069AE36520232664D9
:1058F80023726372A372EB23A66546462370762350
:10590800C4F848906370902384F86EA0A370452370
:10591800E37058232371462363714123A3715423F1
:10592800E371042323664FF48073A4F868300923D5
:1059380084F86C308023C4E9142284F86F304FF463
:10594800C3720AF047FDA4F8FEB1A8F16A03012B5F
:1059580006D9B8F1700F03D014F8083003EB7606B7
:1059680008F10108B8F5007FEFD12B682246DDF871
:10597800049028461B6A4946984748B12B6849460F
:10598800224628461B6A0C31CDF80490984740BB44
:105998002FB13B680F22B84938465B689847002604
:1059A800304609B0BDE8F08F1A2B4FF0080800F216
:1059B800A6814FF48043CDF8088001934FF400434B
:1059C80003934FF4807307934FF4005306934AE709
:1059D800002FE4D03B681522A84938465B689847F1
:1059E800D7E742460021204609F1010A0AF0F2FCF5
:1059F8004AF6552309F1090204F2FF19A4F8FE3109
:105A080000239346A04601E018F8013FC14503EB87
:105A18007606F9D12B682246514628461B6A9847D4
:105A28000028B5D02B6822460AF10C0128461B6ACB
:105A380098470028ACD00AF101039B4502D09A464A
:105A48002378DFE74FF40072002120469B460AF0D6
:105A5800C1FC00220AF1030A1146234601E013F8AB
:105A6800011F984501EB7606F9D12B682246594665
:105A780028461B6A984700288AD02B6822460BF1D3
:105A88000C0128461B6A9847002881D00BF10101B8
:105A98008A456AD1231F04F5FE7243F8046F9A42BF
:105AA800FBD12B68224628461B6A984700283FF4FA
:105AB8006FAF2B680BF10D01224628461B6A9847E9
:105AC80000283FF465AF2FB13B680C226C4938467B
:105AD8005B689847069A0021019B204600261344DC
:105AE8004FF400729946059B4FEA83080AF072FC4E
:105AF80023464FF0FF3208F20728F821B7F1000BD0
:105B08004FEA582A03F8011B4FEA9838C4F80120D5
:105B180018BF4FF0010BDA605A609A60C3F80F2083
:105B280002E00136B24523D0B6FBF8F308FB136355
:105B380043B9BBF1000F05D03B68012251493846F3
:105B48005B6898472B6809EB0601224628461B6AC2
:105B5800984700283FF41CAF002EE2D131464FF49D
:105B6800007220460AF036FCDBE78B46217874E7A2
:105B7800002F34D03B680222434938465B68984777
:105B8800059E079A0736F60806F2FF13B2EB532F65
:105B98004FEA5329FFF4FDAE4FF40072002120466E
:105BA8000AF018FC07232370B9F1000F00F08A806F
:105BB8004FF0000808E0B8F1000F01D184F8008028
:105BC80008F10108C1457BD9039A28462B6802EBE6
:105BD800080122461B6A98470028ECD1D8E6059EA2
:105BE800079A0736F60806F2FF13B2EB532F4FEA6F
:105BF8005329FFF4D4AE4FF40072394620460AF018
:105C0800E9FB07232370B9F1000FD1D1039B079A51
:105C180004989918FFF79AFD00283FF4C0AE029A3D
:105C28004FF400739340049A92689A423FF6B7AED5
:105C38004FF00208029B4FF40072002108FA03F9A2
:105C4800039B204699440AF0C5FB8122032304994B
:105C580009F1FF3984F820208222237084F840203B
:105C6800C4E90D864A684FF00108636562648B6871
:105C7800A3650023E3650EE02C080020C807002078
:105C8800E0070020F007002008080020079B98453F
:105C98003BD208F101082B6809EB08012246284687
:105CA8001B6A9847064600283FF472AEB8F1010F08
:105CB800ECD14FF40072002120460AF08BFBE8E794
:105CC800002FA3D03B681622144938465B689847D2
:105CD800039B079A04989918FFF738FD00283FF4AA
:105CE80058AE029A4FF400739340049A92689A420D
:105CF8003FF64FAE0A493846FFF7BAFC98E74FF42B
:105D08008072CDF808800792A1E5002F3FF448AED5
:105D180004493846FFF7ACFC42E600BFF407002010
:105D28000C0800201C0800202DE9F043D2E90138B6
:105D380003F10F0931F8020F984503F101035FFAE7
:105D480080FC1ED053607E2813F801ECACF161048E
:105D5800ACF12006AEF16105AEF120070ED8192D81
:105D680098BF5FFA87FE192C98BF5FFA86FCF44546
:105D780004D19945DED10120BDE8F0830020BDE8BB
:105D8800F083B0FA80F04009BDE8F0832DE9F041D6
:105D980090F831300F4693B390F830300646012B17
:105DA80033D915464FF002080024002241463046F8
:105DB80000F060F8844610B30378C12B1FD104F1BA
:105DC800FF3E04F10F02BE443CF8023F8BB10134A0
:105DD800AC4214D27F2B28BF3F2394420EF8013FD8
:105DE800F2D108F1010896F830305FFA88F8434597
:105DF800DBD22744002320463B70BDE8F081002316
:105E08001C463B702046BDE8F0810024F2E700BF45
:105E180030B50D688C684D60AC4225D02A46002309
:105E28000132D8034A6040EA530312F8010CA0F18A
:105E3800610CA0F1200EBCF1190F98BF5FFA8EF02B
:105E4800944203444FEAC330C3F34E0300F40040C6
:105E580043EA0003E4D1641B0B82601ECC60FE2879
:105E68008CBF0020012030BD002004460346CC60D2
:105E78000B8230BD70B500F1240384B08C46044613
:105E880001AD164693E8070085E807004FEA4C1273
:105E98002946206A00F06AFD012806D132462946C3
:105EA800206A00F047FD04B070BD002004B070BD4A
:105EB80010B5044601F068F8002384F8313084F8FE
:105EC800333010BD38B514460D46002200F12401C8
:105ED800006A00F02FFD034620B1428901202A8084
:105EE8001B89238038BD00BF38B514460D460022F3
:105EF80000F12401006A00F01DFD034620B1C289AB
:105F080001202A809B89238038BD00BF38B50D4603
:105F180090F8311009B1002038BD382204460AF043
:105F280059FA012340222562184684F8333084F850
:105F3800312038BDF0B40D460978202903D115F871
:105F4800014F202CFBD0156095602C782F2C11D098
:105F580084B16E1C3C2C1E4F35462AD8212C12D8F1
:105F680004F1FF3CBCF11E0F16D80020F0BC7047AE
:105F780015F8014F202CFBD02F2CF9D01D601146AD
:105F8800F0BCFFF745BFA4F1220C5FFA8CFC27FA9E
:105F98000CFC1CF0010FE8D12E2C01D0202C0FD1C5
:105FA80016F8014B002CE5D02F2CE3D03C2C3546BD
:105FB800D4D95C2CD9D005D97C2CD6D02106D4D400
:105FC8009660EDE73E3C012CFAD80020F0BC704703
:105FD800012100052DE9F04F90F8333083B00546D4
:105FE800DC0774D558060F46904640F1B080D5E9D5
:105FF8000023D5E9041018EB020443F10003A14281
:1060080070EB0303C0F0A980B8F1000F5BD04646DF
:1060180005F11809D5E90032D5F820A0DAF8384496
:106028001C40C4F3080B002C70D1134370D195F8B1
:1060380031305A064CBFDAF83424EA69AA619AF872
:106048004504023ADAF82C14630A824001EB542121
:106058001144BBF1000F45D1B6F5007F42D3DAF801
:10606800182291423ED0B6F5806F58D34FF0010BFD
:106078000BFA00FBABEB030B730A9B4528BF9B464F
:1060880091424FEA4B240AD801EB0B039A4206D2FD
:106098000AF504700191FFF725FA0199B8B1DAF809
:1060A80014025B460268D2F814A03A46D04770B191
:1060B80023462744D5E900125B1842F10002361B3B
:1060C800C5E90032A8D1404603B0BDE8F08F95F885
:1060D80032304FF0FF3043F0020385F8323003B01E
:1060E800BDE8F08FCBF5007400220AF50470B442C5
:1060F80028BF3446FFF722FA0028E8D000EB0B014E
:106108002246384606F096F92346D2E7AA6996E76A
:1061180095F833305B060ED5AA6901328EE7DAF8B6
:1061280014023A4603681B6998470028CFD04FF4F9
:1061380000731C46BDE74A465046A96900F058FC62
:106148000028C4DB0CD0D5F820A0AA6977E795F819
:10615800313019077FF558AF49E7A1EB020853E73B
:1061680095F8313013F0500FB1D0A8EB060840462F
:10617800AAE700BFF0B583B00122044685690DF196
:106188000701D0E90067FFF725FF0128A5610CBFCB
:106198009DF807004FF0FF30C4E9006703B0F0BD79
:1061A8002DE9F04F1F4690F8313083B00446D0F8FF
:1061B8001880002B51D01646D0E9001CBC4508BFFA
:1061C80091425CD056EA07024DD01D0704D5D0E9AC
:1061D8000402B042BA4140D394F83320751ED4F873
:1061E80020A0019247F1FF309AF845240932D2B233
:1061F800C2F1200ED540A2F1200900FA0EFB20FAC8
:1062080009F045EA0B0505430198400633D4481EBA
:1062180020FA02F24CF1FF3051EA0C0C00FA0EFEA3
:1062280020FA09F042EA0E0242EA000201D0954241
:1062380029D25B064CBFDAF83434E369A36104F170
:10624800180906E0A169013D206A00F0D1FB002889
:1062580003DD4A46002DF5D107E00020C4F8188078
:1062680003B0BDE8F08F002383610120C4E9006713
:1062780003B0BDE8F08FE3692B44A361F5E7012083
:1062880003B0BDE8F08FAD1AD9E700BF2DE9F04F94
:10629800904690F831208FB00546002A40F0D6800D
:1062A8008B4691F8311011F0500F00F0CF8003F0B9
:1062B80003019A46032900F0C980013103F0080060
:1062C80041EA00030293B8F1000F00F0C980D8F842
:1062D8000C1001F10E07BD49A1FB0717DBE90010FF
:1062E800FF08014307F10207FFB205D00020002193
:1062F800CBF81820CBE900010024029B264643F086
:1063080040030393202206A95846FFF763FE00B313
:10631800202840F09B809DF918209DF81830002A0D
:10632800C0F2A08034B9DBF80020A2F12009DBF824
:1063380018200192BC4201D20134E4B2002B00F0D3
:10634800F980202206A958460026FFF743FE0028B8
:10635800DED11AF4007F79D0029B9B0776D5B8F17D
:10636800000F73D0BC4217D2DDF804A0202206A982
:106378005846FFF72FFE631C002860D0202865D1FF
:106388002CB9DBF80020DBF818A0A2F12009DCB258
:10639800A742EBD8CDF804A03822002128469BF864
:1063A80033400AF017F8DBF82030C4F38014019A60
:1063B8002B62282385F82C4085F83130D8F8003036
:1063C800C5E90929C8F80430A7B300247E1EDFF800
:1063D8000092F6B2A246012251462846FFF74AFD2E
:1063E800834698B390F90020002A2FDB2022002151
:1063F80009F0F0FF002C00F0CB80BAF1010F00F09B
:10640800E980C1235A460BF1200B02F8023BD8E978
:106418000130984203F1010307D0C8F8043013F89B
:10642800011C22F8021B9345F3D101345FFA84FA68
:106438005745D0D8284600F0A7FD06460CE0584638
:10644800DBF8186000F0D0FD002878D100231E4644
:1064580085F8313085F8333030460FB0BDE8F08F1D
:10646800032749E756BBBC4238BF0024852B7FF47D
:1064780049AF314638222846012609F0ABFF9DF87E
:106488001C209DF8193085F8303002F03703D20609
:1064980058BF43F0080385F83130DBF80030DBF8EB
:1064A8002020203B2A62DBF81820C5E909239BF845
:1064B8003330C3F3801385F82C3023E7C02B0ED07C
:1064C800C12B7FF43EAF424606A92846FFF72CFCB5
:1064D80018B1D8E901329A4234D0064612E7029B35
:1064E80085F833309DF819309B0702D5039B85F852
:1064F80033300B9BEB61DDE90823C5E90423DDE9B3
:106508000C23C5E90223B8F1000F1BD0D8F80030DE
:10651800D8F80C20C8F804309DF81B309A427FF454
:1065280010AFB8F81060BDF81C30F61AB6FA86F647
:106538007609E7E6B8F1000F7FF40BAF86E7CBF8F2
:10654800186025E71AF4006F80D11AF4884F5DD1DE
:1065580095F833309F0759D41AF4806F7FF476AFDB
:106568001AF4804F3FF478AF2846D5E90423FFF7A3
:1065780017FE00283FF46AAF95F833309A077FF585
:106588006BAF95F8313043F0200385F8313063E77D
:1065980085238BF8003085F830608BF80160D9F8D6
:1065A800003053B30DF113020DF1160105A89847F9
:1065B800BDF81430ABF80A30BDF81630ABF8083027
:1065C8009DF813308BF814302FE700BF898888882E
:1065D80004640020C0238BF801A08BF80030029BD4
:1065E80063F07F0385F83330D8F80C308BF803302C
:1065F800B8F81030ABF8043017E745F22163ABF870
:106608000A30ABF80E30ABF812300EE795F831309F
:10661800DC063FF51BAFD8073FF518AF1AF4806FBB
:1066280013D095F8333099077FF510AF0022002377
:106638002846FFF7B5FD00283FF408AF284600F0CC
:10664800D3FE00283FF402AF96E71AF4804F93D0A8
:106658008AE700BF2DE9F043002597B0994690F8E6
:10666800313001921495002B3ED191F831300F460C
:1066780013F0500F38D01378044616462F2B37D016
:106688004FF0000801AB03AA31462046FFF752FC41
:1066980050B3019E3378002B3ED0002303AA39461D
:1066A8002046FFF7F3FDF8B1A44608AD04F1300722
:1066B800DCF800000CF1100C5CF80C1CAE465CF821
:1066C800082C10355CF8043CBC45AEE80F00EFD14F
:1066D800DCF8000008AF2860204600F055FC84F87C
:1066E800318084F83380CDE7002017B0BDE8F0830F
:1066F80016F8011F2F29FBD00196B1B93822204680
:106708003D6A09F067FE012340222562184684F895
:10671800333084F83120E8E74B4603AA394620464F
:10672800FFF7B4FD17B0BDE8F0833822002108A8B0
:106738003D6A09F04FFE012308AF10958DF85330DC
:1067480040238DF851309BE719B101F58961FFF7B6
:1067580081BF0846704700BF90F8313063B991F89F
:10676800313013F0500F07D00B6813F01F0C03D112
:1067780013466246FFF78ABD002070472DE9F84F9F
:1067880007468A469146002942D0A1F10208D7F867
:106798003034434542D908F007030125C8F3C80B34
:1067A8009D40EDB246464446D7F82C1400223846A0
:1067B80001EB1431FEF7C2FEE8B10BF1FF3B834455
:1067C80000F2FF101BF8011F0AE04A452BD0A04534
:1067D80010D0D7F83054A54214D913F0FF050CD0C7
:1067E800013429424FEA4503A4EB0602EDD0A04547
:1067F8002646EED10120BDE8F88F58454FF0010537
:10680800E0D101E00026344601254FF0000BCBE72C
:10681800D0F82084D7F830344345BCD84FF000086E
:106828000125C346BEE7BAF1000F04D1B9F1010F43
:1068380008BFC7F82064B01CBDE8F88F2DE9F843FD
:106848008046881E15461E468318D8F83024934281
:1068580037D8CEBBD8F82034834288BFC8F8200484
:1068680000F007030124D8F82C74C0F3C8099C4031
:1068780007EB1031E4B2012240468F18FEF75EFEA6
:10688800F8B109F1FF3E864400F2FF101EF801CF6F
:106898001CEA040F8CEA040C4FEA440414BF0122DA
:1068A8000022B2420DD0013D8EF800C018D014F07D
:1068B800FF04EDD17045A1464FF00104E6D13946F9
:1068C800D9E70020BDE8F883D8F820148B42C7D94F
:1068D8008142C5D3934228BF0023C8F82034BFE7BC
:1068E8000120BDE8F88300BFF8B5D0F83034013393
:1068F8008B4201D20020F8BD07460C4600F504760D
:10690800002505E0D7F8303401350133A342F1D32F
:10691800D7F824140022304601EBD411FEF70EFEFE
:10692800A4000028E6D0C4F308040459631CE9D184
:10693800681CF8BD38B50C460B6890F845C400F5DE
:106948000470D0F82812023B656803FA0CF329405A
:1069580003EB5123D0F81C121944FEF7EFFD18B1D0
:106968006368C3F30803184438BD00BF2DE9F84332
:106978000C46D0F8383449680B4011446160134420
:1069880090F8451401F10902D2B2D3402BB38046E6
:106998005D1E00F5047905E02368013D03F101035C
:1069A80023601AD3267A002EF6D1D8F8303432462E
:1069B8002768484601339F4212D8D8F8241401EBBF
:1069C800D711FEF7BBFDBF0050B1C7F30807C35985
:1069D8005A1C09D0013D2360E4D20120BDE8F883A8
:1069E8004FF0FF30BDE8F8833046BDE8F88300BFBC
:1069F80038B5D0F8303401338B4202D24FF0FF3033
:106A080038BD0C46D0F82414154600F50470002251
:106A180001EBD411FEF792FD0028EFD0A400C4F3D7
:106A2800080403595A1C02D001202B6038BD0020ED
:106A380038BD00BF01291BD938B5D0F830340C4611
:106A480001338B4201D2002038BDD0F824141546FA
:106A580000F50470012201EBD411FEF76FFD034627
:106A68000028F0D0A4000120C4F308041D5138BD4B
:106A780000207047D0F830340133994201D9002002
:106A880070472DE9F04F054683B00C4600F50479B0
:106A98000F464FF00008D5F82414002248464FEA64
:106AA800D41B01EBD411FEF749FD90B1A300C3F349
:106AB8000803C2580193531C16BF16464FF0000A2C
:106AC8004FF0010A012C04D9D5F830240132944240
:106AD80003D9002003B0BDE8F08FD5F824140122B3
:106AE80048465944FEF72AFD0028F2D0019B40F899
:106AF8000380BAF1000F12D00134B44208D0002349
:106B0800E21B39462846FFF799FE0028E1D03746B0
:106B1800D5F830340133B342DBD33446BBE7621CCB
:106B2800534639462846D21B03B0BDE8F04FFFF75D
:106B380085BE00BF2DE9F84300250646D0F82C1481
:106B480000F504782C46002240464F1CFEF7F6FC60
:106B580028B300F1FF3E04F58059D6F8300405E06B
:106B680079B90834844209D24C4516D01EF8011F61
:106B7800FF29F5D1083408358442F5D3401BBDE818
:106B8800F8830822012319424FEA430C18BF013544
:106B9800013A5FFA8CF3F6D1E3E73946D3E74FF0D1
:106BA800FF30ECE7F8B54FF0000C15464FF0FF3218
:106BB800044680F844C4C0F840144160C0F8141278
:106BC80080F800C080F810C28260C0F81822E5B1D1
:106BD800042D01D90020F8BD00F50477624661460E
:106BE8003846FEF7ABFC0028F4D06FF0704300F590
:106BF800DF702B44190100EB03131A79002AE9D03E
:106C0800425C5206E6D19E6802E01E4600F5047713
:106C1800002231463846FEF791FC05460028D9D0B7
:106C280005221A49033009F027FC0028D2D195F82B
:106C38006C30092BCED12B6D01463344C4F8243473
