:0200000460009A
:100000004643464200000156000000000103030081
:1000100000000000000000000000000000000000E0
:1000200000000000000000000000000000000000D0
:1000300000000000000000000000000000000000C0
:1000400000000000010408000000000000000000A3
:100050000000800000000000000000000000000020
:100060000000000000000000000000000000000090
:100070000000000000000000000000000000000080
:10008000EB04180A063204260000000000000000FD
:10009000050404240000000000000000000000002F
:1000A0000000000000000000000000000000000050
:1000B0000604000000000000000000000000000036
:1000C0000000000000000000000000000000000030
:1000D00020041808000000000000000000000000DC
:1000E0000000000000000000000000000000000010
:1000F0000000000000000000000000000000000000
:10010000D8041808000000000000000000000000F3
:100110000204180804200000000000000000000095
:1001200000000000000000000000000000000000CF
:10013000600400000000000000000000000000005B
:1001400000000000000000000000000000000000AF
:10015000000000000000000000000000000000009F
:10016000000000000000000000000000000000008F
:10017000000000000000000000000000000000007F
:10018000000000000000000000000000000000006F
:10019000000000000000000000000000000000005F
:1001A000000000000000000000000000000000004F
:1001B000000000000000000000000000000000003F
:1001C000000100000010000001000000000000001D
:1001D000000001000000000000000000000000001E
:1001E000000000000000000000000000000000000F
:1001F00000000000000000000000000000000000FF
:10020000FFFFFFFFFFFFFFFFFFFFFFFFFFFFFFFFFE
:10021000FFFFFFFFFFFFFFFFFFFFFFFFFFFFFFFFEE
:10100000D10020432914006000000000000000000F
:101010002010006000100060007C016000000000F3
:10102000000000600088010000000000FFFFFFFFDB
:10103000FFFFFFFFFFFFFFFFFFFFFFFFFFFFFFFFC0
:10104000FFFFFFFFFFFFFFFFFFFFFFFFFFFFFFFFB0
:10105000FFFFFFFFFFFFFFFFFFFFFFFFFFFFFFFFA0
:10106000FFFFFFFFFFFFFFFFFFFFFFFFFFFFFFFF90
:10140000884207D0904205D251F8043B40F8043B93
:101410008242F9D8704700BF884204D2002340F8C6
:10142000043B8142FBD870472DE9F84F684A4FF4DE
:101430002A01684B68485A641864684A996395465B
:10144000BFF34F8FBFF36F8F00F09CF90824644BFC
:10145000644AC3F8544164496448FFF7D1FF644AC1
:1014600064496548FFF7CCFF64496548FFF7D4FF3E
:10147000644C4FF0E0214FF470000023624AC1F841
:10148000880D44F823200133B02BFAD15F4B802123
:101490005F4A03F8011B9342FBD14FF0E025504E09
:1014A0004FF08039DFF894B1DFF894A14FF0FF31AD
:1014B000C5F8084D0027C6F80491C6F800B1C6F873
:1014C000F490C6F8F0A0D5F8243DDFF8788143F415
:1014D000E023404AC5F8243DD8F81C3023F07F03B0
:1014E00043F04003C8F81C30D8F8243023F07F03C1
:1014F00043F04003C8F824309166D1661167516704
:1015000000F046F9434B4449A363444BE363632330
:101510006B610323AF612B61414BC5F8203DD5F8CA
:10152000FC3D43F08073C5F8FC3D3E4B1A6842F029
:1015300001021A605B680B6000F068FBC6F804915A
:101540003948C6F800B1C6F8F490C6F8F0A000F02B
:10155000CFFCD8F86C10354B354A41F44051C8F8EF
:101560006C101F60C3F80871C3F81871C3F82871B4
:10157000C3F83871936BDB0708D442F615632D4925
:1015800051651365936B43F001039363284A2A4C1A
:10159000936843F00113936000F076F900F060FC6B
:1015A00000F08EFC00F060FB00F0EEF82368132BD7
:1015B000FCD900F049F82368B3F5967FFBD300F01F
:1015C000E5F800F0A1FC00F08FFC30BFFDE700BFA4
:1015D000BFAAAAAA00C00A40070020000080062077
:1015E00000800D40383701007823006000000000C3
:1015F000C01E0020B45A016000000020C07B002003
:10160000C01E0020001C00206DB9000000E400E0B6
:10161000A0E400E039C30000047B00203DC30000CB
:1016200000002020001000E000366E01004008405D
:1016300000400D400000C056087B00201B10182001
:101640000C0D111300C00F40314B40F6617210B504
:10165000C3F8202140F2044400F04EFC2D4A2E49EC
:10166000D2F880302D4843F00303C2F880302C4B71
:10167000C1F8604102681A4203D1D1F8A8319A0733
:101680001BD0254A4FF00041244B5963D2F840311A
:1016900043F00203C2F84031D2F840319B07FBD43B
:1016A0004FF400304FF0E0211C4B4FF00042C1F8E6
:1016B0008C0219209A6300F00FFC184A4FF080400A
:1016C000154C002190630A20164B11604FF4607294
:1016D000C4F8A801184600F003FC4FF4800203464A
:1016E0004FF4810040F243111860C4F858311A6475
:1016F0000D4B0E4AC4F84811C3F804224FF0E02203
:101700004FF400310123C2F80C11C4F8403110BD70
:1017100000800D4000C00F4000002E4000900D40A2
:10172000001C1E0000000020001C002021AF000053
:1017300008B50E4B1B6E9B0700D4FBBE72B60C4B5C
:1017400000200C4AC3F8400103F160430A49A3F5A5
:101750005F2311649D46BFF34F8F4FF4001307487A
:10176000074ADB6902609B68984700BF00441F403E
:1017700000002E4000C00A4003002000008020200E
:10178000000012EB704700BF704700BF704700BFFA
:1017900010B44FF0E023002110242B48C3F8941D0F
:1017A000C3F89C4D1124C3F8A00D2848C3F89C4DE4
:1017B0001224C3F8A00D2648C3F89C4D254AC3F84F
:1017C000A00D254C42F015022448C3F89C4DC3F8E7
:1017D000A00D234C2348C3F89C4DC3F8A00D224C08
:1017E000C3F89C2D2148224AC3F8A04DC3F89C0D94
:1017F000C3F8A02D02F5A0221E4C0C321E48C3F8DF
:101800009C4DC3F8A02D1D4AC3F89C0D1C4CC3F879
:10181000A02D01221B48C3F89C4DC3F8A00DC3F8AE
:10182000942DBFF34F8FBFF36F8FC3F8501FBFF3DB
:101830004F8FBFF36F8FD3F8142D5DF8044B42F434
:101840004032C3F8142D70473F00001025000803F4
:1018500009001000C07B00201300200021000207B7
:101860001400002025000813090000101600202095
:1018700027000B1317000040180000602F000B0713
:10188000190000702F000B13F0B5B84B1822B84E9A
:101890000120B84F83B0C3F85C62B749C3F86072E7
:1018A000B64DC3F86462A6F53046B54CC3F868621D
:1018B000C3F86C52C3F87052C3F87452C3F878522C
:1018C00048F20C75DA661A675A679A67DA67C3F8DE
:1018D0008020C3F88420C3F88820C1F82C03A94ACB
:1018E000C1F83003C1F83403C1F83803C1F83C0330
:1018F000C1F85003A169A44B0A40A448A44913436A
:10190000A44AA361D4F8843043F00C03C4F88430B3
:101910004FF0FF34036843F00203036003682B4079
:101920004FF400551A439C4B026044608A689B4CFC
:1019300013409B4A43F000538360C36823F078034D
:10194000C360036A134023430362036A1340954A4A
:101950002343954C43628262C2620022D1F8B830C0
:1019600023F03F0343F00103C0F8B830D1F8BC3096
:101970008E4923F03F0343F00103C0F8BC3040F22E
:101980000563026105660467C0F8803045664467F8
:101990000224C0F88430036823F0020303608161ED
:1019A000834B8449C46143F8042B8B42FBD1774AB3
:1019B000136843F001031360136813F00103FBD1B4
:1019C0007A48022140F2F564906140F29940D16179
:1019D00040F26641C2F8004242F20144C2F81012DD
:1019E0007549C2F82002C2F8301240F235417348FE
:1019F000C2F83442C2F84012714CC2F8500242F2AE
:101A000001207049C2F854120121C2F86042C2F8A4
:101A100064025E48C2F8A030C2F8A430C2F8B01028
:101A20004369DA07FCD5012300244FF4803257497B
:101A30004361C0F8A040C0F8A420C0F8B0304B69A2
:101A4000DB07FCD5012300244FF400304F4A4B61E3
:101A5000C1F8A040C1F8A400C1F8B0305369DF0755
:101A6000FCD501230024584848495361C2F8A040DE
:101A7000C2F8A400C2F8B0304B69DE07FCD5D1F83B
:101A8000003145F60D5221209BB24861934265D149
:101A900000244FF4802201233C48C1F8A040C1F843
:101AA000A420C1F8B0304369DD07FCD501234FF411
:101AB00000040021354A4361C0F8A040C0F8A410DA
:101AC000C0F8B0305369DC07FCD501234FF40004A3
:101AD0004FF480302D495361C2F8A040C2F8A400F1
:101AE000C2F8B0304B69D807FCD501234FF400048D
:101AF0004FF40030254A4B61C1F8A040C1F8A40062
:101B0000C1F8B0305369D907FCD501234FF4000464
:101B10002D481E495361C2F8A040C2F8A400C2F883
:101B2000B0304B69DA07FCD5D1F8003145F60D52DB
:101B300021209BB24861934250D008254FF4000405
:101B400022490020224B234A009015705A1A012383
:101B50002148224400F0BCF903B0F0BD1E4B002226
:101B6000C3E90022C3E9022203B0F0BD00801F4098
:101B7000F9B00100F910010000841F40F970010064
:101B800000C00F40FFFCFF1F000300A000402A40E0
:101B900000802A401200FFFFFF37F700400000805E
:101BA00000FFF07CFF000F8363000200F05AF05A40
:101BB00000422A4000432A409F041830EB06180ACE
:101BC0003806180A063201260400030000000070DF
:101BD000000000707F7B0020B87300204FF40004E9
:101BE0004FF4802201230848C1F8A040C1F8A42086
:101BF000C1F8B0304369DB07FCD5012310254FF055
:101C0000807443619CE700BF00402A40F0B4154A4D
:101C100040274FF480314FF480564FF400554FF475
:101C2000404443F24200136913F0020F0ED113F443
:101C3000005F0FD013F4805F0ED0002BF3DA13F4A3
:101C4000803F0BD15B060BD5F0BC704794615161AE
:101C50009061E8E75561E6E75661E4E79161E2E704
:101C60005761E0E700800D403F4A03203F49F3EE13
:101C7000095AD2F880304FF0000C9FED3D6A23F0F6
:101C800001039FED3C5A30B4C2F88030C2F8900096
:101C9000D1F8E010384DCBB2384C39482B6007EE04
:101CA000903A0B0DC1F30B21F8EEE77A06EE903A6D
:101CB00007EE101A334BB8EEC77A2160F8EEE66AE9
:101CC000314937EEC66A37EEC55A76EEC76A77EE07
:101CD000E57A26EE266AC3ED006A25EE265AD2F88A
:101CE000803067EEA64AC0ED007AC6EE275A274834
:101CF00085EE276AC4EEA76A75EE875AFCEEE55AB0
:101D000036EE076A15EE904ABCEEC66A43EA045303
:101D100076EE877AC2F8803016EE103AD2F890410B
:101D2000FCEEE77A01EA0341214317EE903AC2F84C
:101D30009011C3F30B03D2F890110B431449C2F86E
:101D40009031D2F8803043F00203C2F88030114B5A
:101D500080F840C0C1F840314FF0E023012230BC90
:101D6000C3F80821704700BF00810D4000441F40A8
:101D70000000AA420000B442F47A0020F07A002069
:101D8000F87A0020FC7A00200000FF0F00E400E059
:101D9000001C002041BC0000B1F5607FF8B50E4684
:101DA0000F4628BF4FF46076054672B6234B0024D9
:101DB000702218602146224B22481C8000F090F8C7
:101DC000CFB121461F484FF0010C4A0901F01F0313
:101DD000013150F822400CFA03F38E4243EA040327
:101DE00040F82230F1D8284600234380013300F523
:101DF00082709E42F9D8144C25780DB162B6F8BDB8
:101E0000082000F061F88022104902710560104A34
:101E100000F076F82378002BF0D10E4B0E4AC3F871
:101E200058210E49D0204FF0E023402281F846008F
:101E3000C3F808210123237062B6F8BD286400208E
:101E4000587B002030640020767B0020D5C5000040
:101E50001B100100001C0020E1C5000000E400E0B0
:101E6000104BA020104AD96E41F4403110B4D9660D
:101E700040F23764D96E41F44071D966546490647D
:101E8000936C1B06FCD4094A40F23761A0235164CD
:101E90009364936C13F08003FBD1054A13705DF8D3
:101EA000044B704700C00F4000400C4000800C40C5
:101EB0007E7B0020F8B500BFF8BC08BC9E4670478A
:101EC0005FF800F009BE00005FF800F045D10000A7
:101ED0005FF800F0BDBB00005FF800F071B80000D3
:101EE0005FF800F011E100005FF800F0C5C50000E8
:101EF0005FF800F0E5A900005FF800F029C10000DC
:101F00005FF800F009D200005FF800F089E30000FC
:101F100045000000151A0000D91B00000D1C000030
:101F20003D1C0000551C00006D1C0000851C0000BD
:101F30009D1C0000B51C0000CD1C0000E51C00002D
:101F4000FD1C0000151D00003D1E0000551E000078
:101F50006D1E0000851E00009D1E0000B51E0000C5
:101F6000CD1E0000E51E0000FD1E0000092000003F
:101F700021200000392000005120000069200000CD
:0C1F8000BD240000E1290000F530000045
:101F8C0070C00F40C00000001200000013000000E1
:101F9C00D0841F4001000000FF000000FF00000083
:101FAC0000000000000000001300000013000000FF
:101FBC00CC841F4001000000FF000000FF00000067
:101FCC0000000000000000001C000000992400002C
:101FDC0070C00F40000C0000110000001100000048
:101FEC00E0841F40020000002C00000012000000E2
:101FFC00E0841F40010000001000000011000000F0
:10200C00DC841F40020000002D00000012000000C4
:10201C00DC841F40010000001E000000A52400000D
:10202C0080C00F40000000031900000010000000E9
:10203C00E8841F4001000000FF000000FF000000CA
:10204C00000000000000000018000000100000005C
:10205C00E4841F4001000000FF000000FF000000AE
:10206C0000000000000000001F000000B124000070
:10207C0024035400650065006E0073007900200095
:10208C004D004900440049002F00410075006400D8
:10209C0069006F0018035400650065006E00730042
:1020AC0079006400750069006E006F000403090478
:1020BC0009025501060100C032080B0002020201A0
:1020CC0000090400000102020100052400100105B2
:1020DC0024010101042402060524060001070582DF
:1020EC000310001009040100020A00000007050398
:1020FC0002400000070583024000000904020002B0
:10210C00010300000724010001250006240201013F
:10211C00000624020202000924030103010201004B
:10212C000924030204010101000905040240000016
:10213C000000052501010109058402400000000092
:10214C000525010103080B03030101000009040329
:10215C000000010100000A240100013E00020405F8
:10216C000C240201020600020300000009240302F1
:10217C0001010001000C2402030101000203000014
:10218C00000A24063103010102020009240304029F
:10219C0006003100090404000001020000090404D7
:1021AC00010101020000072401020301000B2402BB
:1021BC00010202100144AC0009058509B4000100BC
:1021CC0000072501000000000904050000010200C1
:1021DC0000090405010201020000072401030301A8
:1021EC00000B2402010202100144AC000905050594
:1021FC00B4000100860725010000000009058611C6
:10220C00030001050000000009025501060100C091
:10221C0032080B0002020201000904000001020254
:10222C00010005240010010524010101042402060B
:10223C0005240600010705820310000509040100AE
:10224C00020A0000000705030200020007058302D2
:10225C00000200090402000201030000072401002F
:10226C0001250006240201010006240202020009D5
:10227C0024030103010201000924030204010101EA
:10228C0000090504020002000000052501010109F6
:10229C0005840200020000000525010103080B0360
:1022AC0003010100000904030000010100000A24DD
:1022BC000100013E000204050C240201020600028A
:1022CC00030000000924030201010001000C240298
:1022DC000301010002030000000A2406310301017E
:1022EC000202000924030402060031000904040060
:1022FC00000102000009040401010102000007248E
:10230C0001020301000B2402010202100144AC0083
:10231C0009058509B4000400000725010000000030
:10232C000904050000010200000904050102010274
:10233C000000072401030301000B24020102021018
:10234C000144AC0009050505B4000400860725010D
:10235C0000000000090586110400040700000000BD
:0C236C000A060002EF020140010001001F
:102378000000000000000000000000000000000055
:102388000000000000000000000000000000000045
:102398000548064B1B1AD90F01EBA301491002D0BF
:1023A800034B03B118477047C01E0020C01E002011
:1023B8000000000008B5054B1BB105490548AFF3FF
:1023C8000080BDE80840FFF7E3BF00BF0000000041
:1023D800687600200088016000207047704700BFC1
:1023E800036D0BB101207047406D003818BF012004
:1023F800704700BF384B3949394AF0B51C6818791D
:102408002369D0778B420BD2364B1B78002B60D0D8
:102418004FF0E023402201F5007CC3F8082202E0D7
:102428008C46A1F5007100231A4651F83300013398
:10243800402B0244F9D1002A2B4F2C4D4FF00003BA
:10244800B8BF3F323C68081D2E684FEAA21E51F8FB
:102458003320121B41F8332050F83320921B40F8E8
:1024680033200133402BF2D1AEEB0403204A13EBA7
:102478000413106848BF0F331B113B60AEEB060313
:1024880013EB061348BF0F331B112B60194B1C6845
:10249800F0B1ECB1184A1388402B19D89D1C403371
:1024A80000EB4500138004EB4504144D51F8082B4C
:1024B800B5F900308C4542FA03F251F8043C20F893
:1024C800022BB5F9002043FA02F324F8023BEDD8B9
:1024D800F0BD01F5007CA6E7D86500209C5E0020D1
:1024E80000800E407B7B0020E0650020E465002032
:1024F800D0650020D46500205E7B0020461A0020AD
:1025080008B50BF0DBFC002108BD00BFF8B5064696
:102518000CF050FAC0B104460CF04CFA054680B1F4
:1025280072B61E4B1A887F2A17D81D490A6872B3DB
:1025380062B620460CF094FA2846BDE8F8400CF044
:102548008FBA20460CF08CFA72B6144B1A887F2A80
:1025580001D862B6F8BD00252C4611480022114961
:1025680007681A8004600C680D6062B63946304608
:102578000CF09EFA38460CF073FA304621460122D8
:102588000CF096FA2046BDE8F8400CF069BA0C60E9
:1025980004491A80086062B6F8BD00BF5E7B00205F
:1025A800D0650020D465002010B50446806D18B1B0
:1025B8000DF054F80023A365236D2BB104F1180026
:1025C800BDE8104007F0E8BA636D002BF6D110BDE6
:1025D80010B504460CF0D4F8204610BD10B50446DA
:1025E800806D00B110BD4FF480700DF02FF8A0651C
:1025F800B0B10022236D02703BB101464FF48072E6
:10260800184605F059FCA06D10BD636D002BE9D08C
:1026180001464FF48072184603F00EFCA06D10BD01
:10262800014B1846A36510BD7D7B002038B5056DAC
:102638006DB10BB1002038BD1146284606F098F957
:102648000028F7D02846BDE8384006F037BB446D6F
:10265800002CEFD0204603F0F9FD0028EAD02046F0
:10266800BDE8384004F016BF8A79A2F150031B0672
:1026780022D402F26C72F0B54B7985B0046D013347
:102688000D798E784F78DBB209784CB120460196E7
:102698000095CDE90271022106F0A4FA05B0F0BD5B
:1026A800406D0028FAD001960095CDE9027102210B
:1026B80004F034FE05B0F0BD0020704710B50446A4
:1026C800006D80B1037813F0D00F00D110BD002148
:1026D80006F04EF9606D0028F8D000220023BDE80E
:1026E800104003F0B3BD606D0028EFD090F8313092
:1026F80013F0500FEAD000220023BDE8104003F089
:10270800A5BD00BF036D10B50C4682B02BB30DF10B
:10271800060201A9184605F0DFFC38B3BDF80430FD
:10272800BDF8062053EA020120D0C2F3451C02F08E
:102738001F00D20AC3F34311400084F801C0A270FD
:102748005A0A013903F01F0302F5EA6220700120DA
:1027580061712371A27102B010BD406D30B10DF1ED
:10276800060201A903F016FC0028D7D1002002B008
:1027780010BD00BF036D10B50C4682B02BB30DF130
:10278800060201A9184605F097FC38B3BDF80430D5
:10279800BDF8062053EA020120D0C2F3451C02F01E
:1027A8001F00D20AC3F34311400084F801C0A2708D
:1027B8005A0A013903F01F0302F5EA62207001206A
:1027C80061712371A27102B010BD406D30B10DF17D
:1027D800060201A903F0CCFB0028D7D1002002B0E3
:1027E80010BD00BF006990B10368154A1B69934288
:1027F80025D1036D63B1187810F0080007D0D869A7
:102808005B69C01A48BF6FF00040704718467047B0
:10281800436D002BFAD093F8310010F00800F6D081
:10282800186919685A69401A5B6862EB0303B0F1CA
:10283800004F73F10003EAD36FF000407047184768
:10284800E9070000036963B11A68074992698A4277
:1028580008D1186D08B106F0BFB9586D08B104F079
:10286800E9BB70471846104711070000036973B1A8
:102878001A68084952698A4207D1186D08B105F0EB
:1028880003BF586D18B103F0CBBC184610474FF082
:10289800FF30704781060000036923B31968134AA3
:1028A80010B58C6882B0944214D1186D48B10122D9
:1028B8000DF1070105F014FE90B19DF8070002B074
:1028C80010BD586D0028F8D001220DF1070103F062
:1028D800D7FBF1E701220DF107011846A047EBE706
:1028E8004FF0FF30EBE74FF0FF307047C1060000B4
:1028F800036D13B1586900217047436D13B1D3E9D3
:102908000001704718461946704700BF036D13B1A0
:10291800D86900217047436D13B1D3E904017047AA
:1029280018461946704700BFF0B595B000224FF41D
:102938007A74244F1831054604A88DF804200294AF
:102948008DF80C200097CDE9122207F08DF9129B23
:1029580073B35C2000260CF0ADFD9DF804300446EE
:102968004660037304A9029B183040F8083C9DF8A0
:102978000C3000F8043C144B40F8183C134B40F85A
:10298800103C07F0C7F8124B4FF47A72A7602B601F
:102998006368A66501332E712E73AA602C6163608B
:1029A8000C4B04A8009307F0F7F8284615B0F0BDC3
:1029B800139B002BCDD1064A2B71AC602B732A6078
:1029C8002B61EDE7B80A0020E80A0020440B00203C
:1029D8008C0A00209C090020836C13B1184605F06E
:1029E80053BEC06C08B103F01BBC4FF0FF307047FA
:1029F800036D13B1184605F047BE406D08B103F0EA
:102A08000FBC4FF0FF307047036D33B11B7813F0E4
:102A1800D00F14BF012000207047406D30B190F8EE
:102A2800313013F0500F14BF01200020704700BF51
:102A3800036D13B1184605F053BD406D08B103F09E
:102A48001FBB4FF0FF307047836C00B583B063B194
:102A580001220DF10701184605F042FD01280CD1AD
:102A68009DF8070003B05DF804FBC06C28B1012293
:102A78000DF1070103F004FBF0E74FF0FF30F1E739
:102A8800036D13B1184606F0A7B8406D08B104F0FD
:102A9800D1BA7047836C13B1184606F09DB8C06C64
:102AA80008B104F0C7BA7047036D13B1184606F0B1
:102AB8003FB9406D08B104F05FBD7047836C13B136
:102AC800184606F035B9C06C08B104F055BD70471A
:102AD80000B5836C83B08DF8071043B101220DF166
:102AE8000701184606F024F903B05DF804FBC06C32
:102AF8000028F9D001220DF1070104F03DFD03B0D3
:102B08005DF804FB8A79A2F150031B0622D402F275
:102B18006C72F0B54B7985B0046D01330D798E7800
:102B28004F78DBB209784CB1204601960095CDE983
:102B38000271042106F056F805B0F0BD406D00287A
:102B4800FAD001960095CDE90271042104F0E6FB64
:102B580005B0F0BD00207047036D53B1187810F030
:102B680008000DD0D8695B69C01A48BF6FF00040F3
:102B78007047436DA3B193F8310010F0080000D1FD
:102B88007047186919685A69401A5B6862EB030351
:102B9800B0F1004F73F10003F2D36FF000407047BB
:102BA8001846EDE7836C53B1187810F008000DD083
:102BB800D8695B69C01A48BF6FF000407047C36CA2
:102BC800A3B193F8310010F0080000D170471869DC
:102BD80019685A69401A5B6862EB0303B0F1004F49
:102BE80073F10003F2D36FF0004070471846EDE729
:102BF80000B5006983B08DF8071060B10368104A0A
:102C0800DB68934215D1036D43B101220DF1070131
:102C1800184606F08DF803B05DF804FB406D0028F7
:102C2800F9D001220DF1070104F0A6FC03B05DF80C
:102C380004FB01220DF10701984703B05DF804FB7E
:102C4800390700000369D3B10E4810B41C68E46862
:102C580084420FD1186D18B15DF8044B06F068B8BE
:102C6800586D18B15DF8044B04F086BC00205DF87F
:102C7800044B7047184623465DF8044B184700205C
:102C8800704700BF3907000038B504460C4B806D0B
:102C9800236018B10CF0E2FC0023A365236D04F156
:102CA80018054BB1284606F077FF064B2846A36067
:102CB80006F072FF204638BD636D002BF2D1F4E7B1
:102CC800E80A00209C09002038B504460E4B806DA8
:102CD800236018B10CF0C2FC0023A365236D04F136
:102CE80018056BB1284606F057FF084B2846A36025
:102CF80006F052FF20465C210CF0DEFB204638BD72
:102D0800636D002BEED1F0E7E80A00209C09002053
:102D180030B4029C11469C4634B1012C1CD0022CC4
:102D28000ED0002030BC7047056DF5B14FF0FF3371
:102D3800934274EB0C04F4D3284630BC05F018BE5B
:102D4800026D0AB3D36959184CF10003002BE8D17E
:102D5800104630BC05F00CBE026D62B153695918BB
:102D68004CF10003002BDCD1F2E7406D0028D8D0ED
:102D780030BC03F06BBA406D0028D2D0D0E90023F4
:102D88008A184CEB0303F3E7406D0028C9D0D0E95B
:102D9800042330BC8A184CEB030303F057BA00BF76
:102DA80070B5244B044605690360002D32D06E6867
:102DB800013E6E6076BB2B681F4ADB6A93422FD1B7
:102DC800A86D10B10CF04AFCAE652B6D23B305F16C
:102DD800180006F0E1FE2569E5B12B68174A5B6823
:102DE800934224D1164BA86D2B6018B10CF036FC19
:102DF8000023AB652B6D05F11806A3B1304606F02C
:102E0800CBFE104B3046AB6006F0C6FE5C21284670
:102E18000CF052FB204670BD6B6D002BD7D1DAE762
:102E280028469847D7E76B6D002BE7D1E9E7284696
:102E38009847EFE78C0A0020390200005909000082
:102E4800E80A00209C09002070B5264B0446056955
:102E58000360002D32D06E68013E6E6076BB2B6831
:102E6800214ADB6A934233D1A86D10B10CF0F6FB0E
:102E7800AE652B6D43B305F1180006F08DFE25698C
:102E8800E5B12B68194A5B68934228D1184BA86DA5
:102E98002B6018B10CF0E2FB0023AB652B6D05F13C
:102EA8001806C3B1304606F077FE124B3046AB60C9
:102EB80006F072FE5C2128460CF0FEFA204614212A
:102EC8000CF0FAFA204670BD6B6D002BD3D1D6E713
:102ED80028469847D3E76B6D002BE3D1E5E72846F2
:102EE8009847EBE78C0A00203902000059090000D6
:102EF800E80A00209C090020324A3349D36F43F482
:102F08004023D3678B68002B5ADBD1F88830002B1D
:102F180056DB2E4B42F210722D484FF40C6130B440
:102F28001867C3F88010C3F890201A6F22F48052F3
:102F38001A671A6F002AFCDAD3F870010025254AAF
:102F480020490240244C2548C3F870211A6F22F406
:102F580080321A67CA69224B22F4406242F4006246
:102F6800CA618A6A13401F4A43F0CE038B62032169
:102F780063681A40144B42F40022626001241A4A22
:102F8800C0F82011C0F82811C0F824114FF480307F
:102F98001D661649DC601A61154A58619961DA6143
:102FA800C3F8E050C3F88C4004F1E064C3F89040E3
:102FB800C3F89400C3F89810C3F89C2030BC70473D
:102FC800704700BF00C00F400040384000800D40EF
:102FD8001C201100FF7F7FFF00C00A4000801F40B7
:102FE80000FEFFFFF8FFF7FF010000471B1F01006D
:102FF800001F1F1F38B5244C0546012120460BF041
:1030080065FB2846FFF778FF20490320204B022262
:103018000625C1F87C01C3F89421042223681D49C0
:103028009A6059609A824FF480721B481B49186055
:1030380000201961DA822179DA839D83A5F2064599
:10304800174AD8609D6142F821001648164B42F88D
:103058002100164AC3F888200BF05EFE2379144C31
:103068000121144A207003F11000134C02EB531293
:10307800E37603F01F039200104C9940104B43F87D
:103088002040116038BD00BFD865002000801F4077
:1030980000841F4000000202A04038409C5C0020D1
:1030A80000C00E401300008000403840010000922C
:1030B8007B7B00204038003800800E4085000000EF
:1030C800001C00202DE9F04F85B00C4603900AF053
:1030D800F5FE82460AF0D8FDAC4B04F1FE06B4F9C1
:1030E800002081461D68234629462C462A8018461A
:1030F80002334288B3420088A2EB000224F8022F70
:10310800F5D105F1FE04002231F9023F002BC3F18D
:103118000000B8BF03B29A42B8BF1A46A142F3D121
:10312800022701217D1E01FA05F3934200F3008175
:103138000137102FF6D1964A4FF08D0881234FF6AC
:10314800FF700F2502929349934C51F8252004F102
:10315800FE06A346013241F82520224632F8021F16
:10316800014096421180F9D18C4DE822002101934B
:1031780005F118000DF084F9BBF80020029B00212E
:103188002A834FF0A5324FF0100C0D202A6001223F
:10319800C5F80C90ABF800102A61C5E9013A019B0B
:1031A8006B610AE035F8101094464EEA010E25F8D6
:1031B80010E0A64218D034F8021FACEB0702002A30
:1031C80001FA02FEEEDCA7EB0C0E00F1010902F198
:1031D800100C35F810202FD10A43A6424FF0100CDE
:1031E80025F810204846E6D16D4E346804EB0802F5
:1031F800802A2DDC6FF000436A4A68484AF2A551DC
:10320800234402EB4302002301E030F8021F01339C
:1032180022F8021F4345F8DBB8F1000F08F1FF332D
:1032280004F101044FF00107D8BF002323443360A1
:10323800384605B0BDE8F08F41FA0EFE01FA0CF1F0
:103248004EEA020E25F810E0484625F81910B0E7B6
:10325800742C21DD7F2C0ADCC4F180025148002146
:10326800520000EB44000DF00BF9802333600BF0A3
:10327800A1FB0746002879D1B8F1000F4FEA4802B0
:103288004649D8BF0222474809F02AF93846C6F805
:10329800008005B0BDE8F08FC4F17A02414842EAE7
:1032A80003434AF2A5526B616FF000433B4D234440
:1032B800294600EB4303FE3001E031F8022F23F8E2
:1032C800022F9842F9D18023C4F1800933600BF0B2
:1032D80071FB0746002839D16A69C145324BDFF8CE
:1032E800BCE003EA0203A8EB0902DFF8B8C043EA2E
:1032F80002036B614FF00C033360BEE80F00ACE8CB
:103308000F009EE803008CE8030091DAA4F1800224
:1033180005EB49010CF108004244520009F0E0F8BD
:10332800A4F1740338464344336005B0BDE8F08F18
:1033380001FA07F04FEAC70847F42023013802933F
:1033480008F1010380B208F10D08FCE64FF4807221
:103358001449043009F0C4F83946039800220BF0E8
:10336800A7FB38460BF07CFB0127B5E74FF48072CA
:103378000C49043009F0B4F80398394600220BF0E0
:1033880097FB384601270BF06BFB75E72C1A0020DA
:1033980010000A00EC760020186300201462002058
:1033A800F8650020A46000200000FFFF38B5002168
:1033B80005460BF0A1FB48B10446011D2846FFF75E
:1033C80081FE2046BDE838400BF04ABB38BD00BF3F
:1033D80030B587B004460AF071FD1D4B02461D4DFD
:1033E80083FB0213D11728681344C1EBE3238342FC
:1033F8002AD02B600AF062FD04AA002100F0F8FF31
:103408009DF816209DF814109DF8150002F2B2726E
:103418009DF81250104BCDE902151B680F49CDE9F4
:1034280000200F4A204612680CF0B2FE01210D4818
:1034380009F012FC20460DF0DBF90146204609F0A0
:103448000BFC012007B030BD002007B030BD00BF25
:10345800C5B3A29164760020C8580020F804002063
:1034680048140020A007002030B58BB004460AF0AD
:1034780025FD002108AA00F0BBFF9DF82100184B8C
:10348800069018689DF8221004909DF820509DF829
:1034980024009DF82620134B079502F2B2721B6890
:1034A8000591CDE902019DF825000F49CDE90020DD
:1034B8000E4A204612680CF06BFE01210C4809F0F8
:1034C800CBFB02210B4809F0C7FB20460DF090F911
:1034D8000146204609F0C0FB01200BB030BD00BFFB
:1034E80054140020C8580020C404002048140020A8
:1034F800A0070020F404002030B5002589B0044658
:103508000AF0DCFC06AA294600F072FF9DF81810A4
:103518009DF8192020469DF81E30CDE903219DF81D
:103528001A1003F2B2739DF81C20CDE901219DF811
:103538001D100E4A00910E490CF02AFE01220D4979
:103548008318E250234408684FF055319D614AF6CC
:103558004445DA60586010469D604FF496723C25E9
:10356800C3E90452C4F8FC1109B030BD700400204E
:1035780078040020C85800202DE9F04194B00528AF
:1035880000F23281DFE810F060009600BB00D7003F
:1035980006000600974D2C69002C00F02581236851
:1035A800954EDB6AB34240F06E82A06D18B10CF004
:1035B80055F80023A365236D002B00F03F8204F12A
:1035C800180006F0E9FA2F697C68013C7C60002C41
:1035D80033D13B68DB6AB34240F06682B86D10B104
:1035E8000CF03CF8BC653B6D002B00F04F8207F1F6
:1035F800180006F0D1FA2C69FCB123687F4A5B6891
:10360800934240F068827E4BA06D236018B10CF0A5
:1036180025F80023A365236D04F11806002B00F09C
:103628000582304606F0B8FA764B3046A36006F0BD
:10363800B3FA5C2120460BF03FFF00234FF0FF3028
:103648002B6114B0BDE8F0816F48FFF7C1FE002878
:1036580000F0F9806D4CD4F88424002A00F0E4804E
:103668006D4600231146684A2846009304F0E8FE98
:10367800002840F0E880D4F88464002E00F07582B9
:1036880000240123604A06F244412846009404F0CD
:10369800E9FD002840F0D7805D480BF0E5FE0922DF
:1036A8005C495B480BF092F859480BF0DDFE4FF08F
:1036B800FF309BE05848FFF71FFF4E4B1B698BB14B
:1036C8001968564ACC68944240F0F181186D002878
:1036D80000F054814FF400724F4905F029FBB0F512
:1036E800007F24D24A480BF0BFFE0C214C4809F059
:1036F800B3FA47480BF0B8FE4FF0FF3076E03D4B89
:103708001B69002B00F02D811968444ACC6894424B
:1037180040F0D681186D002800F03A814FF42062FD
:10372800404905F005FBB0F5206FC0F01A81022072
:1037380014B0BDE8F0812F4D2C69002C00F0858174
:1037480023682D4EDB6AB34240F0B781A06D18B1F3
:103758000BF084FF0023A365236D002B00F09B81F1
:1037680004F1180006F018FA2F697C68013C7C60A7
:10377800002C33D13B68DB6AB34240F05C81B86D02
:1037880010B10BF06BFFBC653B6D002B00F0C681E0
:1037980007F1180006F000FA2C69FCB12368174AF3
:1037A8005B68934240F0D481154BA06D236018B13B
:1037B8000BF054FF0023A365236D04F11806002BBA
:1037C80000F0BB81304606F0E7F90E4B3046A360A7
:1037D80006F0E2F95C2120460BF06EFE0023184645
:1037E8002B6114B0BDE8F0814FF0FF3014B0BDE894
:1037F800F08100BFCC730020390200005909000095
:10380800E80A00209C0900202469002008530020B1
:1038180058140020140500206474002039070000A3
:1038280048050020A4690020D4F8881400293FF432
:1038380033AF6D4613460C922846A84A02F0DAFFC9
:1038480000283FF418AFA648FFF70EFE002800F046
:10385800A38140F20223A24AA249684606F0C8FAA8
:10386800129B002B00F0F7805C2000250BF022FE55
:103878009D4B9DF804600446029918309DF80C2071
:1038880040F8183C994B00F80C6C40F8081C04A947
:1038980040F8145C00F8042C40F8103C06F03AF9A3
:1038A8006368934A04A80133DFF86C82A5656360F6
:1038B800A260904DCDF8008006F06EF967682E6919
:1038C8007B1C6360002E00F0BE807368013B736050
:1038D800002B66D13368884ADB6A934240F0358111
:1038E800B06D18B10BF0BAFE0023B365336D002B31
:1038F80000F0198106F1180006F04EF92E69FEB1A4
:1039080033687E4A5B68934240F04081764BB06DE5
:10391800336018B10BF0A2FE0023B365336D06F1D6
:103928001807002B00F01781384606F035F938469D
:10393800C6F8088006F030F95C2130460BF0BCFD73
:103948002C61002C40F025816D480BF08DFD112174
:103958006C4809F081F96A480BF086FD4FF0FF309A
:1039680044E767480BF080FD0A21674809F074F9BD
:1039780063480BF079FD4FF0FF3037E7586D0028AA
:103988003FF4B0AE4FF40072604903F0F5FDA6E6CF
:10399800586D0028E5D04FF420625D4903F0ECFD36
:1039A800C1E667682C61013F6760002F51D1236829
:1039B800514ADB6A934240F0C580A06D10B10BF00C
:1039C8004DFEA765236D002B00F0B28004F11800AE
:1039D80006F0E2F82368494A5B68934237D1424BC4
:1039E800A06D236018B10BF039FE0023A365236D89
:1039F80004F11806002B00F0B380304606F0CCF82E
:103A08003046C4F8088006F0C7F820465C210BF061
:103A180053FD2869002897D003683E4A1B6B9342E0
:103A280054D1036D002B3BD00120DFE6636D002BE2
:103A38007FF4F7ADF8E538469847ADE6636D002B9F
:103A48007FF4BDADBFE52C61AEE72046CEE620464B
:103A580098472869DEE7139C002C7FF405AFDFF850
:103A6800B88004A8234DCDF8008006F095F82E699B
:103A7800002E3FF469AF7368013B7360002B3FF47D
:103A880029AF2C6160E7204698479CE57B6D002BA9
:103A98007FF4ADADAFE5636D002B7FF461AE63E6F7
:103AA800436D002BC0D14FE738469847A3E54FF444
:103AB800007216491846A04711E62046984753E673
:103AC8004FF4206212491846A0472CE69847002870
:103AD8003FF43AAFA8E720469847AEE524690020AE
:103AE800E07300200C530020E80A0020440B00205B
:103AF800B80A0020CC7300203902000059090000E0
:103B08005814002034050020580500206474002053
:103B1800A4690020710000009C0900207B6D002B27
:103B28007FF436AE38E6736D002B7FF4E3AEE5E63E
:103B3800636D002B7FF44AAF4CE7636D002B7FF475
:103B480041AE42E62046984744E730469847D5E6D6
:103B58002046984742E6736D002B7FF4E5AEE6E613
:103B6800636D002B7FF449AF4AE7D4F88814002925
:103B78003FF492AD01230F4A01F5896128460C965E
:103B880003F062FB00283FF487AD5CE630469847B7
:103B9800D6E66768013F07E707480BF065FC102188
:103BA800064809F059F804480BF05EFC4FF0FF3066
:103BB8001CE600BF246900205814002020050020BE
:103BC80008B5FE210E4801F0E1FB20B9FE210C48A2
:103BD80001F0DCFB50B10D210A4809F03DF80A4814
:103BE8000BF042FC094B01221A8008BD1C21084831
:103BF80009F032F80448BDE808400BF035BC00BFB6
:103C080008530020B404002058140020627B0020D0
:103C18009404002010B53C210C4811F039FF0C4BDE
:103C28000A220C480C4C1A8000F0FCFC0B4B0C4A86
:103C3800D3F8203223F07F431360FFF7C1FF2046FB
:103C480000F04CFB012384F8663310BD00002020EF
:103C5800461A0020910100002C77002000441F40E4
:103C6800C8580020F0B583B008F08CFF002841D177
:103C7800374EB6F900400AF021F9364B012CA3FB68
:103C88000023354A4FEA5313C3EB0313A0EB830316
:103C980003DD11688B4238BF032430481360348039
:103CA80000F010FB09281BDD2D4C2C4D04F5206776
:103CB800284600F037FB4FF4807201462046144432
:103CC80008F00EFC284600F04BFBBC42F0D1254B17
:103CD800B6F90000B3F900300BB1FFF74DFC3080A6
:103CE800214A2249136808681B1AB3F57A7F13D84A
:103CF80003B0F0BD08F08AFF154EC0B2732824D077
:103D0800652804BF0423338001E008F07FFF08F032
:103D180039FF0028F9D1ACE7154B12681D68154C1E
:103D28000A606A1C1A6000F065FC21880346B6F92F
:103D380000602A461048CDE9001610490BF0AAFB8E
:103D48000F4B1B88238003B0F0BD00233380DEE7D0
:103D5800481A002089888888107B00202C7700204A
:103D6800A4690020627B0020087B0020F465002005
:103D7800F0650020527B0020581400202C120020EF
:103D8800507B002070B55B4A82B05B4900245B48D9
:103D98000BF056FC5A485B4B4FF47A715A4D554A12
:103DA8008160036059490471047304610BF048FC95
:103DB800574E584A2B68166014611481D460002B42
:103DC80000F0918019465B69002BFBD14A61002401
:103DD800514B50481360546154609472FFF70AF9CC
:103DE8004E4A2B681146D46041F8186B11614FF4A4
:103DF8000071C2E906441181002B79D019465B692C
:103E0800002BFBD14A610024454B4448546154605F
:103E1800947213600BF07CF9424A4FF48071134698
:103E2800D46094612C6843F8186B11811361002CDD
:103E38005BD0234619465B69002BFBD14A610023FE
:103E480039493A4882F864331060012082F86533B2
:103E5800536153609372C2F8603382F8663301F19C
:103E680018020B724872CB608B610A612246646942
:103E7800002CFBD12E48516122460094274B4C61FF
:103E88004C608C72086023492A480AF0CDFE194A12
:103E9800294928480BF0D4FB0122204B00921D49E8
:103EA80026480AF0C1FE134A234924480BF0C8FBF0
:103EB8001D4B22461749009421480AF0B5FE0D4AC9
:103EC8001D491F480BF0BCFB22461749154B0094AF
:103ED8001C480AF0A9FE074A17491A4802B0BDE86B
:103EE80070400BF0ADBB2A6071E714462A60A6E764
:103EF8002A6088E78814002061020000D865002045
:103F0800CC7300208C0A00202C640020310A0000A9
:103F1800C00900200C690020DC0A0020147B002066
:103F2800D80900202C770020D0760020E409002052
:103F3800CC0900208076002075C900009476002006
:103F4800A8760020BC760020024A034903480BF0FB
:103F580077BB00BF8814002061020000986500202C
:103F680010B5054C04F108000AF00AFC2046BDE82B
:103F780010400AF005BC00BFF864002010B5084CDA
:103F8800002120460AF0A2FB04F1080000210AF0F3
:103F98009DFB044A04490020BDE810400BF050BBCB
:103FA800F864002088140020F11B0000024A03492D
:103FB80003480BF045BB00BF8814002061020000D5
:103FC800A8640020024A034903480BF039BB00BF2C
:103FD8008814002061020000C0650020024A0349DD
:103FE80003480BF02DBB00BF8814002061020000BD
:103FF800A0650020024A034903480BF021BB00BF1B
:10400800881400206102000078650020024A0349F4
:1040180003480BF015BB00BF8814002061020000A4
:10402800E0640020024A034903480BF009BB00BFC3
:10403800881400206102000060650020024A0349DC
:1040480003480BF0FDBA00BF88140020610200008D
:10405800D8640020024A034903480BF0F1BA00BFB4
:104068008814002061020000D0640020024A03493D
:1040780003480BF0E5BA00BF881400206102000075
:1040880088650020024A034903480BF0D9BA00BFEB
:104098008814002061020000B865002030B482B0A6
:1040A8000C4602AB03E90600C37C002B30D072B685
:1040B800C37CDA0708D54FF0E0214569D1F88021A3
:1040C8002A408262C1F880219D0708D54FF0E0217F
:1040D8008569D1F884212A40C262C1F88421590730
:1040E80008D54FF0E021C569D1F888212A4002633C
:1040F800C1F888211A0708D54FF0E021056AD1F8E0
:104108008C212A404263C1F88C21DB062FD462B689
:1041180083689C4235D0224B84609B69214AC3F353
:104128000111C3F3826352F821100133B1FBF3F29A
:10413800CCB1944227D8B2FBF4F3B2FBF3F2944229
:104148002CD3B3F5817F20D3174CC46003680322B6
:104158000020019918615A6201221C6419661A61CB
:1041680002B030BC70479942EFD3531CE9E74FF0D7
:10417800E022416AD2F890310B408363C2F8903153
:10418800C5E7C468E2E70024DFE7022BFBD9023B5E
:104198005A08140244EA02441C43D6E71A46E4E7E4
:1041A80000C00F40280C0020FF7F7F00024A03490F
:1041B80003480BF045BA00BF8814002061020000D4
:1041C80058650020024A034903480BF039BA00BF7A
:1041D800881400206102000050650020024A03494B
:1041E80003480BF02DBA00BF8814002061020000BC
:1041F80090650020024A034903480BF021BA00BF2A
:10420800881400206102000070650020024A0349FA
:1042180003480BF015BA00BF8814002061020000A3
:1042280008650020024A034903480BF009BA00BF99
:104238008814002061020000B8640020024A034983
:1042480003480BF0FDB900BF88140020610200008C
:1042580068650020024A034903480BF0F1B900BF22
:104268008814002061020000B0650020024A03495A
:1042780003480BF0E5B900BF881400206102000074
:10428800F064002010B5002104460AF035FC98B10E
:1042980094F866338BB194F8643394F8651301335A
:1042A800D12BA8BF0023994207D0991DDBB204EB9C
:1042B8008101486084F8643310BDBDE810400AF0FD
:1042C800CFBB00BF90F8641390F86523CBB291423E
:1042D800D0B238BFD133181A704700BF38B5054679
:1042E800D0F8600320B10AF0BBFB0023C5F86033A7
:1042F80095F8652395F86433D4B29A42D9B20ED0B2
:104308000134D12C28BF0024A31D05EB8303586872
:104318000AF0A6FB95F86433A342F1D1E1B285F81F
:10432800651338BDD0F86023B2B990F8651390F8DA
:1043380064C3CBB261450DD00133D02B8CBF13467B
:10434800DAB2063300EB83035B6880F865231A1D35
:10435800C0F860331046704700221046704700BF0F
:1043680010B50446D0F8600320B10AF079FB0023A9
:10437800C4F8603310BD00BF024A034903480BF07C
:104388005FB900BF8814002061020000C8650020E2
:10439800024A034903480BF053B900BF88140020B0
:1043A80061020000B0640020024A034903480BF090
:1043B80047B900BF8814002061020000E8640020AB
:1043C800024A034903480BF03BB900BF8814002098
:1043D80061020000A8650020024A034903480BF067
:1043E8002FB900BF881400206102000080650020FA
:1043F80053492DE9F047A1FB004340F26D1A514F94
:104408005B09DFF85081DFF85091A1FB0341C3EB52
:1044180003144909A0EB84004B4CC1EB0115A4FB24
:10442800014EA3EB850310704FEA1E1E53700EF168
:1044380004040EEB4E00454BA1EBC001A3FB0403A3
:1044480000209170E11A03EB510301469B08C3EB6E
:10445800C303E41A0134D470C4B240F26D1C04F2F0
:10446800B27313F0030507FB03F608D1B8EBB60FD8
:104478004FF4B77C03D3B9EB361F38BFD446614439
:1044880001308E45E8D2324E9471A6FB030695B3EF
:10449800770964244FF4C870F60904FB173700FB4A
:1044A800163640F26D10AEEB010E00230121704468
:1044B800DFF8A8E00AE013F80E40844232D80C294D
:1044C800A0EB04000FD001310133C9B2012B5FFA10
:1044D80083FCF0D115B9DFB11D2400E01C24A042F3
:1044E8002AD3001BEFE74FF00D0C013082F805C00E
:1044F8001071BDE8F08764207709F60900FB1737CB
:104508004FF4C87000FB16363FB14FF4B770CAE7D6
:10451800002E14BF1C241D24E1E7002EC1D14FF446
:10452800B770C0E70CF1010C01305FFA8CFC107118
:1045380082F805C0BDE8F0874FF0020CD5E700BF50
:1045480089888888295C8FC2ABAAAAAA254992249F
:104558001F85EB51285C8F020AD7A300640700204F
:10456800F8B51D4C1D4D23682A681D4E9B1AB3F5DE
:104578007A7F2FD331680131236802F57A720846B1
:1045880001319B1AB3F57A7FF6D230602A60154F55
:104598003B6883420FD8144B1B6863B198470143AB
:1045A8000BD0124B22681B682A6002220344306039
:1045B8003B600F4B1A700021F8BD0D490B4B0A7870
:1045C8003068003A1B6818BF012203440A700021B2
:1045D8003B60F8BD3068DAE7087B0020905C00207B
:1045E80014630020985C0020607400206814002088
:1045F800747B002070B5094EFFF7B2FFD6E900239F
:10460800994208BF904206D005460C46044AFFF777
:10461800EFFEC6E90054024B187870BDF85200202E
:104628009C600020034A0449044B126808601A6021
:10463800FFF796BF1463002060740020985C002088
:1046480090F8A32090F8A200101A704790F8A230B2
:1046580090F8A3209A4205D95A1C034480F8A22056
:10466800987E70474FF0FF30704700BF90F8A23037
:1046780090F8A3209A4202D91844807E70474FF0E0
:10468800FF307047704700BF0346B0F8300178B17B
:1046980093F82F21882A03D9012200201A71704724
:1046A80002F1010C01201A4483F82FC182F8A510E9
:1046B800704700BF38B5B0F830410CB9204638BD56
:1046C80090F82F310546C3F18904A2420DD814464B
:1046D80005F1A5002246184407F002FF95F82F318E
:1046E8002046234485F82F3138BD01220271EFE7B7
:1046F80038B5002513464FF47A7204460571826076
:104708008822154821612946206004F11A00636156
:104718002573257665760BF0B3FE8922294604F1C8
:10472800A50084F8A25084F8A35084F8A4500BF094
:10473800A7FE204684F82E5184F82F5184F8305172
:1047480084F8315184F8325184F8335184F8345163
:10475800C4E94E5538BD00BF980B0020036970B5F9
:10476800D3F81451044615F4706201D0C3F814212B
:10477800AE070BD5D3F8701108043ED500220120EE
:1047880084F8A220224484F8A3009176EA0710D581
:1047980094F83061F6B194F82E6194F82F21B24262
:1047A80027D9721C264484F82E2196F8A520C3F830
:1047B8006021AB050DD594F8A30018B1D4F83C31AD
:1047C80003B198470023A4F8A230A4F82E3184F846
:1047D800303170BDD4F838210AB1904723690022DE
:1047E80084F82E21012284F8302194F82F21B24236
:1047F800D7D80022C3F86021DBE794F8A320872AE2
:10480800C4D8501CC0B2BDE70148FFF7A7BF00BF1E
:10481800CC5800200148FFF7A1BF00BF0C5A002068
:104828000148FFF79BBF00BF4C5B002010B5094C47
:10483800094922460948FFF75BFF04F1500208497D
:104848000848FFF755FF04F1A00207490748FFF79A
:104858004FFF10BD8C1F006000003F40CC58002067
:1048680000803F400C5A002000C03F404C5B0020B5
:1048780090F81CC04160BCF1020FC26001D183688E
:10488800184709F0ADBE00BFF0B4046840F2012536
:104898001E462561A3B121B311F8015B013B656692
:1048A800256FAF0707D41546013E676F1AB105F8A3
:1048B800017B2A4604686569ED07F1D5002BEAD12A
:1048C8006EB10368196F8907FAD41146013E5B6F10
:1048D800002AF5D001F8013B0A46002EF1D1F0BCC0
:1048E800704790F83C50D9E7324B334930B5D3E99B
:1048F80011542079C8771A6C95F804C081F81CC047
:10490800087752B1B2F5004F23D32C4911442A4AF3
:104918001964D07682F81BC030BD19680F24D86C92
:104928008C6540F20134CA610C614FF47C544C61CF
:1049380003210468246883F83D10214B9C4226D14A
:10494800037F4260022BC26026D18368BDE83040F5
:1049580018472D68E98B090422D492B2EA832168AA
:10496800EC8BA4B2EC82CC8B240405D5CC8BC2F39F
:10497800080204F47E442243CA83CA8B92B2CA82D4
:1049880000210D4A1964D07682F81BC030BD234639
:104998001146BDE830401847BDE8304009F020BE58
:1049A800E98BC2F3080E92B201F47E4141EA0E018E
:1049B800E983D4E72858002000800E400180FFFFDB
:1049C80001250000324B334930B5D3E91154207921
:1049D800C8771A6C95F804C081F81CC0087752B1E2
:1049E800B2F5004F23D32C4911442A4A1964D076D2
:1049F80082F81BC030BD19680F24D86C8C6540F252
:104A08000134CA610C614FF47C544C610321046881
:104A1800246883F83D10214B9C4226D1037F4260D5
:104A2800022BC26026D18368BDE8304018472D6844
:104A3800E98B090422D492B2EA832168EC8BA4B2F0
:104A4800EC82CC8B240405D5CC8BC2F3080204F489
:104A58007E442243CA83CA8B92B2CA8200210D4A7D
:104A68001964D07682F81BC030BD23461146BDE8D4
:104A780030401847BDE8304009F0B2BDE98BC2F3B9
:104A8800080E92B201F47E4141EA0E01E983D4E7AF
:104A9800D857002000800E400180FFFF012500004C
:104AA8000023C0E90012C0E90233C0E90433C0E9B9
:104AB8000633C0E90833C0E90A33C0E90C3383631D
:104AC8008387C0E91033C0E91233704743682DE982
:104AD800F04FD3E90041814D4FF0B80A22684FF0FA
:104AE800020822EA01027E492260AA6911407D4A31
:104AF8000A43AA6190F810E07B4A03EB0E0603EB29
:104B08008E0E317C02EB01118968C1F800A090F883
:104B180011C003EB0C050CF10A0C95F8241002EBFC
:104B280001118968C1F800A0817C03EB010903EB3E
:104B3800810199F838B002EB0B1BDBF808B0CBF811
:104B480000A0D4F800A05F684AEA070AC4F800A0E9
:104B5800347CDEF814E002EB04146468C4F800E066
:104B680095F8244053F82CC002EB04146468C4F888
:104B780000C099F8384002EB04125268C96B116002
:104B88009A6C99F8441011601A6A317F5B6B116056
:104B980095F830201A600F220368C3F810809A65D0
:104BA800C27C002A31D072B6C37CDC0708D54FF02E
:104BB800E0214469D1F8802122408262C1F8802135
:104BC800990708D54FF0E0218469D1F88421224063
:104BD800C262C1F884215A0708D54FF0E021C469A0
:104BE800D1F8882122400263C1F888211F0708D51F
:104BF8004FF0E021046AD1F88C2122404263C1F8C9
:104C08008C21DE0655D462B60368384C8268A2420D
:104C180059D0324A846092693549C2F30116C2F309
:104C28008262344D51F826100132B1FBF2F2AA42E9
:104C380031D80022C260002403211C610724596274
:104C480001211A641C661961C37C13B3DD0704D5FE
:104C5800816A4FF0E022C2F800119C0704D5C16AAE
:104C68004FF0E022C2F80411590704D5016B4FF048
:104C7800E022C2F808111A0704D5416B4FF0E02270
:104C8800C2F80C11DB0604D5826B4FF0E023C3F8A1
:104C98001021BDE8F08F1849A1FB0251090DB2FBA4
:104CA800F1F2A24288BF0131B1F5817F0DD3134AD9
:104CB800C0E74FF0E022416AD2F890310B4083639D
:104CC800C2F890319FE7C268B5E70229B1D9023925
:104CD8004C08220242EA04420A43ABE700C00F40F4
:104CE800CFFFFFE310000008BC0E002000093D00C4
:104CF800280C0020FF083D0083DE1B43FF7F7F0058
:104D08000BB1FFF7C1BD70474368D3E900120968CA
:104D1800114200D1704710B50268044600200521F1
:104D28001061227C1344187C09F0B0F9627C636836
:104D38000521134493F8240009F0A8F96368A27CBC
:104D480005211344BDE8104093F8380009F09EB9D6
:104D580008B5084A08490948FFF7A2FE084A094960
:104D68000948FFF79DFE094A09490A48FFF798FED6
:104D780008BD00BF2409002000003A40D857002091
:104D8800B408002000C039402858002044080020FA
:104D98000040394078580020704700BF30B583B0D4
:104DA80005460C4609F08AF81C4B984204D80023A3
:104DB8002B80238003B030BD694609F00FFD9DF8B4
:104DC80005309DF8062001339DF80410503ADBB2F7
:104DD80092B21F2998BF0C2B01D87F2A18D900211D
:104DE8009DF802209DF801302980172A98BF3B2B97
:104DF8009DF8001001D83B2903D90023238003B074
:104E080030BD5B0143EAC22343EA51039BB2F5E795
:104E180041EA431141EA422189B2E1E7FFA5CE12F6
:104E2800012BF0B5054695B03ED0022B40F202208A
:104E380001F104010CBF03460023684604F0D8FFC3
:104E4800129B002B39D05C2000260AF033FB214B43
:104E580004AF0446C0E900369DF8043039461830DE
:104E680000F80C3C1C4B40F8103C029B40F8083CF6
:104E78009DF80C3000F8043C04F04CFE174B4FF43E
:104E88007A72A665A360164B2E712B6063682E7329
:104E98000133AA602C616360124B3846009304F01A
:104EA8007BFE284615B0F0BD44F202230431684663
:104EB80004F09EFF129B002BC5D1139B002BC2D17F
:104EC8004FF47A71064A04AF2B71A9602B732A60DC
:104ED8002B61E1E7E80A0020440B0020B80A002013
:104EE8008C0A00209C09002010B5D0F884448EB0AC
:104EF8000A4644B1002321466846009303F0A0FA0D
:104F080080B90EB010BDD0F8881441B12346684668
:104F18000C9401F06FFC50B900200EB010BD08468B
:104F28000EB010BD684603F0DBFC0EB010BD68463D
:104F380001F0B4FF0028EFD0E3E700BF70B5D0F868
:104F480084548EB016465DB105F2444500230A46E6
:104F580068462946009303F0F7F990B90EB070BD82
:104F6800D0F888040028F9D000F589640A462B4651
:104F7800684621460C9501F0C3FB48B900200EB0E5
:104F880070BD32462946684603F0B4FB0EB070BDCA
:104F980032462146684602F0D5F80028EED0DDE713
:104FA80010B5D0F884448EB00A464CB100200123D5
:104FB80021460090684603F043FA80B90EB010BD50
:104FC800D0F8881441B1012368460C9401F012FC12
:104FD80050B900200EB010BD08460EB010BD68468E
:104FE80004F010FD0EB010BD684601F0FDFE00286B
:104FF800EFD0E3E730B5D0F884448FB00A464CB11F
:105008000025012304F244416846009503F02AF97B
:105018000FB030BDD0F888040028F9D000F58961B8
:10502800012368460C9402F00FF90FB030BD00BFA1
:1050380010B5D0F884448EB00A463CB1002321460E
:105048006846009303F0FCF90EB010BDD0F8881440
:1050580031B1234668460C9401F0CCFB0EB010BD6C
:1050680008460EB010BD00BFF8B5054690F8CC0450
:1050780008B90146F8BDD5F88434002B4BD0DC695B
:10508800D5F88C04013C00285BD003689B6B9847DB
:10509800E0B1D5F88C0478B30368DB6B9847A8B9FE
:1050A800D5F88C0440B3036801211B6C9847074668
:1050B80010B3D5F8840458BBD5F8883473B9D5F83B
:1050C8008C04002845D04FF0FF360FE0D5F8840453
:1050D800E8B9D5F88834002B3BD00746184601F0CC
:1050E8007FFD06463FB1D5F88C0428B1036800213E
:1050F8001B6C984700B1A41BD5F88434CBB19B79BD
:105108004FF40071994089B2A1FB0401F8BD002752
:1051180003F0F6FFE5E7D5F88834D5F88C04ABB191
:10512800D3F830440028B0D1184601F059FD06469E
:10513800E1E7D5F8883463B1D3F83C14A1FB040146
:10514800F8BD184603F0DCFF0646D4E708B11C4654
:105158009BE7002001468DE790F8CC3463B1D0F886
:10516800843463B19A794FF40070D9699040013959
:1051780080B2A0FB01017047184601467047D0F87D
:1051880088040028F9D0D0F83C14D0F83004A1FBEA
:10519800000170472DE9F043D0F88C548FB04DB121
:1051A80098462B68044628469B699847B0F5405FA7
:1051B800064604D8002630460FB0BDE8F0834FF409
:1051C80000700AF043FA07460028F3D00DF10C09E5
:1051D800B6F1806F02464346294648462FD900F06B
:1051E80063FB064638460AF039FA002EE2D02B68EF
:1051F8002846271DDB69984794F8BC34FF2B22D03A
:10520800D4F8C03404F29C4504932846D4F8C43436
:105218000593B4F8BC34ADF80C3099E80E0005F0ED
:10522800C9FD94F8AE24C4F88C54002AC3D10123D4
:105238000092294638461A4604F050FDBBE702F0B2
:105248000FFD0646CEE704F5926594F8C814284683
:1052580006F0E8FA2846C4F88C5405F055FE0246D4
:105268000028A8D10123D4F88C14384600921A4695
:1052780004F034FD9FE700BFF0B5D0F88C6487B028
:105288000446002E43D090F8CC5490F8CD3485B124
:10529800FE2B66D094F8CE0436283ED9336802A98E
:1052A80030465B6C98470546284684F8CC5407B0CE
:1052B800F0BDFE2B27D090F8CE0436284CD994F8B0
:1052C800BC34271DFF2B2ED0D4F8C03404F29C46E2
:1052D800D4F8C42403933046B4F8BC340492ADF82F
:1052E800083002AB0ECB05F065FD94F8AE24C4F887
:1052F8008C646AB901230092314638461A4604F094
:10530800EDFC054604E0204B9B689B03D7D40025A1
:10531800284684F8CC5407B0F0BD08F0A5FE051E59
:1053280018BF0125F4E704F5926694F8C8143046CE
:1053380006F078FA3046C4F88C6405F0E5FD0246BC
:105348000028E5D1012300923846D4F88C141A4677
:1053580004F0C4FC0546DBE708F086FE0028AED161
:10536800D5E7336830469B6D9847421C034691D079
:105378000028CDD194F8CD24FE2AC8D103212E20AF
:105388001D4608F083FEC3E700800042F0B50D46D5
:10539800044687B0314800F0B5F9FE2D84F8CD54A5
:1053A80026D0362D02D9002007B0F0BD00262C4BA0
:1053B80004F29C478DF80C50C4F8C0348DF80D6089
:1053C800384684F8BC5484F8BD64C4F8C464CDE994
:1053D800043606AB13E90E0005F0ECFC94F8AE2495
:1053E800C4F88C7492B3304684F8CC0407B0F0BD8E
:1053F8000023FF2204F5926584F8BC24194684F83A
:10540800C834284606F00EFA2846C4F88C5405F02D
:105418007BFD024678B90123D4F88C14201D009234
:105428001A4604F05BFC30B101222E2384F8CC2408
:1054380084F8CE34B8E72E200025032184F8CE0462
:1054480084F8CC5408F022FE2846ADE701230092E8
:105458003946201D1A4604F041FCC5E72D2A0000F4
:1054680040787D011B4800231B4A4FF0FF0C1B4965
:1054780010B41B4CC0F89024072204604FF4281481
:10548800C0F8A4144FF47F41C0F8A824154AA0F826
:10549800CC14A0F89834C0F8AC44A0F8B03480F824
:1054A800B23480F8C83480F8CEC4C0F89C240E49C1
:1054B8000E4A5DF8044BC0F88434C0F88834C0F84C
:1054C8008C34C0F8A034C0F8B43480F8B8340AF08A
:1054D800B7B800BF08530020BC0B002000093D00EE
:1054E800680B0020F0090020292A000088140020F9
:1054F800B1F5807F21D810292ED840234FF0200CF9
:10550800B2FBF3F1B1F5806F20D203FB112300B594
:10551800B2FBFCFEB3FBFCF30CFB1E224FEA910C22
:10552800DBB201322CF03F0CC9B2037042EA0C0224
:105538008170D2B242705DF804FB3F239C468029FB
:1055480010D9B1F5FC7F0FD81B01D9E7FF21FE2345
:105558004170037081707047202916D880234FF05E
:10556800200CCDE7DB00CBE7B1F57C7F04D9B1F5A2
:10557800FC6F03D89B01C3E75B01C1E7B1F57C6F02
:1055880094BFDB01C3EB0323BAE720239C46D6E78D
:1055980030B5037883B0DC071DD50446406804F1B4
:1055A80010020368A16801921B6A9847019A054690
:1055B800A8B12378990708D5E368D4E9010119440B
:1055C80003681B6A984750B1237823F001032846E3
:1055D800237003B030BD0125284603B030BD002537
:1055E800284603B030BD00BFF8B543680BB38368E5
:1055F80004460F4615468B4206D110F8103B05F0BD
:1056080003052B432370F8BDFFF7C2FF88B16B0772
:1056180005D504F1100630460023A760EFE760685F
:1056280004F110063946036832461B69984700287A
:10563800F1D10020F8BD00BF7E283ED94FF0350CCF
:10564800002330B4284C04E034F82120824220D8CA
:105658000B46ACEB0302012A03EB5201F4D89BB2D0
:1056680034F82320904216D24B2400231F4D04E027
:1056780035F8212082421ED80B46E21A012A03EB94
:105688005201F5D89BB235F8232082421FD030BC96
:1056980070478C46DDE704EB8304821AE3789A426C
:1056A800E2DA94F90230012B16D0D3B19BB203444D
:1056B80030BC98B270470C46DFE7A0F16103192BA4
:1056C8008CBF00230123A0EB431398B2704705EB6E
:1056D8008305688830BC704702F00102831A98B2CB
:1056E800D5E74EF2A033E2E79006002064050020DB
:1056F8004FF0000C024B82F800C01B68184700BF2F
:1057080024640020024A0349034B11601860704763
:1057180020640020813300002464002010B5044672
:1057280082B0084601910BF063F82368024601999C
:1057380020465B6802B0BDE8104018478368C3F391
:10574800080383B1002110B40269D1540133B3F5C1
:10575800007FF9D10168D0E903321C681846236A32
:105768005DF8044B18470120704700BF8268034664
:10577800006940F2FF1CC2F3080281546245586870
:1057880001EB7001986800F10100C3E9011001D034
:1057980001207047D868196810B404684A1C246A44
:1057A8001A601A6923465DF8044B184738B58368B0
:1057B800CAB20D460169C3F3080340F2FF1C044650
:1057C800CA546345416802EB71024260826802F183
:1057D8000102826005D0290A2046BDE83840FFF75B
:1057E800C5BF0168C0684A1C03681B6A2260226939
:1057F80098470028EFD138BDF8B500230646016068
:105808001D46C0E90133A8B2FFF716FFA8420446B7
:1058180007D0C1B23046FFF7A9FF00283BD10020CE
:10582800F8BD6C1CB4F5803F04D12AE00134B4F50E
:10583800803F04D0A0B2FFF7FFFEA042F6D0671B5E
:10584800B7F5007F1DD34FF6FF713046FFF7AEFF67
:105858000028E4D0B9B23046FFF7A8FF0028DED010
:105868002546B5F5803FCED13046BDE8F840FFF774
:1058780065BFC5F3072130460135FFF777FF0028DC
:10588800CDD0A542E9B23046EBD2FFF76FFF002832
:10589800EFD10020F8BDC4F307213046FFF766FFBB
:1058A8000028BCD00135DCE72DE9F04F1F4689B050
:1058B8000B680D4604901446C160026108469B6956
:1058C8009847B0F5801F0090C0F0D88000230122CF
:1058D800009E01335200DBB201D09642F9D81C2B4E
:1058E800009640F2B780A3F10B08012248FA02F1B2
:1058F800C8F347088A4002910792013301225B10DE
:105908009A40069204229A400392022202FA03F372
:105918000193009A0021039B2046029E4FF0010A42
:10592800D31A4FF400724AF6552BF34003FA06F9DE
:105938000593019E0AF0A4FDFF2384F8BFA184F813
:10594800C0A1B14484F8C431224684F8C531072384
:105958000021284684F8C231FE23C4F8C66184F8C1
:10596800C3312B68C4F8CA911B6AA4F8FEB19847E2
:10597800002863D04FF40072002120460AF080FD11
:10598800009B84F86D804FF000086366F421059B46
:1059980004F17800069AE365202326642372637273
:1059A800A372EB23A665464623707623C4F8489075
:1059B8006370902384F86EA0A3704523E370582386
:1059C8002371462363714123A3715423E371042394
:1059D80023664FF48073A4F86830092384F86C3088
:1059E8008023C4E9142284F86F304FF4C3720AF09C
:1059F80047FDA4F8FEB1A8F16A03012B06D9B8F156
:105A0800700F03D014F8083003EB760608F101088C
:105A1800B8F5007FEFD12B682246DDF804902846C0
:105A28001B6A4946984748B12B684946224628468A
:105A38001B6A0C31CDF80490984740BB2FB13B68E6
:105A48000F22B84938465B6898470026304609B0A7
:105A5800BDE8F08F1A2B4FF0080800F2A6814FF42A
:105A68008043CDF8088001934FF4004303934FF42B
:105A7800807307934FF4005306934AE7002FE4D04E
:105A88003B681522A84938465B689847D7E74246DD
:105A98000021204609F1010A0AF0F2FC4AF65523D2
:105AA80009F1090204F2FF19A4F8FE310023934614
:105AB800A04601E018F8013FC14503EB7606F9D18D
:105AC8002B682246514628461B6A98470028B5D0BD
:105AD8002B6822460AF10C0128461B6A98470028C1
:105AE800ACD00AF101039B4502D09A462378DFE740
:105AF8004FF40072002120469B460AF0C1FC0022A8
:105B08000AF1030A1146234601E013F8011F9845DC
:105B180001EB7606F9D12B682246594628461B6ABE
:105B2800984700288AD02B6822460BF10C0128469A
:105B38001B6A9847002881D00BF101018A456AD178
:105B4800231F04F5FE7243F8046F9A42FBD12B68B9
:105B5800224628461B6A984700283FF46FAF2B68F7
:105B68000BF10D01224628461B6A984700283FF48E
:105B780065AF2FB13B680C226C4938465B68984783
:105B8800069A0021019B2046002613444FF4007218
:105B98009946059B4FEA83080AF072FC23464FF0AA
:105BA800FF3208F20728F821B7F1000B4FEA582A0C
:105BB80003F8011B4FEA9838C4F8012018BF4FF0CA
:105BC800010BDA605A609A60C3F80F2002E00136D0
:105BD800B24523D0B6FBF8F308FB136343B9BBF116
:105BE800000F05D03B680122514938465B68984749
:105BF8002B6809EB0601224628461B6A98470028AD
:105C08003FF41CAF002EE2D131464FF4007220461B
:105C18000AF036FCDBE78B46217874E7002F34D096
:105C28003B680222434938465B689847059E079AB5
:105C38000736F60806F2FF13B2EB532F4FEA532943
:105C4800FFF4FDAE4FF40072002120460AF018FC64
:105C580007232370B9F1000F00F08A804FF0000885
:105C680008E0B8F1000F01D184F8008008F10108BC
:105C7800C1457BD9039A28462B6802EB08012246C6
:105C88001B6A98470028ECD1D8E6059E079A073684
:105C9800F60806F2FF13B2EB532F4FEA5329FFF42D
:105CA800D4AE4FF40072394620460AF0E9FB0723C8
:105CB8002370B9F1000FD1D1039B079A0498991862
:105CC800FFF79AFD00283FF4C0AE029A4FF4007324
:105CD8009340049A92689A423FF6B7AE4FF0020892
:105CE800029B4FF40072002108FA03F9039B204637
:105CF80099440AF0C5FB81220323049909F1FF396D
:105D080084F820208222237084F84020C4E90D867C
:105D18004A684FF00108636562648B68A3650023D5
:105D2800E3650EE02C080020C8070020E0070020EB
:105D3800F007002008080020079B98453BD208F18F
:105D480001082B6809EB0801224628461B6A984778
:105D5800064600283FF472AEB8F1010FECD14FF4BB
:105D68000072002120460AF08BFBE8E7002FA3D041
:105D78003B681622144938465B689847039B079A84
:105D880004989918FFF738FD00283FF458AE029A96
:105D98004FF400739340049A92689A423FF64FAECC
:105DA8000A493846FFF7BAFC98E74FF48072CDF8F5
:105DB80008800792A1E5002F3FF448AE0449384611
:105DC800FFF7ACFC42E600BFF40700200C080020F7
:105DD8001C0800202DE9F043D2E9013803F10F092E
:105DE80031F8020F984503F101035FFA80FC1ED0D9
:105DF80053607E2813F801ECACF16104ACF1200685
:105E0800AEF16105AEF120070ED8192D98BF5FFAE3
:105E180087FE192C98BF5FFA86FCF44504D1994592
:105E2800DED10120BDE8F0830020BDE8F083B0FAA0
:105E380080F04009BDE8F0832DE9F04190F8313059
:105E48000F4693B390F830300646012B33D91546E8
:105E58004FF00208002400224146304600F060F866
:105E6800844610B30378C12B1FD104F1FF3E04F11F
:105E78000F02BE443CF8023F8BB10134AC4214D24D
:105E88007F2B28BF3F2394420EF8013FF2D108F13F
:105E9800010896F830305FFA88F84345DBD227448A
:105EA800002320463B70BDE8F08100231C463B7070
:105EB8002046BDE8F0810024F2E700BF30B50D6848
:105EC8008C684D60AC4225D02A4600230132D803A5
:105ED8004A6040EA530312F8010CA0F1610CA0F1EA
:105EE800200EBCF1190F98BF5FFA8EF0944203445C
:105EF8004FEAC330C3F34E0300F4004043EA000303
:105F0800E4D1641B0B82601ECC60FE288CBF00208D
:105F1800012030BD002004460346CC600B8230BD12
:105F280070B500F1240384B08C46044601AD1646D2
:105F380093E8070085E807004FEA4C122946206AD3
:105F480000F06AFD012806D132462946206A00F091
:105F580047FD04B070BD002004B070BD10B5044604
:105F680001F068F8002384F8313084F8333010BD2C
:105F780038B514460D46002200F12401006A00F0ED
:105F88002FFD034620B1428901202A801B892380E6
:105F980038BD00BF38B514460D46002200F1240173
:105FA800006A00F01DFD034620B1C28901202A8045
:105FB8009B89238038BD00BF38B50D4690F8311055
:105FC80009B1002038BD382204460AF059FA0123E5
:105FD80040222562184684F8333084F8312038BDD1
:105FE800F0B40D460978202903D115F8014F202C6B
:105FF800FBD0156095602C782F2C11D084B16E1CC5
:106008003C2C1E4F35462AD8212C12D804F1FF3CCF
:10601800BCF11E0F16D80020F0BC704715F8014FD0
:10602800202CFBD02F2CF9D01D601146F0BCFFF7B7
:1060380045BFA4F1220C5FFA8CFC27FA0CFC1CF07B
:10604800010FE8D12E2C01D0202C0FD116F8014BCE
:10605800002CE5D02F2CE3D03C2C3546D4D95C2C31
:10606800D9D005D97C2CD6D02106D4D49660EDE7BA
:106078003E3C012CFAD80020F0BC704701210005F5
:106088002DE9F04F90F8333083B00546DC0774D51E
:1060980058060F46904640F1B080D5E90023D5E96F
:1060A800041018EB020443F10003A14270EB030350
:1060B800C0F0A980B8F1000F5BD0464605F1180979
:1060C800D5E90032D5F820A0DAF838441C40C4F3EA
:1060D800080B002C70D1134370D195F831305A0653
:1060E8004CBFDAF83424EA69AA619AF84504023AFE
:1060F800DAF82C14630A824001EB54211144BBF1F5
:10610800000F45D1B6F5007F42D3DAF81822914244
:106118003ED0B6F5806F58D34FF0010B0BFA00FB59
:10612800ABEB030B730A9B4528BF9B4691424FEA92
:106138004B240AD801EB0B039A4206D20AF50470E5
:106148000191FFF725FA0199B8B1DAF814025B4614
:106158000268D2F814A03A46D04770B123462744C3
:10616800D5E900125B1842F10002361BC5E900327E
:10617800A8D1404603B0BDE8F08F95F832304FF013
:10618800FF3043F0020385F8323003B0BDE8F08FEA
:10619800CBF5007400220AF50470B44228BF3446D7
:1061A800FFF722FA0028E8D000EB0B012246384618
:1061B80006F096F92346D2E7AA6996E795F83330B0
:1061C8005B060ED5AA6901328EE7DAF814023A4660
:1061D80003681B6998470028CFD04FF400731C460A
:1061E800BDE74A465046A96900F058FC0028C4DBC0
:1061F8000CD0D5F820A0AA6977E795F831301907AF
:106208007FF558AF49E7A1EB020853E795F831301D
:1062180013F0500FB1D0A8EB06084046AAE700BF1C
:10622800F0B583B00122044685690DF10701D0E974
:106238000067FFF725FF0128A5610CBF9DF807003F
:106248004FF0FF30C4E9006703B0F0BD2DE9F04F0F
:106258001F4690F8313083B00446D0F81880002BE0
:1062680051D01646D0E9001CBC4508BF91425CD00D
:1062780056EA07024DD01D0704D5D0E90402B04202
:10628800BA4140D394F83320751ED4F820A0019267
:1062980047F1FF309AF845240932D2B2C2F1200EF4
:1062A800D540A2F1200900FA0EFB20FA09F045EAD0
:1062B8000B0505430198400633D4481E20FA02F224
:1062C8004CF1FF3051EA0C0C00FA0EFE20FA09F0EE
:1062D80042EA0E0242EA000201D0954229D25B0648
:1062E8004CBFDAF83434E369A36104F1180906E015
:1062F800A169013D206A00F0D1FB002803DD4A4670
:10630800002DF5D107E00020C4F8188003B0BDE8DF
:10631800F08F002383610120C4E9006703B0BDE862
:10632800F08FE3692B44A361F5E7012003B0BDE8D2
:10633800F08FAD1AD9E700BF2DE9F04F904690F8DD
:1063480031208FB00546002A40F0D6808B4691F860
:10635800311011F0500F00F0CF8003F003019A467E
:10636800032900F0C980013103F0080041EA000365
:106378000293B8F1000F00F0C980D8F80C1001F1B1
:106388000E07BD49A1FB0717DBE90010FF08014311
:1063980007F10207FFB205D000200021CBF8182032
:1063A800CBE900010024029B264643F040030393F7
:1063B800202206A95846FFF763FE00B3202840F0C4
:1063C8009B809DF918209DF81830002AC0F2A08003
:1063D80034B9DBF80020A2F12009DBF8182001927B
:1063E800BC4201D20134E4B2002B00F0F980202233
:1063F80006A958460026FFF743FE0028DED11AF406
:10640800007F79D0029B9B0776D5B8F1000F73D037
:10641800BC4217D2DDF804A0202206A95846FFF78F
:106428002FFE631C002860D0202865D12CB9DBF82A
:106438000020DBF818A0A2F12009DCB2A742EBD8B3
:10644800CDF804A03822002128469BF833400AF0F2
:1064580017F8DBF82030C4F38014019A2B62282344
:1064680085F82C4085F83130D8F80030C5E909297D
:10647800C8F80430A7B300247E1EDFF80092F6B2F5
:10648800A246012251462846FFF74AFD834698B3A3
:1064980090F90020002A2FDB2022002109F0F0FFCC
:1064A800002C00F0CB80BAF1010F00F0E980C12385
:1064B8005A460BF1200B02F8023BD8E9013098420A
:1064C80003F1010307D0C8F8043013F8011C22F8BF
:1064D800021B9345F3D101345FFA84FA5745D0D8AB
:1064E800284600F0A7FD06460CE05846DBF8186081
:1064F80000F0D0FD002878D100231E4685F8313001
:1065080085F8333030460FB0BDE8F08F032749E7F0
:1065180056BBBC4238BF0024852B7FF449AF3146B7
:1065280038222846012609F0ABFF9DF81C209DF86B
:10653800193085F8303002F03703D20658BF43F0DF
:10654800080385F83130DBF80030DBF82020203BE9
:106558002A62DBF81820C5E909239BF83330C3F316
:10656800801385F82C3023E7C02B0ED0C12B7FF485
:106578003EAF424606A92846FFF72CFC18B1D8E9D9
:1065880001329A4234D0064612E7029B85F833302E
:106598009DF819309B0702D5039B85F833300B9B78
:1065A800EB61DDE90823C5E90423DDE90C23C5E92E
:1065B8000223B8F1000F1BD0D8F80030D8F80C200F
:1065C800C8F804309DF81B309A427FF410AFB8F831
:1065D8001060BDF81C30F61AB6FA86F67609E7E6BA
:1065E800B8F1000F7FF40BAF86E7CBF8186025E70A
:1065F8001AF4006F80D11AF4884F5DD195F83330C2
:106608009F0759D41AF4806F7FF476AF1AF4804F3D
:106618003FF478AF2846D5E90423FFF717FE002892
:106628003FF46AAF95F833309A077FF56BAF95F86A
:10663800313043F0200385F8313063E785238BF848
:10664800003085F830608BF80160D9F8003053B31A
:106658000DF113020DF1160105A89847BDF8143085
:10666800ABF80A30BDF81630ABF808309DF8133097
:106678008BF814302FE700BF8988888820640020B1
:10668800C0238BF801A08BF80030029B63F07F03D6
:1066980085F83330D8F80C308BF80330B8F8103060
:1066A800ABF8043017E745F22163ABF80A30ABF8D2
:1066B8000E30ABF812300EE795F83130DC063FF5B6
:1066C8001BAFD8073FF518AF1AF4806F13D095F8B1
:1066D800333099077FF510AF002200232846FFF7D3
:1066E800B5FD00283FF408AF284600F0D3FE002887
:1066F8003FF402AF96E71AF4804F93D08AE700BFC1
:106708002DE9F043002597B0994690F83130019271
:106718001495002B3ED191F831300F4613F0500FED
:1067280038D01378044616462F2B37D04FF0000880
:1067380001AB03AA31462046FFF752FC50B3019E35
:106748003378002B3ED0002303AA39462046FFF7B2
:10675800F3FDF8B1A44608AD04F13007DCF80000F9
:106768000CF1100C5CF80C1CAE465CF8082C1035CB
:106778005CF8043CBC45AEE80F00EFD1DCF8000043
:1067880008AF2860204600F055FC84F8318084F872
:106798003380CDE7002017B0BDE8F08316F8011F5D
:1067A8002F29FBD00196B1B9382220463D6A09F05D
:1067B80067FE012340222562184684F8333084F8A6
:1067C8003120E8E74B4603AA39462046FFF7B4FDD7
:1067D80017B0BDE8F0833822002108A83D6A09F007
:1067E8004FFE012308AF10958DF8533040238DF8E4
:1067F80051309BE719B101F58961FFF781BF084660
:10680800704700BF90F8313063B991F8313013F018
:10681800500F07D00B6813F01F0C03D113466246C4
:10682800FFF78ABD002070472DE9F84F07468A46D2
:106838009146002942D0A1F10208D7F830344345E7
:1068480042D908F007030125C8F3C80B9D40EDB2F3
:1068580046464446D7F82C140022384601EB14313A
:10686800FEF7C2FEE8B10BF1FF3B834400F2FF10D4
:106878001BF8011F0AE04A452BD0A04510D0D7F8D5
:106888003054A54214D913F0FF050CD00134294225
:106898004FEA4503A4EB0602EDD0A0452646EED10B
:1068A8000120BDE8F88F58454FF00105E0D101E01F
:1068B8000026344601254FF0000BCBE7D0F82084A2
:1068C800D7F830344345BCD84FF000080125C346FB
:1068D800BEE7BAF1000F04D1B9F1010F08BFC7F83C
:1068E8002064B01CBDE8F88F2DE9F8438046881E67
:1068F80015461E468318D8F83024934237D8CEBBA5
:10690800D8F82034834288BFC8F8200400F0070371
:106918000124D8F82C74C0F3C8099C4007EB103147
:10692800E4B2012240468F18FEF75EFEF8B109F185
:10693800FF3E864400F2FF101EF801CF1CEA040F48
:106948008CEA040C4FEA440414BF01220022B2422C
:106958000DD0013D8EF800C018D014F0FF04EDD121
:106968007045A1464FF00104E6D13946D9E7002029
:10697800BDE8F883D8F820148B42C7D98142C5D323
:10698800934228BF0023C8F82034BFE70120BDE8A0
:10699800F88300BFF8B5D0F8303401338B4201D208
:1069A8000020F8BD07460C4600F50476002505E0F2
:1069B800D7F8303401350133A342F1D3D7F8241482
:1069C8000022304601EBD411FEF70EFEA400002889
:1069D800E6D0C4F308040459631CE9D1681CF8BD67
:1069E80038B50C460B6890F845C400F50470D0F82B
:1069F8002812023B656803FA0CF3294003EB512384
:106A0800D0F81C121944FEF7EFFD18B16368C3F300
:106A18000803184438BD00BF2DE9F8430C46D0F8E8
:106A2800383449680B4011446160134490F84514A8
:106A380001F10902D2B2D3402BB380465D1E00F5A6
:106A4800047905E02368013D03F1010323601AD3AB
:106A5800267A002EF6D1D8F83034324627684846D0
:106A680001339F4212D8D8F8241401EBD711FEF74E
:106A7800BBFDBF0050B1C7F30807C3595A1C09D062
:106A8800013D2360E4D20120BDE8F8834FF0FF30D8
:106A9800BDE8F8833046BDE8F88300BF38B5D0F8C4
:106AA800303401338B4202D24FF0FF3038BD0C46F0
:106AB800D0F82414154600F50470002201EBD41117
:106AC800FEF792FD0028EFD0A400C4F30804035990
:106AD8005A1C02D001202B6038BD002038BD00BFF1
:106AE80001291BD938B5D0F830340C4601338B4214
:106AF80001D2002038BDD0F82414154600F50470E2
:106B0800012201EBD411FEF76FFD03460028F0D0F7
:106B1800A4000120C4F308041D5138BD00207047AB
:106B2800D0F830340133994201D9002070472DE95B
:106B3800F04F054683B00C4600F504790F464FF038
:106B48000008D5F82414002248464FEAD41B01EB6C
:106B5800D411FEF749FD90B1A300C3F30803C2584E
:106B68000193531C16BF16464FF0000A4FF0010A56
:106B7800012C04D9D5F830240132944203D90020DD
:106B880003B0BDE8F08FD5F82414012248465944D3
:106B9800FEF72AFD0028F2D0019B40F80380BAF1E5
:106BA800000F12D00134B44208D00023E21B39464A
:106BB8002846FFF799FE0028E1D03746D5F830344B
:106BC8000133B342DBD33446BBE7621C5346394634
:106BD8002846D21B03B0BDE8F04FFFF785BE00BFC3
:106BE8002DE9F84300250646D0F82C1400F5047862
:106BF8002C46002240464F1CFEF7F6FC28B300F155
:106C0800FF3E04F58059D6F8300405E079B9083418
:106C1800844209D24C4516D01EF8011FFF29F5D130
:106C2800083408358442F5D3401BBDE8F8830822B0
:106C3800012319424FEA430C18BF0135013A5FFAA4
