:0200000460009A
:100000004643464200000156000000000103030081
:1000100000000000000000000000000000000000E0
:1000200000000000000000000000000000000000D0
:1000300000000000000000000000000000000000C0
:1000400000000000010408000000000000000000A3
:100050000000800000000000000000000000000020
:100060000000000000000000000000000000000090
:100070000000000000000000000000000000000080
:10008000EB04180A063204260000000000000000FD
:10009000050404240000000000000000000000002F
:1000A0000000000000000000000000000000000050
:1000B0000604000000000000000000000000000036
:1000C0000000000000000000000000000000000030
:1000D00020041808000000000000000000000000DC
:1000E0000000000000000000000000000000000010
:1000F0000000000000000000000000000000000000
:10010000D8041808000000000000000000000000F3
:100110000204180804200000000000000000000095
:1001200000000000000000000000000000000000CF
:10013000600400000000000000000000000000005B
:1001400000000000000000000000000000000000AF
:10015000000000000000000000000000000000009F
:10016000000000000000000000000000000000008F
:10017000000000000000000000000000000000007F
:10018000000000000000000000000000000000006F
:10019000000000000000000000000000000000005F
:1001A000000000000000000000000000000000004F
:1001B000000000000000000000000000000000003F
:1001C000000100000010000001000000000000001D
:1001D000000001000000000000000000000000001E
:1001E000000000000000000000000000000000000F
:1001F00000000000000000000000000000000000FF
:10020000FFFFFFFFFFFFFFFFFFFFFFFFFFFFFFFFFE
:10021000FFFFFFFFFFFFFFFFFFFFFFFFFFFFFFFFEE
:10100000D10020432D160060000000000000000009
:10101000201000600010006000500160000000001F
:1010200000000060005C010000000000FFFFFFFF07
:10103000FFFFFFFFFFFFFFFFFFFFFFFFFFFFFFFFC0
:10104000FFFFFFFFFFFFFFFFFFFFFFFFFFFFFFFFB0
:10105000FFFFFFFFFFFFFFFFFFFFFFFFFFFFFFFFA0
:10106000FFFFFFFFFFFFFFFFFFFFFFFFFFFFFFFF90
:10140000884207D0904205D251F8043B40F8043B93
:101410008242F9D8704700BF884204D2002340F8C6
:10142000043B8142FBD8704780B500F0B7F95E4BB2
:1014300008205E4A5E49C3F854015E48FFF7E0FFAA
:101440005D4A5E495E48FFF7DBFF5E495E48FFF795
:10145000E3FF5E4C5E494FF4700000235D4A086074
:1014600044F823200133B02BFAD15B4B80215B4A37
:1014700003F8011B9342FBD14B4D4FF08038584984
:101480004FF0FF32574B0026DFF898A1DFF8989114
:101490001C60C5F80481C5F800A1C5F8F480C5F842
:1014A000F0900B68504F43F4E0230B60FB694F4909
:1014B00023F07F0343F04003FB617B6A23F07F034B
:1014C00043F040037B628A66CA660A674A6700F097
:1014D0006DF9474A474B6320A2630321E363464A01
:1014E000464B106000F160401E6042F8041C00F69C
:1014F000A1704349434AC3F8082D0B68424A43F0A0
:1015000080730B601368414943F001031360036863
:101510000B6000F09BFBC5F804813D48C5F800A1B5
:10152000C5F8F480C5F8F09000F0FAFFF96E394A7A
:1015300041F44051384BF9661660C2F80861C2F8B0
:101540001861C2F82861C2F838619A6BD20708D4D2
:1015500042F61562314959651A659A6B42F00102EB
:101560009A632D4A2E4C936843F00113936000F068
:101570008FF900F095FF00F0FBFF00F099FB00F001
:101580000FF92368132BFCD900F068F82368B3F532
:10159000967FFBD300F008F900F004F900F0B8FFE3
:1015A00000F0BAFF30BFFDE700800D40B8FF00003B
:1015B0009826006000000000C0260020542601602C
:1015C0000000002080250220C026002000240020EA
:1015D00088ED00E04D7F000000E400E0A0E400E0C2
:1015E00024ED00E008ED00E000C00F4000C00A401C
:1015F000ED870000F187000014E000E018E000E053
:10160000FCED00E000002020001000E07C2402201F
:1016100000366E010040084000400D400000C056FA
:10162000802402201B1018200C0D1113074B4FF4BF
:101630002A01074A07485A641864074A996395467D
:10164000BFF34F8FBFF36F8FFFF7EEFE00C00A406E
:10165000AFAAAAAA0700200000000720304B40F6DE
:10166000617270B5C3F8202140F2044500F084FF98
:101670002C492D48D1F880202C4C42F003022C4BF1
:10168000C1F88020C0F86051226813401BB9D0F81F
:10169000A8319A071AD0244B4FF00041234A5163D6
:1016A0001A46D3F8401141F00201C3F84011D2F8B4
:1016B00040319B07FBD44FF400301E491B4B4FF0C9
:1016C0000042086019209A6300F03EFF1A4D002284
:1016D000164B4FF08041144C0A26996328461A6035
:1016E0001146C4F8A8614FF4207200F03DFF4FF49A
:1016F000810640F243114FF48000104B104A2E60D7
:101700002864C4F85851C4F84811C3F804220D4A9B
:101710004FF4003101231160C4F8403170BD00BFA7
:1017200000800D4000C00F4000002E4000900D4092
:10173000001C1E008CE200E00000002000240020BD
:10174000717600000CE100E008B50E4B1B6E9B07A4
:1017500000D4FBBE72B60C4B00200C4AC3F840010B
:1017600003F160430A49A3F55F2311649D46BFF36B
:101770004F8F084A03F5E04307491268184619607D
:101780009368984700441F4000002E4000C00A4064
:10179000030020001C002000000012EB704700BF77
:1017A000704700BF704700BF00BF7047F0B5244AC4
:1017B0000020244B4FF0100C234C1126DFF8C8E01A
:1017C000122720600125C2F800C0C3F800E01660AF
:1017D000DFF8B8E01D4EC3F800E01D4917601E6039
:1017E00041F015011B4F1C4E17601E601B4F1C4E15
:1017F00017601E601B4F11601B4E1C491F60166056
:101800001B4F19601B4E1C4917601E601B4F116057
:101810001B4E1C491F60166019602560BFF34F8F77
:10182000BFF36F8FC3F8B001BFF34F8FBFF36F8F5C
:1018300052F8883C43F4403342F8883CF0BD00BF86
:101840009CED00E0A0ED00E094ED00E00900100048
:101850008025022013002000210002071400002030
:1018600025000813090000101600202027000B1384
:101870001700004033001013180000602F000B0702
:10188000190000702F000B133F0000102500080303
:10189000F0B58D4B18228D4E01208D4948F20C7EFB
:1018A0008C4D4FF0FF378C4C83B0C3F85C12C3F8FB
:1018B00060520025C3F86412C3F868424FF4005424
:1018C000C3F86C628549C3F87062C3F87462C3F8E8
:1018D0007862834EDA661A675A679A67DA67C3F8DE
:1018E0008020C3F88420C3F8882040F20562C1F844
:1018F0002C03C1F83003C1F83403C1F83803C1F830
:101900003C03C1F850032946B36976481840764B2A
:1019100003437648B361D6F8843043F00C03C6F82D
:1019200084300226036833430360036803EA0E0E23
:101930006F4B4EEA0303DFF8F0E103606D4B476045
:10194000DEF808703B406C4F43F000538360C3687F
:1019500023F07803C360036A1F40684B3B43664F24
:101960000362036A1F40654B3B43654F43628762D6
:10197000C762DEF8B830634F23F03F0343F0010342
:10198000C0F8B830DEF8BC30DFF884E123F03F0364
:1019900043F00103C0F8BC30056104660767C0F876
:1019A000802044664767C0F884200468564B24F0C2
:1019B0000204564A0460C0F818E0C66143F8041BEC
:1019C0009342FBD1494B1A68194642F001021A6052
:1019D0000B68464A13F00103FAD14D4E022540F23E
:1019E000F56440F2664040F299414A4F966142F2F6
:1019F0000146D56140F23545C2F8004242F2012469
:101A0000C2F810020120C2F820121146C2F830724A
:101A100007F15A47C2F8346207F51377C2F840520B
:101A20003D4E3E4DC2F85072C2F85462C2F8605248
:101A3000C2F86442C2F8A030C2F8A430C2F8B000C4
:101A40004B692A4ADD07FBD5012300244FF480307F
:101A500011465361C2F8A040C2F8A400C2F8B030E9
:101A60004B69224ADC07FBD5012300244FF40030E8
:101A700011465361C2F8A040C2F8A400C2F8B030C9
:101A80004B691A4AD807FBD5012300242448114684
:101A90005361C2F8A040C2F8A400C2F8B0304B694C
:101AA000124ADB07FBD5D2F8003145F60D51212053
:101AB0009BB250618B4239D01A4B00221A605A6097
:101AC0009A60DA6003B0F0BD00801F40F970010039
:101AD000F9B00100F9100100F900010000841F4075
:101AE00000C00F40FFFCFF1F000300A000402A4081
:101AF0001200FFFFFF37F70000FFF07C400000807E
:101B0000FF000F836300020000422A4000432A4086
:101B1000F05AF05A9F041830063201263806180A87
:101B2000040003003025022000802A4000244FF4E6
:101B3000802001231146C2F8A040C2F8A400C2F8D8
:101B4000B0304B693B4ADF07FBD501234FF400045B
:101B5000002011465361C2F8A040C2F8A400C2F8A8
:101B6000B0304B69334ADE07FBD501234FF4000444
:101B70004FF4803011465361C2F8A040C2F8A4006F
:101B8000C2F8B0304B692B4ADD07FBD501234FF477
:101B900000044FF4003011465361C2F8A040C2F86F
:101BA000A400C2F8B0304B69224ADC07FBD5012300
:101BB0004FF40004204811465361C2F8A040C2F817
:101BC000A400C2F8B0304B691A4AD807FBD5D2F846
:101BD000003145F60D5121209BB250618B4210D04F
:101BE000164B08224FF400041A7015490020154ABC
:101BF00001230090521A1448224400F095FC03B0CF
:101C0000F0BD4FF400044FF4802101231046C2F8C8
:101C1000A040C2F8A410C2F8B03043690549DB0700
:101C2000FBD50120054B10224FF0807448611A70DB
:101C3000DBE700BF00402A4004000300B724022075
:101C4000000000700000007030250220F0B4174A38
:101C500040274FF480314FF480564FF400554FF435
:101C6000404443F24200136913F0020F06D094611E
:101C700051619061136913F0020FF8D113F4005F02
:101C800001D15561EFE713F4805F01D15661EAE7B6
:101C9000002BE8DA13F4803F01D09161E3E75B06A3
:101CA00001D45761DFE7F0BC704700BF00800D40F2
:101CB000394A03203949F3EE095A13689FED386A0F
:101CC00023F00103DFED376AF0B4136000241061E4
:101CD000D1F8E030344FD8B2C3F30B211B0D334E93
:101CE00007EE100A05EE101A07EE903A304BB8EEE8
:101CF000C55A304DB8EEC77A3060F8EEE77A296001
:101D00002D4937EE466A2D4E77EEC57A2C4877EE90
:101D1000666A2C4D37EE657A26EE276AC7ED007AA3
:101D200066EEA76A176867EE277A83ED007AC6EE3B
:101D3000075A86EE876AC7EE876A35EE857AFCEE2B
:101D4000C77A36EE057A17EE903ABCEEC77A47EAC4
:101D5000035376EE857A136017EE103AD2F81071BD
:101D6000FCEEE77A01EA0341394317EE903AC2F8F4
:101D70001011C3F30B03D2F810110B43C2F810314A
:101D8000136843F0020313603470C0F840510E4BE7
:101D90000122F0BC1A60704780810D4000441F4052
:101DA0000000AA420000B442BC1F0220B41F02205F
:101DB000B81F0220B01F02200000FF0F40E400E027
:101DC000002400206D82000008E100E00C4A00239E
:101DD000136053609360D360136153619361D36167
:101DE0009362BFF34F8F074907480A600860BFF34B
:101DF0004F8FBFF36F8F054A9168916013637047EF
:101E000080FF272070EF00E0A0FF272000800F4018
:101E100030B44FF0FF320C4C0C480D4D54F8043BDD
:101E200020215A4002F00103013900FB03F383EA49
:101E30005202F7D1AC42F1D1034B986A801AB0FA42
:101E400080F030BC4009704780FF27202083B8ED28
:101E5000A8FF27202DE9F041864E0C4633680B2B56
:101E600000F0408123681722834920465B68984729
:101E7000204600F06DFB2368482280495B682046BD
:101E80009847204600F064FB236849227C495B6840
:101E900020469847204600F05BFB236824227949BE
:101EA0005B6820469847204600F052FB2368472293
:101EB00075495B6820469847204600F049FB236837
:101EC0003F2272495B6820469847204600F040FB5D
:101ED0006F4B9D68AA070DD51A6B6E4B9A4200F0A6
:101EE0009381236840226C4920465B6898472046CE
:101EF00000F02EFB6B0708D5236827226749204690
:101F00005B689847204600F023FB2F0708D523681D
:101F10002A22634920465B689847204600F018FB58
:101F2000EE0608D5236826225E4920465B6898475E
:101F3000204600F00DFBA80608D5236829225A493F
:101F400020465B689847204600F002FB690608D5EA
:101F500023682122554920465B689847204600F0B7
:101F6000F7FA2A0608D523682122514920465B68E2
:101F70009847204600F0ECFAEB054ED44D4A136822
:101F8000002B45D017464C4E012500E03B686A1EE9
:101F90004FF0010808FA02F21A422AD023680E22F2
:101FA000464920465B6898472946204600F0C0FA1B
:101FB0002368052242495B682046984700230A228D
:101FC0003168204600F0C8FA236804223D495B6866
:101FD00020469847002310223168204600F0BCFAC2
:101FE0002368424638495B6820469847204600F0FF
:101FF000AFFA01350436072DC8D12E4B00221A60E6
:10200000BFF34F8F314A1360BFF34F8FBFF36F8F12
:10201000FFF7DCFE0120BDE8F081236829222C496E
:1020200020465B681A4D9847204600F091FAAB684D
:102030002168212223F4807320464E68AB60254935
:10204000B047204600F084FA2368422222495B68A8
:1020500020469847204600F07BFA204A204B072173
:102060001964936B43F040039363BFF34F8F30BF0A
:10207000FDE700BF80FF2720EC12002004130020A2
:10208000501300209C130020C41300200C140020C7
:1020900000800F40F100AD0B98140020DC140020EC
:1020A000041500203015002058150020841500204C
:1020B000A8150020C0FF2720C4FF2720601600209D
:1020C00070160020781600209813002068EF00E0BA
:1020D000CC150020F81500201C16002000400D40F3
:1020E00000C00A40FFF794FE00283FF4BBAE23680F
:1020F0000C22B24920465B689847204600F028FA37
:10210000AF4D776A262223682046A5FB0715AD4907
:102110005B68ED0A75629847AB4900230A22A1FB70
:1021200005012046090901EB4101A5EBC10100F0C1
:1021300013FA23680122A5495B6820469847A44901
:1021400000230A22A1FB070520466D09A1FB05E13A
:102150004909C1EB0111A5EB810100F0FDF92368EC
:1021600001229A495B68204698470023C5EB051178
:102170000A222046A7EB810100F0EEF9204600F08C
:10218000E7F92368242293495B6820469847002397
:102190001022B169204600F0DFF9204600F0D8F99E
:1021A000B568002D48D18C4EF568002D31D12368DB
:1021B00022228A4920465B689847874B02212046A5
:1021C00093ED080A864DB7EEC00A00F0B5F9236812
:1021D000052284495B682046984723681D2282496E
:1021E0005B6820469847814A0023204611680A22EE
:1021F000A5FB0151890C00F0AFF9236804227C494A
:102200005B682046984763E67A49204600F098F9D3
:1022100070E67949204600F0A3F9F16810222046C3
:1022200000F072F9A80700F120816900BFD5734959
:10223000204600F085F9BAE77149204600F090F990
:10224000B1681022204600F05FF9E80700F108812C
:10225000A90700F1AD802A0700F1A580EB0600F187
:102260009D80AF0603D56749204600F069F92E0628
:102270005FD4E80558D4A90551D46A054AD42B0582
:1022800043D4EF0423D4AE0403D55F49204600F0C5
:1022900057F9280409D55D49204600F061F94E4BF5
:1022A00010222046596900F02FF9E90328D4AA0327
:1022B00021D46B031AD42F0313D4EE010CD4AD0137
:1022C0007FF571AF5249204600F03AF96BE751496A
:1022D000204600F035F9DCE74F49204600F030F9A0
:1022E00061E74E49204600F02BF95CE74C49204657
:1022F00000F026F957E74B49204600F021F952E754
:102300004949204600F01CF94DE74849204600F0B5
:1023100017F9BEE74649204600F012F9B9E74549EA
:10232000204600F00DF9B4E74349204600F008F9D3
:10233000AFE7294E2046414900F012F910223169D9
:102340000023204600F008F932691F2A0DD93C4BC2
:102350009A4206D320339A4203D23A49204600F0EB
:10236000FFF8204600F0F4F883E73749204600F0F4
:10237000F7F800231022B169204600F0EDF8334948
:10238000204600F0EDF8B16900231022204600F04D
:10239000E3F82F49204600F0E3F8E2E72D49204614
:1023A00000F0CEF863E72C49204600F0C9F85EE75C
:1023B0002A49204600F0C4F859E700BFD40D002098
:1023C000C5B3A291E40D0020ABAAAAAA0C0E00206E
:1023D00089888888100E002080FF2720981200200E
:1023E00083DE1B43BC120020C4120020C41B00204B
:1023F000E41200204C140020481200207C1200201F
:10240000380E0020E80E00200C11002040110020A2
:102410002C120020D810002000120020E81100200B
:10242000BC110020881100206411002098100020A9
:102430005010002020100020FC0F0020140F00205E
:1024400080250220B80F0020380F0020580F0020F0
:10245000980F0020C00E0020940E0020700E002067
:102460000449204600F06CF801E70349204600F0DB
:1024700067F89CE6440E002054120020A6E400BF3A
:1024800008B5064B1B680B2B01D0002008BDFFF7D9
:10249000BFFC003018BF012008BD00BF80FF27200F
:1024A000114B1249D86E0A4640F4403030B4D86619
:1024B00040F23765D86EA02440F44070D8664D6471
:1024C0008C64936C1B06FCD4094B40F23760A0214E
:1024D0001A4658649964936C13F08003FBD1054A43
:1024E000137030BC704700BF00C00F4000400C406C
:1024F00000800C40B6240220F8B500BFF8BC08BC30
:102500009E467047000000005FF800F00D89000053
:102510005FF800F0D98F00005FF800F04D890000EF
:102520005FF800F0457200005FF800F0DD81000008
:102530005FF800F0B98A00005FF800F0D18A00006F
:102540005FF800F0E58800005FF800F01D7E0000F5
:102550005FF800F0E58900005FF800F0398A0000BC
:102560005FF800F0052000005FF800F00D98000013
:102570005FF800F0A98300005FF800F061860000BA
:0C258000450000008D0E0000E91900006D
:10258C0016035500530042002000530065007200F2
:10259C00690061006C0000001803540065006500C0
:1025AC006E00730079006400750069006E006F00A6
:1025BC000403090409026200030100C032080B0085
:1025CC0002020201000904000001020201000524BC
:1025DC000010010524010101042402060524060053
:1025EC00010705820310001009040100020A000013
:1025FC0000070503024000000705840240000009A3
:10260C0004020002FF6AFF00070581024000010777
:10261C00050102400001000009026200030100C034
:10262C0032080B0002020201000904000001020240
:10263C0001000524001001052401010104240206F7
:10264C00052406000107058203100005090401009A
:10265C00020A0000000705030200020007058402BD
:10266C000002000904020002FF6AC700070581028C
:10267C000002010705010200020100000A06000227
:0C268C00EF02014001000000000000000F
:102698000000000000000000000000000000000032
:1026A8000000000000000000000000000000000022
:1026B80010B5054C237833B9044B13B10448AFF374
:1026C80000800123237010BD48580020000000003E
:1026D80098260060084B10B51BB108490848AFF3AD
:1026E80000800848036803B910BD074B002BFBD0D6
:1026F800BDE81040184700BF000000004C580020FB
:1027080098260060C026002000000000054B064AFD
:102718001B6810681B1A01D498B2704703F1C000F7
:1027280080B2704788240220E01E0220014B1868FE
:10273800704700BF70720020F0B41B4C1B4A23681E
:102748001B4901330D6882FB0321DA17C2EB6112C2
:1027580002EB4202A3EB8213AB4222D0154F0122B7
:10276800011F0023144E3A60226851F8040F03EB4E
:10277800C21201330C4D802B46F82200F4D12A688E
:1027880001200A4B0024024483FB0231D317C3EB18
:10279800611303EB4303A2EB83132B603C60F0BC93
:1027A80070470020F0BC704788240220ABAAAA2AF0
:1027B800E01E0220707200207492002070B4164B44
:1027C800164C22681B689A4222D0011F144E01221F
:1027D8000023144832602268104D03EBC212013303
:1027E80050F82220802B41F8042FF4D12A680120C8
:1027F8000D4B0024024483FB0231D317C3EB611352
:1028080003EB4303A2EB83132B60346070BC704767
:10281800002070BC704700BF88240220E01E022000
:102828007072002074920020ABAAAA2A10B5044640
:102838008CB006F05FFF0028FBD00D2102AA2823E8
:102848000D4808F0EBFB0CAB0022034402A803F888
:10285800282C09F03DFE014602A806F0B5FF0648FF
:1028680008F008FC02A801AA044909F091FD019B9F
:10287800012023800CB010BDC81B0020040B0020D1
:1028880010B504468CB006F035FF0028FBD00D21AA
:1028980002AA28230D4808F0C1FB0CAB0022034410
:1028A80002A803F8282C09F013FE014602A806F036
:1028B8008BFF064808F0DEFB02A801AA044909F0CC
:1028C80067FD019B012023600CB010BDC81B0020D0
:1028D800040B002070B5044690B00D46164606F06D
:1028E80009FF0028FBD00D2106AA28230F4808F06D
:1028F80095FB10AB0022034406A803F8282C09F026
:10290800E7FD014606A806F05FFF084808F0B2FB9D
:102918000DF117032246064901930DF1160306A887
:102928000296009509F034FD10B070BDC81B002058
:10293800FC0A002008B506F0DDFE0028FBD0BDE843
:10294800084006F01BBF00BF70B588B006F0D2FE85
:102958000028FBD006F012FFC0B2702816D06428F9
:1029680070D074287DD0612800F08A8066285CD0F9
:10297800732800F09480632802D148E006F0FEFE38
:1029880006F0B8FE0028F9D108B070BD06A800F01E
:1029980057FA9DF91D009DF91B109DF91C609DF9C2
:1029A8001F509DF91E409DF91A30BDF9182001905D
:1029B800009104963D49039502943D4808F074FB44
:1029C8000C213C4806F000FF3B490A220023096815
:1029D800374808F079FB364808F04CFB0C2137489B
:1029E80006F0F2FE364B3248196808F0ADFB304865
:1029F80008F040FB0C21334806F0E6FE324B2C4829
:102A0800B3F9001008F0A0FB294808F033FB0C21AB
:102A18002E4806F0D9FE2E4BB3F90010244808F0D2
:102A280093FB234808F026FBAAE70C21234806F06D
:102A3800CBFE234B1E48196808F086FB1C4808F09B
:102A480019FB9DE706A800F0FBF99DF91B009DF90D
:102A58001A300090BDF918201E49154808F024FBCB
:102A68008EE706A800F0ECF99DF91F009DF91E30CD
:102A780000909DF91D2018490D4808F015FB7FE7C7
:102A88000C210C4806F0A0FE0B4900230A22096815
:102A9800074808F019FB064808F0ECFA70E70C2123
:102AA800084806F091FE084BB6E700BF080B002067
:102AB800C81B00202C0B0020B42100203C0B002058
:102AC800742100204C0B0020A82402205C0B00205D
:102AD800A42402206C0B0020880B002010B584B0C1
:102AE80006F008FE0028FBD006F048FEC0B26428B5
:102AF8001BD0742823D061282BD066282DD07328AA
:102B080008D0632801D004B010BD1848FFF78EFE26
:102B180004B010BD164C2046FFF788FEB4F900300B
:102B2800002BF0DA00232380EDE703AA02A901A80D
:102B3800FFF7D0FE01A807C800F08CF9E3E703AA65
:102B480002A901A8FFF7C6FE01A807C800F09AF974
:102B5800D9E70848FFF794FED5E7074C2046FFF76A
:102B68008FFE206800F0C6FCCDE700BFA424022039
:102B7800A8240220B4210020742100202DE9F04F60
:102B8800604E0024604BA6FB0026604AA3FB00753C
:102B9800DFF88481360CA2FB00726D09DFF87CE156
:102BA800371DD20AA3FB05C3A7FB08894FF06408A9
:102BB800AEFB02CE5B09C9EB070C4FEA1E1E09EB00
:102BC8005C0C40F26D19C3EB03134FEA9C0C0EEB3F
:102BD8004E0ECCEBCC0CA2EBCE0E2246A5EB83031B
:102BE800CCEB0707C5EB051581F805E04FF4C87C69
:102BF800DFF81CE1A0EB85008B710F71C871E3B29F
:102C080040F26D1503F2B2738EFB030A13F003074B
:102C18004FEAE370C0EB6A1B0DD1C0EBEA1008FB6A
:102C28001B3B4FF4B7750CFB1030BBF1000F02D102
:102C3800002818BF4D462A4401349642DFD20B8043
:102C48006FB9334CD8174FF0640E84FB0354C0EBB4
:102C580064150EFB1535A5B34FF4B77502E040F2C5
:102C68006D15D8172A4C521B4FF064084FF4C875DD
:102C780084FB034EB21A0124264EC0EB6E1CC0EB37
:102C8800EE1E002008FB1C3C05FB1E3E02E0013442
:102C98000130E4B20128C5B220D0835D934209D83F
:102CA8000C2CA2EB0302F2D10D2501328D70CA70F3
:102CB800BDE8F08F013501326DB2CA708D70BDE884
:102CC800F08FC0EBE4144FF4C87E40F26D150EFB94
:102CD8001434002C08BF4FF4B775C3E75FB9BCF1D3
:102CE800000F0CD1BEF1000F14BF1C231D239A4204
:102CF80003D3D21ACBE71C23F9E70225D5E71D2316
:102D0800F5E700BF07452EC289888888C5B3A29118
:102D18001F85EB519C03002025499224ABAAAAAA3F
:102D28002DE9F0410478414A4E345FFA84FE02FBF3
:102D38000EF2BEF1000F28D040F2B3730EF2B27754
:102D48003B4E4FF0640CBB424FF4C87886FB03142B
:102D58004FEAE371C1EB641517D013F0030F0CFBB6
:102D6800153509D1C1EBE41115B908FB113119B9B1
:102D780002F5A83202F5C072013386FB0314BB4288
:102D88004FEAE371C1EB6415E7D190F90270012FA6
:102D98002EDD0EF2B274264E4FF4C8754FF064085B
:102DA80086FB0436E31704F0030C2249C3EB661EC6
:102DB800C3EBE616012308FB1E4E05FB16461E4D07
:102DC80006E001330C780131BB4205FB04220FD029
:102DD800022BF6D1BCF1000FF3D1BEF1000F1ED0CB
:102DE80002F5181202F56E5201330131BB42EFD1E0
:102DF80090F906304FF4616690F90550C3EB031360
:102E080090F9074090F903109B000B48013906FB25
:102E18000533234400FB01301044BDE8F081002E47
:102E2800CFD102F5181202F56E52DDE78033E101C9
:102E38001F85EB519C030020805101000120704741
:102E480010B5044607F0AAFC2146FFF797FE0120BB
:102E580010BD00BF70B582B014460D46064607F097
:102E68009DFC6946FFF78AFE6846ADF800608DF85C
:102E780002508DF80340FFF753FF07F0A7FC02B09C
:102E880070BD00BF70B582B014460D46064607F007
:102E980085FC6946FFF772FE68468DF805608DF877
:102EA80006508DF80740FFF73BFF07F08FFC02B094
:102EB80070BD00BF2DE9F04F83B0044607F06EFCEB
:102EC800834607F059FBA44A23682146166804F58F
:102ED800FE77A24A344635463360136051F8043F02
:102EE80051F8042CB942A3EB020345F8043FF5D18D
:102EF80006F5FE71002254F8045F85EAE573A3EB3A
:102F0800E5739A42B8BF1A468C42F4D14FF0020ECC
:102F1800012505E00EF1010EBEF1180F00F0C58085
:102F28000EF1FF34012105FA04F39A42F2DA4FEA6E
:102F38008E0301FA0EF1DA1D03F108084D1E013364
:102F480001920093864E874F56F824203968013243
:102F5800714546F82420844C38BFC7F800E0A146E4
:102F680004F5FE77224652F8043F2B40BA4213601C
:102F7800F9D17E4E002306F50075314641F8043F2D
:102F8800A9424FF00002F9D1794D4FF0A53A79499D
:102F9800009BB1F900C011466B610123C5F808B068
:102FA8004EEA0C4C4FF0200B2B61D9F80030E8604A
:102FB8000720AB615B46C5F804C0C5F800A0C9F896
:102FC800002008E055F820100A4345F82020BC42AC
:102FD80019D054F8041FCEEB0303002B01FA03F2B7
:102FE800F0DCC3F1000200F1010903F1200325D14F
:102FF80055F82020BC424FF0200341EA020145F871
:1030080020104846E5D15C4CD4F800E00EEB0803EC
:10301800802B20DC594A0EF10100002302EB8E02BE
:10302800043AC518013356F8041F434542F8041FF3
:10303800F7DB0120256003B0BDE8F08F21FA02FC20
:1030480055F8202099404CEA020245F820204846CD
:1030580045F82910BBE7BEF17A0F30DDBEF17F0FCE
:103068000BDC464B002103EB8E0203F5007342F89C
:10307800041B9A42FBD1802323604048FFF75CFB86
:1030880000303F4A4FF0000318BF0120013356F8C3
:10309800041F434542F8041FF8DB4346012BB8BF21
:1030A8000123236003B0BDE8F08F61234FF0680867
:1030B8006FF07F45172400936723019342E72F4F52
:1030C800CEF17A02696907EB8E0307F5FE7042EAD2
:1030D8000141043B696156F8042F43F8042F8342E9
:1030E800F9D180232548CEEB03062360FFF724FBA4
:1030F800019B6A690030A3EB0601224BDFF87CC014
:1031080018BF01201340624619436961184D2B46C8
:1031180005F1180E53F8041B734542F8041BF9D146
:1031280006234645236086DA08F1050105EB860388
:10313800154A891B043B07EB810753F8041F42F823
:10314800041FBA42F9D108F10608C6EB0803236048
:1031580003B0BDE8F08F00BFBC2100208C24022002
:10316800141F0220041F0220901902203C1502207F
:1031780040150220A8240220E41B0220801202200D
:103188007C1202200000FFFF9412022038B5354B54
:1031980035491A6818791369344AC877934228BFA1
:1031A800A2F58062114622F01F0302F58062BFF388
:1031B8004F8F2F48036020339A42FBD8BFF34F8FBD
:1031C800BFF36F8F2B4B0022B3F9004051F8320048
:1031D800294B0344234141F832300132802AF5D18A
:1031E800264D0022264B2C68184601342C6051F8D5
:1031F80032400132802A40F8044FF8D1214C002097
:10320800A4F5007151F8042F002AB8BF7F328C4210
:1032180000EBE210F6D11C490A68801A48BF00F298
:10322800FF3002EBA020086053F8042F121A9C42CA
:103238001A60F9D1154BB3F9003013B1012B0AD03C
:1032480038BD1348FFF778FA0028F9D1114A1368F6
:103258000133136038BD0E48FFF72CFE0028F5D067
:10326800EEE700BF7812022000800E400004202004
:103278005CEF00E0A824022040C065030C1F022078
:10328800701C0220701E0220741E0220A42402203A
:10329800741C0220101F022010B5044607F050FECF
:1032A800204610BD00F03F00114B22F0604221F093
:1032B800604140F4891010B418671C46C3F88010A8
:1032C800C3F890201A6F22F480521A67236F084AB5
:1032D800002BFBDAD2F87011064B5DF8044B0B405B
:1032E800C2F87031136F23F480331367704700BF3F
:1032F80000800D40FF7F7FFF07EE900A8002B1EE4D
:10330800004B42F21071B8EEE75B0A469FED206B66
:1033180038B5254B25EE066B244D93FBF0F4631C62
:1033280026EE046B04F03F0407EE103AB8EEC75BD4
:103338009FED193B26EE057B9FED194B87EE036B3E
:10334800FDEEC67B17EE900A01FB00F307EE103A7C
:10335800B8EEC77B96EE047BFDEEC77B17EE901A9E
:10336800FFF7A0FF1248134AC169134B21F44061CB
:1033780041F40061C161816A0A4042F0C00214430D
:1033880084626A68134043F400236B6038BD00BF51
:1033980000000000000070400000000060E376417B
:1033A800000000000088C34000B29F2600C00A4009
:1033B80000C00F4000FEFFFFF8FFF7FF1A4AF8B5FC
:1033C800D36F1A4C43F44023D367D4F88830002BCA
:1033D80029DB174B00270126164D1868FFF78CFFCD
:1033E800154B0322DFF860E04FF0020C4FF48030F9
:1033F800C3F820211149C3F82821C3F82421C3F8B0
:103408007C210F4A0F4BCEF894C1C4F8E070C4F881
:103418008C60C4F89050C4F89400C4F89810C4F8AC
:103428009C20C4F88830F8BD00C00F4000403840E8
:10343800742100200100000700801F401B1F0100AD
:10344800001F1F1F0100009200841F40F8B51F4C89
:1034580001211F4D04262046602707F021FD23681F
:103468004FF400721B481D6040F2022518610021CC
:10347800DA824FF0060ED88A0122DD80A5F60225F1
:1034880080B299809D61D8832579A3F81CE0124801
:10349800DFF85CE0D9609E609E8240F8251040F815
:1034A80025E023790D4903F01F0003F110050C4EA8
:1034B8005B1182400B4841F8256040F823200A49F7
:1034C80022790A4B57542279DA76F8BD781202200D
:1034D800A04038400000202000C00E4000240020FA
:1034E800FD0A000000E100E000E400E000800E407A
:1034F8001300008010B5084CD4F8883023F010432E
:10350800C4F88830FFF7F8FED4F8883043F0104349
:10351800C4F8883010BD00BF0040384010B5064CD4
:103528000021204607F0BCFC2046044A0449BDE8B7
:10353800104007F0FBBE00BF78120220B81B002025
:10354800090C0000002070470020704700207047D9
:10355800002070474FF0FF30704700BF704700BF32
:1035680070B582B0064615460C466846FFF768FCFB
:103578009DF802209DF80300BDF800300C2A98BF82
:103588001F2821D8A3F2BC739BB27F2B1CD840EA1A
:10359800421040EA432080B29DF805209DF806308D
:1035A80030803B2B98BF172A9DF807100ED83B296F
:1035B8000CD8580140EAC22343EA51039BB20022C7
:1035C80023802A7002B070BD0020E5E70023F6E7EB
:1035D800044B10B5044640F8103B03F09FFD20460D
:1035E80010BD00BFB0030020836C00B583B063B189
:1035F800184601220DF1070102F096FD01280CD1B1
:103608009DF8070003B05DF804FBC06C28B10122E7
:103618000DF1070101F03AF9F0E74FF0FF30F1E75B
:10362800826C62B1137803F0080303F0FF000BB358
:10363800D3695069181A48BF6FF000407047C16CD1
:10364800C9B191F8313003F0080303F0FF008BB1E2
:10365800D1E90423D1E9000130B4101A4FF0000574
:103668006FF0004463EB01018D4208BF844200D231
:10367800204630BC70470846704700BF836C13B1C2
:10368800184602F01FBEC06C08B101F0D9B94FF05E
:10369800FF307047836C13B1184602F011BFC06C3D
:1036A80008B102F001B87047836C13B1184602F0F4
:1036B8000DBFC06C08B102F083B9704700B5836CC8
:1036C80083B08DF8071043B1184601220DF10701A8
:1036D80002F0FCFE03B05DF804FBC06C0028F9D0D2
:1036E80001220DF1070102F06BF903B05DF804FB4C
:1036F800244B2548D3F82032244A23F07F43244919
:10370800F0B5244D83B00524036005F28C462F469E
:1037180011604FF00001204805F004F81E48C5F874
:10372800886404F049FBA8B10F211C4806F04CF846
:103738001B4807F09FFC642006F0B8FE013CE8D166
:103748001B21184806F040F8154807F093FC20465E
:1037580003B0F0BD0123D7F8881400901A460D482D
:1037680003F074FD0028DFD011210F4806F02CF873
:103778000B4807F07FFC01230C4A1846136003B07E
:10378800F0BD00BF00441F4064580020981B022071
:10379800D10E0000C41F022050240220A40B0020D8
:1037A800C81B0020B40B0020D00B0020DC1E022018
:1037B800F0B587B00C4C04A8FFF742FB9DF9131035
:1037C8009DF9177020469DF916609DF915509DF9D1
:1037D8001230BDF910208DE8E200044908F0B2FD6E
:1037E800204607B0F0BD00BFF01B0220E40B00200C
:1037F800002ADFF8C0C0F8B5B4BFD51D1546264C61
:103808001E46ED10DFF8B0E0A0614FF4FC7300FB3A
:1038180005F0224F11FB05F5628401FB00F1102031
:1038280025840022E1614FF4E6712061A1621C4DFC
:1038380063600123C4F8FC211A4AA382E3821A4B6D
:103848009EE80300206097E80300A0609CE803005E
:10385800E06095E80300C4F8F80192E803006062AC
:1038680093E8030084F83010E062FFF7A1FF0146F7
:1038780004F1300008F0BAFD324604F140000B496B
:1038880008F060FD0A4B18681B79C4F84A00204606
:1038980084F84E30F8BD00BF40170220080C002005
:1038A800180C0020200C0020280C0020300C0020D0
:1038B800380C0020100C0020000C00202DE9F041ED
:1038C800254C8046A36C002B32D05D6900272E461C
:1038D8002A462249224807F0E7FBA06C1E4B70B32A
:1038E800002102F025FDA06C1B4B88B141464FF426
:1038F800007202F0EBFDA06C174BA0B9D86C28B190
:1039080032463B46BDE8F04101F0B0B8BDE8F08171
:10391800D86CE0B141464FF4007202F051F8A06C47
:103928000D4B0028EAD02946BDE8F04102F000BD61
:10393800E56C75B1D5E9006700273546C8E7D86C4E
:103948000028E3D00022002301F090F8CBE7BDE87F
:10395800F08100260027BBE78C1E0220400C0020C7
:10396800C81B0020F0B589B0044606A8FFF768FA1E
:103978009DF91F709DF91E6020469DF91D509DF907
:103988001B109DF91A20BDF918300497039602956B
:10399800019100921349144A08F0D4FC13491448C1
:1039A800012309684FF0140C124F4FF05532124E94
:1039B800124DA16101683868E161376810492E68C5
:1039C800104DB1F90010B5F9005060621846C4F8FE
:1039D80014C0A762E66225636163C4F8FC21236210
:1039E80009B0F0BD4C0C0020280C002064580020C1
:1039F80074210020B4210020B82100208424022052
:103A0800A8240220A424022010B5044606F0C6FE0D
:103A1800084B012C1B68B0FBF3F202FB1300064BAA
:103A280005DD1A681AB11A68904238BF0324186075
:103A3800204610BDB4210020D81B0220F0B587B065
:103A48000446254E04A8FFF7FBF9244B1B68B3F581
:103A5800167F17D29DF9155033689D4238D09DF9CD
:103A680012102046BDF910209DF913701C4B3560CB
:103A78001B6801910092039502971A4A1A4908F0A7
:103A880061FC13E09DF913503368AB4220D09DF9D7
:103A980012102046BDF91020114B35601B680191AA
:103AA800009202950F4A114908F04CFC104807F0A3
:103AB800E1FA02210F4805F087FE34B1204608F0EC
:103AC80007FD0146204605F07FFE012007B0F0BD46
:103AD800002007B0F0BD00BFD81B0020B421002093
:103AE80064580020680C00206C0C00208C0C00200E
:103AF800C81B0020880C002010B584B0044602A81A
:103B0800FFF79EF9184BB3F90030F3B19DF90F1088
:103B180020469DF90E20019100929DF90D30134A1F
:103B2800134908F00FFC134807F0A4FA02211248C1
:103B380005F04AFE34B1204608F0CAFC014620468A
:103B480005F042FE012004B010BD9DF90F1020467B
:103B58009DF90E20019100929DF90D30034A074905
:103B680008F0F0FBDFE700BFA4240220A40C00202B
:103B7800BC0C0020C81B0020880C0020A80C0020CA
:103B8800F0B5044695B060B1012800F06C810228B8
:103B980000F0A781C51EADB2012D64D9204615B02D
:103BA800F0BDB248FFF74AFF002870D1B048FFF7D0
:103BB800A3FF002800F03C8144F20223AC4AAD493F
:103BC800684603F0CBFBAC4E029A04A99DF80C3072
:103BD80006F11000019CB2603373746003F0B2FA0E
:103BE800A64B04A8009303F099FAB36C002B00F0DD
:103BF8001481A34B0022A34CB3F900302260002BA0
:103C080070D0A148FFF7AEFEB06C9F499A4B0028D0
:103C180075D04FF4007202F059FCB0F5007F77D3ED
:103C2800B06C954B002800F092804FF4C052974931
:103C380002F04CFC0546B5F5C05FC0F0C2802368B1
:103C48004FF47A75924A01339248A2FB0312016835
:103C580023609209013105FB12330160002B00F04B
:103C68003C8102249AE7844E033C18BF4FF0FF348E
:103C7800B36C814A002B74D0814BB3F90030002B10
:103C880073D0854803F04AFA204615B0F0BD794E46
:103C9800D6F88054002D3DD023462946734A6846FD
:103CA8008DF800406F468DF801408DF8024002F013
:103CB8002DFA0446002C00F0BE80D6F880046D4B27
:103CC800002839D0694902F05FFE00287FF46EAF02
:103CD8000B21724805F078FD714807F0CBF94FF0D9
:103CE800FF345BE76F4B01216F4820221B68006897
:103CF800FFF77EFD0146B06C5F4B002889D1D86C78
:103D0800002800F0AE804FF4007201F059FE84E7FD
:103D18000024ADE7D6F88414002947D02B46534A2F
:103D280068468DF831508DF832506F468DF8335013
:103D380001F088F90446BDE7D3F884040028C7D009
:103D48004A4901F08FFB00287FF430AFC0E7D86CF8
:103D5800002835D04FF4C0524C4901F031FE0546D9
:103D680069E7D36C002B87D118E7464B4F4A1B688D
:103D78005168104603EB4303DB021944C2F8FC31D7
:103D88005160FFF79BFD7CE7D3F8841471B101F50E
:103D9800896138460123354A8DF831408DF8324023
:103DA8008DF8334001F030FD002886D10B214048C2
:103DB80005F00AFD3A4807F05DF94FF0FF34EDE6EB
:103DC800054601213B4805F0FFFC0A22002329464D
:103DD80033484FF47A7507F077F90121364805F032
:103DE800F3FC02212E4807F0AFF92D4807F042F9FD
:103DF8002068274B2749A3FB00230A689B09013247
:103E080005FB13050A60002D82D10324B06C1A4B00
:103E1800002855D002F054FBBEE6F36C002B7FF46B
:103E2800E8AE1121254805F0CFFC1D4807F022F91E
:103E38004FF0FF34B2E6D6F880140E4B0029A3D019
:103E480001F2444138460123084A8DF800408DF8B4
:103E580001408DF8024002F08FF800287FF42DAF62
:103E6800A4E7032400E7044EC3E600BFF0140220D1
:103E780040190220C41F02208C1E0220B00300201B
:103E8800A4240220081F02206C7000206C58002017
:103E9800D34D6210781E02209C1E0220DC0C0020EC
:103EA800C81B0020645800207421002040170220FD
:103EB800D00C0020E80C0020480C0020EC0C00205E
:103EC800D86C10B101F0F0FB66E6012D3FF666AE46
:103ED800033C18BF4FF0FF3460E64FF6FF7502242D
:103EE80094E7014E014C9BE68C1E0220081F02201D
:103EF8002DE9F843431C6CD0544C08260028C4F81C
:103F08008860C0F2A180FFF77FFD0546FEF7FEFB43
:103F18000B2877D94E4BC4F88460B3F90030002BD6
:103F280075D14C4C04F5C058A1462746FEF7FEFB58
:103F38000028FBD1384607F50077FEF73FFC4745D8
:103F4800F4D1DFF830E10122D9F80060DEF8003062
:103F5800DFF81C81DFF8FC90F31A474640464946D3
:103F6800C8F8003001E054F8046F51F8043F0132FA
:103F78009B1BB2F5C06F40F8043FF4D1364C41F2B8
:103F8800FC713A68236859F8010001211A44334B3F
:103F9800CEF800003A601868013104330244B1F5E4
:103FA800C06F43F8042CF6D141F2FC702C49002371
:103FB8002C4A3858206051F8040F42F82300013386
:103FC800082BF8D1284B28461B68002B38D1BDE8B0
:103FD800F883FEF7ABFB04460028FAD11D48FEF72C
:103FE800EDFB234621491F4A51F8040F42F82300EC
:103FF8000133082BF8D1154A4FF0FF30C2F884304E
:10400800BDE8F883C4F888602846BDE8F883184EF0
:1040180006F5C057FEF78AFB04460028FAD1304659
:1040280006F50076FEF7CAFBBE42F3D10C4B0D4AEB
:1040380053F8041F42F824100134082CF8D1C1E7C2
:10404800BDE8F843FFF79CBDBDE8F8830040004297
:10405800A424022074720020EC1B02207058002057
:1040680068580020E41E0220DC1E02207072002026
:104078006C580020E81B0220F8B5224B0024224E81
:104088000721224D2A27C3F8A0641846204A214E4A
:10409800C3F88C242A46C3F8A41483F8AA744FF4EE
:1040A8007A77C3F89864C3F88044C3F88444C3F8A3
:1040B800884483F8944483F89544C3F89C4483F86F
:1040C800A84483F8A94483F8AB4483F8AC4483F844
:1040D800AD4483F8AE44C3F8B04483F8B4440E4901
:1040E80007F024F90D4E0E4B2A460E4918465C601F
:1040F8001C739C64DC649F601E60BDE8F84007F098
:1041080015B900BFC41F022000093D00B81B0020DC
:10411800A0040020E0030020CD0E00007C04002055
:104128008C1E0220410F00002DE9F04F814D8DB00B
:10413800814E2B6801332B60FEF7E8FA33888342FF
:104148007E4B1A6838BF3080D20716D57C4C05F0F4
:10415800D1FA08BB2088DFF8408200B2FFF7C8FE1A
:10416800784AD8F80030208003F57A73D2F80090A6
:104178004B4522D30DB0BDE8F08F734A0121704C36
:10418800126819604FF0FF338A4218BF002323805A
:1041980005F0B0FA0028DDD005F0F0FAC0B27328B7
:1041A80000F09880652823D06D2840F0B380674AD6
:1041B8001388C3F101031380CCE70AA8FEF740FE79
:1041C800624BB3F90030B3B9614BDFF8D0B1089353
:1041D800604B07930023089AC8F800901360079A69
:1041E8002B60CBF80030338013600DB0BDE8F08F42
:1041F80004232380AEE79DF92CE09DF92F709DF9EB
:104208002E409DF92D009DF92B10CDF810E09DF959
:104218002A30BDF9282003970294019000914E4856
:104228004E4906F041FF03214D4805F0CDFA002321
:104238000A222968484806F047FF0121494805F045
:10424800C3FADFF858B1424B0A22DBF800101C46CB
:1042580008934148002306F037FF0121414805F043
:10426800B3FA216800230A223B4806F02DFF0121FA
:104278003C4805F0A9FA374B32881C463A4936487B
:10428800079306F011FF0221384805F09DFA002334
:1042980021680A22304806F017FF0421344805F047
:1042A80093FA344BB3F90070BFB9334C54F8272054
:1042B80001373249284806F0F7FE082FF6D1304B6F
:1042C80030491A68244806F0EFFE0221274805F015
:1042D8007BFA7FE7002323803CE72B4C04F160073F
:1042E800A2465AF8042F29491B4806F0DDFE574517
:1042F800F7D1274B27491A681748099306F0D4FEC7
:104308000021099B44F8041FA7424FF00002F9D18D
:104318001A60D4E73A2802D1FEF70CFB1AE73F28C7
:1043280002D1FEF711FB15E721287FF413AFFEF742
:10433800D5FB0FE7E01B02209C24022068580020D0
:104348009E2402208024022090240220A0240220FF
:10435800101F0220781E0220C81B0020000D00201C
:10436800240D0020480C0020280D00202C0D0020D2
:10437800300D0020A4240220E41E0220380D002065
:10438800741E02204C0D0020101F0220400D00203A
:10439800041F0220480D0020DC1B02200C1F0220F5
:1043A80010B50B4C23682BB9012006F07FF8236861
:1043B800002BF9D0FFF702F8FFF748F80B21054862
:1043C80005F002FA0448BDE8104006F053BE00BFED
:1043D800741F0220540D0020C81B00202DE9F04353
:1043E800474D87B040F2EE28464C2E68464FDFF81E
:1043F8001C9104E0B3F5FA6F15D806F0A5FC06F099
:10440800A3FC237843B13B78DA0705D52B68D9F8A4
:1044180000209B1A0E2B06D82B6822789B1B002A9B
:10442800E8D14345E9D9DFF8D880374E374F2A68B5
:1044380042F20F739A4210D806F086FC2378002BBC
:10444800F5D03378DB07F2D5D8F800303A689B1AF4
:104458000E2BECD92E4B01221A602E480EF0DCF8F8
:10446800002848D113211220FEF7E8FC10212A4821
:1044780005F0AAF9294806F0FDFD04A8FEF7E0FCBE
:1044880030B91421264805F09FF9244806F0F2FDBA
:104498009DF9150001249DF913109DF917609DF9E8
:1044A8001650BDF910209DF9123001900091039625
:1044B8001C490295194806F0F7FD184806F0DAFD80
:1044C8000B21194805F080F9144806F0D3FDFFF7D1
:1044D8000FF90A21154805F077F9104806F0CAFDCA
:1044E800134B1C60FFF75CFF21460D2006F064FAB1
:1044F80007B0BDE8F083094906480EF091F8B1E726
:1045080080240220BF240220BE2402202825022065
:1045180090240220BC1B0020600D0020C81B002036
:10452800740D00208C0D0020B40D0020C00D00205B
:10453800741F022070B440F20125046825611BB382
:104548001E46F1B10D780131013B6566256FAD0757
:1045580006D4656F013EEDB212B1157001320468E0
:104568006569ED07F2D5002BEBD16EB101680B6FD1
:104578009B07FCD44B6FDBB20AB113700132013ECA
:10458800F3E790F83C50DFE770BC70470BB1FFF7DA
:10459800D1BF7047436893E806000968114200D10B
:1045A800704710B502680446002005211061227C7E
:1045B8001344187C06F000FA6268637C05211344F2
:1045C80093F8240006F0F8F96268A37C05211344E7
:1045D800BDE8104093F8380006F0EEB970B504460F
:1045E800406804F110060368A16832461B6A9847C0
:1045F80040B1237805469A0707D423F001032846DB
:10460800237070BD0025284670BD60683246E16899
:10461800A668036831441B6A98470028F2D02378BB
:10462800EBE700BFF8B54368FBB18368044615465D
:104638000F468B420ED00378DA0712D46B0716D5D3
:1046480004F11006002205F003053046A760154363
:104658002570F8BD10F9102B05F0030515432570DA
:10466800F8BDFFF7BBFF0028E8D10020F8BD60685F
:1046780004F110063946036832461B69984700283A
:10468800E0D1F2E70378DB0701D401207047FFF798
:10469800A5BF00BF69B170B5054608460C4607F0CE
:1046A80017FF2B680246214628465B68BDE8704024
:1046B80018470846704700BF53682DE9F0419668CF
:1046C80003F10F0731F8020FB34203F10103C4B23B
:1046D8001FD07E28A4F16105536012D813F8010C8D
:1046E800A4F1200CA0F1610EA0F12008BEF1190F71
:1046F80098BF5FFA88F0192D98BF5FFA8CF484424E
:1047080002D00020BDE8F081BB42DBD10120BDE82A
:10471800F081B0FA80F04009BDE8F081F0B40F688C
:104728008D684F60BD4222D0384600230130DA033D
:10473800486042EA530210F8013CA3F16104A3F176
:104748002006192C98BFF3B2854213449BB24FEA56
:10475800C33242EA53039BB2E8D1ED1B681EFE2820
:104768008CBF00200120CD600B82F0BC7047002078
:1047780005460346F7E700BFF0B500F1240385B00E
:1047880005460E4601AC174693E8070084E8070083
:1047980072012146286A00F05FFD012806D13A46D9
:1047A8002146286A00F01CFD05B0F0BD002005B0C8
:1047B800F0BD00BF10B5044600F076FF002384F872
:1047C800313084F8333010BD90F831200AB1002020
:1047D800704738B50D4611463822044607F05EFB8F
:1047E80040230120256284F8313084F8330038BD35
:1047F8002DE9F04198460B78202B03D111F8013FA1
:10480800202BFBD00B46DFF880C0116091601C782C
:104818004FF0010E1E46A4F122052F2C18BF002CC4
:10482800A4F120077344EDB219D05F2F2CFA05F6D6
:1048380004F0BF0194BF002701271D2D06F00105D4
:1048480098BF85F0010E77451AD23C2918D05C2C08
:1048580016D02E2CDBD0202CD9D09360D7E7202C73
:1048680001D02F2C05D116F8013F202BFBD02F2B80
:10487800F9D0C8F800601146BDE8F041FFF74EBF17
:104888000020BDE8F08100BF010100312DE9F04FA3
:1048980090F8333083B00546DE0760D55C060E46D7
:1048A800914640F1BD80D5E90001D5E9042310EB1C
:1048B800090A41F1000B5B4508BF5245C0F0B680BC
:1048C800B9F1000F74D0AA464C4640F2FF17FAE837
:1048D80006012B6AD3F8382402EA0008C8F3080B4B
:1048E800B8F1000F6AD150EA010279D195F8312068
:1048F80051064CBFD3F83414E969A9614FEA58202E
:104908000239D3F82C24BC4293F845E4024401FA56
:104918000EF111442ED9BBF1000F2BD1D3F8182278
:10492800914227D0B4F5806F61D34FF0010C4FEA64
:1049380054280CFA0EFEC0EB0E00804528BF8046B6
:1049480091423DD801EB0800824239D203F5047048
:1049580001910093FFF796FE009B019980BB95F8A3
:1049680032304FF0FF3043F0020385F8323003B0A5
:10497800BDE8F08F03F504700022FFF753FE00280E
:10498800EDD0CBF5007800EB0B013046A04528BFF1
:10499800A046424604F050FB404600214644D5E973
:1049A800002380185941B4EB0804C5E9000190D1EF
:1049B8000024C4EB090003B0BDE8F08FA9699DE7A6
:1049C800D3F8140232464346D0F800E0DEF814B0BB
:1049D800D8470028C3D04FEA482800214046DDE7E1
:1049E80095F83320520610D5A969013185E7D3F827
:1049F8001402324603681B6998470028AFD04FF469
:104A0800007000214FF40078C8E718465246A9699B
:104A180000F002FC0028A2DB0BD02B6AA9696DE725
:104A280090F8313018073FF53EAF49E7C0EB02096F
:104A380046E795F8313013F0500FBAD18FE700BF31
:104A4800F0B583B00122044685690DF10701D0E96C
:104A58000067FFF71BFF0128A5610CBF9DF8070041
:104A68004FF0FF30C4E9006703B0F0BD2DE9F04F07
:104A780090F831E085B004468569BEF1000F36D064
:104A880016461F46D0E90001994208BF904265D0FA
:104A980056EA070330D10023A3610120C4E9006767
:104AA80005B0BDE8F08F10F1FF3241F1FF3322FA73
:104AB8000CFC03FA08F823FA0AFA50EA01034CEA54
:104AC800080C4CEA0A0C4BD0E34549D3CCEB0B0B52
:104AD800A94604F118085D464246002DDDD0A169BB
:104AE800013D206A00F098FB0028F5DC4D460020C7
:104AF800A56105B0BDE8F08F1EF0080F27D1236A25
:104B080016F1FF3893F845C447F1FF39C2460393BD
:104B18000CF1090CCB4694F833905FFA8CFC19F031
:104B2800400FCCF120082AFA0CF2CDE900AB019B2A
:104B3800ACF1200A03FA08FB23FA0AF342EA0B0253
:104B480042EA030BAFD0E3695B44A361A5E7D4E96C
:104B58000423BB4208BFB242C9D3D0E70120C8E74B
:104B68001EF0400F02D1E369A361B1E7039BD3F8BC
:104B78003434F9E72DE9F04F9B4690F831308FB087
:104B880080462BB991F831300C4613F0500F08D1FC
:104B98000023184688F8313088F833300FB0BDE864
:104BA800F08F0BF003039146012B21D0022B00F06C
:104BB8000881002BECD101220BF008031343029368
:104BC800B9F1000F1CD0D9F80C30C24D0E33A5FB3B
:104BD8000335D4E90023ED08134305F10205EDB2CE
:104BE8000FD0002100220023A161C4E9002308E0BE
:104BF80002220BF0080313430293B9F1000FE2D12C
:104C080003250026029B374643F0400303932022E6
:104C180006A92046FFF73AFED0B12028B8D19DF862
:104C280018301A0640D427B92268D4F818A0203AB8
:104C38000192AF4201D20137FFB2002B00F0C380CE
:104C4800202206A920460026FFF720FE0028E4D1EE
:104C58001BF4007F9CD0029B9A0799D5B9F1000FED
:104C680096D0AF4280F0B780019E0AE020288FD10D
:104C78001FB92668D4F818A0203EDFB2BD4240F222
:104C8800A980202206A92046FFF700FE7B1C0028E9
:104C9800ECD12046D4F818B000F036FD00283FF4D7
:104CA80077AFC4F818B0E9E74EBBAF4238BF00276A
:104CB800852BACD1314638224046012607F0EEF864
:104CC8009DF81C309DF8192088F8302003F0370231
:104CD800DB0658BF42F0080288F831202368226AB0
:104CE800A169203BC8F82020C8F82830C8F824104B
:104CF80094F83330C3F3801388F82C3087E7C02B3F
:104D080031D0C12B9CD14A4606A94046FFF7D4FCB6
:104D180000285DD0D9F80420D9F808309A427FF4E9
:104D280076AF1BF4006F7FF433AF1BF4884F40F06D
:104D3800A88098F83330980700F1A3801BF4806F9F
:104D48007FF426AF1BF4804F40F0BB8098F83330D7
:104D58009B0740F1B48098F83130012043F02003DC
:104D680088F831301AE79DF819309DF808209E0719
:104D780088F8332003D59DF80C3088F833300B9928
:104D8800DDE90823C8F81C10DDE90C01C8E9042393
:104D9800C8E90201B9F1000FC3D09DF81B30D9F85A
:104DA8000C20D9F800109A42C9F804107FF448AFD3
:104DB800BDF81C60B9F81030F61AB6FA86F676090E
:104DC80025E7032215E7B9F1000F7FF441AFDFE6CD
:104DD80006461CE7019638220021404694F83360C5
:104DE80007F05CF8226A2823C6F38016C8F820204A
:104DF800019A88F82C60C8F824A0C8F8282088F8F8
:104E08003130D9F80030C9F80430B5B300276C1E2A
:104E1800314EBB46E4B2012259464046FFF7ACFC8E
:104E2800824600283FF4B4AE90F90030002BFFF61C
:104E3800AFAE2022002107F031F8002F61D0BBF17E
:104E4800010F4BD0C12352460AF11E0E8AF80030DA
:104E5800D9F80430D9F80800834203F1010307D0D8
:104E6800C9F8043013F8011C22F8021F7245F3D167
:104E780001375FFA87FBAB45CDD3404600F014FC01
:104E88008CE698F8313013F0110F7FF481AE1BF4E3
:104E9800806F3FF457AF98F8333099077FF578AEB5
:104EA800002200234046FFF7E1FD00283FF470AEE2
:104EB800404600F013FD00283FF46AAE46E70120A3
:104EC8006CE64046D8E90423FFF7D0FD00287FF4BC
:104ED8003DAF5DE689888888981B0220029BC02226
:104EE8008AF801B063F07F038AF8002088F833302D
:104EF800D9F80C308AF80330B9F81030AAF8043021
:104F0800B6E785238AF8003088F830408AF80140EF
:104F1800336893B10DF113020DF1160105A89847F6
:104F2800BDF81410BDF816209DF81330AAF80A1021
:104F3800AAF808208AF814309AE745F22163AAF8FB
:104F48000A30AAF80E30AAF8123091E72DE9F0439A
:104F5800064697B000200D4696F8311001928DF85C
:104F680051008DF852008DF8530029B9994695F8EB
:104F7800313013F0500F03D1002017B0BDE8F08393
:104F8800137814462F2B32D04FF00008214601AB7E
:104F980003AA3046FFF72CFC0028EDD0019B1B78B4
:104FA800002B39D02946002303AA3046FFF7E2FD3B
:104FB8000028E1D0344608AF06F1300E20681034DE
:104FC80054F80C1C3D4654F8082C103754F8043C8F
:104FD80074450FC5F2D1206808AD3860304600F03E
:104FE80063FB86F8318086F83380019CCEE7013474
:104FF800019421782F29FAD0B9B108A838220021C4
:105008002F6A054606F04AFF4022012310978DF8C3
:1050180051208DF85330B7E74B4603AA294630464E
:10502800FFF7A8FD17B0BDE8F083382230462C6A98
:1050380006F034FF40230120346286F8313086F8C8
:1050480033009AE719B101F58961FFF77FBF084678
:10505800704700BF38B50C46D0F82414154600F543
:105068000470012201EBD411FFF7DCFA034628B1E2
:10507800A4000120C4F308041D5138BD38BD00BF89
:105088002DE9F84F804691468B46002943D08F1E64
:10509800D8F830349F423AD207F007050123C7F306
:1050A800C80A03FA05F5EDB23E463C46D8F82C147A
:1050B8000022404601EB1431FFF7B4FAC0B110F8F2
:1050C8000A100AE04A4529D0A74210D0D8F830245F
:1050D800944216D213F0FF050CD001340D424FEA6A
:1050E8004503A4EB0602EDD0A7422646EED10120E7
:1050F800BDE8F88F0AF1010A0125BAF5007FDED173
:1051080001E0002634464FF0000A0125CEE70027CB
:105118000125BA46C8E7D0F82074B9E7BBF1000FFB
:1051280004D1B9F1010F08BFC8F82064B01CBDE86C
:10513800F88F00BF2DE9F047023915469A46D0F896
:1051480030244B19934238D88046BAF1000F37D132
:10515800D0F82034994238BFC0F8201401F0070471
:105168000122D8F82C34C1F3C80602FA04F403EB80
:105178001139E4B20122494640469144FFF752FAF8
:10518800D8B1871900F5007017F8012B224282EA7E
:1051980004024FEA440414BF0126002656450CD0E9
:1051A800013D07F8012C17D014F0FF04EED1874217
:1051B80026464FF00104E7D1DCE70020BDE8F08780
:1051C800D0F820048342C9D98142C7D8934228BF66
:1051D8000023C8F82034C1E70120BDE8F08700BFEC
:1051E80070B50E460446D0F8385400F50470496886
:1051F80033682940D4F82C54023B94F8454405EB15
:105208005121A3401944FFF70DFA18B17368C3F38D
:105218000803184470BD00BF38B5D0F830340133E6
:105228008B4216D30C46D0F82414154600F50470AA
:10523800002201EBD411FFF7F5F950B1A100C1F339
:10524800080143585A1C02D02B60012038BD0020A9
:1052580038BD4FF0FF3038BD70B54C680D46D0F8FA
:1052680038340646A1182340696090F845441A442A
:105278000934E4B222FA04F43CB12B7A3BB12B682E
:1052880001332B60013C002CF7D1012070BD2A4668
:1052980029683046FFF7C0FF0128F3D070BD00BF72
:1052A80001290DD9D0F830340133994210B403D90B
:1052B80000205DF8044B70475DF8044BFFF7CABE49
:1052C800002070472DE9F0410C4682B0054688461B
:1052D800214601AA2846FFF79FFF012C0746C0F385
:1052E800C0162146284626D9324626BBD5F8303482
:1052F80001339C421FD8FFF7ADFE04F1010E414671
:105308003346C8EB0E02B0B1284647B1019CA6450A
:10531800DED0FFF70FFF70B1019CA046D8E7621CF2
:105328003B4641462846C8EB0202FFF703FF10B18F
:1053380002B0BDE8F081002002B0BDE8F08100BFF6
:10534800F8B504464FF0FF350020C4F840146160FA
:10535800C4F8141284F84404207084F81002A5607C
:10536800C4F81852E2B1042A164601D90020F8BD43
:1053780004F50475024601462846FFF753F900284C
:10538800F4D06FF0704300F5DF7033441B01C2188E
:1053980011790029EAD0C35C5B06E7D1976802E07F
:1053A8001F4604F50475284600223946FFF73AF9E6
:1053B80006460028DAD005221A49033007F0F6F825
:1053C80086460028D2D196F86C30092BCED1336DA1
:1053D8000125014620463B442A46C4F82434736D0F
:1053E800C4F82834B36D3B44C4F82C34F36DC4F8C6
:1053F8003034336EC4F8343496F86D60C4F820E461
:1054080006F1090384F8456405FA03F35E1EC4F83F
:105418003C34C4F83864FFF733FE4023284684F848
:105428004434F8BDCC0D002070B582B0D0F83414E7
:105438000546002402AE46F8041D01E009D0019992
:1054480032462846FFF7E8FE002804F10104F5DAA1
:10545800002495F845040930C0B204FA00F002B0FF
:1054680070BD00BFF0B500258FB000F589640A460D
:105478002B46684621468DF831508DF832508DF80C
:105488003350FFF763FD0646B8B19DF8313013F08D
:10549800500315D06D460DF1300E2F4610341035DF
:1054A8000FCF774544F8100C44F80C1C44F8082C2E
:1054B80044F8043CF1D12868206030460FB0F0BDB4
:1054C8001E4630460FB0F0BD8169F8B50446006A43
:1054D80001B101310122FFF7D3FD012806462ED97B
:1054E80001230146206A1A46FFF724FE074630B317
:1054F800A3693BB394F83320510612D5591C8E4248
:1055080026D022F04002E16984F8332005E0206AC1
:10551800FFF7C6FE294690B1A3694D1C99422A4659
:10552800F5D34FF0FF323146206AFFF7B9FE30B1AC
:10553800A16969B13246206AFFF7B2FE40B9002777
:105548003846F8BD94F8333043F0400384F83330DC
:10555800A6613846F8BD00BF2DE9F043002583B0A9
:105568000746DFF84091A846002229463846FFF74B
:1055780003F9044630B10378C02B74D0C12B2CD06A
:10558800852B09D097F83230002043F0010387F8C3
:10559800323003B0BDE8F08397F83130D9F80060B5
:1055A80003F03703838086B10DF103020DF1060184
:1055B80001A8B047BDF80620BDF804309DF80310D7
:1055C800A28161752282E38163823A6A92F810327D
:1055D80043F0010382F8103223784FEAC830A3F170
:1055E80085060022012140EA5808B6FA86F613FA21
:1055F80088F376091FFA83F80A444FEAC83303216F
:105608001F2A43EA58030AD8A05C012A10FA83F338
:105618001FFA83F801D1002EEED10121ECE7013504
:1056280097F83030EDB2AB429ED2012207F1240147
:10563800386AFFF7D5FD0028A4D03C6AA0F802809C
:105648002046FFF71FF800289CD004F50470FFF7E8
:1056580019F8002896D0D4F840040368DB69984705
:1056680000288FD095E797F8333013F0400F437830
:1056780014BF43F0020323F002034370386AF96948
:10568800D7E904236161C4E90223D7E90223C4E905
:10569800062390F8103243F0010380F81032237883
:1056A8009BE700BF981B022090F8312092B138B5D3
:1056B80090F8332011060FD4056A04462846FEF7F1
:1056C800E1FF88B994F83230002043F0010384F8F0
:1056D800323038BD0120704702F07F0280F8332055
:1056E800BDE83840FFF738BF05F50470FEF7CAFF7C
:1056F8000028E7D0D5F840040368DB6998470028FC
:10570800E0D0012038BD00BFF8B590F8313005462B
:105718005A064FD480682B6AD3F83C341844B0F149
:10572800806F01D30020F8BD2846FFF7CDFE002882
:10573800F8D0286A0122AE6990F84534023ED0F8C4
:105748002C149E4012FA03F30E4415D0002431198C
:10575800052200F504700134FEF764FF4FF400726F
:1057680000210028DED006F099FB286A012390F872
:1057780045249340A342EAD895F831305B0614D407
:1057880095F83330002763F07F0385F83330D0F87D
:105798003C64D5E90223D5E9040192197B418019BB
:1057A8007941C5E90223C5E904012846BDE8F84066
:1057B800FFF77ABF006AFFF737FEACE710B591F83C
:1057C800314014F0500F01D1002010BD40F60223E3
:1057D8000446FFF7CFF90028F6D03023204684F896
:1057E8003130FFF791FF0028EED0A1690023204651
:1057F8000022E161FFF73AF9C123204684F83330EB
:10580800BDE81040FFF750BF2DE9F041064696B0BD
:1058180000200C4696F8311001928DF851008DF851
:1058280052008DF8530029B9984694F8313013F096
:10583800500F03D1002016B0BDE8F081137811464F
:105848002F2B34D001AB03AA3046FEF7D1FF002836
:10585800F0D0019B1B78002B37D0002303AA2146E8
:105868003046FFF787F948B9B8F1000FE2D0214672
:1058780003AA3046FFF7A2FF0028DBD0344608AF62
:1058880006F1300E2068103454F80C1C3D4654F8CC
:10589800082C103754F8043C74450FC5F2D1206821
:1058A80008AC38603046FEF785FF0199CAE7013138
:1058B80001910B782F2BFAD0216A08A8FEF784FFF4
:1058C8000028B7D008AC0199BCE703AA21463046A6
:1058D800FFF774FF16B0BDE8F08100BF90F83330D1
:1058E8009A0718D5F0B5C56983B08DB103F04003A8
:1058F800044603F0FF0683B98169002942D1019566
:10590800C1612946206AFFF7DDFC38BB002000E0B2
:10591800012003B0F0BD00207047006AA16990F82B
:105928004524D4E90267093216F1FF36D2B247F1AD
:10593800FF37C2F1200EA2F1200326FA02F207FA7D
:105948000EFE27FA03F342EA0E021A430132B1B1FE
:10595800013D4B1C691A01930A4402BB94F8333089
:105968002046D4E9006763F07F03C4E9026784F83E
:105978003330C4E90467FFF797FE03B0F0BD019523
:10598800E161EAE702AA006A42F8046DFFF744FC05
:105998000028BBDB0AD1019D002DDFD0B1E7002331
:1059A8000199FFF7C7FB0028D8D1AFE74FF0FF32C6
:1059B800A169206AFFF774FC0028ECD1A6E700BFB4
:1059C8002DE9F04F90F8333083B004469D070092DC
:1059D80040F1B3801A07884600F1A880009B002B8D
:1059E80000F01D812146009D4FF0010AF1E80623D1
:1059F80093460191206AA169D0F8386406EA0B063B
:105A0800C6F3080956BB002900F0CC8094F833305F
:105A18005B0640F1E08090F84524E3690932D4E957
:105A280002BCD2B21BF1FF3BC2F1200EA2F120074B
:105A38004CF1FF3C2BFA02F20CFA0EFE2CFA07F797
:105A480042EA0E023A431A449142C0F0C18020460D
:105A5800FFF73AFD002870D0206AA169760A02395A
:105A6800D0F82C7490F845E4374401FA0EF1394423
:105A7800B9F1000F6BD1B5F5007F2CBF00220122D0
:105A8800002A64D1B5F5806FC0F090800AFA0EFE46
:105A98006B0AD0F818C2C6EB0E06B34228BF3346CD
:105AA80061454FEA432708D85E18B44505D24FF040
:105AB800FF3680F81022C0F81862D0F81402424667
:105AC8000668766AB047002837D038460021B844BF
:105AD800ED1BD4E90023D4E9046712EB000B43EB78
:105AE800010C674508BF5E45C4E900BC07D294F8BD
:105AF800331061F07F01C4E904BC84F83310002D31
:105B08007FF478AF5A466346D4E90201994208BF48
:105B1800904278D3434B1B68002B7ED094F83330E7
:105B2800009863F07F0384F833300DE0D0E9042354
:105B3800FEF79CFF00287FF451AF94F83230002024
:105B480043F0010384F8323003B0BDE8F08FB9F1B7
:105B5800000F25D1D4E90423D4E900679F4208BF88
:105B6800964234BF0122052200F50470FEF75AFD63
:105B78000028E2D0C9F5007748444146AF4228BF23
:105B88002F46B9443A4603F057FAB9F5007F9CD13D
:105B9800206A00F50470FEF775FD002895D1CCE762
:105BA8000122E1E7E169F1B1A16157E7D0F81832C4
:105BB800994221D0D0F81402424603681B6A9847DC
:105BC8000028BAD04FF4007000214FF400777EE728
:105BD8000131A16142E7019AFFF71EFB0028ACDB07
:105BE8007FF43AAF33E72046FFF76EFC0028A4D0D5
:105BF800A169206AE16131E74FF0FF3380F8102294
:105C0800C0F81832D6E794F83310009861F07F0195
:105C1800C4E9022384F8331096E7009894E7D4E99E
:105C2800002371E7981B0220042A0BD90A2A05D9F8
:105C38000C2A0CD801EB4202D088704701EB4202D3
:105C48009088704701EB4202B2F8010070470020CB
:105C5800704700BF38B50D4604462422002106F0DF
:105C68001DF9A560EB79102B08D0202B04D18023D7
:105C780001202370A07038BD002038BD40230120CA
:105C88002370A07038BD00BF024638B552F8105FC7
:105C980004468068294600F083FD50B155B1236958
:105CA8000135AB42A37818BF03F0BF0363F07F034D
:105CB800A37038BDA37843F04003F7E7F8B503783D
:105CC80003F040032BB903F0FF044169194B9942D3
:105CD80002D900263046F8BD0546FFF7D5FF06462F
:105CE8000028F6D0A8682F698379023F42690179B4
:105CF8009F40174441B913E006F0D0F80134A86872
:105D0800E4B20379A3420AD90522E1192430FEF747
:105D180089FC4FF4007200210028EDD1D9E783797E
:105D28004FF40072696902FA03F311FA83F36B61A5
:105D3800D0E700BFFFFD1F0010B5044680680A4683
:105D48002430A169FEF76EFC20B1A38803F00F038D
:105D580000EB431010BD00BF30B590F9023083B09E
:105D68000446002B19DBA56805F12400FEF78AFC20
:105D780030B96378002043F00103637003B030BD8D
:105D880005F50D70FEF77EFC0028F2D02868036840
:105D9800DB6998470028ECD0F0E70121FFF7CCFF3A
:105DA80005460028E5D00378E52BE2D0237803F0F8
:105DB8003703C37223781B0701D5E369C361236ADC
:105DC8000B491A0C6B830B68AA8263B10DF10302AD
:105DD8000DF1060101A89847BDF80430BDF806206A
:105DE8002B836B82EA82A37803F07F03A370BAE760
:105DF800981B022010B50378044623B9002301201C
:105E08002370A37010BDFFF7A7FF00232370A370B2
:105E180010BD00BF2DE9F0410C7888B014F0D00F08
:105E280003D1002008B0BDE8F08140F60223054602
:105E38000C4600F0C5FF0028F3D0012210232846A5
:105E4800AA702B70FFF73AFF0028EAD02A692B784E
:105E58002A62002B7FD101212846FFF76DFF0746F4
:105E68000028DED0102300687968EE46FB724FF0F8
:105E78002E0CBA6808AEFB68B7F81480AEE80F00BD
:105E8800BA69FB693869796906F820CD0DF10A0C01
:105E98007F8BAEE80F003346202203F8012F6345BD
:105EA800FBD1A86801222B6A90F806E02430023B57
:105EB80050F8101C03FA0EF31944FEF7B3FB86469C
:105EC8000028AED0ADF814804FF02E08ADF81A7047
:105ED80037460FCECEF80000CEF80410CEF80820D2
:105EE800CEF80C308DF801800FCECEF81000CEF829
:105EF8001410CEF81820CEF81C30236A1A0CADF80E
:105F08001A30ADF814200FCFCEF82000CEF82410A8
:105F1800CEF82820CEF82C300FCFCEF83000CEF8AF
:105F28003410CEF83820CEF83C30AC6804F12400A8
:105F3800FEF7A8FB00283FF474AF04F50D70FEF7D8
:105F4800A1FB00283FF46DAF20680368DB6908B047
:105F5800BDE8F04118476B6933B1AB78002223F0F4
:105F680020032A616A61AB702846FFF7F5FE002816
:105F78003FF457AF6FE700BF2DE9F041064694B0F4
:105F880000200C46317801928DF82C008DF82D00F8
:105F98008DF82E0021B99846237813F0D00F03D13D
:105FA800002014B0BDE8F081137811462F2B2ED0B5
:105FB800002701AB03AA304601F05AF803AA21468C
:105FC80000230028ECD0019D30462D78002D30D0DC
:105FD80000F0F6FE48B9B8F1000FE1D0214603AA57
:105FE8003046FFF717FF0028DAD035460BAC96F895
:105FF80000E00FCD0FC40FCD2D680FC42560BEF192
:10600800000F12D137700BACB7700199D1E701318D
:1060180001910B782F2BFAD0A1680BA8FFF71AFE75
:106028000028BDD00BAC0199C2E73046FFF794FEBB
:10603800E8E703AA21463046FFF7ECFE14B0BDE8B6
:10604800F08100BF2DE9F041064694B000200D46CE
:10605800317801928DF82C008DF82D008DF82E00E6
:1060680021B998462B7813F0D00F03D1002014B033
:10607800BDE8F081137811462F2B2AD0002702E0C3
:1060880001993770B77001AB03AA304600F0F0FFF2
:1060980003AA294600230028E8D0019C304624782A
:1060A80034B300F08DFE35460BAC0028DED096F8F0
:1060B80000E00FCD0FC40FCDD5F800C00BAD0FC455
:1060C800C4F800C0BEF1000FDAD03046FFF744FE36
:1060D800D6E7013101910B782F2BFAD08BB1A96843
:1060E8000BA8FFF7B7FD0028C0D00BAD0199C5E795
:1060F800434603AA2946304600F062FE14B0BDE8C4
:10610800F081A9683046FFF7A5FDB0E719B101F2A3
:106118004441FFF797BF0846704700BF03780BB1AB
:1061280000207047FFF796BD2DE9F04F837883B0C4
:106138000546DF0740F190800F46017891460E072B
:1061480000F193804C0608D5826843691289C3EB35
:1061580042139BB2994528BF9946B9F1000F00F048
:10616800AA806B6948064E464FF0000805F1100AF0
:10617800AA68C3F3080440D5116A01EB5321002C27
:1061880054D1B6F5007F51D3D36A99424ED0B6F5B3
:10619800806F73D328784FEA562B400605D41079C0
:1061A800C8EB0000834528BF834699424FEA4B2439
:1061B8000DD801EB0B00834209D202F124000191B2
:1061C8000092FEF75FFA009A0199002844D0906A7D
:1061D8005B463A46D0F800E0DEF814B0D84700280D
:1061E8003AD06B69361B274423446B6163D0297806
:1061F800C3F30804AA684806BED492F8058008EAE2
:106208005328002C38D1B8F1000F35D1002B3FD1DD
:1062180008064CBF136A2B6A2B619179023B5069BF
:106228008B4008EB00011944002CAAD002F124008D
:106238000022FEF7F7F978B1C4F500730119384662
:10624800B34228BF33461A461C4602F0F5FEC8E79B
:106258002B7813F0D00F2FD16B784FF0FF3043F02D
:1062680002036B7003B0BDE8F08FC36942699B1AE3
:10627800994528BF994670E72B69CEE7906A3A4658
:1062880003681B6998470028E6D04FF40074A8E714
:10629800090705D5AB785B0602D52B690133BBE747
:1062A80010462969524600F00DFA0028D4DBCFD0F9
:1062B800AA682B69B1E70026C6EB090003B0BDE860
:1062C800F08F00BF70B582B00122044646690DF117
:1062D80007010569FFF728FF012866610CBF9DF8D3
:1062E80007004FF0FF30256102B070BD436930B53B
:1062F800C3F3431583B00446B5FA85F252098A42BE
:1063080007D220334361A068343000EB451003B056
:1063180030BD01220DF10701FFF706FF40B2012849
:1063280003D163691F336361EDE70020EFE700BF26
:106338002DE9F041037804460769B3B10D46416978
:10634800A9422CD045B98378056123F02003656103
:106358000120A370BDE8F08118070AD45A060BD5AE
:10636800A3681B89B5EB431F30D927610020BDE81E
:10637800F081E2699542F8D8D4F808E06E1EA27858
:106388009EF8060012F0400F00F10900C0B226FA8C
:1063980000F607D0216A13460E442661D5E701208E
:1063A800BDE8F0814A1E22FA00F0864210D379B186
:1063B800361A04F1100806E02169013EA06800F0D1
:1063C80081F90028D1DD4246002EF5D1A378BCE73B
:1063D8001B064CBFDEF82030236A2361E9E700BFC3
:1063E8002DE9F0410D4690460021242204461F461F
:1063F8009DF8186005F052FDA86808F00F03296A97
:1064080000F13402A060E16002EB4312A4F80480BA
:10641800D17A0D0711D401F037012170D37A13F026
:10642800180F02D141F00801217007F00303E6704C
:10643800012B08D0022B2ED043B30023237018461B
:10644800A370BDE8F0810223A370217811F0110F29
:10645800F3D141F0200507F4806E59B2257007F09A
:1064680008030B43DBB2A370958A518BC66A41EAD5
:106478000541A661BEF1000F10D0D1B963F07F03CA
:10648800A3707B040ED40120BDE8F08117F4806E60
:10649800D3D10121E3E70323A370D6E72162D369AF
:1064A800E361EEE7E1692046FFF742FF0028EAD101
:1064B800C3E700F0B7F90028BFD0A378DEE700BF34
:1064C80003780BB1FFF748BC012070472DE9F84F5E
:1064D800837805469C076DD590461A070F4664D405
:1064E8006A69D343984565D8B8F1000F00F0D080A9
:1064F80046464FF0000A4FF0FF393CE0BBF1000F71
:1065080040D1296900297ED0AB785B0640F19B8099
:10651800EB69934240F297804B1C01392B6190F84C
:1065280006E0436901FA0EF123441944B6F5007FE9
:1065380047D2B6F5007F344628BF4FF40074EB69A4
:10654800934202D9AB789B062DD505222430FEF75D
:1065580069F878B35844A3442246394602F06CFDE2
:10656800BBF5007F00F08C806A69361B2744224403
:106578006A6100F08D80A868C2F3080B447914EAB8
:106588005224BBD02B6990F806E0991E436901FAA2
:106598000EFEE1187144BBF1000FC7D0CBF50074B3
:1065A800B44228BF34460122D0E7C169FFF7C0FED4
:1065B800002895D16B78002043F001036B70BDE88B
:1065C800F88FB6F5806F31D390F804E0730AC26A89
:1065D800C4EB0E04A34228BF23468A424FEA432451
:1065E80007D303EB010E724503D280F824A0C0F84C
:1065F8002C90806A3A46D0F800E0DEF824B0D847FC
:106608000028B1D1D6E7296A61B3296102398279B4
:106618004369B6F5007F01FA02F11944D1D2CBF5EE
:1066280000746A69B44228BF344688E7C36A8B425B
:1066380021D0806A3A4603681B6A98470028B9D077
:106648004FF4007490E705F1100200F03BF80028C1
:10665800B0DB04D12846FFF717FB0028AAD0296928
:10666800A868D3E72846FFF70FFB0028A2D02969BE
:10667800A8682962CAE780F824A0C0F82C90D8E757
:10668800A8682430FDF7FEFF00287FF46DAF91E77E
:10669800EB6993420CD30A4B1B6833B1AB78404685
:1066A80063F07F03AB70BDE8F88F4046BDE8F88F14
:1066B800AB784046EA6163F07F03AB70BDE8F88FC2
:1066C800981B0220012933D9C369994230D870B583
:1066D800C379164605460C46202B1AD0102B15D127
:1066E8008369C1F30721022200F50D701944FDF7F3
:1066F80099FF58B1610001F4FF71435AEA69934266
:1067080002D83360012070BD002070BD4FF0FF300B
:1067180070BD8169022200F50D7001EBD411FDF7FF
:1067280081FF0028F2D0A10001F4FE714358E5E78B
:106738004FF0FF30704700BF01291ED938B5C36933
:10674800994206D8C37915460C46202B17D0102B32
:1067580001D0002038BD8369C1F3072100F50D7011
:1067680003221944FDF75EFF03460028F1D06100BB
:10677800012001F4FF715D5238BD00207047816926
:10678800032200F50D7001EBD411FDF74BFF034612
:106798000028DED0A100012001F4FE715D5038BD53
:1067A8002DE9F041C46882B005460F468C429046F8
:1067B80035D20C4600260134EB6901AA28469C42D2
:1067C800214608D936BBEC68012601AA28460134BF
:1067D8009C422146F6D8A7421CD0FFF773FF002839
:1067E80018DBE8D0019B002BE5D106B1EC606FF017
:1067F800704221462846FFF79FFF064650B117B959
:10680800C8F8004007E0394628462246FFF794FFBB
:106818000028F5D10026304602B0BDE8F0810126F7
:10682800C9E700BF70B5054682B00C4609E0FFF71E
:1068380083FF621E80B1EB689C42019C38BFEA600E
:106848005EB101AA21462846FFF73CFF061E2146F5
:106858004FF000022846EADA002002B070BD00BFFF
:10686800F8B504464FF0FF3600204FF0010E2160C6
:10687800A162C4F83812C4F80CE0E07184F824006E
:1068880084F83402E662C4F83C62E2B1042A17468E
:1068980001D90020F8BD04F124060246014630461D
:1068A800FDF7C0FE0028F4D06FF0704300F5DF70EC
:1068B8003B441B01C21811790029EAD0C35C5B066E
:1068C800E7D1956802E01D4604F12406304600220F
:1068D8002946FDF7A7FE0028DBD0037C022BD8D180
:1068E800B0F80B30B3F5007FD3D1467B0023721E7E
:1068F800012E2671A37162710FD00123194600E0A1
:10690800134649005A1CC9B2D2B28E4204D0092A91
:10691800F6D1A3710020F8BDA371C78A27610FB90A
:10692800476A2761B0F81160C289710126812A443B
:1069380001F2FF1102EB4706A261B0F8132006EB43
:1069480051212662616102B9026A6D1A40F6F4713A
:106958002A4422FA03F35A1C8B42E2610AD94FF601
:10696800F47293420AD81023E37127630120C4F814
:106978004072F8BD0C230020E371F8BDC26A2023E1
:106988002262E371F1E700BF70B500258AB000F21A
:1069980044440A462B4601A821468DF804508DF838
:1069A80005508DF80650FFF74DFB064658B19DF887
:1069B800043013F0D00309D001AD0FCD0FC40FCDB3
:1069C8002D680FC4256030460AB070BD1E4630469B
:1069D8000AB070BD2DE9F04F05468BB093460646C8
:1069E8008A461F4601AC0FCD0FC40FCDD5F800E085
:1069F800DBF800500FC4CBF80450C4F800E0002FB7
:106A080041D0B9464FF00108C8EB0A0101A889B284
:106A18004901FFF78DFC48B3002101A8FFF766FC88
:106A2800074618B30024E2B239463046FFF7FCF8AF
:106A3800DBF80450DBF80830C2B2691C9D42A2F1B1
:106A4800610E22D07F2811D8A2F12003BEF1190FC0
:106A5800CBF8041098BFDAB22B78A3F16101A3F147
:106A68002000192998BFC3B2934203D000200BB06D
:106A7800BDE8F08F01340D2CD5D108F101085FFA7B
:106A880088F8C145C0D20120F1E7B0FA80F040098A
:106A98000BB0BDE8F08F00BF2DE9F04F07468BB073
:106AA800144688461E460DF1040E02F111054FF0FA
:106AB800000B0FCFAEE80F000FCFD7F800C004F1DE
:106AC8001C07AEE80F00CEF800C04FEACB1315F84C
:106AD800012F43EA5B0BBD4252FA8BFB5FFA8BFB3B
:106AE800F3D123686360002E4ED04FF0000A0125D1
:106AF80046F040095746C5EB080101A889B249018B
:106B0800FFF716FC002851D0002101A8FFF7EEFB83
:106B180000284BD0DDF80CC0AE424FF00F0200F158
:106B280004019CF8243014BFAE46CE4643F001035E
:106B38008CF824300023077380F80DB080F800E04B
:106B4800C272D4F808E047830BE00A2B03F1010373
:106B580001F10201DBB294BF21F8022C0A800D2B4F
:106B68000ED06268724513D0501C60601278042BF6
:106B7800EBD8013321F8032C0231DBB20D2BF0D115
:106B88000135EDB2AE42B6D201200BB0BDE8F08FB0
:106B9800BAF1000F06D00AF1010A4FF6FF725FFA48
:106BA8008AFAE4E752464FF0010AE0E700200BB00A
:106BB800BDE8F08F8446202062460CF11C012DE9C7
:106BC800F04752F8113BDCF8085002F8010F8A42EE
:106BD800FBD11A782E2A14BF0120002003D113F804
:106BE800012F2E2AFBD0691E99420DD915F8012CC8
:106BF8002E2A09D0AA1E02E00C782E2C04D093422B
:106C0800114602F1FF32F7D19D424FF000087DD9BD
:106C180007264FF0080E4446C14608E0994209D1BC
:106C28000A2608244FF0100E01339D4225D91A7800
:106C38002E2AF3D0222A0BD07C2A09D0A2F15B0796
